:020000040000FA
:0400000019EF00F004
:100008007A82D9CF64F0DACF65F0F3CF66F0F4CF17
:1000180067F0D3EC0BF067C0F4FF66C0F3FF65C070
:0E002800DAFF64C0D9FF7A921100C9EF0AF026
:1002000000312E506C617920612047616D650000DE
:100210000000000000000000000000000000322E7E
:100220004D6F646966792054696D650000000000B7
:100230000000000000000000000000332E53686F33
:10024000772047656E6572616C20546F7020352091
:1002500053636F7265732000342E4C6F676F757433
:10026000000000000000000000000000000000008E
:100270000000000000352E53686F7720416C6C2021
:10028000557365727300000000000000000000005C
:10029000000054494D452052454D41494E494E4775
:1002A0003A004D6F646966792054696D653A004281
:1002B0005945204259452000505357443A20005593
:0702C0005345523A200000F3
:1002C800E3D164EC0DF0B80E6B6E6C6A0AEC0EF0BC
:1002D800010E246E120010EC0EF0D8A01200010ED0
:1002E800706E000E6CEC0CF0AD0E6B6E6C6A0AEC66
:1002F8000EF05868020E246E12005804D8A409D0D3
:1003080062EC0EF00009D8B404D07984030E246E90
:100318001200020E5818D8A412007994F7D758681A
:10032800576864EC0DF0BF0E6B6E6B50D8A4020ECC
:100338006C6E0AEC0EF0040E246E120010EC0EF037
:10034800D8A01200010E706E000E6CEC0CF0B80E06
:100358006B6E6B50D8A4020E6C6E0AEC0EF0050E94
:10036800246E120010EC0EF0D8A01200000E706E71
:10037800060E6CEC0CF052EC0EF0000E286E060E19
:10038800246E12005750800A500FD8A00FD00A0EC2
:100398005818D8B40BD0575000EC0CF028C068F0AF
:1003A8005750EAEC0DF0070E246E12000B0E581889
:1003B800D8A41200F8D7070E2818D8B408D00B0E06
:1003C8005818D8B404D0282A58685768D8D7070EC0
:1003D8002818D8B404D00B0E5818D8A41200010E4F
:1003E800706E060E6CEC0CF028C068F0000EEAEC9B
:1003F8000DF058685768000E286E080E246E12001B
:100408005750800A500FD8A00FD00A0E5818D8B4E9
:100418000BD0575000EC0CF028C068F05750E2ECB5
:100428000DF0090E246E12000B0E5818D8A41200F5
:10043800F8D7070E2818D8B408D00B0E5818D8B417
:1004480004D0282A58685768D8D7070E2818D8B46F
:1004580004D00B0E5818D8A4120028C068F0000E5B
:10046800E2EC0DF058685768000E286E64EC0EF048
:1004780055EC0EF00A0E246E1200FEEC0DF0D8B00A
:10048800120022EC0EF0D8A002D0010E01D0000E0E
:10049800256E0B0E246E12000C0E246E1200000E38
:1004A800246E120064EC0DF068EC0EF0265004EC9B
:1004B8000EF0566858680D0E246E1200080E561875
:1004C800D8A405D0040E2660E7D7262AE5D7020E61
:1004D8005618D8A405D02650D8B4DED72606DCD7BF
:1004E8000B0E5818D8A413D0030E2618D8A40FD072
:1004F8006AEC0EF064EC0DF0AF0E6B6E6B50D8A486
:10050800020E6C6E0AEC0EF00E0E246E12000B0E2C
:100518005818D8A413D02604D8A410D064EC0DF031
:100528006AEC0EF0A20E6B6E6B50D8A4020E6C6EC5
:100538000AEC0EF05868100E246E12002650D8A44B
:1005480012000B0E5818D8A412006AEC0EF0586866
:1005580064EC0DF0920E6B6E6B50D8A4020E6C6EAC
:100568000AEC0EF0255026EC0EF0150E246E120043
:1005780010EC0EF0D8A012002550CFEC0DF068C09A
:100588006BF069C06CF00AEC0EF02750B8EC0DF077
:100598000F0E246E120027503CEC0DF069BE1200BD
:1005A8006B0E685C090E6958D8A0120078D710EC59
:1005B8000EF0D8B058BE47D05850800A760FD8B041
:1005C80042D0010E706E000E6CEC0CF05850300FDB
:1005D8003F6E3F5000EC0CF05868110E246E12006C
:1005E80058BE31D05850800A760FD8B02CD0585009
:1005F800300F406E405000EC0CF058683A0E00EC9A
:100608000CF0120EEBD758BE1ED05850800A760F49
:10061800D8B019D05850300F416E415000EC0CF052
:100628005868130EDBD758BE0ED05850800A760F84
:10063800D8B009D05850300F426E425000EC0CF040
:100648005868140ECBD70A0E5818D8A4120024D70D
:100658000B0E5818D8A4F7D73F0E686EC2EC0CF0F2
:1006680058681AD70B0E5818D8A412006CEC0EF064
:100678000009D8B4120010EC0EF0D8A0120064ECF7
:100688000DF0160E246E120024500001C06FC16BCD
:10069800C151000AD8A41200C051000AD8B411D61A
:1006A800010AD8B418D6030AD8B427D6010AD8B490
:1006B80036D6070AD8B442D6010AD8B453D6030AA4
:1006C800D8B460D6010AD8B476D60F0AD8B498D66A
:1006D800010AD8B4AED6030AD8B4CFD6010AD8B422
:1006E800DBD6070AD8B4DED6010AD8B4E7D6030A9F
:1006F800D8B43ED7010AD8B44ED71F0AD8B457D7B2
:10070800010AD8B46DD7030AD8B47DD7010AD8B482
:100718008AD7070AD8B49CD7010AD8B4A3D7030A42
:100728001200BDD1110E106018D078AA16D0000E94
:10073800706E000E6CEC0CF017501D0DF350010F8D
:100748000001C06FC0C06BF06B50D8A4020E6C6E75
:100758000AEC0EF0050E166E1200100E1064120050
:1007680078AA1200162A12000F0E15642BD0142A2C
:10077800542A17501D0DF350010F5424C06FC0C0E8
:10078800F6FF020EF76E0800F5500009D8A402D053
:10079800000E546E17501D0DF350010F1424C06F36
:1007A800C0C0F6FF020EF76E0800F5500009D8A485
:1007B80002D0000E146E000E156E14C012F0060E54
:1007C800166E1200100E15601200000E706E155095
:1007D8006CEC0CF017501D0DF350010F12240001A2
:1007E800C06FC0C0F6FF020EF76E0800F55000ECAF
:1007F8000CF0152A122A17501D0DF350010F122460
:100808000001C06FC0C0F6FF020EF76E0800F55079
:100818000009D8A41200000E126E1200040E176010
:1008280012D0A0D7000E166E120010EC0EF0D8A051
:1008380006D0040E176003D0070E166E120010ECD7
:100848000EF0D8A01200030E17641200EBD778A898
:10085800120078AA1200000E106E000E0F6E000E25
:10086800706E000E6CEC0CF0000E146E0F0E546ED1
:10087800000E136E0F0E536E000E156E000E126EE4
:10088800000E116E78986ED717501D0DF350010F9A
:100898001024C06FC0C0F6FF020EF76E0800F550B6
:1008A8000009D8A404D0030E176401D05BD71750F1
:1008B8001D0DF350010F1024C06FC0C0F6FF020ECB
:1008C800F76E0800F5500009D8B402D0102A1200BB
:1008D800040E1760120017501D0DF350010F10245D
:1008E800C06FC0C0F6FF020EF76E0800F550000991
:1008F800D8A412000D0E166E1200110E0F601AD039
:1009080078AA18D0010E706E000E6CEC0CF017501F
:100918001D0DF3CFC0F01D0E0001C027C051010FFF
:10092800C16FC1C06BF06B50D8A4020E6C6E0AEC9C
:100938000EF018D7100E0F64120078AA1200090ED4
:10094800166E1200100E15602DD0010E706E155027
:100958006CEC0CF017501D0DF350010F1124000121
:10096800C06F1D0EC027C0C0F6FF020EF76E08004C
:10097800F55000EC0CF0152A112A17501D0DF350F4
:10098800010F11240001C06F1D0EC027C0C0F6FF63
:10099800020EF76E0800F5500009D8A41200000EE8
:1009A800116E12000F0E15641200132A532A1750E5
:1009B8001D0DF350010F5324C06F1D0EC027C0C07A
:1009C800F6FF020EF76E0800F5500009D8A402D011
:1009D800000E536E17501D0DF350010F1324C06FF6
:1009E8001D0EC027C0C0F6FF020EF76E0800F550B6
:1009F8000009D8A402D0000E136E000E156E13C0A5
:100A080011F0B0D618503CEC0DF069BE0ED0B50E02
:100A1800685C040E6958D8B078B807D078AA05D0B1
:100A280064EC0DF0020E166E120078A8120078AA77
:100A3800120064EC0DF0F6D61850B8EC0DF092D612
:100A480010EC0EF0D8A012001850B8EC0DF00B0EF8
:100A5800166E120017501D0DF350010F0F24C06FB2
:100A68001D0EC027C0C0F6FF020EF76E0800F55035
:100A78000009D8B402D00F2A120017501D0DF350E8
:100A8800010F0F24C06F1D0EC027C0C0F6FF020E55
:100A9800F76E0800F5500009D8A41200C3D7165005
:100AA8000001C06FC16BC151000AD8A41200C05127
:100AB800000AD8B4CCD6010AD8B4E6D6030AD8B40A
:100AC80031D6010AD8B450D6060AD8B4AED6030A2D
:100AD800D8B4A4D6010AD8B410D70F0AD8B4B0D75E
:100AE800010AD8B42FD7030AD8B4A6D7010AD8B4B4
:100AF80089D7060AD8A41200ADD7DFD05B28D8A4BE
:100B080079A606D05A50B8EC0DF0030E2E6E1200DE
:100B18005B28D8A412005A503CEC0DF069BE1200B4
:100B28005A0E685C020E6958D8A012005C28D8B426
:100B3800120079A612005C5042EC0EF05C6859680D
:100B4800000E2F6E000E2E6E120059505B18D8A49E
:100B580011D05A503CEC0DF069BE06D05A0E685CB4
:100B6800020E6958D8B006D05B68302A5C2A020E9B
:100B78002E6E12005B28D8B4120059505B18D8B4F6
:100B880012005C5042EC0EF05B50D8B406D05B50BB
:100B9800410FD96EDA6ADF5001D0300E5C6E000E5C
:100BA8002F6E5BC059F0000E306E5B68000E2E6E23
:100BB8001200070E5918D8B40AD0090E5918D8B41B
:100BC80006D05950D8B403D0050E2E6E1200070E69
:100BD8005918D8B404D0090E5918D8A403D0060E51
:100BE8002E6E12005950D8A412002F2A020E2F1868
:100BF800D8A402D0000E2F6E2F504C0FD96EDA6A8F
:100C0800DF504BD05B50800A7E0FD8B003D05B50CA
:100C1800D8A408D05B50800A760FD8B003D0010E54
:100C28002E6E12005B50D8B40ED05B50800A7E0F37
:100C3800D8B009D05C28D8A406D05B50300F42EC5D
:100C48000EF05B687FD75B50D8B412005B50800A07
:100C58007E0FD8B012005C28D8B412005C5042EC69
:100C68000EF05C68040E2E6E12005B50300F42ECE2
:100C78000EF0E7D7040E3018D8A409D05950410F08
:100C8800D96EDA6ADF505C6E000E306E5BD7030EE9
:100C98003018D8A404D05950300F5C6E53D7030EC7
:100CA800306012004FD7040E3018D8B4F4D7050EB0
:100CB8003018D8B4E3D7040EF3D72E506F6E706A8D
:100CC8007050000AD8A412006F50000AD8B416D782
:100CD800010AD8B43AD7030AD8B46BD7010AD8B4F2
:100CE80091D7070AD8B4C1D7010AD8B4C3D7030A21
:100CF800D8A41200D8D7A7D079A279B005D0000E11
:100D08001F6E000E1E6E120079A204D05568010EE7
:100D18001D6E120079A01200020E1D6E12002250E4
:100D28001F5CD8B014D0360E686E1F50170D000E19
:100D3800F324696E010EF4206A6E29EC0CF00009A8
:100D4800D8A403D01FC055F08A861F2AE0D72250A6
:100D58001F18D8A412007992000E1D6E1200080EFA
:100D68001F18D8B422D021C068F01F50360FD96E92
:100D7800DA6ADF5052EC0DF0212A1F50360FD96E77
:100D8800DA6A2050170D000E6D6E010E6E6EF3506C
:100D98006D26F4506E221F506D24E16E000E6E20F9
:100DA800E26EDFCFE7FF1F2AB7D7080E1F18D8A4B7
:100DB8001200000E1F6E030E1D6E1200080E1F1883
:100DC800D8B428D021C068F01F50980FD96EDA6ABD
:100DD800DF5052EC0DF0212A1F50980FD96EDA6AB5
:100DE8002050170D000E6D6E010E6E6E090E6D26E9
:100DF800000E6E22F3506D26F4506E221F506D24A3
:100E0800E16E000E6E20E26EDFCFE7FF1F2A030EB1
:100E18001D6E1200080E1F18D8A412007990212AFE
:100E28009F0E2118D8A402D0100E216E202A080E79
:100E38002018D8A402D0000E206E080E2218D8B4AC
:100E48008BD7222A89D71D506D6E6E6A6E50000AA4
:100E5800D8A412006D50000AD8B44ED7010AD8B4ED
:100E68005ED7030AD8B47BD7010AD8A41200A6D744
:100E780083A003D06F6A6F2A01D06F6A83A202D061
:100E8800010E01D0000E020DF3CF70F083A402D042
:100E9800010E01D0000E030DF3CF71F083A602D02E
:100EA800010E01D0000E040DF350712470246F243C
:100EB8002A6E6FD02A50D8A407D08C888C9A8C9C24
:100EC800000E2B6E2C2A12002A50D8B412002D5076
:100ED800B8EC0DF0030E2C6E12002A50D8A405D0E1
:100EE8008C988C8A8C9C010EECD72A50D8B41200AE
:100EF8002D50B8EC0DF0EED72A50D8A408D08C9815
:100F08008C9A8C8C020E2B6E000E2C6E12002A50BE
:100F1800D8B412002D50B8EC0DF0D4D72D503CECBD
:100F28000DF069BE1200CED72A50D8A403D0010E06
:100F38002C6E12002A50D8B412002A50030DF35018
:100F48009E0F2B24D96EDA6ADF5036EC0EF02A5049
:100F5800030DF3509E0F2B24D96EDA6ADF5032EC62
:100F68000EF0B0D72A50D8A412002D50B8EC0DF0CE
:100F7800A9D72D503CEC0DF0D4D72A50D8B403D0C3
:100F8800050E2C6E12002A50D8A41200000E2C6EEA
:100F980012002C506F6E706A7050000AD8A41200AC
:100FA8006F50000AD8B486D7010AD8B496D7030A76
:100FB800D8B4A2D7010AD8B4B1D7070AD8B4B4D7DD
:100FC800010AD8B4CFD7030AD8B4D3D7010AD8A412
:100FD8001200D3D75AD0C2B20BD0C80EC46008D002
:100FE800320EC46405D0070EC26E78860D2A5BD017
:100FF800C2B210D0C70EC4640DD0020E0E18D8B4F9
:1010080003D0020E4AEC0EF0020E0E6E070EC26EF0
:101018007896ECD7C2B247D0330EC46044D0080EDD
:101028000E18D8B403D0080E4AEC0EF0080EEDD70F
:10103800C2B20BD0C80EC46008D0320EC46405D04A
:10104800030EC26E78840D062ED0C2B210D0C70E21
:10105800C4640DD0060E0E18D8B403D0060E4AECA0
:101068000EF0060E0E6E030EC26E7894ECD7C2B266
:101078001AD0330EC46017D0040E0E18D8B403D09B
:10108800040E4AEC0EF0040EEDD70D50696E6A6A34
:101098006A50000AD8A407D06950000AD8B49BD770
:1010A800010AD8B4C5D778A6120078A412000E5049
:1010B800D8B41200000E4AEC0EF0000E0E6E1200AC
:1010C8005DD051BE12005150CFEC0DF068C001F058
:1010D80069C002F07882010E076E120001C0D9FFC4
:1010E80002C0DAFFDF50D8B4ACA207D0000EAD6E54
:1010F800000E4F6E020E076E120001C0D9FF02C02B
:10110800DAFFDF50D8B41200ACA2120001C0D9FF38
:1011180002C0DAFFDF50AD6E014A022A12004B0E00
:10112800AE18D8A41200030E076E12005028D8A4D7
:10113800ACA204D050C0ADFF5068F5D74F50800A1C
:101148007F0FD8A00DD04F50800A760FD8A0ACA240
:1011580007D04FC0ADFF000E4F6E030E076E120092
:101168000A0E4F18D8A41200ACA21200460EAD6E9B
:10117800000E4F6E7892040E076E120007506B6EC9
:101188006C6A6C50000AD8A412006B50000AD8B4DC
:1011980098D7010AD8B4A2D7030AD8B4C0D7010A8D
:1011A800D8B4C4D7070A1200746E89EC0CF0316EFB
:1011B80074C035F073C034F0000E326E32C033F0B4
:1011C8009498959E949A000E766E000E756E000E99
:1011D800706E640E6F6E315076EC0DF0030E8CEC71
:1011E8000AF0000E706E050E6F6E315076EC0DF041
:1011F800030E8CEC0AF0000E706E010E6F6E31500B
:1012080076EC0DF0030E8CEC0AF0000E706E010EF9
:101218006F6E315076EC0DF0020E8CEC0AF0000E79
:10122800706E040E6F6E315076EC0DF0280EF6ECF1
:101238000CF04CEC0CF0080EF6EC0CF04CEC0CF04E
:10124800010EF6EC0CF0000E706E030E6F6E31504E
:1012580076EC0DF04CEC0CF0060EF6EC0CF04CECC9
:101268000CF00F0EF6EC0CF0754A762A76BEAFD766
:10127800765004E1020E755CD8A0A9D74CEC0CF0AE
:101288000C0EF6EC0CF0120048D078AC1200010EEF
:101298001C6E000E1A6E1B50B8EC0DF0010E196E84
:1012A8001200050E1C6404D0789C000E196E120002
:1012B800A80E1A18D8A404D01C2A000E1A6EEED74D
:1012C8001B503CEC0DF01C506F6E706A68506F5CE0
:1012D8007050800A716E6950800A7158D8B0120037
:1012E8008A801B50B8EC0DF0020E196E12001B50CC
:1012F8003CEC0DF01C506F6E706A68506F5C70505B
:10130800800A716E6950800A7158D8B012008A90AC
:101318001B50B8EC0DF01A2AC1D719506F6E706ABD
:101328007050000AD8A412006F50000AD8B4ADD784
:10133800010AD8B4B6D7030AD8A41200D8D7000E29
:10134800A96EA69EA69CA680A6B0FED7A8CF22F01E
:10135800A92AA69EA69CA6B0FED7A8CF21F0A92AA6
:10136800000E6A6E41D0000E6B6EA69EA69CA680EB
:10137800A6B0FED76A50170D000E686E010E696E92
:10138800F3506826F45069226B506824D96E000E19
:101398006920DA6EA8CFDFFFA92A6B2A080E6B64D2
:1013A800E4D7000E6C6EA69EA69CA680A6B0FED7BB
:1013B8006A50170D000E686E010E696E090E6826D8
:1013C800000E6922F3506826F45069226C50682494
:1013D800D96E000E6920DA6EA8CFDFFFA92A6C2A21
:1013E800080E6C64E0D76A2A22506A5CD8B01200F2
:1013F800BAD740D05228D8B41200525016EC0EF08A
:101408005AEC0EF0010E096E1200F2EC0DF0D8B095
:1014180006D0526858EC0EF0000E096E120056BE47
:1014280007D056501EEC0EF05668010E096E1200D9
:10143800F8EC0DF0D8A014D010EC0EF0D8A010D015
:101448005EEC0EF0010E706E000E6CEC0CF05CECB5
:101458000EF0766E76C06BF06C6A0AEC0EF0E5D78B
:101468005B50800A7F0FD8A012005B501AEC0EF078
:101478005B68DBD70950766E776A7750000AD8A484
:1014880012007650000AD8B4B5D7010AD8A41200C1
:10149800BCD732D00C503CEC0DF069BE1200B50E32
:1014A800685C040E6958D8A012000C50B8EC0DF016
:1014B80078A21FD0788061062F0E6118D8A403D0B7
:1014C800390E616E60062F0E6018D8A403D0350E51
:1014D800606E5E062F0E5E18D8A403D0390E5E6EBD
:1014E8005D060B2A3B0E0B6404D060EC0EF0000E78
:1014F8000B6E000E0A6E12000A506F6E706A705002
:10150800000AD8A412006F50000AD8A41200C2D74B
:10151800696E94969494949294908B9A8C9E8B88EE
:101528008B8869A603D0686A682A01D0686A684609
:10153800684668468B506818F70B68188B6E69A464
:1015480003D0686A682A01D0686A684668468B5082
:101558006818FB0B68188B6E69A203D0686A682A42
:1015680001D0686A68468B506818FD0B68188B6E46
:1015780069A003D0686A682A01D0686A8B50681825
:10158800FE0B68188B6E8B981200500EF66E1B0EB1
:10159800F76E000EF86E00EEA1F010EE1FF00900D5
:1015A800F5CFEEFFE550E150FAE1100EF66E1B0E96
:1015B800F76E000EF86E00EE43F010EE20F0090012
:1015C800F5CFEEFFE550E150FAE101EE00F0B80E7C
:1015D800EE6AE806FDE100EE80F0210EEE6AE8060C
:1015E800FDE1796A786A00EE01F0420EEE6AE806DB
:1015F800FDE17A907A92000EF86E000104EF0BF08C
:1016080098EC0DF00FEC0DF0C4EC0DF0A6EC0CF01E
:101618003AEC0EF03EEC0EF081EC05F0A3EC09F08C
:101628002EEC0EF04EEC0EF0D9EC0DF02AEC0EF08C
:10163800100E736E020ED8EC08F046EC0EF026EC95
:101648000DF0FDEC09F064EC08F04DEC0AF0EEEC5E
:1016580007F064EC01F048EC09F07FEC06F095EC3B
:1016680003F03CEC07F081EC05F0A4EC0BF0E9D7B3
:10167800696E69A603D0686A682A01D0686A6846F4
:10168800684668468B506818F70B68188B6E69A413
:1016980003D0686A682A01D0686A684668468B5031
:1016A8006818FB0B68188B6E69A203D0686A682AF1
:1016B80001D0686A68468B506818FD0B68188B6EF5
:1016C80069A003D0686A682A01D0686A8B506818D4
:1016D800FE0B68188B6E1200696E69AE03D0686ADB
:1016E800682A01D0686A6846684668468B50681858
:1016F800F70B68188B6E69AC03D0686A682A01D04A
:10170800686A684668468B506818FB0B68188B6EC9
:1017180069AA03D0686A682A01D0686A68468B504B
:101728006818FD0B68188B6E69A803D0686A682A68
:1017380001D0686A8B506818FE0B68188B6E12000F
:1017480079A8120005C0F6FF06C0F7FFF86A010E77
:10175800F76403D00800F55005D0F6CFE1FFF7CFC6
:10176800E2FFE75000EC0CF0054A062A05C0F6FF38
:1017780006C0F7FFF86A010EF76403D00800F550B9
:1017880005D0F6CFE1FFF7CFE2FFE7500009D8A474
:1017980012007998000E056E000E066E1200DF0E1C
:1017A800D76E940ED66EF294034A042A480E035C50
:1017B800EE0E0458D8A01200000E296E070E2964F8
:1017C80001D015D02950030DF350820FD96EDA6A73
:1017D800DE04D8A40AD02950030DF350800FD96E27
:1017E800DA6A0350DE5E0450DD5A292AE7D7000E74
:1017F800046E000E036E1200766E4CEC0CF0765000
:10180800DDEC0CF0322A020E3518D8A410D0270EC1
:1018180032640DD0000E326E332A010E336402D0CA
:10182800000E336E33C070F032506CEC0CF03304A1
:10183800D8A41200270E326402D0000E326E33C0D4
:1018480070F032506CEC0CF012000ED069C0D9FF69
:101858006AC0DAFF6850E16EE26ADE50E618D8A482
:1018680009D0682A694A6A2A6850D96EDA6ADF504C
:10187800D8A4ECD769C0D9FF6AC0DAFFDF506B6E15
:101888006850D96EDA6ADF506C6E6B506C5C12006F
:1018980094869484948294808B9A8C8E3150B8EC80
:1018A8000DF08B888B88000E82B6010E6F6E8B98B8
:1018B8008B988B888B888B988B9831503CEC0DF0EB
:1018C80068506910D8A412006F50D8B41200E9D734
:1018D800756E7050D8B404D0000E746E400E03D0EC
:1018E800000E746E000E736E75507324716E000EC8
:1018F8007420726E4CEC0CF071508009F6EC0CF010
:1019080070C033F075C032F01200000E296E07D097
:10191800292A080E2918D8A402D0FF0E120029502F
:10192800030DF350820FD96EDA6ADE04D8B4F0D70B
:101938002950030DF350820FD96EDA6A010EDF6E5B
:1019480029501200D09EF28EF28CF28AF294880E00
:10195800D56EDF0ED76E940ED66ED58E000E296E1C
:10196800070E296401D012002950030DF350820F8D
:10197800D96EDA6A000EDF6E292AF2D76850D96E5E
:10198800DA6ADF505D6E6850D96EDA6A010ED926C0
:10199800DF505E6E6850D96EDA6A020ED926DF50C3
:1019A800606E6850D96EDA6A030ED926DF50616E10
:1019B80012006A6E94969494949294908B8A8C9E5A
:1019C8008B886A5070EC0BF08B888B988B988B887F
:1019D8006A503CEC0BF08B888B98948694849482A4
:1019E800948012006A6E94969494949294908B9A30
:1019F8008C9E8B886A5070EC0BF08B888B988B9838
:101A08008B886A503CEC0BF08B888B989486948476
:101A1800948294801200000E686E000EA96E000E6B
:101A2800A86EA69EA69CA684F29E550EA76EAA0E28
:101A3800A76EA682A6B2FED7682A9F0E6864EDD765
:101A4800F28E1200010E0101006F010E096F310EB6
:101A5800176F310E206F000E016F000E0A6F000E17
:101A6800186F000E216F020E226E020E216E1200F8
:101A78006C6E03C06DF004C06EF06C50030DF35033
:101A8800800FD96EDA6ADECF6AF0DDCF6BF06A506C
:101A98006D5C686E6B506E58696E1200696E68C036
:101AA800A9FF69C0A8FFA69EA69CA684F29E550E13
:101AB800A76EAA0EA76EA682A6B2FED7F28E120055
:101AC8004CEC0CF0010EF6EC0CF0000E706E030EF0
:101AD8006F6E315076EC0DF0000E706E000E6CECEF
:101AE8000CF01200726E7250B8EC0DF072503CECB3
:101AF8000DF06F50685C6950800A716E7050800AF2
:101B08007158D8B01200F2D74144474A4D50545743
:101B180000302000FFFFFFFF0F0FFFFFFFFFFFFF59
:101B2800FFFF33303A303000030E926EE00E936EB2
:101B38008A968A908A92C00E946E8F0E956E000EC9
:101B48008C6EA68EA69C12000102030405060708E7
:101B5800090A000B322E5245474953544552003169
:071B68002E4C4F47494E00CF
:101B7000686E6850030DF350800FD96EDA6A03C0A7
:101B8000DEFF04C0DDFF1200240EAC6E900EAB6EC3
:101B9000080EB86E040EB06E100EAF6E12006A6EB4
:101BA0006A50170D000EF324686E010EF420696E62
:101BB0001200010EC26E0D0EC16E090EC06E7F0EB8
:101BC000C46E1200696E6850980FD96EDA6A69C0E7
:101BD000DFFF1200696E6850360FD96EDA6A69C08D
:101BE000DFFF120078B202D0D8901200D880120025
:101BF00078B002D0D8901200D880120079B202D00A
:101C0000D8901200D8801200686E788868C017F0EB
:101C1000788A12006BC005F06CC006F0798812005B
:101C200079A802D0D8901200D8801200686E68C0DF
:101C300051F01200686E68C04FF01200686E68C004
:101C400050F0120055C068F068301200686E68C02D
:101C500052F0120089EC0CF00C6E120089EC0CF0C2
:101C60001B6E1200686E68C05BF01200686E68C080
:101C700058F0120089EC0CF02D6E120089EC0CF07B
:101C80005A6E1200686E68C057F0120089EC0CF0B2
:101C9000276E1200686E68C056F0120089EC0CF0D6
:101CA000186E120079865B68120079965B681200E4
:101CB00078921200788212005D0E12007890120065
:101CC000788C120022501200798212007980120062
:0C1CD000788A1200789A1200525012001C
:020000040020DA
:08000000FFFFFFFFFFFFFFFF00
:020000040030CA
:0E000000FF061F1EFF8181FF03C003E00340C7
:00000001FF
