:020000040000FA
:0400000019EF00F004
:100008007A82D9CF62F0DACF63F0F3CF64F0F4CF1D
:1000180065F0B5EC0CF065C0F4FF64C0F3FF63C095
:0E002800DAFF62C0D9FF7A921100A6EF0BF04A
:1002000000312E506C617920612047616D650000DE
:100210000000000000000000000000000000322E7E
:100220004D6F646966792054696D650000000000B7
:100230000000000000000000000000332E53686F33
:10024000772047656E6572616C20546F7020352091
:1002500053636F7265732000342E4C6F676F757433
:10026000000000000000000000000000000000008E
:100270000000000000352E53686F7720416C6C2021
:10028000557365727300000000000000000000005C
:10029000000054494D452052454D41494E494E4775
:1002A0003A004D6F646966792054696D653A00546F
:1002B000494D45204C4546543A200042594520427C
:1002C0005945200053434F52453A20004552524F62
:1002D00052533A00505357443A2000555345523A2E
:0302E000200000FB
:1002E40002D289EC0EF0A00E696E6A6A29EC0FF056
:1002F400010E266E12002FEC0FF0D8A01200010E92
:100304006E6E000E4EEC0DF0950E696E6A6A29EC65
:100314000FF05368020E266E12005304D8A409D0BD
:1003240099EC0FF00009D8B404D0788C030E266E33
:100334001200020E5318D8A41200789CF7D7536801
:10034400526889EC0EF0DB0E696E6950D8A4020E77
:100354006A6E29EC0FF0040E266E12002FEC0FF0DB
:10036400D8A01200010E6E6E000E4EEC0DF0D40EED
:10037400696E6950D8A4020E6A6E29EC0FF0050E5E
:10038400266E12002FEC0FF0D8A01200000E6E6E35
:10039400060E4EEC0DF085EC0FF0000E2A6E060EE4
:1003A400266E12005250800A500FD8A00FD00A0EA9
:1003B4005318D8B40BD05250E2EC0CF02AC066F0BB
:1003C4005250FDEC0EF0070E266E12000B0E531861
:1003D400D8A41200F8D7070E2A18D8B408D00B0EE8
:1003E4005318D8B404D02A2A53685268D8D7070EB1
:1003F4002A18D8B404D00B0E5318D8A41200010E36
:100404006E6E060E4EEC0DF02AC066F0000EFDEC8A
:100414000EF053685268000E2A6E080E266E120003
:100424005250800A500FD8A00FD00A0E5318D8B4D7
:100434000BD05250E2EC0CF02AC066F05250F5ECAE
:100444000EF0090E266E12000B0E5318D8A41200DB
:10045400F8D7070E2A18D8B408D00B0E5318D8B4FE
:1004640004D02A2A53685268D8D7070E2A18D8B459
:1004740004D00B0E5318D8A412002AC066F0000E44
:10048400F5EC0EF053685268000E2A6E9BEC0FF0E8
:1004940088EC0FF00A0E266E12001DEC0FF0D8B097
:1004A400120046EC0FF0D8A002D0010E01D0000ECD
:1004B400276E0B0E266E12000C0E266E1200000E16
:1004C400266E120089EC0EF09FEC0FF0285023ECFE
:1004D4000FF0516853680D0E266E1200080E511865
:1004E400D8A405D0040E2860E7D7282AE5D7020E41
:1004F4005118D8A405D02850D8B4DED72806DCD7A4
:100504000B0E5318D8A413D0030E2818D8A40FD058
:10051400A3EC0FF089EC0EF0BB0E696E6950D8A401
:10052400020E6A6E29EC0FF00E0E266E12000B0EF0
:100534005318D8A413D02804D8A410D089EC0EF0F2
:10054400A3EC0FF0A20E696E6950D8A4020E6A6E75
:1005540029EC0FF05368100E266E12002850D8A410
:1005640012000B0E5318D8A41200A3EC0FF053681A
:1005740089EC0EF0920E696E6950D8A4020E6A6E70
:1005840029EC0FF0275052EC0FF0150E266E1200D6
:100594002FEC0FF0D8A012002750E2EC0EF066C04A
:1005A40069F067C06AF029EC0FF02950CBEC0EF02B
:1005B4000F0E266E1200295039EC0EF067BE1200A1
:1005C4006B0E665C090E6758D8A0120078D72FEC22
:1005D4000FF0D8B053BE4BD05350800A760FD8B02A
:1005E40046D0010E6E6E000E4EEC0DF05350300FDF
:1005F400416E4150E2EC0CF05368110E266E12006D
:100604005318D8A4120058D753BE31D05350800A7F
:10061400760FD8B02CD05350300F426E4250E2ECDB
:100624000CF053683A0EE2EC0CF0120EE7D753BE0E
:100634001ED05350800A760FD8B019D05350300FC3
:10064400436E4350E2EC0CF05368130ED7D753BEFD
:100654000ED05350800A760FD8B009D05350300FC3
:10066400446E4450E2EC0CF05368140EC7D70A0EE3
:10067400C7D70B0E5318D8A4FAD7410E666EBFEC39
:100684000DF0536819D70A0E5318D8A404D02FECD0
:100694000FF0D8B004D017EC0FF0D8A007D089EC35
:1006A4000EF0A5EC0FF0160E266E12005350800AC1
:1006B4007F0FD8A00AD05350800A760FD8B005D047
:1006C40053504AEC0FF0536860D751BE120051509A
:1006D4004EEC0FF0516859D7A1EC0FF00009D8B4D3
:1006E40012000B0E8DD72650756E766A7650000A6E
:1006F400D8A412007550000AD8B4F3D5010AD8B4AE
:10070400FAD5030AD8B409D6010AD8B418D6070A08
:10071400D8B424D6010AD8B435D6030AD8B442D6FC
:10072400010AD8B458D60F0AD8B47AD6010AD8B474
:1007340090D6030AD8B4B1D6010AD8B4BDD6070AF4
:10074400D8B4C0D6010AD8B4C9D6030AD8B420D7BD
:10075400010AD8B430D71F0AD8B439D7010AD8B49B
:1007640053D7030AD8B463D7010AD8B470D7070A99
:10077400D8B47FD7010AD8B486D7030AD8A4120004
:10078400ABD7B7D1110E126017D078A215D0000ED6
:100794006E6E000E4EEC0DF019501D0DF350010F4E
:1007A400756E75C069F06950D8A4020E6A6E29ECA2
:1007B4000FF0050E186E1200100E1264120078A2CB
:1007C4001200182A12000F0E17642BD0162A4F2A73
:1007D40019501D0DF350010F4F24756E75C0F6FFAF
:1007E400020EF76E0800F5500009D8A402D0000EDE
:1007F4004F6E19501D0DF350010F1624756E75C000
:10080400F6FF020EF76E0800F5500009D8A402D0D6
:10081400000E166E000E176E16C014F0060E186E3B
:100824001200100E17601200000E6E6E17504EEC80
:100834000DF019501D0DF350010F1424756E75C081
:10084400F6FF020EF76E0800F550E2EC0CF0172AE2
:10085400142A19501D0DF350010F1424756E75C020
:10086400F6FF020EF76E0800F5500009D8A4120036
:10087400000E146E1200040E196012D0A2D7000EDE
:10088400186E12002FEC0FF0D8A006D0040E1960D9
:1008940003D0070E186E12002FEC0FF0D8A0120030
:1008A400030E19641200EBD778A0120078A212008C
:1008B400000E126E000E116E000E6E6E000E4EECE7
:1008C4000DF0000E166E0F0E4F6E000E156E0F0E0D
:1008D4004E6E000E176E000E146E000E136E78909E
:1008E40070D719501D0DF350010F1224756E75C089
:1008F400F6FF020EF76E0800F5500009D8A404D0E4
:10090400030E196401D05DD719501D0DF350010F6A
:100914001224756E75C0F6FF020EF76E0800F550CE
:100924000009D8B402D0122A1200040E1960120071
:1009340019501D0DF350010F1224756E75C0F6FF8A
:10094400020EF76E0800F5500009D8A412000D0E2F
:10095400186E1200110E116019D078A217D0010E72
:100964006E6E000E4EEC0DF019501D0DF3CF75F0A8
:100974001D0E75267550010F766E76C069F06950AC
:10098400D8A4020E6A6E29EC0FF01BD7100E116466
:10099400120078A21200090E186E1200100E1760D1
:1009A4002BD0010E6E6E17504EEC0DF019501D0D2C
:1009B400F350010F1324756E1D0E752675C0F6FFD6
:1009C400020EF76E0800F550E2EC0CF0172A132A19
:1009D40019501D0DF350010F1324756E1D0E75264D
:1009E40075C0F6FF020EF76E0800F5500009D8A492
:1009F4001200000E136E12000F0E17641200152A57
:100A04004E2A19501D0DF350010F4E24756E1D0E04
:100A1400752675C0F6FF020EF76E0800F550000942
:100A2400D8A402D0000E4E6E19501D0DF350010FC4
:100A34001524756E1D0E752675C0F6FF020EF76E31
:100A44000800F5500009D8A402D0000E156E000E5F
:100A5400176E15C013F0B5D61A5039EC0EF067BEF8
:100A64000ED0B50E665C040E6758D8B078B007D0C7
:100A740078A205D089EC0EF0020E186E120078A050
:100A8400120078A2120089EC0EF0F9D61A50CBECC1
:100A94000EF097D62FEC0FF0D8A012001A50CBEC22
:100AA4000EF00B0E186E120019501D0DF350010FAD
:100AB4001124756E1D0E752675C0F6FF020EF76EB5
:100AC4000800F5500009D8B402D0112A12001950B8
:100AD4001D0DF350010F1124756E1D0E752675C082
:100AE400F6FF020EF76E0800F5500009D8A41200B4
:100AF400C3D71850756E766A7650000AD8A41200CF
:100B04007550000AD8B4D0D6010AD8B4EAD6030A7C
:100B1400D8B438D6010AD8B456D6060AD8B4B2D650
:100B2400030AD8B4A8D6010AD8B414D70F0AD8B483
:100B3400B1D7010AD8B432D7030AD8B4A7D7010A67
:100B4400D8B48AD7060AD8A41200AED7E6D04BBED2
:100B540012004B50E2EC0EF066C001F067C002F0E8
:100B640077827790010E076E120001C0D9FF02C090
:100B7400DAFFDF50D8B4ACA208D0000EAD6E000E80
:100B8400496E8A86020E076E120001C0D9FF02C0A8
:100B9400DAFFDF50D8B41200ACA2120001C0D9FFB2
:100BA40002C0DAFFDF50AD6E014A022A12004B0E7A
:100BB400AE18D8A412007780030E076E12004A28DC
:100BC400D8A4ACA204D04AC0ADFF4A68F5D7300E11
:100BD40049640CD03A0E496009D0ACA207D049C090
:100BE400ADFF000E496E030E076E120077B202D0FD
:100BF400ACB202D09EAA120089EC0EF0CC0E696E43
:100C04006950D8A4020E6A6E29EC0FF0460EAD6E40
:100C1400000E496E040E076E12009EAA1200AE501A
:100C240005EC0FF00850CBEC0EF0050E076E120029
:100C3400085039EC0EF067BE13D0BB0E665C090E8B
:100C44006758D8A00DD089EC0EF0AF0E696E6950CC
:100C5400D8A4020E6A6E29EC0FF0070E076E12007C
:100C6400085039EC0EF067BE06D0BA0E665C090E69
:100C74006758D8B012009EAA12002FEC0FF0D8A02B
:100C84001200010E6E6E000E4EEC0DF0AE50E2EC52
:100C94000CF0060E076E12002FEC0FF0D8A0120015
:100CA40093EC0FF0756E75C069F06A6A29EC0FF069
:100CB400080E076E12009EAA1200AE50E2EC0CF071
:100CC4000850CBEC0EF0B1D72FEC0FF0D8A01200E7
:100CD400010E6E6E000E4EEC0DF0C40E696E69507E
:100CE400D8A4020E6A6E29EC0FF0090E076E1200EA
:100CF4002FEC0FF0D8A012008DEC0FF0FA0AD8A454
:100D040012008BEC0FF0756E75C069F06A6A29ECFD
:100D14000FF04B68000E076E12000750756E766A6E
:100D24007650000AD8A412007550000AD8B40FD720
:100D3400010AD8B41AD7030AD8B439D7010AD8B4E7
:100D44003ED7070AD8B469D7010AD8B471D7030AC1
:100D5400D8B4B1D7010AD8B49FD70F0AD8B4B4D73E
:100D6400010AD8A41200C4D7DFD05628D8A478AE7C
:100D740006D05550CBEC0EF0030E306E1200562800
:100D8400D8A41200555039EC0EF067BE12005A0E6A
:100D9400665C020E6758D8A012005728D8B4120017
:100DA40078AE1200575072EC0FF057685468000E7A
:100DB400316E000E306E120054505618D8A411D063
:100DC400555039EC0EF067BE06D05A0E665C020E22
:100DD4006758D8B006D05668322A572A020E306EA9
:100DE40012005628D8B4120054505618D8B4120021
:100DF400575072EC0FF05650D8B406D056507E0FB0
:100E0400D96EDA6ADF5001D0300E576E000E316EA3
:100E140056C054F0000E326E5668000E306E12004A
:100E2400070E5418D8B40AD0090E5418D8B406D0F2
:100E34005450D8B403D0050E306E1200070E541867
:100E4400D8B404D0090E5418D8A403D0060E306EBA
:100E540012005450D8A41200312A020E3118D8A41A
:100E640002D0000E316E3150450FD96EDA6ADF5070
:100E74004BD05650800A7E0FD8B003D05650D8A419
:100E840008D05650800A760FD8B003D0010E306EC9
:100E940012005650D8B40ED05650800A7E0FD8B0E7
:100EA40009D05728D8A406D05650300F72EC0FF052
:100EB40056687FD75650D8B412005650800A7E0F19
:100EC400D8B012005728D8B41200575072EC0FF063
:100ED4005768040E306E12005650300F72EC0FF04B
:100EE400E7D7040E3218D8A409D054507E0FD96E17
:100EF400DA6ADF50576E000E326E5BD7030E32187B
:100F0400D8A404D05450300F576E53D7030E326018
:100F140012004FD7040E3218D8B4F4D7050E321885
:100F2400D8B4E3D7040EF3D730506D6E6E6A6E50AA
:100F3400000AD8A412006D50000AD8B416D7010ACA
:100F4400D8B43AD7030AD8B46BD7010AD8B491D726
:100F5400070AD8B4C1D7010AD8B4C3D7030AD8A49E
:100F64001200D8D7A7D078AA78B805D0000E216E81
:100F7400000E206E120078AA04D05068010E1F6E75
:100F8400120078A81200020E1F6E12002450215C79
:100F9400D8B014D0380E666E2150170D000EF3240D
:100FA400676E010EF420686E0BEC0DF00009D8A4F6
:100FB40003D021C050F08A86212AE0D7245021187A
:100FC400D8A41200789A000E1F6E1200080E211881
:100FD400D8B422D023C066F02150380FD96EDA6A13
:100FE400DF5077EC0EF0232A2150380FD96EDA6ADD
:100FF4002250170D000E6B6E010E6C6EF3506B26B3
:10100400F4506C2221506B24E16E000E6C20E26ED1
:10101400DFCFE7FF212AB7D7080E2118D8A4120082
:10102400000E216E030E1F6E1200080E2118D8B494
:1010340028D023C066F02150C00FD96EDA6ADF5081
:1010440077EC0EF0232A2150C00FD96EDA6A2250B1
:10105400170D000E6B6E010E6C6E090E6B26000EE2
:101064006C22F3506B26F4506C2221506B24E16EF9
:10107400000E6C20E26EDFCFE7FF212A030E1F6E05
:101084001200080E2118D8A412007898232A9F0E63
:101094002318D8A402D0100E236E222A080E221878
:1010A400D8A402D0000E226E080E2418D8B48BD710
:1010B400242A89D71F506B6E6C6A6C50000AD8A41E
:1010C40012006B50000AD8B44ED7010AD8B45ED7C8
:1010D400030AD8B47BD7010AD8A41200A6D783A0E8
:1010E40003D06D6A6D2A01D06D6A83A202D0010E0D
:1010F40001D0000E020DF3CF6EF083A402D0010ED6
:1011040001D0000E030DF3CF6FF083A602D0010EC1
:1011140001D0000E040DF3506F246E246D242C6E48
:101124006FD02C50D8A407D08C888C9A8C9C000E3D
:101134002D6E2E2A12002C50D8B412002F50CBEC56
:101144000EF0030E2E6E12002C50D8A405D08C98ED
:101154008C8A8C9C010EECD72C50D8B412002F50E2
:10116400CBEC0EF0EED72C50D8A408D08C988C9AE7
:101174008C8C020E2D6E000E2E6E12002C50D8B4E4
:1011840012002F50CBEC0EF0D4D72F5039EC0EF0C8
:1011940067BE1200CED72C50D8A403D0010E2E6EF9
:1011A40012002C50D8B412002C50030DF350860FAB
:1011B4002D24D96EDA6ADF5066EC0FF02C50030D43
:1011C400F350860F2D24D96EDA6ADF5062EC0FF0EB
:1011D400B0D72C50D8A412002F50CBEC0EF0A9D7C6
:1011E4002F5039EC0EF0D4D72C50D8B403D0050EC0
:1011F4002E6E12002C50D8A41200000E2E6E120077
:101204002E506D6E6E6A6E50000AD8A412006D5096
:10121400000AD8B486D7010AD8B496D7030AD8B43A
:10122400A2D7010AD8B4B1D7070AD8B4B4D7010AEF
:10123400D8B4CFD7030AD8B4D3D7010AD8A412009C
:10124400D3D75AD0C2B20BD0C80EC46008D0320E65
:10125400C46405D0070EC26E778E0F2A5BD0C2B26B
:1012640010D0C70EC4640DD0020E1018D8B403D029
:10127400020E7AEC0FF0020E106E070EC26E779E0D
:10128400ECD7C2B247D0330EC46044D0080E101855
:10129400D8B403D0080E7AEC0FF0080EEDD7C2B222
:1012A4000BD0C80EC46008D0320EC46405D0030E3F
:1012B400C26E778C0F062ED0C2B210D0C70EC46493
:1012C4000DD0060E1018D8B403D0060E7AEC0FF029
:1012D400060E106E030EC26E779CECD7C2B21AD003
:1012E400330EC46017D0040E1018D8B403D0040E03
:1012F4007AEC0FF0040EEDD70F50676E686A6850F1
:10130400000AD8A407D06750000AD8B49BD7010AB2
:10131400D8B4C5D777AE120077AC12001050D8B449
:101324001200FF0E7AEC0FF010681200726E6BEC74
:101334000DF0336E72C037F071C036F0000E346EAB
:1013440034C035F09498959E949A000E746E000EF5
:10135400736E000E6E6E640E6D6E33509BEC0EF069
:10136400030E69EC0BF0000E6E6E050E6D6E3350BD
:101374009BEC0EF0030E69EC0BF0000E6E6E010E8A
:101384006D6E33509BEC0EF0030E69EC0BF0000E07
:101394006E6E010E6D6E33509BEC0EF0020E69EC16
:1013A4000BF0000E6E6E040E6D6E33509BEC0EF05F
:1013B400280EF3EC0DF02EEC0DF0080EF3EC0DF00E
:1013C4002EEC0DF0010EF3EC0DF0000E6E6E030E1C
:1013D4006D6E33509BEC0EF02EEC0DF0060EF3EC1C
:1013E4000DF02EEC0DF00F0EF3EC0DF0734A742A91
:1013F40074BEAFD7745004E1020E735CD8A0A9D7B1
:101404002EEC0DF00C0EF3EC0DF012004AD04D282A
:10141400D8B412004D503AEC0FF07784020E0A6EE5
:10142400120077B409D04D6891EC0FF08FEC0FF0F7
:101434008A96000E0A6E12000BBE09D00B50A4EC63
:101444000DF042EC0FF00B68010E0A6E120011EC65
:101454000FF0D8A014D02FEC0FF0D8A010D095EC3A
:101464000FF0010E6E6E000E4EEC0DF093EC0FF0CB
:10147400746E74C069F06A6A29EC0FF0E5D74C50B9
:10148400800A7F0FD8A012004C50300F3EEC0FF0B2
:101494004C68DAD70BEC0FF0D8A0120082EC0FF0F6
:1014A400D3D70A50746E756A7550000AD8A4120016
:1014B4007450000AD8B4ABD7010AD8B4B2D7030A1F
:1014C400D8A41200E7D748D078A41200010E1E6EEB
:1014D400000E1C6E1D50CBEC0EF0010E1B6E1200A4
:1014E400050E1E6404D07894000E1B6E1200A80E24
:1014F4001C18D8A404D01E2A000E1C6EEED71D5052
:1015040039EC0EF01E506D6E6E6A66506D5C6E5056
:10151400800A6F6E6750800A6F58D8B012008A80B4
:101524001D50CBEC0EF0020E1B6E12001D5039EC58
:101534000EF01E506D6E6E6A66506D5C6E50800AC1
:101544006F6E6750800A6F58D8B012008A901D5091
:10155400CBEC0EF01C2AC1D71B506D6E6E6A6E5018
:10156400000AD8A412006D50000AD8B4ADD7010AFD
:10157400D8B4B6D7030AD8A41200D8D7000EA96EDF
:10158400A69EA69CA680A6B0FED7A8CF24F0A92A22
:10159400A69EA69CA6B0FED7A8CF23F0A92A000E2B
:1015A400686E41D0000E696EA69EA69CA680A6B069
:1015B400FED76850170D000E666E010E676EF3506D
:1015C4006626F450672269506624D96E000E67209F
:1015D400DA6EA8CFDFFFA92A692A080E6964E4D766
:1015E400000E6A6EA69EA69CA680A6B0FED7685082
:1015F400170D000E666E010E676E090E6626000E4C
:101604006722F3506626F45067226A506624D96E26
:10161400000E6720DA6EA8CFDFFFA92A6A2A080E17
:101624006A64E0D7682A2450685CD8B01200BAD73C
:1016340042D00E5039EC0EF067BE1200B50E665C57
:10164400040E6758D8A012000E50CBEC0EF077AA07
:101654002FD077885C062F0E5C18D8A403D0390EDF
:101664005C6E5B062F0E5B18D8A403D0350E5B6E40
:1016740059062F0E5918D8A403D0390E596E58069E
:10168400300E5818D8A40CD0300E5918D8A408D04D
:10169400300E5B18D8A404D0300E5C18D8B477860A
:1016A4000D2A3B0E0D6404D097EC0FF0000E0D6E66
:1016B400000E0C6E12000C506D6E6E6A6E50000AB5
:1016C400D8A412006D50000AD8A41200B2D7676ED5
:1016D40094969494949294908B9A8C9E8B888B88F5
:1016E40067A603D0666A662A01D0666A66466646BD
:1016F40066468B506618F70B66188B6E67A403D08A
:10170400666A662A01D0666A664666468B50661823
:10171400FB0B66188B6E67A203D0666A662A01D03B
:10172400666A66468B506618FD0B66188B6E67A05A
:1017340003D0666A662A01D0666A8B506618FE0B6F
:1017440066188B6E8B9812009E0EF66E1C0EF76E4A
:10175400000EF86E00EE80F010EE28F00900F5CFD0
:10176400EEFFE550E150FAE17A0EF66E1D0EF76ECB
:10177400000EF86E00EE45F010EE1CF00900F5CFF7
:10178400EEFFE550E150FAE101EE00F0B80EEE6A2A
:10179400E806FDE100EEA8F0210EEE6AE806FDE1A0
:1017A400796A786A776A00EE01F0440EEE6AE80618
:1017B400FDE17A907A92000EF86E0001E2EF0BF0F0
:1017C400ADEC0EF00CEC0EF0D7EC0EF088EC0DF056
:1017D4006AEC0FF06EEC0FF0B6EC06F0C0EC0AF019
:1017E4005EEC0FF07EEC0FF0ECEC0EF05AEC0FF028
:1017F40056EC0FF0100E716E020E98EC09F076ECB8
:101804000FF023EC0EF008EC0AF0A8EC05F01AEC4B
:101814000BF023EC09F072EC01F063EC0EF065ECD4
:101824000AF0B4EC07F0C3EC03F071EC08F0B6EC8A
:1018340006F086EC0CF0E7D7676E67A603D0666AFD
:10184400662A01D0666A6646664666468B50661806
:10185400F70B66188B6E67A403D0666A662A01D0FC
:10186400666A664666468B506618FB0B66188B6E76
:1018740067A203D0666A662A01D0666A66468B5000
:101884006618FD0B66188B6E67A003D0666A662A1D
:1018940001D0666A8B506618FE0B66188B6E1200B8
:1018A400676E67AE03D0666A662A01D0666A6646CA
:1018B400664666468B506618F70B66188B6E67ACE7
:1018C40003D0666A662A01D0666A664666468B500D
:1018D4006618FB0B66188B6E67AA03D0666A662AC5
:1018E40001D0666A66468B506618FD0B66188B6ECF
:1018F40067A803D0666A662A01D0666A8B506618A8
:10190400FE0B66188B6E120079A0120005C0F6FF5C
:1019140006C0F7FFF86A010EF76403D00800F5501B
:1019240005D0F6CFE1FFF7CFE2FFE750E2EC0CF091
:10193400054A062A05C0F6FF06C0F7FFF86A010E3D
:10194400F76403D00800F55005D0F6CFE1FFF7CFD8
:10195400E2FFE7500009D8A412007990000E056E4A
:10196400000E066E1200DF0ED76E940ED66EF29441
:10197400034A042A480E035CEE0E0458D8A0120051
:10198400000E2B6E070E2B6401D015D02B50030DC7
:10199400F350AA0FD96EDA6ADE04D8A40AD02B5009
:1019A400030DF350A80FD96EDA6A0350DE5E0450BB
:1019B400DD5A2B2AE7D7000E046E000E036E1200C8
:1019C400746E2EEC0DF07450DAEC0DF0342A020E25
:1019D4003718D8A410D0270E34640DD0000E346EFE
:1019E400352A010E356402D0000E356E35C06EF016
:1019F40034504EEC0DF03504D8A41200270E346494
:101A040002D0000E346E35C06EF034504EEC0DF042
:101A140012000ED067C0D9FF68C0DAFF6650E16ECD
:101A2400E26ADE50E618D8A409D0662A674A682A12
:101A34006650D96EDA6ADF50D8A4ECD767C0D9FFF4
:101A440068C0DAFFDF50696E6650D96EDA6ADF501B
:101A54006A6E69506A5C12009486948494829480BD
:101A64008B9A8C8E3350CBEC0EF08B888B88000EC7
:101A740082B6010E6D6E8B988B988B888B888B98B1
:101A84008B98335039EC0EF066506710D8A41200CE
:101A94006D50D8B41200E9D7736E6E50D8B404D028
:101AA400000E726E400E03D0000E726E000E716E48
:101AB400735071246F6E000E7220706E2EEC0DF058
:101AC4006F508009F3EC0DF06EC035F073C034F044
:101AD4001200000E2B6E07D02B2A080E2B18D8A448
:101AE40002D0FF0E12002B50030DF350AA0FD96E33
:101AF400DA6ADE04D8B4F0D72B50030DF350AA0FE2
:101B0400D96EDA6A010EDF6E2B501200D09EF28E6F
:101B1400F28CF28AF294880ED56EDF0ED76E940E94
:101B2400D66ED58E000E2B6E070E2B6401D01200DC
:101B34002B50030DF350AA0FD96EDA6A000EDF6E34
:101B44002B2AF2D7666E020E6618D8A402D0570E5E
:101B54001200060E6618D8A402D0440E1200080E15
:101B64006618D8A402D0530E1200040E6618D8A426
:101B740002D0410E1200000E12006650D96EDA6ACD
:101B8400DF50586E6650D96EDA6A010ED926DF50DE
:101B9400596E6650D96EDA6A020ED926DF505B6E32
:101BA4006650D96EDA6A030ED926DF505C6E1200D5
:101BB400686E94969494949294908B8A8C9E8B885D
:101BC400685052EC0CF08B888B988B988B886850FB
:101BD4001EEC0CF08B888B98948694849482948069
:101BE4001200686E94969494949294908B9A8C9E1E
:101BF4008B88685052EC0CF08B888B988B988B8870
:101C040068501EEC0CF08B888B9894869484948294
:101C140094801200000E666E000EA96E000EA86E6F
:101C2400A69EA69CA684F29E550EA76EAA0EA76E2B
:101C3400A682A6B2FED7662A9F0E6664EDD7F28E00
:101C44001200010E0101006F010E096F310E176FB2
:101C5400310E206F000E016F000E0A6F000E186F18
:101C6400000E216F020E246E020E236E12006A6EA5
:101C740003C06BF004C06CF06A50030DF350A80F5E
:101C8400D96EDA6ADECF68F0DDCF69F068506B5C3C
:101C9400666E69506C58676E12004144474A4D5055
:101CA4005457000102030405060708090A000B3211
:101CB4002E524547495354455200312E4C4F474903
:101CC4004E00FA0E4818D8B412004850D8B40AD0BE
:101CD4005F2A3A0E5F18D8A403D0300E5F6E5E2AD6
:101CE40048061200FA0E486E1200676E66C0A9FF1D
:101CF40067C0A8FFA69EA69CA684F29E550EA76E5A
:101D0400AA0EA76EA682A6B2FED7F28E12002EEC01
:101D14000DF0010EF3EC0DF0000E6E6E030E6D6E01
:101D240033509BEC0EF0000E6E6E000E4EEC0DF078
:101D34001200706E7050CBEC0EF0705039EC0EF057
:101D44006D50665C6750800A6F6E6E50800A6F58E3
:101D5400D8B01200F2D7030E926EE00E936E8A96FC
:101D64008A908A92C00E946E8F0E956E000E8C6EC1
:101D7400A68EA69C1200302000FAFFFFFFFFFF0F83
:101D84000FFFFFFFFFFFFFFFFF33303A303000301B
:101D94003000666E6650030DF350A80FD96EDA6AF0
:101DA40003C0DEFF04C0DDFF1200240EAC6E900EF3
:101DB400AB6E080EB86E040EB06E100EAF6E12004D
:101DC400686E6850170D000EF324666E010EF42041
:101DD400676E1200010EC26E0D0EC16E090EC06E4A
:101DE4007F0EC46E1200676E6650C00FD96EDA6A39
:101DF40067C0DFFF1200676E6650380FD96EDA6A6B
:101E040067C0DFFF1200666E35EC0FF066C048F065
:101E1400120077B002D0D8901200D880120077B8A0
:101E240002D0D8901200D880120077B602D0D89091
:101E34001200D880120078BA02D0D8901200D8804C
:101E44001200666E788066C019F07882120069C04C
:101E540005F06AC006F07980120079A002D0D8900B
:101E64001200D8801200300E5E6E300E5F6E1200CB
:101E7400666E66C04BF01200666E66C049F01200D2
:101E8400666E66C04AF0120050C066F066301200FA
:101E9400666E66C04CF01200666E66C00BF01200EF
:101EA400666E66C04DF012006BEC0DF0086E120009
:101EB4006BEC0DF00E6E12006BEC0DF01D6E12004B
:101EC400666E66C056F01200666E66C053F012006D
:101ED4006BEC0DF02F6E12006BEC0DF0556E1200D2
:101EE400666E66C052F012006BEC0DF0296E1200A3
:101EF400666E66C051F012006BEC0DF01A6E1200A3
:101F0400778A77961200788E56681200789E566803
:101F140012005E0E12004850120077921200779A57
:101F24001200580E12007798120078841200245080
:101F34001200788A120078881200788212004B50BE
:0A1F44001200789212007794120048
:020000040020DA
:08000000FFFFFFFFFFFFFFFF00
:020000040030CA
:0E000000FF061F1EFF8181FF03C003E00340C7
:00000001FF
