:020000040000FA
:0400000019EF00F004
:100008007A82D9CF64F0DACF65F0F3CF66F0F4CF17
:1000180067F0F1EC0BF067C0F4FF66C0F3FF65C052
:0E002800DAFF64C0D9FF7A921100E7EF0AF008
:1002000000312E506C617920612047616D650000DE
:100210000000000000000000000000000000322E7E
:100220004D6F646966792054696D650000000000B7
:100230000000000000000000000000332E53686F33
:10024000772047656E6572616C20546F7020352091
:1002500053636F7265732000342E4C6F676F757433
:10026000000000000000000000000000000000008E
:100270000000000000352E53686F7720416C6C2021
:10028000557365727300000000000000000000005C
:10029000000054494D452052454D41494E494E4775
:1002A0003A004D6F646966792054696D653A004281
:1002B0005945204259452000505357443A20005593
:0702C0005345523A200000F3
:1002C800F6D182EC0DF0B80E6B6E6C6A2EEC0EF067
:1002D800010E246E120034EC0EF0D8A01200010EAC
:1002E800706E000E8AEC0CF0AD0E6B6E6C6A2EEC24
:1002F8000EF05868020E246E12005804D8A409D0D3
:100308008EEC0EF00009D8B404D07986030E246E62
:100318001200020E5818D8A412007996F7D7586818
:10032800576882EC0DF0BF0E6B6E6B50D8A4020EAE
:100338006C6E2EEC0EF0040E246E120034EC0EF0EF
:10034800D8A01200010E706E000E8AEC0CF0B80EE8
:100358006B6E6B50D8A4020E6C6E2EEC0EF0050E70
:10036800246E120034EC0EF0D8A01200000E706E4D
:10037800060E8AEC0CF07EEC0EF0000E286E060ECF
:10038800246E12005750800A500FD8A00FD00A0EC2
:100398005818D8B40BD057501EEC0CF028C068F091
:1003A800575008EC0EF0070E246E12000B0E58186A
:1003B800D8A41200F8D7070E2818D8B408D00B0E06
:1003C8005818D8B404D0282A58685768D8D7070EC0
:1003D8002818D8B404D00B0E5818D8A41200010E4F
:1003E800706E060E8AEC0CF028C068F0000E08EC5F
:1003F8000EF058685768000E286E080E246E12001A
:100408005750800A500FD8A00FD00A0E5818D8B4E9
:100418000BD057501EEC0CF028C068F0575000EC79
:100428000EF0090E246E12000B0E5818D8A41200F4
:10043800F8D7070E2818D8B408D00B0E5818D8B417
:1004480004D0282A58685768D8D7070E2818D8B46F
:1004580004D00B0E5818D8A4120028C068F0000E5B
:1004680000EC0EF058685768000E286E90EC0EF0FD
:1004780081EC0EF00A0E246E120022EC0EF0D8B0B9
:10048800120046EC0EF0D8A002D0010E01D0000EEA
:10049800256E0B0E246E12000C0E246E1200000E38
:1004A800246E120082EC0DF094EC0EF0265028EC2D
:1004B8000EF0566858680D0E246E1200080E561875
:1004C800D8A405D0040E2660E7D7262AE5D7020E61
:1004D8005618D8A405D02650D8B4DED72606DCD7BF
:1004E8000B0E5818D8A413D0030E2618D8A40FD072
:1004F80096EC0EF082EC0DF0AF0E6B6E6B50D8A43C
:10050800020E6C6E2EEC0EF00E0E246E12000B0E08
:100518005818D8A413D02604D8A410D082EC0DF013
:1005280096EC0EF0A20E6B6E6B50D8A4020E6C6E99
:100538002EEC0EF05868100E246E12002650D8A427
:1005480012000B0E5818D8A4120096EC0EF058683A
:1005580082EC0DF0920E6B6E6B50D8A4020E6C6E8E
:100568002EEC0EF0255052EC0EF0150E246E1200F3
:1005780034EC0EF0D8A012002550EDEC0DF068C058
:100588006BF069C06CF02EEC0EF02750D6EC0DF035
:100598000F0E246E120027505AEC0DF069BE12009F
:1005A8006B0E685C090E6958D8A0120078D734EC35
:1005B8000EF0D8B058BE47D05850800A760FD8B041
:1005C80042D0010E706E000E8AEC0CF05850300FBD
:1005D8003F6E3F501EEC0CF05868110E246E12004E
:1005E80058BE31D05850800A760FD8B02CD0585009
:1005F800300F406E40501EEC0CF058683A0E1EEC5E
:100608000CF0120EEBD758BE1ED05850800A760F49
:10061800D8B019D05850300F416E41501EEC0CF034
:100628005868130EDBD758BE0ED05850800A760F84
:10063800D8B009D05850300F426E42501EEC0CF022
:100648005868140ECBD70A0E5818D8A4120024D70D
:100658000B0E5818D8A4F7D73F0E686EE0EC0CF0D4
:1006680058681AD70B0E5818D8A40ED098EC0EF06C
:100678000009D8B409D034EC0EF0D8A005D082EC2B
:100688000DF0160E246E120058BE0AD05850800A7B
:10069800760FD8B005D058504AEC0EF0586865D798
:1006A80056BE120056504EEC0EF056685ED72450D7
:1006B8000001C06FC16BC151000AD8A41200C0511B
:1006C800000AD8B4FED5010AD8B405D6030AD8B4AE
:1006D80014D6010AD8B423D6070AD8B42FD6010AEB
:1006E800D8B440D6030AD8B44DD6010AD8B463D6D4
:1006F8000F0AD8B485D6010AD8B49BD6030AD8B451
:10070800BCD6010AD8B4C8D6070AD8B4CBD6010AD1
:10071800D8B4D4D6030AD8B42BD7010AD8B43BD757
:100728001F0AD8B444D7010AD8B45AD7030AD8B490
:100738006AD7010AD8B477D7070AD8B489D7010A83
:10074800D8B490D7030A1200BDD1110E106018D08A
:1007580078AC16D0000E706E000E8AEC0CF01750B4
:100768001D0DF350010F0001C06FC0C06BF06B503E
:10077800D8A4020E6C6E2EEC0EF0050E166E12004A
:10078800100E1064120078AC1200162A12000F0E18
:1007980015642BD0142A542A17501D0DF350010F3D
:1007A8005424C06FC0C0F6FF020EF76E0800F55063
:1007B8000009D8A402D0000E546E17501D0DF35036
:1007C800010F1424C06FC0C0F6FF020EF76E0800B8
:1007D800F5500009D8A402D0000E146E000E156E54
:1007E80014C012F0060E166E1200100E15601200DC
:1007F800000E706E15508AEC0CF017501D0DF3505A
:10080800010F12240001C06FC0C0F6FF020EF76E80
:100818000800F5501EEC0CF0152A122A17501D0D71
:10082800F350010F12240001C06FC0C0F6FF020E82
:10083800F76E0800F5500009D8A41200000E126ED9
:100848001200040E176012D0A0D7000E166E120008
:1008580034EC0EF0D8A006D0040E176003D0070EB3
:10086800166E120034EC0EF0D8A01200030E1764B6
:100878001200EBD778AA120078AC1200000E106EA6
:10088800000E0F6E000E706E000E8AEC0CF0000E5B
:10089800146E0F0E546E000E136E0F0E536E000E74
:1008A800156E000E126E000E116E789A6ED71750E4
:1008B8001D0DF350010F1024C06FC0C0F6FF020ECB
:1008C800F76E0800F5500009D8A404D0030E176489
:1008D80001D05BD717501D0DF350010F1024C06FC6
:1008E800C0C0F6FF020EF76E0800F5500009D8B434
:1008F80002D0102A1200040E1760120017501D0DA6
:10090800F350010F1024C06FC0C0F6FF020EF76E3F
:100918000800F5500009D8A412000D0E166E12003A
:10092800110E0F601AD078AC18D0010E706E000E40
:100938008AEC0CF017501D0DF3CFC0F01D0E00010E
:10094800C027C051010FC16FC1C06BF06B50D8A454
:10095800020E6C6E2EEC0EF018D7100E0F641200FB
:1009680078AC1200090E166E1200100E15602DD00C
:10097800010E706E15508AEC0CF017501D0DF350D7
:10098800010F11240001C06F1D0EC027C0C0F6FF63
:10099800020EF76E0800F5501EEC0CF0152A112A0D
:1009A80017501D0DF350010F11240001C06F1D0ECB
:1009B800C027C0C0F6FF020EF76E0800F550000908
:1009C800D8A41200000E116E12000F0E156412004A
:1009D800132A532A17501D0DF350010F5324C06FCB
:1009E8001D0EC027C0C0F6FF020EF76E0800F550B6
:1009F8000009D8A402D0000E536E17501D0DF350F5
:100A0800010F1324C06F1D0EC027C0C0F6FF020ED1
:100A1800F76E0800F5500009D8A402D0000E136E36
:100A2800000E156E13C011F0B0D618505AEC0DF028
:100A380069BE0ED0B50E685C040E6958D8B078BA95
:100A480007D078AC05D082EC0DF0020E166E1200BD
:100A580078AA120078AC120082EC0DF0F6D6185085
:100A6800D6EC0DF092D634EC0EF0D8A01200185047
:100A7800D6EC0DF00B0E166E120017501D0DF3502C
:100A8800010F0F24C06F1D0EC027C0C0F6FF020E55
:100A9800F76E0800F5500009D8B402D00F2A1200EA
:100AA80017501D0DF350010F0F24C06F1D0EC027E6
:100AB800C0C0F6FF020EF76E0800F5500009D8A472
:100AC8001200C3D716500001C06FC16BC151000A94
:100AD800D8A41200C051000AD8B4CCD6010AD8B4A0
:100AE800E6D6030AD8B431D6010AD8B450D6060AD5
:100AF800D8B4AED6030AD8B4A4D6010AD8B410D74D
:100B08000F0AD8B4B0D7010AD8B42FD7030AD8B47B
:100B1800A6D7010AD8B489D7060AD8A41200ADD737
:100B2800DFD05B28D8A479A806D05A50D6EC0DF0AF
:100B3800030E2E6E12005B28D8A412005A505AECED
:100B48000DF069BE12005A0E685C020E6958D8A0F2
:100B580012005C28D8B4120079A812005C506EEC20
:100B68000EF05C685968000E2F6E000E2E6E120093
:100B780059505B18D8A411D05A505AEC0DF069BEE0
:100B880006D05A0E685C020E6958D8B006D05B6869
:100B9800302A5C2A020E2E6E12005B28D8B412008E
:100BA80059505B18D8B412005C506EEC0EF05B50D4
:100BB800D8B406D05B50410FD96EDA6ADF5001D045
:100BC800300E5C6E000E2F6E5BC059F0000E306E5A
:100BD8005B68000E2E6E1200070E5918D8B40AD0A2
:100BE800090E5918D8B406D05950D8B403D0050EF8
:100BF8002E6E1200070E5918D8B404D0090E5918D1
:100C0800D8A403D0060E2E6E12005950D8A4120094
:100C18002F2A020E2F18D8A402D0000E2F6E2F50A4
:100C28004C0FD96EDA6ADF504BD05B50800A7E0FCA
:100C3800D8B003D05B50D8A408D05B50800A760F98
:100C4800D8B003D0010E2E6E12005B50D8B40ED06F
:100C58005B50800A7E0FD8B009D05C28D8A406D093
:100C68005B50300F6EEC0EF05B687FD75B50D8B4EA
:100C780012005B50800A7E0FD8B012005C28D8B4EE
:100C880012005C506EEC0EF05C68040E2E6E1200C2
:100C98005B50300F6EEC0EF0E7D7040E3018D8A476
:100CA80009D05950410FD96EDA6ADF505C6E000ED8
:100CB800306E5BD7030E3018D8A404D05950300FCB
:100CC8005C6E53D7030E306012004FD7040E3018F5
:100CD800D8B4F4D7050E3018D8B4E3D7040EF3D738
:100CE8002E506F6E706A7050000AD8A412006F50B0
:100CF800000AD8B416D7010AD8B43AD7030AD8B428
:100D08006BD7010AD8B491D7070AD8B4C1D7010A5A
:100D1800D8B4C3D7030AD8A41200D8D7A7D079A4C7
:100D280079B205D0000E1F6E000E1E6E120079A457
:100D380004D05568010E1D6E120079A21200020E31
:100D48001D6E120022501F5CD8B014D0360E686E8B
:100D58001F50170D000EF324696E010EF4206A6E01
:100D680047EC0CF00009D8A403D01FC055F08A86C0
:100D78001F2AE0D722501F18D8A412007994000E19
:100D88001D6E1200080E1F18D8B422D021C068F0BA
:100D98001F50360FD96EDA6ADF5070EC0DF0212A39
:100DA8001F50360FD96EDA6A2050170D000E6D6E7F
:100DB800010E6E6EF3506D26F4506E221F506D2496
:100DC800E16E000E6E20E26EDFCFE7FF1F2AB7D775
:100DD800080E1F18D8A41200000E1F6E030E1D6EF9
:100DE8001200080E1F18D8B428D021C068F01F5070
:100DF800980FD96EDA6ADF5070EC0DF0212A1F5077
:100E0800980FD96EDA6A2050170D000E6D6E010E1C
:100E18006E6E090E6D26000E6E22F3506D26F4508C
:100E28006E221F506D24E16E000E6E20E26EDFCF41
:100E3800E7FF1F2A030E1D6E1200080E1F18D8A404
:100E480012007992212A9F0E2118D8A402D0100EE0
:100E5800216E202A080E2018D8A402D0000E206E79
:100E6800080E2218D8B48BD7222A89D71D506D6E48
:100E78006E6A6E50000AD8A412006D50000AD8B4E9
:100E88004ED7010AD8B45ED7030AD8B47BD7010A73
:100E9800D8A41200A6D783A003D06F6A6F2A01D006
:100EA8006F6A83A202D0010E01D0000E020DF3CFAB
:100EB80070F083A402D0010E01D0000E030DF3CF11
:100EC80071F083A602D0010E01D0000E040DF3507C
:100ED800712470246F242A6E6FD02A50D8A407D0AA
:100EE8008C888C9A8C9C000E2B6E2C2A12002A500F
:100EF800D8B412002D50D6EC0DF0030E2C6E120053
:100F08002A50D8A405D08C988C8A8C9C010EECD7DA
:100F18002A50D8B412002D50D6EC0DF0EED72A5036
:100F2800D8A408D08C988C9A8C8C020E2B6E000E4C
:100F38002C6E12002A50D8B412002D50D6EC0DF0A9
:100F4800D4D72D505AEC0DF069BE1200CED72A50D6
:100F5800D8A403D0010E2C6E12002A50D8B4120067
:100F68002A50030DF3509E0F2B24D96EDA6ADF50F6
:100F780062EC0EF02A50030DF3509E0F2B24D96E0D
:100F8800DA6ADF505EEC0EF0B0D72A50D8A412000F
:100F98002D50D6EC0DF0A9D72D505AEC0DF0D4D722
:100FA8002A50D8B403D0050E2C6E12002A50D8A4AB
:100FB8001200000E2C6E12002C506F6E706A70506A
:100FC800000AD8A412006F50000AD8B486D7010AC4
:100FD800D8B496D7030AD8B4A2D7010AD8B4B1D7DF
:100FE800070AD8B4B4D7010AD8B4CFD7030AD8B4FB
:100FF800D3D7010AD8A41200D3D760D051BE1200AB
:101008005150EDEC0DF068C001F069C002F0788431
:101018007890010E076E120001C0D9FF02C0DAFFF6
:10102800DF50D8B4ACA208D0000EAD6E000E4F6EE3
:101038008A86020E076E120001C0D9FF02C0DAFFCD
:10104800DF50D8B41200ACA2120001C0D9FF02C010
:10105800DAFFDF50AD6E014A022A12004B0EAE18BD
:10106800D8A412007880030E076E12005028D8A466
:10107800ACA204D050C0ADFF5068F5D74F50800ADD
:101088007F0FD8A00DD04F50800A760FD8A0ACA201
:1010980007D04FC0ADFF000E4F6E030E076E120053
:1010A8000A0E4F18D8A41200ACA21200460EAD6E5C
:1010B800000E4F6E7894040E076E120007506B6E88
:1010C8006C6A6C50000AD8A412006B50000AD8B49D
:1010D80095D7010AD8B4A0D7030AD8B4BFD7010A54
:1010E800D8B4C4D7070A12005AD0C2B20BD0C80E5F
:1010F800C46008D0320EC46405D0070EC26E78886A
:101108000D2A5BD0C2B210D0C70EC4640DD0020E37
:101118000E18D8B403D0020E76EC0EF0020E0E6E46
:10112800070EC26E7898ECD7C2B247D0330EC460AF
:1011380044D0080E0E18D8B403D0080E76EC0EF082
:10114800080EEDD7C2B20BD0C80EC46008D0320E5C
:10115800C46405D0030EC26E78860D062ED0C2B2C6
:1011680010D0C70EC4640DD0060E0E18D8B403D024
:10117800060E76EC0EF0060E0E6E030EC26E789614
:10118800ECD7C2B21AD0330EC46017D0040E0E18B2
:10119800D8B403D0040E76EC0EF0040EEDD70D5043
:1011A800696E6A6A6A50000AD8A407D06950000AB2
:1011B800D8B49BD7010AD8B4C5D778A8120078A6A6
:1011C80012000E50D8B41200000E76EC0EF0000E8D
:1011D8000E6E1200746EA7EC0CF0316E74C035F010
:1011E80073C034F0000E326E32C033F09498959E7E
:1011F800949A000E766E000E756E000E706E640E78
:101208006F6E315094EC0DF0030EAAEC0AF0000E4C
:10121800706E050E6F6E315094EC0DF0030EAAEC53
:101228000AF0000E706E010E6F6E315094EC0DF0E6
:10123800030EAAEC0AF0000E706E010E6F6E3150AC
:1012480094EC0DF0020EAAEC0AF0000E706E040E7B
:101258006F6E315094EC0DF0280E14EC0DF06AEC22
:101268000CF0080E14EC0DF06AEC0CF0010E14EC06
:101278000DF0000E706E030E6F6E315094EC0DF091
:101288006AEC0CF0060E14EC0DF06AEC0CF00F0E84
:1012980014EC0DF0754A762A76BEAFD7765004E185
:1012A800020E755CD8A0A9D76AEC0CF00C0E14ECF1
:1012B8000DF0120048D078AE1200010E1C6E000E20
:1012C8001A6E1B50D6EC0DF0010E196E1200050EA9
:1012D8001C6404D0789E000E196E1200A80E1A180D
:1012E800D8A404D01C2A000E1A6EEED71B505AEC54
:1012F8000DF01C506F6E706A68506F5C7050800AF9
:10130800716E6950800A7158D8B012008A801B50DB
:10131800D6EC0DF0020E196E12001B505AEC0DF0AF
:101328001C506F6E706A68506F5C7050800A716EE6
:101338006950800A7158D8B012008A901B50D6ECB8
:101348000DF01A2AC1D719506F6E706A7050000AD2
:10135800D8A412006F50000AD8B4ADD7010AD8B487
:10136800B6D7030AD8A41200D8D7000EA96EA69E35
:10137800A69CA680A6B0FED7A8CF22F0A92AA69E32
:10138800A69CA6B0FED7A8CF21F0A92A000E6A6EA7
:1013980041D0000E6B6EA69EA69CA680A6B0FED776
:1013A8006A50170D000E686E010E696EF3506826BC
:1013B800F45069226B506824D96E000E6920DA6EE9
:1013C800A8CFDFFFA92A6B2A080E6B64E4D7000EAA
:1013D8006C6EA69EA69CA680A6B0FED76A50170D76
:1013E800000E686E010E696E090E6826000E6922ED
:1013F800F3506826F45069226C506824D96E000EA8
:101408006920DA6EA8CFDFFFA92A6C2A080E6C645F
:10141800E0D76A2A22506A5CD8B01200BAD745D001
:101428005228D8B4120052503AEC0EF0020E096E4F
:10143800120016EC0EF0D8B006D0526884EC0EF00C
:10144800000E096E120056BE07D0565042EC0EF040
:101458005668010E096E12001CEC0EF0D8A014D0CC
:1014680034EC0EF0D8A010D08AEC0EF0010E706E9D
:10147800000E8AEC0CF088EC0EF0766E76C06BF0FD
:101488006C6A2EEC0EF0E5D75B50800A7F0FD8A06F
:1014980012005B503EEC0EF05B68DBD710EC0EF0F0
:1014A800D8A0120086EC0EF0D4D70950766E776A71
:1014B8007750000AD8A412007650000AD8B4B0D7E2
:1014C800010AD8B4B6D7030AD8A41200E7D732D095
:1014D8000C505AEC0DF069BE1200B50E685C040E93
:1014E8006958D8A012000C50D6EC0DF078A41FD083
:1014F800788261062F0E6118D8A403D0390E616E68
:1015080060062F0E6018D8A403D0350E606E5E06F4
:101518002F0E5E18D8A403D0390E5E6E5D060B2A16
:101528003B0E0B6404D08CEC0EF0000E0B6E000E1C
:101538000A6E12000A506F6E706A7050000AD8A4C2
:1015480012006F50000AD8A41200C2D7696E949690
:101558009494949294908B9A8C9E8B888B8869A68D
:1015680003D0686A682A01D0686A6846684668468F
:101578008B506818F70B68188B6E69A403D0686ADB
:10158800682A01D0686A684668468B506818FB0B61
:1015980068188B6E69A203D0686A682A01D0686AE5
:1015A80068468B506818FD0B68188B6E69A003D0CD
:1015B800686A682A01D0686A8B506818FE0B681838
:1015C8008B6E8B9812008C0EF66E1B0EF76E000E4B
:1015D800F86E00EEA1F010EE1FF00900F5CFEEFF57
:1015E800E550E150FAE14C0EF66E1B0EF76E000E58
:1015F800F86E00EE43F010EE20F00900F5CFEEFF94
:10160800E550E150FAE101EE00F0B80EEE6AE806A6
:10161800FDE100EE80F0210EEE6AE806FDE1796A50
:10162800786A00EE01F0420EEE6AE806FDE17A9073
:101638007A92000EF86E000122EF0BF0B6EC0DF076
:101648002DEC0DF0E2EC0DF0C4EC0CF066EC0EF0B5
:101658006AEC0EF094EC05F0B9EC09F05AEC0EF0D7
:101668007AEC0EF0F7EC0DF056EC0EF0100E736EEF
:10167800020EEEEC08F072EC0EF044EC0DF013ECF8
:101688000AF001EC08F06BEC0AF078EC08F064EC76
:1016980001F05EEC09F092EC06F0A8EC03F04FECD8
:1016A80007F094EC05F0C2EC0BF0E9D7696E69A677
:1016B80003D0686A682A01D0686A6846684668463E
:1016C8008B506818F70B68188B6E69A403D0686A8A
:1016D800682A01D0686A684668468B506818FB0B10
:1016E80068188B6E69A203D0686A682A01D0686A94
:1016F80068468B506818FD0B68188B6E69A003D07C
:10170800686A682A01D0686A8B506818FE0B6818E6
:101718008B6E1200696E69AE03D0686A682A01D0C0
:10172800686A6846684668468B506818F70B6818F8
:101738008B6E69AC03D0686A682A01D0686A68460B
:1017480068468B506818FB0B68188B6E69AA03D023
:10175800686A682A01D0686A68468B506818FD0B69
:1017680068188B6E69A803D0686A682A01D0686A0D
:101778008B506818FE0B68188B6E120079AA12003D
:1017880005C0F6FF06C0F7FFF86A010EF76403D03C
:101798000800F55005D0F6CFE1FFF7CFE2FFE7509C
:1017A8001EEC0CF0054A062A05C0F6FF06C0F7FF36
:1017B800F86A010EF76403D00800F55005D0F6CF9B
:1017C800E1FFF7CFE2FFE7500009D8A41200799AA9
:1017D800000E056E000E066E1200DF0ED76E940E18
:1017E800D66EF294034A042A480E035CEE0E04589F
:1017F800D8A01200000E296E070E296401D015D05A
:101808002950030DF350820FD96EDA6ADE04D8A48A
:101818000AD02950030DF350800FD96EDA6A0350AD
:10182800DE5E0450DD5A292AE7D7000E046E000E4A
:10183800036E1200766E6AEC0CF07650FBEC0CF03E
:10184800322A020E3518D8A410D0270E32640DD0D3
:10185800000E326E332A010E336402D0000E336E4E
:1018680033C070F032508AEC0CF03304D8A4120064
:10187800270E326402D0000E326E33C070F0325040
:101888008AEC0CF012000ED069C0D9FF6AC0DAFFEA
:101898006850E16EE26ADE50E618D8A409D0682ADA
:1018A800694A6A2A6850D96EDA6ADF50D8A4ECD738
:1018B80069C0D9FF6AC0DAFFDF506B6E6850D96E15
:1018C800DA6ADF506C6E6B506C5C120094869484FC
:1018D800948294808B9A8C8E3150D6EC0DF08B8844
:1018E8008B88000E82B6010E6F6E8B988B988B8852
:1018F8008B888B988B9831505AEC0DF06850691092
:10190800D8A412006F50D8B41200E9D7756E705081
:10191800D8B404D0000E746E400E03D0000E746E5E
:10192800000E736E75507324716E000E7420726E03
:101938006AEC0CF07150800914EC0DF070C033F0B3
:1019480075C032F01200000E296E07D0292A080E41
:101958002918D8A402D0FF0E12002950030DF35005
:10196800820FD96EDA6ADE04D8B4F0D72950030D95
:10197800F350820FD96EDA6A010EDF6E2950120019
:10198800D09EF28EF28CF28AF294880ED56EDF0E1B
:10199800D76E940ED66ED58E000E296E070E29646A
:1019A80001D012002950030DF350820FD96EDA6A64
:1019B800000EDF6E292AF2D76850D96EDA6ADF5036
:1019C8005D6E6850D96EDA6A010ED926DF505E6EF8
:1019D8006850D96EDA6A020ED926DF50606E6850F8
:1019E800D96EDA6A030ED926DF50616E12006A6E6C
:1019F80094969494949294908B8A8C9E8B886A5037
:101A08008EEC0BF08B888B988B988B886A505AECED
:101A18000BF08B888B98948694849482948012001F
:101A28006A6E94969494949294908B9A8C9E8B88D8
:101A38006A508EEC0BF08B888B988B988B886A5049
:101A48005AEC0BF08B888B989486948494829480BB
:101A58001200000E686E000EA96E000EA86EA69EFB
:101A6800A69CA684F29E550EA76EAA0EA76EA68205
:101A7800A6B2FED7682A9F0E6864EDD7F28E1200D0
:101A8800010E0101006F010E096F310E176F310E43
:101A9800206F000E016F000E0A6F000E186F000E07
:101AA800216F020E226E020E216E12006C6E03C0B0
:101AB8006DF004C06EF06C50030DF350800FD96EBA
:101AC800DA6ADECF6AF0DDCF6BF06A506D5C686E63
:101AD8006B506E58696E1200696E68C0A9FF69C0C4
:101AE800A8FFA69EA69CA684F29E550EA76EAA0ED7
:101AF800A76EA682A6B2FED7F28E12006AEC0CF090
:101B0800010E14EC0DF0000E706E030E6F6E315066
:101B180094EC0DF0000E706E000E8AEC0CF01200C2
:101B2800726E7250D6EC0DF072505AEC0DF06F5088
:101B3800685C6950800A716E7050800A7158D8B01C
:101B48001200F2D74144474A4D5054570030200004
:101B5800FFFFFFFF0F0FFFFFFFFFFFFFFFFF333008
:101B68003A303000030E926EE00E936E8A968A9099
:101B78008A92C00E946E8F0E956E000E8C6EA68E95
:101B8800A69C12000102030405060708090A000BB7
:101B9800322E524547495354455200312E4C4F4737
:031BA800494E00A3
:101BAC00686E6850030DF350800FD96EDA6A03C06B
:101BBC00DEFF04C0DDFF1200240EAC6E900EAB6E87
:101BCC00080EB86E040EB06E100EAF6E12006A6E78
:101BDC006A50170D000EF324686E010EF420696E26
:101BEC001200010EC26E0D0EC16E090EC06E7F0E7C
:101BFC00C46E1200696E6850980FD96EDA6A69C0AB
:101C0C00DFFF1200696E6850360FD96EDA6A69C050
:101C1C00DFFF120078B002D0D8901200D8801200EA
:101C2C0078B402D0D8901200D880120078B202D0CA
:101C3C00D8901200D880120079B402D0D89012003B
:101C4C00D8801200686E788A68C017F0788C120001
:101C5C006BC005F06CC006F0798A120079AA02D02C
:101C6C00D8901200D8801200686E68C051F0120033
:101C7C00686E68C04FF01200686E68C050F01200B9
:101C8C0055C068F068301200686E68C05BF01200D6
:101C9C00686E68C056F01200686E68C052F0120090
:101CAC00A7EC0CF00C6E1200A7EC0CF01B6E1200E3
:101CBC00686E68C05BF01200686E68C058F0120065
:101CCC00A7EC0CF02D6E1200A7EC0CF05A6E120063
:101CDC00686E68C057F01200A7EC0CF0276E12006B
:101CEC00686E68C056F01200A7EC0CF0186E12006B
:101CFC0079885B68120079985B68120078941200FE
:101D0C00788412005D0E120078921200788E120008
:101D1C00225012007984120079821200788C120001
:081D2C00789C120052501200D5
:020000040020DA
:08000000FFFFFFFFFFFFFFFF00
:020000040030CA
:0E000000FF061F1EFF8181FF03C003E00340C7
:00000001FF
