:020000040000FA
:0400000019EF00F004
:100008007A82D9CF55F0DACF56F0F3CF57F0F4CF44
:1000180058F0F1EC08F058C0F4FF57C0F3FF56C091
:0E002800DAFF55C0D9FF7A92110055EF08F0AB
:1002000000312E20506C617920612047616D6500BE
:1002100000000000000000322E204D6F64696679F6
:100220002054696D650000000000000000332E209E
:1002300053686F772047656E6572616C20546F70EC
:10024000203520342E204C6F676F7574000000003D
:10025000000000000000000000352E2053686F777A
:1002600020416C6C205573657273000000000032F1
:100270002E524547495354455200312E4C4F474961
:100280004E00505357443A2000555345523A2000EF
:01029000006D
:10029200B0D1110E256011D079A20FD0000E616E7F
:1002A200000EB2EC09F02C50160DF350010F596EEE
:1002B20028EC0BF0050E2B6E1200100E25641200B6
:1002C20079A212002B2A12000F0E2A642BD0292A9F
:1002D200722A2C50160DF350010F72248C6F8CC0B1
:1002E200F6FF020EF76E0800F5500009D8A402D0FE
:1002F200000E726E2C50160DF350010F29248C6FD4
:100302008CC0F6FF020EF76E0800F5500009D8A463
:1003120002D0000E296E000E2A6E29C027F0060EAA
:100322002B6E1200100E2A601200000E616E2A500F
:10033200B2EC09F02C50160DF350010F27240001E6
:100342008C6F8CC0F6FF020EF76E0800F5501EECA3
:1003520009F02A2A272A2C50160DF350010F2724C0
:1003620000018C6F8CC0F6FF020EF76E0800F5508C
:100372000009D8A41200000E276E1200050E2C6090
:1003820012D0A0D7000E2B6E120002EC0BF0D8A0F8
:1003920006D0050E2C6003D0070E2B6E120002EC65
:1003A2000BF0D8A01200040E2C641200EBD779A037
:1003B200120079A21200000E256E000E246E000EAD
:1003C200616E000EB2EC09F0000E296E0F0E726E15
:1003D200000E286E0F0E716E000E2A6E000E276E32
:1003E200000E266E79906ED72C50160DF350010F29
:1003F20025248C6F8CC0F6FF020EF76E0800F550B4
:100402000009D8A404D0040E2C6401D05BD72C5070
:10041200160DF350010F25248C6F8CC0F6FF020ECF
:10042200F76E0800F5500009D8B402D0252A120050
:10043200050E2C6012002C50160DF350010F2524CE
:100442008C6F8CC0F6FF020EF76E0800F5500009A3
:10045200D8A412000D0E2B6E1200110E246014D0BF
:1004620079A212D0010E616E000EB2EC09F02C508E
:10047200160DF3CF8CF0160E00018C278C51010F54
:10048200596E28EC0BF01ED7100E2464120079A2CC
:100492001200090E2B6E1200100E2A602DD0010ED2
:1004A200616E2A50B2EC09F02C50160DF350010F78
:1004B200262400018C6F160E8C278CC0F6FF020ECC
:1004C200F76E0800F5501EEC09F02A2A262A2C5055
:1004D200160DF350010F262400018C6F160E8C2787
:1004E2008CC0F6FF020EF76E0800F5500009D8A482
:1004F2001200000E266E12000F0E2A641200282A25
:10050200712A2C50160DF350010F71248C6F160EA8
:100512008C278CC0F6FF020EF76E0800F55000091A
:10052200D8A402D0000E716E2C50160DF350010F9C
:1005320028248C6F160E8C278CC0F6FF020EF76EE5
:100542000800F5500009D8A402D0000E286E000E53
:100552002A6E28C026F0B6D62D5069EC0AF05ABE93
:100562000ED0D00E595C070E5A58D8B079B007D0C9
:1005720079A205D091EC0AF0020E2B6E120079A03E
:10058200120079A2120091EC0AF0FCD62D50C5ECB3
:100592000AF098D602EC0BF0D8A012002D50C5EC50
:1005A2000AF00B0E2B6E12002C50160DF350010F99
:1005B20024248C6F160E8C278CC0F6FF020EF76E69
:1005C2000800F5500009D8B402D0242A12002C5099
:1005D200160DF350010F24248C6F160E8C278CC03D
:1005E200F6FF020EF76E0800F5500009D8A41200BB
:1005F200C3D72B5000018C6F8D6B8D51000AD8A48C
:1006020012008C51000AD8B4D2D6010AD8B4ECD662
:10061200030AD8B43ED6010AD8B456D6060AD8B4CC
:10062200B4D6030AD8B4AAD6010AD8B416D70F0A88
:10063200D8B4B0D7010AD8B42FD7030AD8B4A6D7F2
:10064200010AD8B489D7060AD8A41200ADD71DD1A1
:1006520091EC0AF07A0E596E28EC0BF0010E3A6E0C
:10066200120002EC0BF0D8A01200010E616E000E17
:10067200B2EC09F06F0E596E28EC0BF07468020EA2
:100682003A6E12007404D8A409D036EC0BF00009BB
:10069200D8B404D0798A030E3A6E1200020E74188E
:1006A200D8A41200799AF7D77468736891EC0AF0AB
:1006B200890E596E28EC0BF0040E3A6E120002EC11
:1006C2000BF0D8A01200010E616E000EB2EC09F020
:1006D200820E596E28EC0BF0050E3A6E120002ECF7
:1006E2000BF0D8A01200000E616E060EB2EC09F0FB
:1006F20030EC0BF0000E3D6E060E3A6E1200735097
:10070200800A500FD8A00FD00A0E7418D8B40BD09C
:1007120073501EEC09F03DC059F07350E2EC0AF040
:10072200070E3A6E12000B0E7418D8A41200F8D7F6
:10073200070E3D18D8B408D00B0E7418D8B404D0E4
:100742003D2A74687368D8D7070E3D18D8B404D010
:100752000B0E7418D8A41200010E616E060EB2ECD4
:1007620009F03DC059F0000EE2EC0AF074687368BB
:10077200000E3D6E080E3A6E12007350800A500F42
:10078200D8A00FD00A0E7418D8B40BD073501EEC38
:1007920009F03DC059F07350DAEC0AF0090E3A6ED6
:1007A20012000B0E7418D8A41200F8D7070E3D18C9
:1007B200D8B408D00B0E7418D8B404D03D2A74688B
:1007C2007368D8D7070E3D18D8B404D00B0E74182E
:1007D200D8A412003DC059F0000EDAEC0AF0746899
:1007E2007368000E3D6E38EC0BF033EC0BF00A0E22
:1007F2003A6E1200F0EC0AF0D8B012000B0E3A6E0C
:10080200120079BA07D008EC0BF0D8B003D03AEC5A
:100812000BF040D779AA07D008EC0BF0D8A003D090
:100822000C0E3A6E120079AA02D0010E01D0000E0F
:1008320000018C6F08EC0BF0D8A002D0010E01D0A1
:10084200000E00018C1BD8B41200000E3A6E12008A
:1008520091EC0AF03CEC0BF03B50F6EC0AF07468B9
:100862000D0E3A6E1200080E7418D8A405D0040EAC
:100872003B60D6D73B2AD4D7020E7418D8A41200F4
:100882003B50D8B4CDD73B06CBD73A5000018C6F42
:100892008D6B8D51000AD8A412008C51000AD8B475
:1008A200D7D6010AD8B4DDD6030AD8B4EBD6010AEA
:1008B200D8B4FAD6070AD8B402D7010AD8B40FD7E7
:1008C200030AD8B41CD7010AD8B432D70F0AD8B455
:1008D20054D7010AD8B46AD7030AD8B48BD7010A0D
:1008E200D8B48FD7070AD8B4B3D7010AD8A4120054
:1008F200BAD7EAD07728D8A479AC06D07650C5EC1E
:100902000AF0030E436E12007728D8A41200765024
:1009120069EC0AF05ABE12005A0E595C020E5A587D
:10092200D8A012007828D8B4120079AC12007850FE
:1009320020EC0BF078687568000E436E120075505B
:100942007718D8A418D0765069EC0AF05ABE06D0AF
:100952005A0E595C020E5A58D8B00DD07768442A04
:10096200300E7818D8B404D0200E7818D8A4782A7B
:10097200020E436E12007728D8B412007550771811
:10098200D8B41200785020EC0BF07750D8A407D0DE
:100992004404D8A402D0300E07D0200E05D07750E0
:1009A200660FD96EDA6ADF50786E77C075F0000E86
:1009B200446E7768C1D7070E7518D8B40AD0090EED
:1009C2007518D8B406D07550D8B403D0050E436E4E
:1009D2001200070E7518D8B404D0090E7518D8A4E1
:1009E20003D0060E436E12007550D8A41200070EF3
:1009F200436E12007750800A7E0FD8B003D0775032
:100A0200D8A408D07750800A760FD8B003D0010E50
:100A1200436E12007750800A7E0FD8B008D0782833
:100A2200D8A405D07750300F20EC0BF0C2D7775006
:100A3200800A7E0FD8B012007828D8B412007850FD
:100A420020EC0BF07868040E436E12007750300FE2
:100A520020EC0BF0AED7040E4418D8A409D0755080
:100A6200660FD96EDA6ADF50786E000E446E64D774
:100A7200030E4418D8A404D07550300F786E5CD79A
:100A8200030E4460120058D7040E4418D8B4F4D7A9
:100A9200050E4418D8B4E3D7040EF3D7020E441857
:100AA200D8A405D0200E786E000E436E1200030EFD
:100AB2004418D8A407D0300E786E000E446E000E93
:100AC200436E1200020EDDD74350606E616A6150C0
:100AD200000AD8A412006050000AD8B40BD7010A49
:100AE200D8B42DD7030AD8B466D7010AD8B482D7AE
:100AF200070AD8B4ABD7010AD8B4ADD7030AD8B421
:100B0200C3D7010AD8A41200C9D7A8D079A879B648
:100B120005D0000E356E000E346E120079A805D095
:100B2200000E336E010E326E120079A61200020E12
:100B3200326E12003850355CD8B014D04B0E596E5C
:100B42003550170D000EF3245A6E010EF4205B6E21
:100B52006FEC09F00009D8B435C033F0352A010E24
:100B6200326E120038503518D8A412007998000E4F
:100B7200326E1200080E3518D8B422D037C059F0A0
:100B820035504B0FD96EDA6ADF507FEC0AF0372A04
:100B920035504B0FD96EDA6A3650170D000E5E6E65
:100BA200010E5F6EF3505E26F4505F2235505E24D4
:100BB200E16E000E5F20E26EDFCFE7FF352AB7D786
:100BC200080E3518D8A41200000E356E030E326ED0
:100BD2001200080E3518D8B428D037C059F0355055
:100BE200190FD96EDA6ADF507FEC0AF0372A3550D6
:100BF200190FD96EDA6A3650170D000E5E6E010EAD
:100C02005F6E090E5E26000E5F22F3505E26F450E0
:100C12005F2235505E24E16E000E5F20E26EDFCF70
:100C2200E7FF352A030E326E1200080E3518D8A4DB
:100C320012007996372A9F0E3718D8A402D0100EC8
:100C4200376E362A080E3618D8A402D0000E366E39
:100C5200080E3818D8B48BD7382A89D732505E6E2E
:100C62005F6A5F50000AD8A412005E50000AD8B42E
:100C72004DD7010AD8B45ED7030AD8B47BD7010A8C
:100C8200D8A41200A6D783A003D0606A602A01D03C
:100C9200606A83A202D0010E01D0000E020DF3CFD2
:100CA20061F083A402D0010E01D0000E030DF3CF38
:100CB20062F083A602D0010E01D0000E040DF350A3
:100CC2006224612460243F6E6FD03F50D8A407D0C5
:100CD2008C888C9A8C9C000E406E412A12003F50E8
:100CE200D8B412004250C5EC0AF0030E416E120055
:100CF2003F50D8A405D08C988C8A8C9C010EECD7DE
:100D02003F50D8B412004250C5EC0AF0EED73F5023
:100D1200D8A408D08C988C9A8C8C020E406E000E4F
:100D2200416E12003F50D8B412004250C5EC0AF096
:100D3200D4D7425069EC0AF05ABE1200CED73F50C7
:100D4200D8A403D0010E416E12003F50D8B4120055
:100D52003F50030DF3507D0F4024D96EDA6ADF5005
:100D620014EC0BF03F50030DF3507D0F4024D96E6D
:100D7200DA6ADF5010EC0BF0B0D73F50D8A4120063
:100D82004250C5EC0AF0A9D7425069EC0AF0D4D718
:100D92003F50D8B403D0050E416E12003F50D8A484
:100DA2001200000E416E12004150606E616A615085
:100DB200000AD8A412006050000AD8B486D7010AEB
:100DC200D8B496D7030AD8B4A2D7010AD8B4B1D7F7
:100DD200070AD8B4B4D7010AD8B4CFD7030AD8B413
:100DE200D3D7010AD8A41200D3D7656ECFEC09F08D
:100DF200466E65C04AF064C049F0000E476E47C0B7
:100E020048F09498959E949A000E676E000E666E56
:100E1200000E616E640E606E4650A3EC0AF0030E83
:100E220018EC08F0000E616E050E606E4650A3ECE1
:100E32000AF0030E18EC08F0000E616E010E606EEF
:100E42004650A3EC0AF0030E18EC08F0000E616E97
:100E5200010E606E4650A3EC0AF0020E18EC08F088
:100E6200000E616E040E606E4650A3EC0AF0280E6E
:100E720021EC0AF092EC09F0080E21EC0AF092EC57
:100E820009F0010E21EC0AF0000E616E030E606E95
:100E92004650A3EC0AF092EC09F0060E21EC0AF09F
:100EA20092EC09F00F0E21EC0AF0664A672A67BE3F
:100EB200AFD7675004E1020E665CD8A0A9D7FCEC5C
:100EC2000AF0120048D079A41200010E316E000E11
:100ED2002F6E3050C5EC0AF0010E2E6E1200050E78
:100EE200316404D07994000E2E6E1200A80E2F18D1
:100EF200D8A404D0312A000E2F6EEED7305069EC00
:100F02000AF03150606E616A5950605C6150800A2B
:100F1200626E5A50800A6258D8B012008A803050ED
:100F2200C5EC0AF0020E2E6E1200305069EC0AF087
:100F32003150606E616A5950605C6150800A626E25
:100F42005A50800A6258D8B012008A903050C5ECCC
:100F52000AF02F2AC1D72E50606E616A6150000AD2
:100F6200D8A412006050000AD8B4ADD7010AD8B490
:100F7200B6D7030AD8A41200D8D7000EA96EA69E2F
:100F8200A69CA680A6B0FED7A8CF38F0A92AA69E16
:100F9200A69CA6B0FED7A8CF37F0A92A000E5B6E9A
:100FA20041D0000E5C6EA69EA69CA680A6B0FED77F
:100FB2005B50170D000E596E010E5A6EF3505926F2
:100FC200F4505A225C505924D96E000E5A20DA6E1F
:100FD200A8CFDFFFA92A5C2A080E5C64E4D7000EC2
:100FE2005D6EA69EA69CA680A6B0FED75B50170D8E
:100FF200000E596E010E5A6E090E5926000E5A2223
:10100200F3505926F4505A225D505924D96E000EDD
:101012005A20DA6EA8CFDFFFA92A5D2A080E5D6486
:10102200E0D75B2A38505B5CD8B01200BAD75A6E50
:1010320094969494949294908B9A8C9E8B888B889D
:101042005AA603D0596A592A01D0596A59465946B3
:1010520059468B505918F70B59188B6E5AA403D066
:10106200596A592A01D0596A594659468B5059181A
:10107200FB0B59188B6E5AA203D0596A592A01D018
:10108200596A59468B505918FD0B59188B6E5AA044
:1010920003D0596A592A01D0596A8B505918FE0B4C
:1010A20059188B6E8B981200D40EF66E150EF76ED1
:1010B200000EF86E00EE80F010EE0CF00900F5CF95
:1010C200EEFFE550E150FAE1A20EF66E150EF76E54
:1010D200000EF86E00EE68F010EE11F00900F5CF88
:1010E200EEFFE550E150FAE101EE00F0B80EEE6AD3
:1010F200E806FDE1796A00EE01F0530EEE6AE806B9
:10110200FDE17A907A92000EF86E000147EF09F045
:101112005A6E5AA603D0596A592A01D0596A5946B9
:10112200594659468B505918F70B59188B6E5AA4C9
:1011320003D0596A592A01D0596A594659468B50E7
:101142005918FB0B59188B6E5AA203D0596A592AA7
:1011520001D0596A59468B505918FD0B59188B6E9C
:101162005AA003D0596A592A01D0596A8B5059188A
:10117200FE0B59188B6E12005A6E5AAE03D0596A82
:10118200592A01D0596A5946594659468B5059181D
:10119200F70B59188B6E5AAC03D0596A592A01D0F1
:1011A200596A594659468B505918FB0B59188B6E80
:1011B2005AAA03D0596A592A01D0596A59468B5002
:1011C2005918FD0B59188B6E5AA803D0596A592A1F
:1011D20001D0596A8B505918FE0B59188B6E1200A8
:1011E200DF0ED76E940ED66EF294224A232A480E50
:1011F200225CEE0E2358D8A01200000E3E6E070E9F
:101202003E6401D015D03E50030DF350030FD96E4A
:10121200DA6ADE04D8A40AD03E50030DF350010F5F
:10122200D96EDA6A2250DE5E2350DD5A3E2AE7D7B3
:10123200000E236E000E226E1200676E92EC09F011
:10124200675008EC0AF0472A020E4A18D8A410D0B8
:10125200270E47640DD0000E476E482A010E4864DF
:1012620002D0000E486E48C061F04750B2EC09F05F
:101272004804D8A41200270E476402D0000E476E1D
:1012820048C061F04750B2EC09F01200B5EC0AF028
:1012920052EC0AF0ECEC09F018EC0BF01CEC0BF041
:1012A2007AEC04F0BEEC07F00CEC0BF02CEC0BF03B
:1012B200100E646E020EF6EC06F024EC0BF028EC35
:1012C20003F063EC07F086EC05F049EC01F044EC26
:1012D20006F07AEC04F03AEC0AF0F1D70ED05AC0DC
:1012E200D9FF5BC0DAFF5950E16EE26ADE50E618C0
:1012F200D8A409D0592A5A4A5B2A5950D96EDA6AB7
:10130200DF50D8A4ECD75AC0D9FF5BC0DAFFDF5058
:101312005C6E5950D96EDA6ADF505D6E5C505D5C6E
:10132200120094869484948294808B9A8C8E465078
:10133200C5EC0AF08B888B88000E82B6010E606EB7
:101342008B988B988B888B888B988B98465069ECFE
:101352000AF059505A10D8A412006050D8B41200A2
:10136200E9D7666E6150D8B404D0000E656E400EA7
:1013720003D0000E656E000E646E66506424626EC9
:10138200000E6520636E92EC09F06250800921EC38
:101392000AF061C048F066C047F01200000E3E6ECF
:1013A20007D03E2A080E3E18D8A402D0FF0E120023
:1013B2003E50030DF350030FD96EDA6ADE04D8B43F
:1013C200F0D73E50030DF350030FD96EDA6A010EC7
:1013D200DF6E3E501200D09EF28EF28CF28AF294B0
:1013E200880ED56EDF0ED76E940ED66ED58E000E99
:1013F2003E6E070E3E6401D012003E50030DF350C4
:10140200030FD96EDA6A000EDF6E3E2AF2D75B6EE8
:1014120094969494949294908B8A8C9E8B885B5031
:10142200BDEC08F08B888B988B988B885B5089EC8D
:1014320008F08B888B98948694849482948012000E
:101442005B6E94969494949294908B9A8C9E8B88D3
:101452005B50BDEC08F08B888B988B988B885B5027
:1014620089EC08F08B888B9894869484948294807B
:10147200120079AE120045C0F6FF020EF76E0800A8
:10148200F5501EEC09F0452A45C0F6FF020EF76E34
:101492000800F5500009D8A41200799E000E456E8E
:1014A2001200000E596E000EA96E000EA86EA69EC6
:1014B200A69CA684F29E550EA76EAA0EA76EA682C1
:1014C200A6B2FED7592A9F0E5964EDD7F28E1200AA
:1014D2005D6E22C05EF023C05FF05D50030DF350DD
:1014E200010FD96EDA6ADECF5BF0DDCF5CF05B50C4
:1014F2005E5C596E5C505F585A6E12005A6E5AC04A
:10150200A9FF59C0A8FFA69EA69CA684F29E550ECE
:10151200A76EAA0EA76EA682A6B2FED7F28E120000
:1015220092EC09F0010E21EC0AF0000E616E030E3E
:10153200606E4650A3EC0AF0000E616E000EB2EC33
:1015420009F01200636E6350C5EC0AF0635069EC57
:101552000AF06050595C5A50800A626E6150800AEB
:101562006258D8B01200F2D7030E926EE00E936E5C
:101572008A968A908A92C00E946E8F0E956E000E95
:101582008C6EA68EA69C1200596E5950030DF35014
:10159200010FD96EDA6A22C0DEFF23C0DDFF12001E
:1015A2004144474A4D505457000F0FFFFFFFFFFFC2
:0115B200FF39
:1015B4005A6E5950190FD96EDA6A5AC0DFFF1200F9
:1015C4005A6E59504B0FD96EDA6A5AC0DFFF1200B7
:1015D4000102030405060708090A000B79B802D0C2
:1015E400D8901200D8801200596E798059C02CF01E
:1015F4007982120092EC09F00C0E21EC0AF0120030
:1016040079AE02D0D8901200D880120033C059F0BD
:1016140059301200CFEC09F0306E1200596E59C0E7
:1016240077F01200596E59C074F01200CFEC09F033
:10163400426E1200CFEC09F0766E1200596E59C05A
:1016440073F01200CFEC09F03C6E120059C045F063
:10165400798E1200CFEC09F02D6E1200798C776828
:101664001200799C776812003850120079881200B1
:08167400798612007982120050
:020000040020DA
:08000000FFFFFFFFFFFFFFFF00
:020000040030CA
:0E000000FF061F1EFF8181FF03C003E00340C7
:00000001FF
