:020000040000FA
:0400000019EF00F004
:100008007582D9CF5FF0DACF60F0F3CF61F0F4CF2B
:1000180062F073EC05F062C0F4FF61C0F3FF60C0EA
:0E002800DAFF5FC0D9FF75921100C9EF05F035
:1002000000322E524547495354455200312E4C4F2F
:1002100047494E00505357443A2000555345523AEF
:03022000200000BB
:1002240000D11DEC07F00C0E636E93EC07F0010E89
:100234002A6E120087EC07F0D8A01200010E6B6E34
:10024400000E50EC06F0010E636E93EC07F04D685F
:10025400020E2A6E12004D04D8A409D0B5EC07F0A2
:100264000009D8B404D07484030E2A6E1200020E5E
:100274004D18D8A412007494F7D74D684C681DEC3F
:1002840007F01B0E636E93EC07F0040E2A6E120047
:1002940087EC07F0D8A01200010E6B6E000E50EC34
:1002A40006F0140E636E93EC07F0050E2A6E12002E
:1002B40087EC07F0D8A01200000E6B6E060E50EC0F
:1002C40006F0AFEC07F0000E2C6E060E2A6E12003C
:1002D4004C50800A500FD8A00FD00A0E4D18D8B435
:1002E4000BD04C50A0EC05F02CC063F04C5073ECD8
:1002F40007F0070E2A6E12000B0E4D18D8A4120038
:10030400F8D7070E2C18D8B408D00B0E4D18D8B453
:1003140004D02C2A4D684C68D8D7070E2C18D8B4B2
:1003240004D00B0E4D18D8A41200010E6B6E060EED
:1003340050EC06F02CC063F0000E73EC07F04D682F
:100344004C68000E2C6E080E2A6E12004C50800A67
:10035400500FD8A00FD00A0E4D18D8B40BD04C5063
:10036400A0EC05F02CC063F04C506BEC07F0090EC8
:100374002A6E12000B0E4D18D8A41200F8D7070EDF
:100384002C18D8B408D00B0E4D18D8B404D02C2A8D
:100394004D684C68D8D7070E2C18D8B404D00B0E6F
:1003A4004D18D8A412002CC063F0000E6BEC07F0BB
:1003B4004D684C68000E2C6E1DEC07F0B7EC07F08E
:1003C400B2EC07F00A0E2A6E12007BEC07F0D8B0EC
:1003D40012000B0E2A6E120074B407D081EC07F0E1
:1003E400D8B003D00C0E2A6E120074A407D081EC8E
:1003F40007F0D8A003D00D0E2A6E120074A402D008
:10040400010E01D0000E726E81EC07F0D8A002D06C
:10041400010E01D0000E721AD8B41200000E2A6E1A
:1004240012002A50726E736A7350000AD8A4120024
:100434007250000AD8B4F5D6010AD8B4FBD6030A20
:10044400D8B409D7010AD8B418D7070AD8B420D722
:10045400010AD8B42DD7030AD8B43AD7010AD8B4BC
:1004640050D70F0AD8B472D7010AD8B488D7030A70
:10047400D8B4ABD7010AD8B4AFD7070AD8B412009E
:10048400010A1200B7D05028D8A474A606D04F5041
:100494005FEC07F0030E326E12005028D8A412004D
:1004A4004F5007EC07F064BE12005A0E635C020E54
:1004B4006458D8A012005128D8B4120074A61200AF
:1004C4005150A7EC07F051684E6812004E50501876
:1004D400D8A410D04F5007EC07F064BE06D05A0ED3
:1004E400635C020E6458D8B005D05068332A512A90
:1004F400322A12005028D8B412004E505018D8B4E2
:1005040012005150A7EC07F05050410FD96EDA6A2F
:10051400DF50516E50C04EF0000E336E50683206FC
:100524001200070E4E18D8B407D0090E4E18D8B4CE
:1005340003D0050E326E1200070E4E18D8B404D044
:10054400090E4E18D8A41200060E326E1200505036
:10055400800A7E0FD8A008D05050800A760FD8B0F9
:1005640003D0010E326E12005050800A7E0FD8B0B4
:100574000BD05128D8A408D05050300FA7EC07F066
:100584005068000E326E12005050800A7E0FD8B0B0
:1005940012005128D8B412005150A7EC07F051684A
:1005A400322A12005050300FA7EC07F0E9D7040E9E
:1005B4003318D8A409D04E50410FD96EDA6ADF50EF
:1005C400516E000E336EDDD7030E3318D8A404D059
:1005D4004E50300F516ED5D7030E33601200D1D771
:1005E400040E3318D8B4F4D7050E3318D8B4E3D7AF
:1005F400040EF3D732506A6E6B6A6B50000AD8A4AB
:1006040012006A50000AD8B43ED7010AD8B45ED7A3
:10061400030AD8B486D7010AD8B499D7070AD8B43C
:10062400C1D7010AD8B4C3D7030AD8A41200D8D7B3
:1006340083A003D06A6A6A2A01D06A6A83A202D0BC
:10064400010E01D0000E020DF3CF6BF083A402D093
:10065400010E01D0000E030DF3CF6CF083A602D07F
:10066400010E01D0000E040DF3506C246B246A2497
:100674002E6E6FD02E50D8A407D08C888C9A8C9C68
:10068400000E2F6E302A12002E50D8B412003150B2
:100694005FEC07F0030E306E12002E50D8A405D084
:1006A4008C988C8A8C9C010EECD72E50D8B41200F6
:1006B40031505FEC07F0EED72E50D8A408D08C98B8
:1006C4008C9A8C8C020E2F6E000E306E12002E50FF
:1006D400D8B4120031505FEC07F0D4D7315007EC96
:1006E40007F064BE1200CED72E50D8A403D0010E5A
:1006F400306E12002E50D8B412002E50030DF35059
:100704004F0F2F24D96EDA6ADF509BEC07F02E507E
:10071400030DF3504F0F2F24D96EDA6ADF5097EC94
:1007240007F0B0D72E50D8A4120031505FEC07F078
:10073400A9D7315007EC07F0D4D72E50D8B403D042
:10074400050E306E12002E50D8A41200000E306E2A
:10075400120030506A6E6B6A6B50000AD8A4120003
:100764006A50000AD8B486D7010AD8B496D7030AC7
:10077400D8B4A2D7010AD8B4B1D7070AD8B4B4D729
:10078400010AD8B4CFD7030AD8B4D3D7010AD8A45E
:100794001200D3D76F6E6DEC06F0356E6FC039F072
:1007A4006EC038F0000E366E36C037F09498959EC1
:1007B400949A000E716E000E706E000E6B6E640ED5
:1007C4006A6E35502FEC07F0030E93EC04F0000E24
:1007D4006B6E050E6A6E35502FEC07F0030E93EC2A
:1007E40004F0000E6B6E010E6A6E35502FEC07F0AC
:1007F400030E93EC04F0000E6B6E010E6A6E35501E
:100804002FEC07F0020E93EC04F0000E6B6E040E56
:100814006A6E35502FEC07F0280EBFEC06F030EC72
:1008240006F0080EBFEC06F030EC06F0010EBFEC4B
:1008340006F0000E6B6E030E6A6E35502FEC07F057
:1008440030EC06F0060EBFEC06F030EC06F00F0EAE
:10085400BFEC06F0704A712A71BEAFD7715004E143
:10086400020E705CD8A0A9D78DEC07F01200000E20
:10087400A96EA69EA69CA680A6B0FED7A8CF28F0F7
:10088400A92AA69EA69CA6B0FED7A8CF27F0A92A7F
:10089400000E656E41D0000E666EA69EA69CA680D4
:1008A400A6B0FED76550170D000E636E010E646E80
:1008B400F3506326F450642266506324D96E000E0C
:1008C4006420DA6EA8CFDFFFA92A662A080E6664C0
:1008D400E4D7000E676EA69EA69CA680A6B0FED79F
:1008E4006550170D000E636E010E646E090E6326CB
:1008F400000E6422F3506326F4506422675063248C
:10090400D96E000E6420DA6EA8CFDFFFA92A672A09
:10091400080E6764E0D7652A2850655CD8B01200D9
:10092400BAD7646E94969494949294908B9A8C9E75
:100934008B888B8864A603D0636A632A01D0636AB8
:100944006346634663468B506318F70B63188B6EDC
:1009540064A403D0636A632A01D0636A634663466E
:100964008B506318FB0B63188B6E64A203D0636A0D
:10097400632A01D0636A63468B506318FD0B6318C6
:100984008B6E64A003D0636A632A01D0636A8B50C0
:100994006318FE0B63188B6E8B9812002BD074A215
:1009A400120074A212007490000E266E000E2C6EBB
:1009B400010E246E12002850265CD8B013D03A0ED3
:1009C400636E2650170D000EF324646E010EF4209E
:1009D400656EEDEC05F00009D8B47480262A010E8A
:1009E400246E120028502618D8A412007492000E07
:1009F400246E12002450686E696A6950000AD8A4F3
:100A040012006850000AD8B4CAD7010AD8A4120048
:100A1400D2D7646E64A603D0636A632A01D0636A82
:100A24006346634663468B506318F70B63188B6EFB
:100A340064A403D0636A632A01D0636A634663468D
:100A44008B506318FB0B63188B6E64A203D0636A2C
:100A5400632A01D0636A63468B506318FD0B6318E5
:100A64008B6E64A003D0636A632A01D0636A8B50DF
:100A74006318FE0B63188B6E1200646E64AE03D0B1
:100A8400636A632A01D0636A6346634663468B5094
:100A94006318F70B63188B6E64AC03D0636A632A24
:100AA40001D0636A634663468B506318FB0B63187B
:100AB4008B6E64AA03D0636A632A01D0636A6346B7
:100AC4008B506318FD0B63188B6E64A803D0636AA4
:100AD400632A01D0636A8B506318FE0B63188B6E14
:100AE4001200DF0ED76E940ED66EF294224A232A99
:100AF400480E225CEE0E2358D8A01200000E2D6E74
:100B0400070E2D6401D015D02D50030DF350030FA3
:100B1400D96EDA6ADE04D8A40AD02D50030DF3503E
:100B2400010FD96EDA6A2250DE5E2350DD5A2D2A77
:100B3400E7D7000E236E000E226E1200716E30ECA9
:100B440006F07150A6EC06F0362A020E3918D8A425
:100B540010D0270E36640DD0000E366E372A010EE3
:100B6400376402D0000E376E37C06BF0365050EC4D
:100B740006F03704D8A41200270E366402D0000E03
:100B8400366E37C06BF0365050EC06F01200A20EF1
:100B9400F66E0E0EF76E000EF86E00EE43F010EED9
:100BA4001BF00900F5CFEEFFE550E150FAE101EE4C
:100BB40000F0B80EEE6AE806FDE1746A00EE01F09A
:100BC400420EEE6AE806FDE175907592000EF86E2D
:100BD400000110EF06F00ED064C0D9FF65C0DAFF43
:100BE4006350E16EE26ADE50E618D8A409D0632AA5
:100BF400644A652A6350D96EDA6ADF50D8A4ECD708
:100C040064C0D9FF65C0DAFFDF50666E6350D96EE9
:100C1400DA6ADF50676E6650675C120041EC07F0D9
:100C2400F0EC06F08AEC06F09FEC07F0A3EC07F07A
:100C340044EC02F039EC04F0100E6E6E020ECCECB3
:100C440003F0ABEC07F012EC01F0D0EC04F01AEC7A
:100C540003F044EC02F0D8EC06F0F5D794869484C3
:100C6400948294808B9A8C8E35505FEC07F08B883D
:100C74008B88000E82B6010E6A6E8B988B988B88D7
:100C84008B888B988B98355007EC07F06350641071
:100C9400D8A412006A50D8B41200E9D7706E6B5011
:100CA400D8B404D0000E6F6E400E03D0000E6F6EE9
:100CB400000E6E6E70506E246C6E000E6F206D6EA2
:100CC40030EC06F06C508009BFEC06F06BC037F0D6
:100CD40070C036F01200000E2D6E07D02D2A080EBB
:100CE4002D18D8A402D0FF0E12002D50030DF3507E
:100CF400030FD96EDA6ADE04D8B4F0D72D50030D91
:100D0400F350030FD96EDA6A010EDF6E2D50120014
:100D1400D09EF28EF28CF28AF294880ED56EDF0E9B
:100D2400D76E940ED66ED58E000E2D6E070E2D64E2
:100D340001D012002D50030DF350030FD96EDA6A5F
:100D4400000EDF6E2D2AF2D7656E949694949492D9
:100D540094908B8A8C9E8B8865503FEC05F08B8831
:100D64008B988B988B8865500BEC05F08B888B984F
:100D740094869484948294801200656E94969494DC
:100D8400949294908B9A8C9E8B8865503FEC05F0DE
:100D94008B888B988B988B8865500BEC05F08B882F
:100DA4008B989486948494829480120074A8120080
:100DB40034C0F6FF020EF76E0800F550A0EC05F003
:100DC400342A34C0F6FF020EF76E0800F55000090D
:100DD400D8A412007498000E346E1200000E636ED4
:100DE400000EA96E000EA86EA69EA69CA684F29E76
:100DF400550EA76EAA0EA76EA682A6B2FED7632AC8
:100E04009F0E6364EDD7F28E1200676E22C068F005
:100E140023C069F06750030DF350010FD96EDA6AED
:100E2400DECF65F0DDCF66F06550685C636E6650BA
:100E34006958646E120030EC06F0010EBFEC06F047
:100E4400000E6B6E030E6A6E35502FEC07F0000E29
:100E54006B6E000E50EC06F012006D6E6D505FEC80
:100E640007F06D5007EC07F06A50635C6450800A29
:100E74006C6E6B50800A6C58D8B01200F2D7030E17
:100E8400926EE00E936E8A968A908A92C00E946E49
:100E94008F0E956E000E8C6EA68EA69C1200414499
:100EA400474A4D50545700FFFFFFFFFFFF01020365
:090EB4000405060708090A000BF9
:100EBE00636E6350030DF350010FD96EDA6A22C0D0
:100ECE00DEFF23C0DDFF1200646E6350190FD96E72
:100EDE00DA6A64C0DFFF1200646E63503A0FD96E97
:100EEE00DA6A64C0DFFF120074B202D0D89012002A
:100EFE00D880120074B002D0D8901200D8801200A0
:100F0E0074A802D0D8901200D880120030EC06F0EF
:100F1E000C0EBFEC06F0120063C034F074881200A1
:100F2E00636E63C050F01200636E63C04DF012002A
:100F3E006DEC06F0316E12006DEC06F04F6E120085
:100F4E00636E63C04CF012006DEC06F02B6E120057
:100F5E007486506812007496506812002850120061
:040F6E007482120077
:020000040020DA
:08000000FFFFFFFFFFFFFFFF00
:020000040030CA
:0E000000FF061F1EFF8181FF03C003E00340C7
:00000001FF
