:020000040000FA
:0400000019EF00F004
:100008005982D9CF43F0DACF44F0F3CF45F0F4CF9B
:1000180046F04AEC02F046C0F4FF45C0F3FF44C086
:10002800DAFF43C0D9FF599211002DEF03F0566E45
:1000380075EF00F04F50D8B424EF00F026EF00F031
:100048002CEF00F0000E536E400E526E30EF00F0B1
:10005800000E536E000E526E56505224546E000E0F
:100068005320556E8EEF00F056C054F0556A4F0479
:10007800D8A441EF00F043EF00F049EF00F0400E44
:100088005426000E55228EEF00F0020E4F18D8A409
:1000980050EF00F052EF00F058EF00F027505426D0
:1000A800000E55228EEF00F0030E4F18D8A45FEF14
:1000B80000F061EF00F06EEF00F02750506E516ACB
:1000C800400E5026000E51225050542651505522B1
:1000D8008EEF00F08EEF00F056C054F0556A8EEFA8
:1000E80000F02850506E516A5150000AD8B47FEF82
:1000F80000F070EF00F05050010AD8B470EF00F033
:10010800030AD8B41EEF00F0060AD8B438EF00F09E
:1001180070EF00F0B9EC02F05450800964EC03F081
:100128004FC026F056C025F01200536E8CEC02F03A
:10013800246E53C028F052C027F0000E256E25C04B
:1001480026F09498959E949A000E556E000E546E63
:10015800010E4F6E4C0E4E6E245095EC03F0030EBC
:1001680075EC01F0000E4F6E110E4E6E245095EC9A
:1001780003F0030E75EC01F0000E4F6E040E4E6E88
:10018800245095EC03F0030E75EC01F0000E4F6E51
:10019800040E4E6E245095EC03F0020E75EC01F03F
:1001A800000E4F6E040E4E6E245095EC03F0280E90
:1001B80064EC03F0B9EC02F0080E64EC03F0B9EC5F
:1001C80002F0010E64EC03F0000E4F6E0A0E4E6E44
:1001D800245095EC03F0B9EC02F0060E64EC03F041
:1001E800B9EC02F00F0E64EC03F0544A552A55BEE0
:1001F80007EF01F0555009E1020E545CD8A007EF53
:1002080001F009EF01F0ACEF00F0F3EC03F012009D
:10021800576EB9EC02F057504BEC03F0252A030E49
:100228002818D8A41AEF01F01CEF01F038EF01F0FC
:10023800130E256422EF01F024EF01F074EF01F0B2
:10024800000E256E262A030E26642DEF01F02FEFEF
:1002580001F031EF01F0000E266E26C04FF0255058
:100268001BEC00F074EF01F0020E2818D8A43FEF41
:1002780001F041EF01F05DEF01F0270E256447EF33
:1002880001F049EF01F074EF01F0000E256E262A07
:10029800010E266452EF01F054EF01F056EF01F021
:1002A800000E266E26C04FF025501BEC00F074EFB0
:1002B80001F02604D8A463EF01F065EF01F074EFB4
:1002C80001F0270E25646BEF01F06DEF01F06FEF81
:1002D80001F0000E256E26C04FF025501BEC00F0F3
:1002E8001200486E94969494949294908B9A8C9E53
:1002F8008B888B8848B683EF01F087EF01F0476A57
:10030800472A88EF01F0476A4746474647468B50D9
:100318004718F70B47188B6E48B495EF01F099EF23
:1003280001F0476A472A9AEF01F0476A474647466D
:100338008B504718FB0B47188B6E48B2A6EF01F09D
:10034800AAEF01F0476A472AABEF01F0476A474630
:100358008B504718FD0B47188B6E48B0B6EF01F06D
:10036800BAEF01F0476A472ABBEF01F0476A8B50A2
:100378004718FE0B47188B6E8B981200486E48B6CC
:10038800C8EF01F0CCEF01F0476A472ACDEF01F042
:10039800476A4746474647468B504718F70B471862
:1003A8008B6E48B4DAEF01F0DEEF01F0476A472AB6
:1003B800DFEF01F0476A474647468B504718FB0B6B
:1003C80047188B6E48B2EBEF01F0EFEF01F0476A88
:1003D800472AF0EF01F0476A47468B504718FD0B54
:1003E80047188B6E48B0FBEF01F0FFEF01F0476A4A
:1003F800472A00EF02F0476A8B504718FE0B471850
:100408008B6E1200486E48BE0CEF02F010EF02F03F
:10041800476A472A11EF02F0476A47464746474668
:100428008B504718F70B47188B6E48BC1EEF02F02D
:1004380022EF02F0476A472A23EF02F0476A47464D
:1004480047468B504718FB0B47188B6E48BA2FEF5F
:1004580002F033EF02F0476A472A34EF02F0476AA6
:1004680047468B504718FD0B47188B6E48B83FEF2F
:1004780002F043EF02F0476A472A44EF02F0476A66
:100488008B504718FE0B47188B6E1200DF0ED76E85
:10049800940ED66EF294194A1A2A480E195CEE0E7A
:1004A8001A58D8A05AEF02F05CEF02F08BEF02F076
:1004B800000E1D6E070E1D6464EF02F066EF02F079
:1004C80068EF02F087EF02F01D50030D030EF324CE
:1004D800D96E000EF420DA6EDE04D8A476EF02F0AE
:1004E80078EF02F084EF02F01D50030D010EF324A3
:1004F800D96E000EF420DA6E1950DE5E1A50DD5AFD
:100508001D2A5EEF02F0000E1A6E000E196E120020
:10051800000E1D6E9DEF02F01D2A080E1D18D8A4AE
:1005280098EF02F09AEF02F09DEF02F0FF0EB8EF9D
:1005380002F01D50030D030EF324D96E000EF420B3
:10054800DA6EDE04D8B4ABEF02F0ADEF02F090EF54
:1005580002F01D50030D030EF324D96E000EF42093
:10056800DA6E010EDF6E1D50120094869484948218
:1005780094808B9A8C8E2450CBEC03F08B888B88DC
:10058800000E82B6010E4E6E8B988B988B888B88E6
:100598008B988B9824507DEC03F047504810D8B4C2
:1005A800D8EF02F0DAEF02F0DCEF02F0E4EF02F04D
:1005B8004E50D8A4E2EF02F0E4EF02F0C2EF02F0EE
:1005C8001200D09EF28EF28CF28AF294880ED56ECA
:1005D800DF0ED76E940ED66ED58E000E1D6E070EEA
:1005E8001D64F9EF02F0FBEF02F0FDEF02F00AEFF5
:1005F80003F01D50030D030EF324D96E000EF420F2
:10060800DA6E000EDF6E1D2AF3EF02F0120058A218
:1006180010EF03F012EF03F02CEF03F01BC0D9FF2B
:100628001CC0DAFFDF500CEC01F01B4A1C2A1BC06F
:10063800D9FF1CC0DAFFDF50D8A425EF03F027EF5D
:1006480003F02CEF03F05892000E1B6E000E1C6E88
:100658001200CC0EF66E070EF76E000EF86E00EE66
:1006680029F010EE19F00900F5CFEEFFE550E15042
:10067800FAE1586A00EE01F0280EEE6AE806FDE19C
:1006880059905992000EF86E0001ACEF03F0496ED4
:1006980094969494949294908B8A8C9E8B884950CB
:1006A80006EC02F08B888B988B988B884950C2ECAB
:1006B80001F08B888B98948694849482948012009D
:1006C800496E94969494949294908B9A8C9E8B886D
:1006D800495006EC02F08B888B988B988B88495090
:1006E800C2EC01F08B888B989486948494829480D1
:1006F80012004B6E19C04CF01AC04DF04B50030D50
:10070800010EF324D96E000EF420DA6EDECF49F024
:10071800DDCF4AF049504C5C476E4A504D58486E00
:100728001200516E5150CBEC03F051507DEC03F0A8
:100738004E50475C4850800A506E4F50800A5058BF
:10074800D8A0A9EF03F0ABEF03F099EF03F0120084
:10075800BDEC03F0E5EC02F0100E526E020E99ECBF
:1007680000F0D9EC03F00BEC03F0B7EF03F019EF4E
:1007780000F0030E926EE00E936E8A968A908A922B
:10078800C00E946E8F0E956E000E8C6E1200476E22
:100798004750030D010EF324D96E000EF420DA6ED3
:1007A80019C0DEFF1AC0DDFF1200B9EC02F0010E1D
:1007B80064EC03F0000E4F6E0A0E4E6E245095EC5A
:1007C80003F012004144474A4D50545700FFFFFFC1
:0D07D800FF0102030405060708090A000BD3
:0C07E600B9EC02F00C0E64EC03F0120001
:020000040020DA
:08000000FFFFFFFFFFFFFFFF00
:020000040030CA
:0E000000FF061F1EFF8181FF03C003E00340C7
:00000001FF
