:020000040000FA
:0400000019EF00F004
:100008007A82D9CF68F0DACF69F0F3CF6AF0F4CF0B
:100018006BF0ABEC0AF06BC0F4FF6AC0F3FF69C089
:0E002800DAFF68C0D9FF7A921100A9EF09F043
:1002000000312E506C617920612047616D650000DE
:100210000000000000000000000000000000322E7E
:100220004D6F646966792054696D650000000000B7
:100230000000000000000000000000332E53686F33
:10024000772047656E6572616C20546F7020352091
:1002500053636F7265732000342E4C6F676F757433
:10026000000000000000000000000000000000008E
:100270000000000000352E53686F7720416C6C2021
:10028000557365727300000000000000000000005C
:1002900000004D6F646966792054696D653A0032DB
:1002A0002E52454749535445520042594520425920
:1002B000452000312E4C4F47494E00505357443A89
:1002C0002000555345523A200000BDD148EC0CF0B7
:1002D000B30E6F6E6F50D8A4020E706EDAEC0CF095
:1002E000010E286E1200E0EC0CF0D8A01200010EF6
:1002F000746E000E24EC0BF09F0E6F6E6F50D8A43E
:10030000020E706EDAEC0CF06268020E286E1200BB
:100310006204D8A409D01AEC0DF00009D8B404D0B6
:100320007980030E286E1200020E6218D8A4120003
:100330007990F7D76268616848EC0CF0C20E6F6E76
:100340006F50D8A4020E706EDAEC0CF0040E286E1A
:100350001200E0EC0CF0D8A01200010E746E000E3A
:1003600024EC0BF0BB0E6F6E6F50D8A4020E706EB3
:10037000DAEC0CF0050E286E1200E0EC0CF0D8A0C0
:100380001200000E746E060E24EC0BF012EC0DF051
:10039000000E2C6E060E286E12006150800A500F5F
:1003A000D8A00FD00A0E6218D8B40BD06150D8EC88
:1003B0000AF02CC06CF06150C0EC0CF0070E286EF7
:1003C00012000B0E6218D8A41200F8D7070E2C18D2
:1003D000D8B408D00B0E6218D8B404D02C2A6268A6
:1003E0006168D8D7070E2C18D8B404D00B0E621849
:1003F000D8A41200010E746E060E24EC0BF02CC073
:100400006CF0000EC0EC0CF062686168000E2C6E9F
:10041000080E286E12006150800A500FD8A00FD02D
:100420000A0E6218D8B40BD06150D8EC0AF02CC078
:100430006CF06150B8EC0CF0090E286E12000B0E37
:100440006218D8A41200F8D7070E2C18D8B408D018
:100450000B0E6218D8B404D02C2A62686168D8D711
:10046000070E2C18D8B404D00B0E6218D8A41200B2
:100470002CC06CF0000EB8EC0CF062686168000EE5
:100480002C6E1CEC0DF015EC0DF00A0E286E12000F
:10049000C8EC0CF0D8B01200E6EC0CF0D8A002D0FA
:1004A000010E01D0000E296E0B0E286E12000C0EEC
:1004B000286E1200000E286E120048EC0CF020ECA2
:1004C0000DF02A50CEEC0CF0606862680D0E286EBC
:1004D0001200080E6018D8A405D0040E2A60E7D7D1
:1004E0002A2AE5D7020E6018D8A405D02A50D8B41D
:1004F000DED72A06DCD70B0E6218D8A413D0030E61
:100500002A18D8A40FD022EC0DF048EC0CF0AA0E5B
:100510006F6E6F50D8A4020E706EDAEC0CF00E0EF7
:10052000286E12000B0E6218D8A412002A04D8A458
:10053000120048EC0CF022EC0DF0920E6F6E6F5032
:10054000D8A4020E706EDAEC0CF06268100E286E01
:100550001200E0EC0CF0D8A012002950A5EC0CF031
:100560006CC06FF06DC070F0DAEC0CF02B508DECBD
:100570000CF00F0E286E12002B5020EC0CF06DBE0C
:1005800012006B0E6C5C090E6D58D8A0120092D749
:10059000E0EC0CF0D8B062BE47D06250800A760F13
:1005A000D8B042D0010E746E000E24EC0BF06250F5
:1005B000300F426E4250D8EC0AF06268110E286E7D
:1005C000120062BE31D06250800A760FD8B02CD0B3
:1005D0006250300F436E4350D8EC0AF062683A0E16
:1005E000D8EC0AF0120EEBD762BE1ED06250800A21
:1005F000760FD8B019D06250300F446E4450D8EC0A
:100600000AF06268130EDBD762BE0ED06250800A19
:10061000760FD8B009D06250300F456E4550D8ECF7
:100620000AF06268140ECBD70A0E6218D8A4120022
:100630003ED70B0E6218D8A4F7D7420E6C6EBCECF6
:100640000BF0626834D728500001B46FB56BB55118
:10065000000AD8A41200B451000AD8B437D6010A4F
:10066000D8B441D6030AD8B453D6010AD8B462D656
:10067000070AD8B46ED6010AD8B47FD6030AD8B414
:100680008CD6010AD8B4A2D60F0AD8B4C4D6010AAF
:10069000D8B4DAD6030AD8B4FBD6010AD8B407D73F
:1006A000070AD8B40AD7010AD8B413D7030AD8B4B2
:1006B00050D7010AD8B460D71F0AD8B469D7010A45
:1006C000D8B47FD7030AD8B48FD7010AD8B49CD73F
:1006D000070AD8A41200ADD7BDD1110E146018D0EE
:1006E00078A816D0000E746E000E24EC0BF01B5090
:1006F0001D0DF350010F0001B46FB4C06FF06F50C7
:10070000D8A4020E706EDAEC0CF0050E1A6E120010
:10071000100E1464120078A812001A2A12000F0E8C
:1007200019642BD0182A5E2A1B501D0DF350010F9F
:100730005E24B46FB4C0F6FF020EF76E0800F550E9
:100740000009D8A402D0000E5E6E1B501D0DF350A0
:10075000010F1824B46FB4C0F6FF020EF76E080044
:10076000F5500009D8A402D0000E186E000E196EC4
:1007700018C016F0060E1A6E1200100E1960120044
:10078000000E746E195024EC0BF01B501D0DF3502D
:10079000010F16240001B46FB4C0F6FF020EF76E0D
:1007A0000800F550D8EC0AF0192A162A1B501D0D26
:1007B000F350010F16240001B46FB4C0F6FF020E0F
:1007C000F76E0800F5500009D8A41200000E166E4E
:1007D0001200040E1B6012D0A0D7000E1A6E120079
:1007E000E0EC0CF0D8A006D0040E1B6003D0070E7E
:1007F0001A6E1200E0EC0CF0D8A01200030E1B647D
:100800001200EBD778A6120078A81200000E146E22
:10081000000E136E000E746E000E24EC0BF0000E32
:10082000186E0F0E5E6E000E176E0F0E5D6E000ED0
:10083000196E000E166E000E156E78966ED71B5050
:100840001D0DF350010F1424B46FB4C0F6FF020E57
:10085000F76E0800F5500009D8A404D0030E1B64FD
:1008600001D05BD71B501D0DF350010F1424B46F42
:10087000B4C0F6FF020EF76E0800F5500009D8B4B8
:1008800002D0142A1200040E1B6012001B501D0D12
:10089000F350010F1424B46FB4C0F6FF020EF76ECC
:1008A0000800F5500009D8A412000D0E1A6E1200AF
:1008B000110E13601AD078A818D0010E746E000EB5
:1008C00024EC0BF01B501D0DF3CFB4F01D0E0001F6
:1008D000B427B451010FB56FB5C06FF06F50D8A4F5
:1008E000020E706EDAEC0CF018D7100E13641200C2
:1008F00078A81200090E1A6E1200100E19602DD081
:10090000010E746E195024EC0BF01B501D0DF350AA
:10091000010F15240001B46F1D0EB427B4C0F6FFFB
:10092000020EF76E0800F550D8EC0AF0192A152AC5
:100930001B501D0DF350010F15240001B46F1D0E47
:10094000B427B4C0F6FF020EF76E0800F550000998
:10095000D8A41200000E156E12000F0E19641200BA
:10096000172A5D2A1B501D0DF350010F5D24B46F33
:100970001D0EB427B4C0F6FF020EF76E0800F55046
:100980000009D8A402D0000E5D6E1B501D0DF3505F
:10099000010F1724B46F1D0EB427B4C0F6FF020E6A
:1009A000F76E0800F5500009D8A402D0000E176EAB
:1009B000000E196E17C015F0B0D61C5020EC0CF0CC
:1009C0006DBE0ED0B50E6C5C040E6D58D8B078B606
:1009D00007D078A805D048EC0CF0020E1A6E120071
:1009E00078A6120078A8120048EC0CF0F6D61C503D
:1009F0008DEC0CF092D6E0EC0CF0D8A012001C505C
:100A00008DEC0CF00B0E1A6E12001B501D0DF350E6
:100A1000010F1324B46F1D0EB427B4C0F6FF020EED
:100A2000F76E0800F5500009D8B402D0132A12005E
:100A30001B501D0DF350010F1324B46F1D0EB4276E
:100A4000B4C0F6FF020EF76E0800F5500009D8A4F6
:100A50001200C3D71A500001B46FB56BB551000A2C
:100A6000D8A41200B451000AD8B4CCD6010AD8B424
:100A7000E6D6030AD8B431D6010AD8B450D6060A4D
:100A8000D8B4AED6030AD8B4A4D6010AD8B410D7C5
:100A90000F0AD8B4B0D7010AD8B42FD7030AD8B4F4
:100AA000A6D7010AD8B489D7060AD8A41200ADD7B0
:100AB000EAD06528D8A479A206D064508DEC0CF059
:100AC000030E326E12006528D8A41200645020EC88
:100AD0000CF06DBE12005A0E6C5C020E6D58D8A060
:100AE00012006628D8B4120079A21200665002ECF7
:100AF0000DF066686368000E326E12006350651870
:100B0000D8A418D0645020EC0CF06DBE06D05A0E5C
:100B10006C5C020E6D58D8B00DD06568332A300E6B
:100B20006618D8B404D0200E6618D8A4662A020E1F
:100B3000326E12006528D8B4120063506518D8B41C
:100B40001200665002EC0DF06550D8A407D03304B3
:100B5000D8A402D0300E07D0200E05D06550440F27
:100B6000D96EDA6ADF50666E65C063F0000E336ED0
:100B70006568C1D7070E6318D8B40AD0090E631888
:100B8000D8B406D06350D8B403D0050E326E12002C
:100B9000070E6318D8B404D0090E6318D8A403D084
:100BA000060E326E12006350D8A41200070E326E89
:100BB00012006550800A7E0FD8B003D06550D8A4CB
:100BC00008D06550800A760FD8B003D0010E326E7F
:100BD00012006550800A7E0FD8B008D06628D8A4CD
:100BE00005D06550300F02EC0DF0C2D76550800A79
:100BF0007E0FD8B012006628D8B41200665002ECFE
:100C00000DF06668040E326E12006550300F02EC73
:100C10000DF0AED7040E3318D8A409D06350440F9A
:100C2000D96EDA6ADF50666E000E336E64D7030E3B
:100C30003318D8A404D06350300F666E5CD7030E0F
:100C40003360120058D7040E3318D8B4F4D7050E09
:100C50003318D8B4E3D7040EF3D7020E3318D8A450
:100C600005D0200E666E000E326E1200030E331891
:100C7000D8A407D0300E666E000E336E000E326EB2
:100C80001200020EDDD73250736E746A7450000A7F
:100C9000D8A412007350000AD8B40BD7010AD8B4F4
:100CA0002DD7030AD8B466D7010AD8B482D7070A69
:100CB000D8B4ABD7010AD8B4ADD7030AD8B4C3D7D8
:100CC000010AD8A41200C9D7A5D078AE78BC05D047
:100CD000000E236E000E226E120078AE04D05F6804
:100CE000010E216E120078AC1200020E216E12006D
:100CF0002650235CD8B012D0390E6C6E2350170DDD
:100D0000000EF3246D6E010EF4206E6E01EC0BF0FC
:100D10000009D8B423C05FF0232AE2D72650231855
:100D2000D8A41200789E000E216E1200080E23181F
:100D3000D8B422D025C06CF02350390FD96EDA6AAE
:100D4000DF5036EC0CF0252A2350390FD96EDA6AC1
:100D50002450170D000E716E010E726EF350712645
:100D6000F450722223507124E16E000E7220E26E64
:100D7000DFCFE7FF232AB9D7080E2318D8A4120023
:100D8000000E236E030E216E1200080E2318D8B435
:100D900028D025C06CF02350010FD96EDA6ADF50DD
:100DA00036EC0CF0252A2350010FD96EDA6A245054
:100DB000170D000E716E010E726E090E7126000E77
:100DC0007222F3507126F450722223507124E16E86
:100DD000000E7220E26EDFCFE7FF232A030E216EA2
:100DE0001200080E2318D8A41200789C252A9F0E02
:100DF0002518D8A402D0100E256E242A080E241817
:100E0000D8A402D0000E246E080E2618D8B48BD7B2
:100E1000262A89D72150716E726A7250000AD8A4AE
:100E200012007150000AD8B450D7010AD8B460D764
:100E3000030AD8B47BD7010AD8A41200A6D783A08E
:100E400003D0736A732A01D0736A83A202D0010EA1
:100E500001D0000E020DF3CF74F083A402D0010E76
:100E600001D0000E030DF3CF75F083A602D0010E62
:100E700001D0000E040DF3507524742473242E6EDB
:100E80006FD02E50D8A407D08C888C9A8C9C000EE2
:100E90002F6E302A12002E50D8B4120031508DEC33
:100EA0000CF0030E306E12002E50D8A405D08C9892
:100EB0008C8A8C9C010EECD72E50D8B41200315085
:100EC0008DEC0CF0EED72E50D8A408D08C988C9ACC
:100ED0008C8C020E2F6E000E306E12002E50D8B485
:100EE000120031508DEC0CF0D4D7315020EC0CF0C6
:100EF0006DBE1200CED72E50D8A403D0010E306E96
:100F000012002E50D8B412002E50030DF350A00F33
:100F10002F24D96EDA6ADF50F6EC0CF02E50030D58
:100F2000F350A00F2F24D96EDA6ADF50F2EC0CF0E8
:100F3000B0D72E50D8A4120031508DEC0CF0A9D7A8
:100F4000315020EC0CF0D4D72E50D8B403D0050E7D
:100F5000306E12002E50D8A41200000E306E120017
:100F60003050736E746A7450000AD8A41200735023
:100F7000000AD8B486D7010AD8B496D7030AD8B4E1
:100F8000A2D7010AD8B4B1D7070AD8B4B4D7010A96
:100F9000D8B4CFD7030AD8B4D3D7010AD8A4120043
:100FA000D3D75AD0C2B20BD0C80EC46008D0320E0C
:100FB000C46405D0070EC26E7884112A5BD0C2B219
:100FC00010D0C70EC4640DD0020E1218D8B403D0CE
:100FD000020E0AEC0DF0020E126E070EC26E78942D
:100FE000ECD7C2B247D0330EC46044D0080E1218FA
:100FF000D8B403D0080E0AEC0DF0080EEDD7C2B23B
:101000000BD0C80EC46008D0320EC46405D0030EE5
:10101000C26E788211062ED0C2B210D0C70EC46440
:101020000DD0060E1218D8B403D0060E0AEC0DF03F
:10103000060E126E030EC26E7892ECD7C2B21AD0B0
:10104000330EC46017D0040E1218D8B403D0040EA7
:101050000AEC0DF0040EEDD711506D6E6E6A6E50F5
:10106000000AD8A407D06D50000AD8B49BD7010A53
:10107000D8B4C5D778A4120078A212001250D8B400
:101080001200000E0AEC0DF0000E126E12000001AC
:10109000AF6F83EC0BF0346EAFC038F077C037F031
:1010A000000E356E35C036F09498959E949A000ED9
:1010B0000001B16F000EB06F000E746E640E736E9F
:1010C00034505AEC0CF0030E6CEC09F0000E746E08
:1010D000050E736E34505AEC0CF0030E6CEC09F0F4
:1010E000000E746E010E736E34505AEC0CF0030E49
:1010F0006CEC09F0000E746E010E736E34505AECF5
:101100000CF0020E6CEC09F0000E746E040E736E9F
:1011100034505AEC0CF0280EF0EC0BF045EC0BF0D0
:10112000080EF0EC0BF045EC0BF0010EF0EC0BF0C0
:10113000000E746E030E736E34505AEC0CF045ECD6
:101140000BF0060EF0EC0BF045EC0BF00F0EF0EC94
:101150000BF00001B04BB12BB1BFAED7B15104E1E0
:10116000020EB05DD8A0A8D7D4EC0CF0120048D085
:1011700078AA1200010E206E000E1E6E1F508DEC1C
:101180000CF0010E1D6E1200050E206404D0789A3A
:10119000000E1D6E1200A80E1E18D8A404D0202A1E
:1011A000000E1E6EEED71F5020EC0CF02050736E18
:1011B000746A6C50735C7450800A756E6D50800A4E
:1011C0007558D8B012008A801F508DEC0CF0020EBA
:1011D0001D6E12001F5020EC0CF02050736E746ACC
:1011E0006C50735C7450800A756E6D50800A75582F
:1011F000D8B012008A901F508DEC0CF01E2AC1D777
:101200001D50736E746A7450000AD8A41200735093
:10121000000AD8B4ADD7010AD8B4B6D7030AD8A407
:101220001200D8D7000EA96EA69EA69CA680A6B0D6
:10123000FED7A8CF26F0A92AA69EA69CA6B0FED7C8
:10124000A8CF25F0A92A000E6E6E41D0000E6F6E59
:10125000A69EA69CA680A6B0FED76E50170D000EC7
:101260006C6E010E6D6EF3506C26F4506D226F5053
:101270006C24D96E000E6D20DA6EA8CFDFFFA92A8C
:101280006F2A080E6F64E4D7000E706EA69EA69CAF
:10129000A680A6B0FED76E50170D000E6C6E010E24
:1012A0006D6E090E6C26000E6D22F3506C26F45004
:1012B0006D2270506C24D96E000E6D20DA6EA8CFAE
:1012C000DFFFA92A702A080E7064E0D76E2A265024
:1012D0006E5CD8B01200BAD76D6E949694949492C6
:1012E00094908B9A8C9E8B888B886DA603D06C6AA9
:1012F0006C2A01D06C6A6C466C466C468B506C183C
:10130000F70B6C188B6E6DA403D06C6A6C2A01D03D
:101310006C6A6C466C468B506C18FB0B6C188B6EB1
:101320006DA203D06C6A6C2A01D06C6A6C468B503B
:101330006C18FD0B6C188B6E6DA003D06C6A6C2A58
:1013400001D06C6A8B506C18FE0B6C188B6E8B98EE
:101350001200320EF66E190EF76E000EF86E00EEE9
:1013600098F010EE17F00900F5CFEEFFE550E150D0
:10137000FAE1D80EF66E180EF76E000EF86E00EE5B
:1013800046F010EE21F00900F5CFEEFFE550E150F8
:10139000FAE101EE00F0B80EEE6AE806FDE100EEBB
:1013A00080F0180EEE6AE806FDE1796A786A00EED0
:1013B00001F0450EEE6AE806FDE17A907A92000EA1
:1013C000F86E00014CEF0AF06D6E6DA603D06C6AEA
:1013D0006C2A01D06C6A6C466C466C468B506C185B
:1013E000F70B6C188B6E6DA403D06C6A6C2A01D05D
:1013F0006C6A6C466C468B506C18FB0B6C188B6ED1
:101400006DA203D06C6A6C2A01D06C6A6C468B505A
:101410006C18FD0B6C188B6E6DA003D06C6A6C2A77
:1014200001D06C6A8B506C18FE0B6C188B6E12001E
:101430006D6E6DAE03D06C6A6C2A01D06C6A6C461E
:101440006C466C468B506C18F70B6C188B6E6DAC41
:1014500003D06C6A6C2A01D06C6A6C466C468B5067
:101460006C18FB0B6C188B6E6DAA03D06C6A6C2A1F
:1014700001D06C6A6C468B506C18FD0B6C188B6E2F
:101480006DA803D06C6A6C2A01D06C6A8B506C1802
:10149000FE0B6C188B6E12007DEC0CF009EC0CF05E
:1014A000A0EC0BF0FAEC0CF0FEEC0CF058EC05F0B4
:1014B00012EC09F0EEEC0CF00EEC0DF0AFEC0CF0D1
:1014C000EAEC0CF0100E776E020E47EC08F006EC1A
:1014D0000DF065EC0BF0D1EC07F065EC01F0B7EC2A
:1014E00008F064EC06F06CEC03F01FEC07F058EC2D
:1014F00005F07CEC0AF0EDD779A412000CC0F6FFE1
:101500000DC0F7FFF86A010EF76403D00800F5502C
:1015100005D0F6CFE1FFF7CFE2FFE750D8EC0AF0B5
:101520000C4A0D2A0CC0F6FF0DC0F7FFF86A010E39
:10153000F76403D00800F55005D0F6CFE1FFF7CFF0
:10154000E2FFE7500009D8A412007994000E0C6E57
:10155000000E0D6E1200DF0ED76E940ED66EF29452
:101560000A4A0B2A480E0A5CEE0E0B58D8A012004D
:10157000000E2D6E070E2D6401D015D02D50030DD9
:10158000F350820FD96EDA6ADE04D8A40AD02D5047
:10159000030DF350800FD96EDA6A0A50DE5E0B50ED
:1015A000DD5A2D2AE7D7000E0B6E000E0A6E1200D0
:1015B000756E45EC0BF07550D7EC0BF0352A020E2A
:1015C0003818D8A410D0270E35640DD0000E356E13
:1015D000362A010E366402D0000E366E36C074F024
:1015E000355024EC0BF03604D8A41200270E3564D5
:1015F00002D0000E356E36C074F0355024EC0BF07E
:1016000012000ED06DC0D9FF6EC0DAFF6C50E16ED3
:10161000E26ADE50E618D8A409D06C2A6D4A6E2A18
:101620006C50D96EDA6ADF50D8A4ECD76DC0D9FF00
:101630006EC0DAFFDF506F6E6C50D96EDA6ADF5021
:10164000706E6F50705C12000001B36F7450D8B4AC
:1016500005D0000E0001B26F400E04D0000E000154
:10166000B26F000EB16FB351B125AF6F000EB22152
:10167000B06F45EC0BF00001AF518009F0EC0BF0BE
:1016800074C036F0B3C035F012009486948494820E
:1016900094808B9A8C8E34508DEC0CF08B888B88D8
:1016A000000E82B6010E736E8B988B988B888B8898
:1016B0008B988B98345020EC0CF06C506D10D8A4A3
:1016C00012007350D8B41200E9D711D0105020EC9A
:1016D0000CF06DBE1200B50E6C5C040E6D58D8A0F7
:1016E000120010508DEC0CF0000E0E6E12000E5019
:1016F000736E746A7450000AD8A412007350000A02
:10170000D8A41200E3D7000E2D6E07D02D2A080EA4
:101710002D18D8A402D0FF0E12002D50030DF35047
:10172000820FD96EDA6ADE04D8B4F0D72D50030DDB
:10173000F350820FD96EDA6A010EDF6E2D5012005F
:10174000D09EF28EF28CF28AF294880ED56EDF0E65
:10175000D76E940ED66ED58E000E2D6E070E2D64AC
:1017600001D012002D50030DF350820FD96EDA6AAA
:10177000000EDF6E2D2AF2D76C50D96EDA6ADF5078
:10178000576E6C50D96EDA6A010ED926DF50586E4A
:101790006C50D96EDA6A020ED926DF505A6E6C5040
:1017A000D96EDA6A030ED926DF505B6E12006E6EB8
:1017B00094969494949294908B8A8C9E8B886E507D
:1017C00018EC0AF08B888B988B988B886E50E4EC21
:1017D00009F08B888B98948694849482948012006C
:1017E0006E6E94969494949294908B9A8C9E8B881F
:1017F0006E5018EC0AF08B888B988B988B886E5003
:10180000E4EC09F08B888B9894869484948294807D
:101810001200000E6C6E000EA96E000EA86EA69E41
:10182000A69CA684F29E550EA76EAA0EA76EA6824F
:10183000A6B2FED76C2A9F0E6C64EDD7F28E120012
:10184000706E0AC071F00BC072F07050030DF3504F
:10185000800FD96EDA6ADECF6EF0DDCF6FF06E509A
:10186000715C6C6E6F5072586D6E12006D6E6DC053
:10187000A9FF6CC0A8FFA69EA69CA684F29E550E4A
:10188000A76EAA0EA76EA682A6B2FED7F28E12008F
:1018900045EC0BF0010EF0EC0BF0000E746E030E35
:1018A000736E34505AEC0CF0000E746E000E24EC83
:1018B0000BF01200766E76508DEC0CF0765020EC2A
:1018C0000CF073506C5C6D50800A756E7450800A19
:1018D0007558D8B01200F2D74144474A4D5054577A
:1018E00000312E4C4F47494E0033303A3030000F14
:0918F0000FFFFFFFFFFFFFFFFFE8
:1018FA00030E926EE00E936E8A968A908A92C00EBA
:10190A00946E8F0E956E000E8C6EA68EA69C12009B
:10191A006C6E6C50030DF350800FD96EDA6A0AC0F0
:10192A00DEFF0BC0DDFF1200322E524547495354E9
:0F193A004552000102030405060708090A000BC5
:10194A006E6E6E50170D000EF3246C6E010EF420AD
:10195A006D6E1200010EC26E0D0EC16E090EC06EC2
:10196A007F0EC46E12006D6E6C50010FD96EDA6A6A
:10197A006DC0DFFF12006D6E6C50390FD96EDA6AD6
:10198A006DC0DFFF120078BE02D0D8901200D88056
:10199A0012006C6E78866CC01BF07888120045ECD9
:1019AA000BF00C0EF0EC0BF012006FC00CF070C0D4
:1019BA000DF07984120079A402D0D8901200D88050
:1019CA0012005FC06CF06C30120083EC0BF0106EEA
:1019DA00120083EC0BF01F6E12006C6E6CC065F087
:1019EA0012006C6E6CC062F0120083EC0BF0316E68
:1019FA00120083EC0BF0646E12006C6E6CC061F026
:101A0A00120083EC0BF02B6E12006C6E6CC060F04F
:101A1A00120083EC0BF01C6E1200798265681200CA
:101A2A00799265681200788A120026501200788E20
:0E1A3A001200788C1200788812007898120042
:020000040020DA
:08000000FFFFFFFFFFFFFFFF00
:020000040030CA
:0E000000FF061F1EFF8181FF03C003E00340C7
:00000001FF
