:020000040000FA
:0400000019EF00F004
:100008007682D9CF5FF0DACF60F0F3CF61F0F4CF2A
:1000180062F0AEEC09F062C0F4FF61C0F3FF60C0AB
:0E002800DAFF5FC0D9FF7692110007EF0AF0F1
:1002000000312E506C617920612047616D650000DE
:100210000000000000000000000000000000322E7E
:100220004D6F646966792054696D650000000000B7
:100230000000000000000000000000332E53686F33
:10024000772047656E6572616C20546F7020352091
:1002500053636F7265732000342E4C6F676F757433
:10026000000000000000000000000000000000008E
:100270000000000000352E53686F7720416C6C2021
:10028000557365727300000000000000000000005C
:100290000000322E524547495354455200425945B9
:1002A000204259452000312E4C4F47494E005053B3
:0D02B00057443A2000555345523A200000B3
:1002BE00B7D1110E116017D074A615D0000E6B6E4B
:1002CE00000E9EEC0AF018501D0DF350010F726EC9
:1002DE0072C066F06650D8A4020E676EEAEC0BF0A0
:1002EE00050E176E1200100E1164120074A6120085
:1002FE00172A12000F0E16642BD0152A492A1850F1
:10030E001D0DF350010F4924726E72C0F6FF020EDE
:10031E00F76E0800F5500009D8A402D0000E496E01
:10032E0018501D0DF350010F1524726E72C0F6FF9A
:10033E00020EF76E0800F5500009D8A402D0000E88
:10034E00156E000E166E15C013F0060E176E120007
:10035E00100E16601200000E6B6E16509EEC0AF018
:10036E0018501D0DF350010F1324726E72C0F6FF5C
:10037E00020EF76E0800F55032EC0AF0162A132A18
:10038E0018501D0DF350010F1324726E72C0F6FF3C
:10039E00020EF76E0800F5500009D8A41200000EE8
:1003AE00136E1200040E186012D0A2D7000E176E34
:1003BE001200F0EC0BF0D8A006D0040E186003D09B
:1003CE00070E176E1200F0EC0BF0D8A01200030E01
:1003DE0018641200EBD774A4120074A61200000E5B
:1003EE00116E000E106E000E6B6E000E9EEC0AF07B
:1003FE00000E156E0F0E496E000E146E0F0E486E27
:10040E00000E166E000E136E000E126E749470D7E0
:10041E0018501D0DF350010F1124726E72C0F6FFAD
:10042E00020EF76E0800F5500009D8A404D0030E92
:10043E00186401D05DD718501D0DF350010F112413
:10044E00726E72C0F6FF020EF76E0800F5500009CC
:10045E00D8B402D0112A1200040E186012001850DF
:10046E001D0DF350010F1124726E72C0F6FF020EB5
:10047E00F76E0800F5500009D8A412000D0E176E85
:10048E001200110E106019D074A617D0010E6B6EEB
:10049E00000E9EEC0AF018501D0DF3CF72F01D0EDB
:1004AE0072267250010F736E73C066F06650D8A438
:1004BE00020E676EEAEC0BF01BD7100E10641200E2
:1004CE0074A61200090E176E1200100E16602BD0B5
:1004DE00010E6B6E16509EEC0AF018501D0DF35067
:1004EE00010F1224726E1D0E722672C0F6FF020EDE
:1004FE00F76E0800F55032EC0AF0162A122A185040
:10050E001D0DF350010F1224726E1D0E722672C055
:10051E00F6FF020EF76E0800F5500009D8A412007F
:10052E00000E126E12000F0E16641200142A482AC4
:10053E0018501D0DF350010F4824726E1D0E7226B9
:10054E0072C0F6FF020EF76E0800F5500009D8A42F
:10055E0002D0000E486E18501D0DF350010F1424DA
:10056E00726E1D0E722672C0F6FF020EF76E080036
:10057E00F5500009D8A402D0000E146E000E166EAF
:10058E0014C012F0B5D619503DEC0BF064BE0ED06F
:10059E00B50E635C040E6458D8B074B407D074A65C
:1005AE0005D065EC0BF0020E176E120074A412004B
:1005BE0074A6120065EC0BF0F9D61950A9EC0BF0ED
:1005CE0097D6F0EC0BF0D8A012001950A9EC0BF056
:1005DE000B0E176E120018501D0DF350010F102444
:1005EE00726E1D0E722672C0F6FF020EF76E0800B6
:1005FE00F5500009D8B402D0102A120018501D0D63
:10060E00F350010F1024726E1D0E722672C0F6FF8B
:10061E00020EF76E0800F5500009D8A41200C3D7D9
:10062E001750726E736A7350000AD8A4120072507B
:10063E00000AD8B4D0D6010AD8B4EAD6030AD8B480
:10064E0038D6010AD8B456D6060AD8B4B2D6030A9A
:10065E00D8B4A8D6010AD8B414D70F0AD8B4B1D7D3
:10066E00010AD8B432D7030AD8B4A7D7010AD8B42E
:10067E008AD7060AD8A41200AED74BD165EC0BF080
:10068E00A60E666E6650D8A4020E676EEAEC0BF0EC
:10069E00010E256E1200F0EC0BF0D8A01200010E28
:1006AE006B6E000E9EEC0AF0920E666E6650D8A42B
:1006BE00020E676EEAEC0BF04D68020E256E12000C
:1006CE004D04D8A409D024EC0CF00009D8B404D001
:1006DE00748E030E256E1200020E4D18D8A4120051
:1006EE00749EF7D74D684C6865EC0BF0B50E666ED0
:1006FE006650D8A4020E676EEAEC0BF0040E256E5F
:10070E001200F0EC0BF0D8A01200010E6B6E000E72
:10071E009EEC0AF0AE0E666E6650D8A4020E676EA0
:10072E00EAEC0BF0050E256E1200F0EC0BF0D8A0E3
:10073E001200000E6B6E060E9EEC0AF01EEC0CF014
:10074E00000E296E060E256E12004C50800A500FB8
:10075E00D8A00FD00A0E4D18D8B40BD04C5032EC96
:10076E000AF029C063F04C50D0EC0BF0070E256E4A
:10077E0012000B0E4D18D8A41200F8D7070E291828
:10078E00D8B408D00B0E4D18D8B404D0292A4D6811
:10079E004C68D8D7070E2918D8B404D00B0E4D18B4
:1007AE00D8A41200010E6B6E060E9EEC0AF029C044
:1007BE0063F0000ED0EC0BF04D684C68000E296E05
:1007CE00080E256E12004C50800A500FD8A00FD084
:1007DE000A0E4D18D8B40BD04C5032EC0AF029C08A
:1007EE0063F04C50C8EC0BF0090E256E12000B0E88
:1007FE004D18D8A41200F8D7070E2918D8B408D06F
:10080E000B0E4D18D8B404D0292A4D684C68D8D791
:10081E00070E2918D8B404D00B0E4D18D8A4120008
:10082E0029C063F0000EC8EC0BF04D684C68000E4A
:10083E00296E26EC0CF021EC0CF00A0E256E12003F
:10084E00D8EC0BF0D8B01200F6EC0BF0D8A002D01A
:10085E00010E01D0000E266E0B0E256E12000C0E30
:10086E00256E1200000E256E120065EC0BF02AECC0
:10087E000CF02750DEEC0BF04B684D680D0E256E1C
:10088E001200080E4B18D8A405D0040E2760E7D727
:10089E00272AE5D7020E4B18D8A405D02750D8B476
:1008AE00DED72706DCD70B0E4D18D8A41200030E88
:1008BE002718D8A412002CEC0CF065EC0BF09D0E52
:1008CE00666E6650D8A4020E676EEAEC0BF00E0E42
:1008DE00256E1200F0EC0BF0D8A012002650B5ECED
:1008EE000BF063C066F064C067F0EAEC0BF02850C2
:1008FE00A9EC0BF00F0E256E120028503DEC0BF0FC
:10090E0064BE12006B0E635C090E6458D8A0120010
:10091E00A9D72550726E736A7350000AD8A41200BC
:10092E007250000AD8B4AAD6010AD8B4B4D6030AB3
:10093E00D8B4C6D6010AD8B4D5D6070AD8B4E1D6EB
:10094E00010AD8B4F2D6030AD8B4FFD6010AD8B435
:10095E0015D70F0AD8B437D7010AD8B44DD7030A22
:10096E00D8B46ED7010AD8B47AD7070AD8B47DD7CF
:10097E00010AD8B486D7030AD8B4ACD7010AD8A4D2
:10098E001200BBD7EAD05028D8A475A006D04F507D
:10099E00A9EC0BF0030E2F6E12005028D8A41200F3
:1009AE004F503DEC0BF064BE12005A0E635C020E0B
:1009BE006458D8A012005128D8B4120075A01200A5
:1009CE0051500EEC0CF051684E68000E2F6E120056
:1009DE004E505018D8A418D04F503DEC0BF064BEBA
:1009EE0006D05A0E635C020E6458D8B00DD0506813
:1009FE00302A300E5118D8B404D0200E5118D8A475
:100A0E00512A020E2F6E12005028D8B412004E50EA
:100A1E005018D8B4120051500EEC0CF05050D8A40F
:100A2E0007D03004D8A402D0300E07D0200E05D047
:100A3E0050503D0FD96EDA6ADF50516E50C04EF0F5
:100A4E00000E306E5068C1D7070E4E18D8B40AD0BB
:100A5E00090E4E18D8B406D04E50D8B403D0050E99
:100A6E002F6E1200070E4E18D8B404D0090E4E1871
:100A7E00D8A403D0060E2F6E12004E50D8A412002A
:100A8E00070E2F6E12005050800A7E0FD8B003D082
:100A9E005050D8A408D05050800A760FD8B003D04A
:100AAE00010E2F6E12005050800A7E0FD8B008D063
:100ABE005128D8A405D05050300F0EEC0CF0C2D7F0
:100ACE005050800A7E0FD8B012005128D8B41200B0
:100ADE0051500EEC0CF05168040E2F6E1200505057
:100AEE00300F0EEC0CF0AED7040E3018D8A409D08F
:100AFE004E503D0FD96EDA6ADF50516E000E306ED9
:100B0E0064D7030E3018D8A404D04E50300F516E57
:100B1E005CD7030E3060120058D7040E3018D8B4CC
:100B2E00F4D7050E3018D8B4E3D7040EF3D7020E5F
:100B3E003018D8A405D0200E516E000E2F6E120064
:100B4E00030E3018D8A407D0300E516E000E306E42
:100B5E00000E2F6E1200020EDDD72F506A6E6B6ADA
:100B6E006B50000AD8A412006A50000AD8B40BD7F2
:100B7E00010AD8B42DD7030AD8B466D7010AD8B45F
:100B8E0082D7070AD8B4ABD7010AD8B4ADD7030AB7
:100B9E00D8B4C3D7010AD8A41200C9D7A5D074AC53
:100BAE0074BA05D0000E206E000E1F6E120074ACCB
:100BBE0004D04A68010E1E6E120074AA1200020EB4
:100BCE001E6E12002350205CD8B012D0360E636E0B
:100BDE002050170D000EF324646E010EF420656E86
:100BEE005BEC0AF00009D8B420C04AF0202AE2D704
:100BFE0023502018D8A41200749C000E1E6E1200F2
:100C0E00080E2018D8B422D022C063F02050360F20
:100C1E00D96EDA6ADF5053EC0BF0222A2050360FD1
:100C2E00D96EDA6A2150170D000E686E010E696ECC
:100C3E00F3506826F450692220506824E16E000EAD
:100C4E006920E26EDFCFE7FF202AB9D7080E201801
:100C5E00D8A41200000E206E030E1E6E1200080E97
:100C6E002018D8B428D022C063F02050010FD96EBE
:100C7E00DA6ADF5053EC0BF0222A2050010FD96EA6
:100C8E00DA6A2150170D000E686E010E696E090E9C
:100C9E006826000E6922F3506826F450692220500F
:100CAE006824E16E000E6920E26EDFCFE7FF202A96
:100CBE00030E1E6E1200080E2018D8A41200749A8D
:100CCE00222A9F0E2218D8A402D0100E226E212A9C
:100CDE00080E2118D8A402D0000E216E080E23187B
:100CEE00D8B48BD7232A89D71E50686E696A69508B
:100CFE00000AD8A412006850000AD8B450D7010ACE
:100D0E00D8B460D7030AD8B47BD7010AD8A412008E
:100D1E00A6D783A003D06A6A6A2A01D06A6A83A220
:100D2E0002D0010E01D0000E020DF3CF6BF083A4A2
:100D3E0002D0010E01D0000E030DF3CF6CF083A68E
:100D4E0002D0010E01D0000E040DF3506C246B2462
:100D5E006A242B6E6FD02B50D8A407D08C888C9A17
:100D6E008C9C000E2C6E2D2A12002B50D8B4120023
:100D7E002E50A9EC0BF0030E2D6E12002B50D8A4A2
:100D8E0005D08C988C8A8C9C010EECD72B50D8B445
:100D9E0012002E50A9EC0BF0EED72B50D8A408D091
:100DAE008C988C9A8C8C020E2C6E000E2D6E12006E
:100DBE002B50D8B412002E50A9EC0BF0D4D72E50D5
:100DCE003DEC0BF064BE1200CED72B50D8A403D04E
:100DDE00010E2D6E12002B50D8B412002B50030DA5
:100DEE00F3504F0F2C24D96EDA6ADF5002EC0CF060
:100DFE002B50030DF3504F0F2C24D96EDA6ADF50AF
:100E0E00FEEC0BF0B0D72B50D8A412002E50A9EC4C
:100E1E000BF0A9D72E503DEC0BF0D4D72B50D8B4F5
:100E2E0003D0050E2D6E12002B50D8A41200000E0A
:100E3E002D6E12002D506A6E6B6A6B50000AD8A48C
:100E4E0012006A50000AD8B486D7010AD8B496D7D1
:100E5E00030AD8B4A2D7010AD8B4B1D7070AD8B4B6
:100E6E00B4D7010AD8B4CFD7030AD8B4D3D7010A5E
:100E7E00D8A41200D3D75AD0C2B20BD0C80EC460B9
:100E8E0008D0320EC46405D0070EC26E74820E2ACC
:100E9E005BD0C2B210D0C70EC4640DD0020E0F18B4
:100EAE00D8B403D0020E16EC0CF0020E0F6E070E25
:100EBE00C26E7492ECD7C2B247D0330EC46044D027
:100ECE00080E0F18D8B403D0080E16EC0CF0080E4E
:100EDE00EDD7C2B20BD0C80EC46008D0320EC464B7
:100EEE0005D0030EC26E74800E062ED0C2B210D084
:100EFE00C70EC4640DD0060E0F18D8B403D0060E5C
:100F0E0016EC0CF0060E0F6E030EC26E7490ECD73C
:100F1E00C2B21AD0330EC46017D0040E0F18D8B454
:100F2E0003D0040E16EC0CF0040EEDD70E50646ECA
:100F3E00656A6550000AD8A407D06450000AD8B478
:100F4E009BD7010AD8B4C5D774A2120074A01200A0
:100F5E000F50D8B41200000E16EC0CF0000E0F6EEF
:100F6E0012006F6EBBEC0AF0316E6FC035F06EC0C2
:100F7E0034F0000E326E32C033F09498959E949AEF
:100F8E00000E716E000E706E000E6B6E640E6A6E49
:100F9E00315077EC0BF0030EDAEC08F0000E6B6EAE
:100FAE00050E6A6E315077EC0BF0030EDAEC08F09A
:100FBE00000E6B6E010E6A6E315077EC0BF0030E65
:100FCE00DAEC08F0000E6B6E010E6A6E315077ECA3
:100FDE000BF0020EDAEC08F0000E6B6E040E6A6E69
:100FEE00315077EC0BF0280E0DEC0BF07EEC0AF086
:100FFE00080E0DEC0BF07EEC0AF0010E0DEC0BF072
:10100E00000E6B6E030E6A6E315077EC0BF07EECB9
:10101E000AF0060E0DEC0BF07EEC0AF00F0E0DEC46
:10102E000BF0704A712A71BEAFD7715004E1020EF7
:10103E00705CD8A0A9D7E4EC0BF0120048D074A8CD
:10104E001200010E1D6E000E1B6E1C50A9EC0BF053
:10105E00010E1A6E1200050E1D6404D07498000E57
:10106E001A6E1200A80E1B18D8A404D01D2A000E4A
:10107E001B6EEED71C503DEC0BF01D506A6E6B6A6A
:10108E0063506A5C6B50800A6C6E6450800A6C58B8
:10109E00D8B012008A801C50A9EC0BF0020E1A6E0A
:1010AE0012001C503DEC0BF01D506A6E6B6A6350C3
:1010BE006A5C6B50800A6C6E6450800A6C58D8B0B3
:1010CE0012008A901C50A9EC0BF01B2AC1D71A50A3
:1010DE006A6E6B6A6B50000AD8A412006A50000A3E
:1010EE00D8B4ADD7010AD8B4B6D7030AD8A4120023
:1010FE00D8D7000EA96EA69EA69CA680A6B0FED737
:10110E00A8CF23F0A92AA69EA69CA6B0FED7A8CF4C
:10111E0022F0A92A000E656E41D0000E666EA69EC4
:10112E00A69CA680A6B0FED76550170D000E636E66
:10113E00010E646EF3506326F450642266506324ED
:10114E00D96E000E6420DA6EA8CFDFFFA92A662AB8
:10115E00080E6664E4D7000E676EA69EA69CA68057
:10116E00A6B0FED76550170D000E636E010E646EAD
:10117E00090E6326000E6422F3506326F450642297
:10118E0067506324D96E000E6420DA6EA8CFDFFF9D
:10119E00A92A672A080E6764E0D7652A2350655C82
:1011AE00D8B01200BAD7646E949694949492949098
:1011BE008B9A8C9E8B888B8864A603D0636A632A75
:1011CE0001D0636A6346634663468B506318F70B20
:1011DE0063188B6E64A403D0636A632A01D0636ABA
:1011EE00634663468B506318FB0B63188B6E64A2C9
:1011FE0003D0636A632A01D0636A63468B50631817
:10120E00FD0B63188B6E64A003D0636A632A01D052
:10121E00636A8B506318FE0B63188B6E8B981200EB
:10122E00646E64A603D0636A632A01D0636A634660
:10123E00634663468B506318F70B63188B6E64A47A
:10124E0003D0636A632A01D0636A634663468B5098
:10125E006318FB0B63188B6E64A203D0636A632A58
:10126E0001D0636A63468B506318FD0B63188B6E57
:10127E0064A003D0636A632A01D0636A8B5063183B
:10128E00FE0B63188B6E1200646E64AE03D0636A3D
:10129E00632A01D0636A6346634663468B506318C4
:1012AE00F70B63188B6E64AC03D0636A632A01D0AC
:1012BE00636A634663468B506318FB0B63188B6E31
:1012CE0064AA03D0636A632A01D0636A63468B50B3
:1012DE006318FD0B63188B6E64A803D0636A632AD0
:1012EE0001D0636A8B506318FE0B63188B6E12006D
:1012FE0075A212000CC0F6FF0DC0F7FFF86A010EC2
:10130E00F76403D00800F55005D0F6CFE1FFF7CF14
:10131E00E2FFE75032EC0AF00C4A0D2A0CC0F6FF41
:10132E000DC0F7FFF86A010EF76403D00800F55000
:10133E0005D0F6CFE1FFF7CFE2FFE7500009D8A4C2
:10134E0012007592000E0C6E000E0D6E1200DF0E66
:10135E00D76E940ED66EF2940A4A0B2A480E0A5C89
:10136E00EE0E0B58D8A01200000E2A6E070E2A643D
:10137E0001D015D02A50030DF350820FD96EDA6AC0
:10138E00DE04D8A40AD02A50030DF350800FD96E74
:10139E00DA6A0A50DE5E0B50DD5A2A2AE7D7000EB3
:1013AE000B6E000E0A6E120089EC0BF026EC0BF0A1
:1013BE00D8EC0AF006EC0CF00AEC0CF0C9EC04F0D8
:1013CE0080EC08F0FAEC0BF01AEC0CF0BFEC0BF022
:1013DE00100E6E6E020EB8EC07F012EC0CF042EC32
:1013EE0007F044EC03F025EC08F0D5EC05F05FECCB
:1013FE0001F090EC06F0C9EC04F07FEC09F0EFD7A9
:10140E00320EF66E170EF76E000EF86E00EE3FF00F
:10141E0010EE1FF00900F5CFEEFFE550E150FAE1B6
:10142E0001EE00F0B80EEE6AE806FDE100EE80F087
:10143E00180EEE6AE806FDE1756A746A00EE01F0B8
:10144E003E0EEE6AE806FDE176907692000EF86E9C
:10145E000001DBEF09F0716E7EEC0AF07150F4ECD6
:10146E000AF0322A020E3518D8A410D0270E326494
:10147E000DD0000E326E332A010E336402D0000EF0
:10148E00336E33C06BF032509EEC0AF03304D8A4A6
:10149E001200270E326402D0000E326E33C06BF093
:1014AE0032509EEC0AF012000ED064C0D9FF65C017
:1014BE00DAFF6350E16EE26ADE50E618D8A409D076
:1014CE00632A644A652A6350D96EDA6ADF50D8A45B
:1014DE00ECD764C0D9FF65C0DAFFDF50666E63508B
:1014EE00D96EDA6ADF50676E6650675C12009486BA
:1014FE009484948294808B9A8C8E3150A9EC0BF04C
:10150E008B888B88000E82B6010E6A6E8B988B9834
:10151E008B888B888B988B9831503DEC0BF06350F9
:10152E006410D8A412006A50D8B41200E9D7706EB5
:10153E006B50D8B404D0000E6F6E400E03D0000E68
:10154E006F6E000E6E6E70506E246C6E000E6F20FD
:10155E006D6E7EEC0AF06C5080090DEC0BF06BC0DA
:10156E0033F070C032F01200000E2A6E07D02A2A15
:10157E00080E2A18D8A402D0FF0E12002A50030D0E
:10158E00F350820FD96EDA6ADE04D8B4F0D72A503F
:10159E00030DF350820FD96EDA6A010EDF6E2A50F8
:1015AE001200D09EF28EF28CF28AF294880ED56ED4
:1015BE00DF0ED76E940ED66ED58E000E2A6E070EE7
:1015CE002A6401D012002A50030DF350820FD96EF7
:1015DE00DA6A000EDF6E2A2AF2D7656E949694941C
:1015EE00949294908B8A8C9E8B8865504BEC09F06C
:1015FE008B888B988B988B88655017EC09F08B88AD
:10160E008B9894869484948294801200656E94963E
:10161E009494949294908B9A8C9E8B8865504BECFC
:10162E0009F08B888B988B988B88655017EC09F096
:10163E008B888B9894869484948294801200000EEA
:10164E00636E000EA96E000EA86EA69EA69CA684C2
:10165E00F29E550EA76EAA0EA76EA682A6B2FED752
:10166E00632A9F0E6364EDD7F28E1200676E0AC076
:10167E0068F00BC069F06750030DF350800FD96E00
:10168E00DA6ADECF65F0DDCF66F06550685C636EBA
:10169E0066506958646E1200646E64C0A9FF63C020
:1016AE00A8FFA69EA69CA684F29E550EA76EAA0E15
:1016BE00A76EA682A6B2FED7F28E12007EEC0AF0BC
:1016CE00010E0DEC0BF0000E6B6E030E6A6E3150B8
:1016DE0077EC0BF0000E6B6E000E9EEC0AF0120013
:1016EE006D6E6D50A9EC0BF06D503DEC0BF06A5029
:1016FE00635C6450800A6C6E6B50800A6C58D8B074
:10170E001200F2D7030E926EE00E936E8A968A90B6
:10171E008A92C00E946E8F0E956E000E8C6EA68EF3
:10172E00A69C12004144474A4D505457000F0FFFDC
:10173E00FFFFFFFFFFFFFF01020304050607080975
:03174E000A000B83
:10175200636E6350030DF350800FD96EDA6A0AC0CC
:10176200DEFF0BC0DDFF1200656E6550170D000E27
:10177200F324636E010EF420646E1200010EC26E39
:101782000D0EC16E090EC06E7F0EC46E1200646E25
:101792006350010FD96EDA6A64C0DFFF1200646E13
:1017A2006350360FD96EDA6A64C0DFFF120074BC70
:1017B20002D0D8901200D8801200636E748463C085
:1017C20018F0748612007EEC0AF00C0E0DEC0BF091
:1017D200120066C00CF067C00DF07582120075A28F
:1017E20002D0D8901200D88012004AC063F0633051
:1017F2001200BBEC0AF01C6E1200636E63C050F064
:101802001200636E63C04DF01200BBEC0AF02E6E44
:101812001200BBEC0AF04F6E1200636E63C04CF014
:101822001200BBEC0AF0286E1200636E63C04BF02C
:101832001200BBEC0AF0196E12007580506812009B
:1018420075905068120023501200748C1200748A32
:0A1852001200748612007496120052
:020000040020DA
:08000000FFFFFFFFFFFFFFFF00
:020000040030CA
:0E000000FF061F1EFF8181FF03C003E00340C7
:00000001FF
