:020000040000FA
:0400000019EF00F004
:100008007882D9CF60F0DACF61F0F3CF62F0F4CF25
:1000180063F02AEC0EF063C0F4FF62C0F3FF61C026
:10002800DAFF60C0D9FF7892110006EF0DF0646E18
:100038006450020DF350980F00D0D96EDA6ADF5081
:100048001200010EC26E0D0EC16E090EC06E7F0E3B
:10005800C46E7F0C656E6450AA0FD96EDA6A65C0EB
:10006800DFFF1200656E6450B30FD96EDA6A65C09F
:10007800DFFF1200646E64C0A9FFA69EA69CA6803E
:10008800A8501200646E6450020DF350990F21EFCE
:1000980000F075B202D0D8901200D880120075BA5C
:1000A80002D0D8901200D880120075B802D0D8902B
:1000B8001200D880120076AA02D0D8901200D880F8
:1000C800120076BE02D0D8901200D8801200646E5A
:1000D800768264C021F076841200646EA0EC00F091
:1000E80064C047F0120067C00BF068C00CF077845A
:1000F800120077A402D0D8901200D8801200646E43
:1001080064C028F076881200646E64C04AF0120059
:10011800646E64C048F01200646E64C049F0120056
:10012800646E64C04BF01200646E64C013F0120079
:10013800646E64C04CF01200300E5C6E5D6E300C64
:10014800DCEC0EF0116E1200DCEC0EF0166E1200F4
:10015800DCEC0EF0256E1200646E64C054F01200E0
:10016800646E64C052F01200DCEC0EF0386E1200BF
:10017800DCEC0EF03B6E1200646E64C051F01200AD
:10018800DCEC0EF0326E1200646E64C050F01200A7
:10019800DCEC0EF0226E1200758C759812007782D6
:1001A80054681200779254681200180EB3EF0FF0DB
:1001B8007594120075801200759C1200560E12007C
:1001C800759A120076861200768A12002D50120057
:1001D8004F501200768E1200768C12007684120030
:1001E8004A50120076941200759612005C0E1200A6
:0401F800475012005A
:1002000000312E506C617920612047616D650000DE
:100210000000000000000000000000000000322E7E
:100220004D6F646966792054696D650000000000B7
:100230000000000000000000000000332E53686F33
:10024000772047656E6572616C20546F7020352091
:1002500053636F7265732000342E4C6F676F757433
:10026000000000000000000000000000000000008E
:100270000000000000352E53686F7720416C6C2021
:10028000557365727300000000000000000000005C
:1002900000000102030405060708090A000B54497F
:1002A0004D452052454D41494E494E473A004D6F0C
:1002B000646966792054696D653A0054494D45205A
:1002C0004C4546543A2000425945204259452000A9
:1002D00053434F52453A20004552524F52533A0031
:0F02E000505357443A2000555345523A200000DE
:1002F00022D374EC0FF0CF0E676E686A77EC00F0D3
:10030000010E2E6E010C7DEC00F0D8A0120095DBE2
:10031000C2EC0EF0C40E676E686A77EC00F05268AB
:10032000020E2E6E020C520404E17780030E2E6E34
:10033000030C020E5218D8A412007790F7D7526817
:10034000516874EC0FF0E70E6DDB77EC00F0040EF3
:100350002E6E040C7DEC00F0D8A012006EDBC2EC17
:100360000EF0E00E5FDB77EC00F0050E2E6E050C54
:100370007DEC00F0D8A01200000E6C6E060EC2ECF0
:100380000EF0D3EC00F0336A060E2E6E060C5150C0
:10039000800A600F0EE30A0E52180BE0515006EC73
:1003A0000EF033C064F0515036EC00F0070E2E6EA4
:1003B000070C0B0E5218FAE01200070E331805E076
:1003C0000B0E521802E051DBDFD7070E331804E0A2
:1003D0000B0E5218D8A41200010E6C6E060EC2EC61
:1003E0000EF033C064F0000E36EC00F03ADB080E7D
:1003F0002E6E080C5150800A600F0EE30A0E521840
:100400000BE0515006EC0EF033C064F051502EEC6E
:1004100000F0090E2E6E090C0B0E5218FAE01200B5
:10042000070E331805E00B0E521802E01EDBDFD773
:10043000070E331804E00B0E5218D8A4120033C074
:1004400064F0000E2EEC00F00CDBEEEC00F0D6ECCD
:1004500000F00A0E2E6E0A0C65EC00F0D8B0120007
:10046000ECEC00F0306E0B0E2E6E0B0C77B006D05D
:10047000302804E1F0EC00F02E6A120077B030BEB4
:1004800006D03EEC0FF003E30C0E2E6E0C0C77A0A2
:1004900002D03028F1E077B002D030AEEDD73EEC9C
:1004A0000FF0EAE3120074EC0FF0F2EC00F03150C0
:1004B0006BEC00F0506852680D0E2E6E0D0C080E9D
:1004C000501805E1040E3160DFD7312ADDD7020E66
:1004D000501804E13150D8E03106D6D70B0E52182F
:1004E0000EE1030E31180BE1F6EC00F074EC0FF0A6
:1004F000C70E98DA77EC00F00E0E2E6E0E0C0B0E77
:1005000052180EE131040CE174EC0FF0F6EC00F03F
:10051000AE0E88DA77EC00F05268100E2E6E100CDA
:10052000315012E10B0E52180FE1F6EC00F0526858
:1005300074EC0FF09E0E76DA77EC00F030509CEC05
:1005400000F0150E2E6E150C0B0E52180EE1040E57
:1005500031180BE1F6EC00F074EC0FF0316A5268E0
:10056000E8EC00F01E0E2E6E1E0C0B0E5218D8A4D6
:100570001200020E3118D8A41200000E1BEC00F07D
:10058000FF0AD8B41200F6EC00F074EC0FF0316AF8
:1005900052681F0E2E6E1F0C7DEC00F0D8A01200CA
:1005A0003050F5EC0FF04CDA77EC00F03250C1EC43
:1005B0000FF00F0E2E6E0F0C325019EC0FF065BEBF
:1005C00012006B0E645C090E655801E355D71200EA
:1005D0007DEC00F047E352BE45D05250800A760FC2
:1005E00041E22BDAC2EC0EF05250300F416E415016
:1005F00006EC0EF05268110E2E6E1200521801E138
:1006000043D7120052BE2ED05250800A760F2AE2F3
:100610005250300F426E425006EC0EF052683A0EC5
:1006200006EC0EF0120EE8D752BE1CD05250800AD3
:10063000760F18E25250300F436E435006EC0EF026
:100640005268130ED9D752BE0DD05250800A760F81
:1006500009E25250300F446E445006EC0EF05268DE
:10066000140ECAD70A0ECAD70B0E5218FBE1410E60
:10067000646E50EC0FF0526807D70A0E521803E16F
:100680007DEC00F003E259EC00F007E374EC0FF0AE
:10069000F8EC00F0160E2E6E160C5250800A7F0FEA
:1006A00009E35250800A760F05E2525094EC00F0B4
:1006B000526847D750BE1200505098EC00F0506876
:1006C00040D7F4EC00F00009D8B412000B0E96D716
:1006D0007DEC00F0D8A01200000E6C6EC2EC0EF0A3
:1006E0003150A5EC0FF0A4D977EC00F0312A180EA8
:1006F0002E6E180C7DEC00F0D8A01200EAEC00F091
:1007000031600BD09AD9C2EC0EF03150A5EC0FF04D
:100710008FD977EC00F0312A01D0316A190E2E6E94
:10072000190C7DEC00F0D8A01200EAEC00F03118B2
:1007300001E1316A93D9C2EC0EF03150A5EC0FF013
:1007400077D977EC00F01A0E2E6E1A0C7DEC00F0C3
:10075000D8A01200EAEC00F00001D76FD86B31503E
:10076000D96FDA6BD92B000EDA23D751D95DDA5164
:10077000800ADB6FD851800ADB5909E26CD9C2ECE0
:100780000EF03128A5EC0FF053D977EC00F01B0EDA
:100790002E6E1B0C325019EC0FF065BE08D0B60E51
:1007A000645C040E655803E31D0E2E6E1D0C0B0ECB
:1007B0005218D8A41200316A67D60F0E2F6405D0E4
:1007C00074EC0FF0170E2E6E170C100E2F60100C1D
:1007D0003250C1EC0FF0D9EC00F02F2A1C0E2E6E17
:1007E0001C0C7DEC00F0D8A012003250C1EC0FF0D0
:1007F0002F6AF4D75FEC00F0E5E212007DEC00F028
:10080000D8A0120031501BEC00F0F5EC0FF018D915
:1008100077EC00F031501BEC00F046EC00F071EC8E
:1008200000F0200E2E6E200CFCEC00F0FA0AD8A48A
:1008300012007DEC00F0D8A012003A0E06EC0EF08B
:10084000FCD8C2EC0EF0FAEC00F0FFD877EC00F028
:10085000312A050E311805E031501BEC00F0FF0A7B
:1008600001E1316A220E2E6E220C31501BEC00F099
:10087000FF0A04E1050E3118D8B412007DEC00F037
:10088000D8A01200EBD8C2EC0EF031501BEC00F0F7
:10089000F5EC0FF0D5D877EC00F031501BEC00F000
:1008A00046EC00F071EC00F0230E2E6E230C7DEC74
:1008B00000F0D8A01200FCEC00F0FA0AD8A4120054
:1008C0003A0E06EC0EF0C7D8C2EC0EF0FAEC00F0CF
:1008D000BCD877EC00F02F6A3250C1EC0FF0250E37
:1008E0002E6E250C0B0E521804E17DEC00F001E396
:1008F00062D7325019EC0FF065BE1200910E645CA5
:10090000010E6558D8A012007DEC00F0D8A01200AE
:10091000260E2E6E260C100E2F6007D03250C1EC22
:100920000FF0D9EC00F02F2ADAD70F0E2F640F0C3E
:1009300074EC0FF02ED62E500001D76FD86BD85123
:10094000D8A41200D75101E1D4D4010A01E1DBD4CB
:10095000030A01E1E8D4010A01E1F1D4070A01E147
:10096000F9D4010A01E104D5030A01E110D5010A15
:1009700001E123D50F0A01E13DD5010A01E150D57E
:10098000030A01E169D5010A01E170D5070A01E115
:100990008AD5010A01E193D5030A01E1FDD5010AD7
:1009A00001E10AD61F0A01E113D6010A01E12AD6A4
:1009B000030A01E139D6010A01E145D6070A01E13E
:1009C00053D6010A01E159D6030A01E17AD6010A98
:1009D00001E17ED60F0A01E18DD6010A01E1A1D61F
:1009E000030A01E1B3D6010A01E1FBD6070A01E1DE
:1009F000D1D6010A01E1E1D6030A01E1FBD6010AE1
:100A000001E1FCD63F0A01E10FD7020A01E12DD72F
:100A1000010A01E14CD7060A01E164D7030A01E1AA
:100A20007AD71200676E6750D8A4020E686E120063
:100A300064C067F065C068F01200010E6C6E000CB7
:100A400064C067F065C068F012000001D76FD7C0BE
:100A500067F0686A1200010E6C6E100C000E6C6E6E
:100A6000100C52685168336A1200332A5268516878
:100A7000120035D14ABE12004A50F5EC0FF064C0A6
:100A800007F065C008F075847592010E0D6E010CBB
:100A90004ED908E1ACA206D0AD6A486A8A86020E39
:100AA0000D6E020C44D9D8A4ACA2120040D9AD6E90
:100AB000074A082A12004B0EAE18D8A412007582FD
:100AC000030E0D6E030C492806E0ACA204D049C009
:100AD000ADFF4968F5D7300E486409D03A0E48603A
:100AE00006D0ACA204D048C0ADFF486AE9D775B4BF
:100AF00002D0ACB202D09EAA0DD074EC0FF0D80E8A
:100B000012EC05F077EC00F0460EAD6E486A040E6C
:100B10000D6E040C75A01200E2EC00F0D96EDA6ADA
:100B2000DF50016EE2EC00F019D9026EE2EC00F049
:100B300004D9036EE2EC00F006D9046EE2EC00F09A
:100B4000D96EDA6A040ED926DF50056E5F0E066E86
:100B5000010E0E6E1150C1EC0FF00F6A0A0E0D6EF1
:100B60000A0C9EAA1200AECF10F0105083EC00F0D9
:100B7000105071EC00F01150C1EC0FF0050E0D6E2D
:100B8000050C115019EC0FF065BE0FD0BB0E645C64
:100B9000090E65580AE374EC0FF0BB0E12EC05F079
:100BA00077EC00F0070E0D6E070C115019EC0FF0EA
:100BB00065BE06D0BA0E645C090E6558D8B0120046
:100BC0009EAA12007DEC00F0D8A012001DEC05F0EA
:100BD000C2EC0EF0AE5006EC0EF0060E0D6E060CDA
:100BE0007DEC00F0D8A01200E2EC00F0B2D877EC77
:100BF00000F0080E0D6E080C9EAA1200AE5006EC16
:100C00000EF01150C1EC0FF0B9D77DEC00F0D8A078
:100C100012001DEC05F0C2EC0EF0D00E12EC05F047
:100C200077EC00F0090E0D6E090C7DEC00F0D8A0F9
:100C30001200FCEC00F0FA0AD8A41200FAEC00F062
:100C400088D877EC00F04A680D6A1200060E0F187B
:100C500002E1759035D7060E0F60060C115019ECA5
:100C60000FF065BE1200655003E16404D8A01200C5
:100C70008A921150C1EC0FF00B0E0D6E0B0C0E5042
:100C800011E1115019EC0FF065BE0CD0655002E176
:100C9000640408E3010E0E6E0F2A8A821150C1EC23
:100CA0000FF05CD7115019EC0FF065BE12006550C3
:100CB00003E16404D8A012000E50D8B412000F5003
:100CC000010FD96EDA6ADF500E1402E08A8201D079
:100CD0008A92D8900E361150C1EC0FF0CDD70D503E
:100CE000736E746A7450D8A41200735001E1C2D6B6
:100CF000010A01E1CDD6030A01E1DDD6010A01E1D5
:100D0000E2D6070A01E12DD7010A01E13AD7030A29
:100D100001E172D7010A01E163D70F0A01E175D73A
:100D2000010A83E0030A92E0010AA9E0120007C069
:100D3000D9FF08C0DAFFDF501200D96EDA6A020E5E
:100D4000D926DF501200D96EDA6A030ED926DF5099
:100D50001200736E73C067F0686A1200D96EDA6AA7
:100D6000D92ADF5012000BD1110E1A6010D076A4D0
:100D70000ED0000E6C6EC2EC0EF032D9736E73C0E2
:100D800067F033D977EC00F0050E206E050C100EDD
:100D90001A64100C76A4100C202A12000F0E1F6487
:100DA00014D01E2A4E2A1CD94E24736E0ED901E18E
:100DB0004E6A16D91E24736E08D901E11E6A1F6A95
:100DC0001EC01CF0060E206E060C100E1F60100CCC
:100DD000000E6C6E1F50C2EC0EF002D91C24736E14
:100DE000F4D806EC0EF01F2A1C2AFAD81C24736EC5
:100DF000ECD8D8B41C6A1200040E216010D0CCD7F5
:100E0000206A12007DEC00F006E3040E216003D09E
:100E1000070E206E070C7DEC00F0D8A01200030E28
:100E20002164030CEDD776B276A412001A6A196A0F
:100E3000000E6C6EC2EC0EF01E6A0F0E4E6E1D6A36
:100E40000F0E4D6E1F6A1C6A1B6A7692A5D7C8D812
:100E50001A24736EBAD804E1030E216401D09CD722
:100E6000BFD81A24736EB1D802E01A2A1200040EF9
:100E70002160040CB5D81A24736EA7D8D8A4120028
:100E80000D0E206E0D0C110E196015D076A413D026
:100E90001DEC05F0C2EC0EF021501D0DF3CF73F0E8
:100EA0001D0E73267350010F746E74C067F09DD8C9
:100EB00077EC00F071D7100E1964100C76A4100CAA
:100EC000090E206E090C100E1F6014D0010E6C6EFE
:100ED0001F50C2EC0EF084D81B247ED876D806ECC6
:100EE0000EF01F2A1B2A7CD81B2476D86ED8D8B4C3
:100EF0001B6A12000F0E1F640F0C1D2A4D2A70D89A
:100F00004D246AD862D801E14D6A6AD81D2464D89C
:100F10005CD801E11D6A1F6A1DC01BF03DD722503D
:100F200019EC0FF065BE0AD065D808E376A276A466
:100F300005D074EC0FF0020E206E020C76B276A48F
:100F4000120074EC0FF05CD72250C1EC0FF024D7E4
:100F50007DEC00F0D8A012002250C1EC0FF00B0E77
:100F6000206E0B0C3DD8192437D82FD802E0192A4F
:100F7000120036D8192430D828D8DDE012002050CD
:100F8000736E746A7450D8A41200735001E14BD789
:100F9000010A01E15CD7030A01E1E6D6010A01E199
:100FA000FDD6060A01E12ED7030A01E125D7010A81
:100FB00001E169D70F0ACCE0010A85E0030AC4E029
:100FC000010AADE0060ACEE0120073C0F6FF020E81
:100FD000F76E0800F5501200736E1D0E73261D0C7F
:100FE00021501D0DF350010F12006750D8A4020EBE
:100FF000686E1200B50E645C040E65581200FDD0D8
:1010000076AE76BC06D076AA76B803D02A6A296A6C
:10101000120076AE04D04F68010E276E010C76AC3C
:101020000BD0080E2D1801E02D2A646A2D5006EC15
:101030000FF0020E276E020C76AA16D04FC0A2F057
:101040000001A369A469A569A669A769A869A96936
:10105000010E2A6E070E2D6002D0296A02D02BC025
:1010600029F0050E276E050C76A812007698060E5C
:10107000276E060C2D502A5C12E2B30E646E2A50C5
:10108000120D000EF324656E010EF420666E4EEC18
:101090000EF0000902E12AC04FF02A2ABDD72D50D8
:1010A0002A18D8A41200769E276A1200090E2A6018
:1010B0000DD02CC064F02A50B30FDFD806EC0FF02F
:1010C0002C2A2A50B30FD0D8B3D8B3D7080E2A642D
:1010D000080C2A6A030E276E030C090E2A6011D031
:1010E0002CC064F02A50AA0FC8D806EC0FF02C2AA6
:1010F0002A50AA0FB9D8090E6926000E6A2298D87C
:10110000E9D7080E2A64080C769C9F0E2C1802E181
:10111000100E2C6E2B2A080E2B1801E12B6A010EE3
:10112000646E2C5006EC0FF0276A12002D502A5CDA
:1011300017E24FC069F06A6A69BE6A0629506918E9
:101140006A1008E02A50A20FD96EDA6A29C0DFFFC0
:101150002A2A01D0292A292A070E296482D77DD775
:101160002D502A18D8A41200769A276A1200050E6C
:101170002A6005D06BD8DE2802E02A2A78D7050E2F
:101180002A6006D063D8DE2803E1070E276E070C1D
:10119000040E2A64040C2A6A080E276E080C5DD817
:1011A00028C0DFFF53D84FC0DFFF020E2A02F350E2
:1011B0002A6E2A50C80F646E4F5006EC0FF02A2A90
:1011C0002A50C80F646E285006EC0FF0ADD745D8F2
:1011D0002850DE5C05E3050E2A6002D02A2ADCD7FF
:1011E000040E2A6401D0A0D738D82850DE5CD8B0CD
:1011F0001200050E2A60050CC8D72750696E6A6A6E
:101200006A50D8A41200695001E1FAD6010A01E13E
:1012100031D7030A01E14AD7010A01E15ED7060A84
:1012200085E0030AA4E0010ABAE00F0AD0E0120048
:10123000F3506926F4506A222A506924E16E000EA8
:101240006A20E26EDFCFE7FF2A2A12002A50020D41
:10125000F350980FD96EDA6A12002A50020DF3503B
:10126000990FD96EDA6A1200D96EDA6A2B50120D14
:10127000000E696E010E6A6E1200D96EDA6ADF50D6
:101280001200BAD0542808E077A206D03B50C1EC37
:101290000FF0030E396E030C5428D8A412003B50F3
:1012A00019EC0FF065BE1200BED8D8A01200552868
:1012B000D8A477A212005550C0EC00F055685368CE
:1012C0003A6A1200535054180CE13B5019EC0FF0DD
:1012D00065BE02D0A8D805E254683C2A552A392AAE
:1012E00012005428D8B4120053505418D8B4120025
:1012F0005550C0EC00F0545005E05450BA0F3DEC8E
:1013000009F001D0300E556E3A6A54C053F03C6A71
:10131000546839061200070E531808E0090E5318D6
:1013200005E0535003E0050E396E050C070E531807
:1013300003E0090E531803E1060E396E060C5350F4
:10134000D8A412003A2A020E3A1801E13A6A3A5039
:10135000450F3DEC09F0556E396A12005450800A71
:101360007E0F02E2545007E15450800A760F03E2E8
:10137000010E396E010C54500CE05450800A7E0F5F
:1013800008E2552806E15450300FC0EC00F05468D4
:10139000E3D75450D8B412005450800A7E0FD8B00E
:1013A00012005528D8B412005550C0EC00F0556812
:1013B000392A12005450300FC0EC00F0E8D7040E68
:1013C0003C1808E15350BA0FD96EDA6ADF50556EF7
:1013D0003C6AC2D7030E3C1803E15350300FBBD711
:1013E000030E3C601200B8D7040E3C18F6E0050E60
:1013F0003C18E8E0040EF5D739506B6E6C6A6C50FF
:10140000D8A412006B5001E13DD7010A01E15AD77F
:10141000030A81E0010AA2E0070ACCE0010ACFE05A
:10142000030AE2E012005A0E645C020E65581200D4
:1014300083A003D06B6A6B2A01D06B6A010E83A272
:10144000000E020DF3CF6CF0010E83A4000E030D0D
:10145000F3CF6DF0010E83A6000E040DF3506D2442
:101460006C246B24356E5AD0355006E18C888C9AEA
:101470008C9C366A372A12003550D8B41200385086
:10148000C1EC0FF0030E376E030C355006E18C985B
:101490008C8A8C9C010E366EEDD73550D8B4120074
:1014A0003850C1EC0FF0EED7355007E18C988C9A8C
:1014B0008C8C020E366E376A12003550D8B412008A
:1014C0003850C1EC0FF0D6D7385019EC0FF065BE8C
:1014D0001200D0D7355003E1010E376E010C3550A4
:1014E000D8B4120037D831D8B4EC00F033D82DD8A6
:1014F000B0EC00F0BFD73550D8A412003850C1EC82
:101500000FF0B8D7385019EC0FF0E1D7355003E0A1
:10151000050E376E050C3550CEE0120037506B6E5D
:101520006C6A6C50D8A412006B509EE0010AADE0CA
:10153000030ABAE0010AC8E0070ACCE0010ADBE0CE
:10154000030AE0E0010AE2E01200020EF76E080072
:10155000F55012003550030DF350920F36246B6E88
:10156000FD0E6B266BC0F6FFFD0C2A6A000E3EECEA
:1015700000F02D6E080E2D6401D02D6A2A2A010E6E
:101580003EEC00F02C6E2C2802E1020E2C6E120EA6
:10159000646E2C50A8EC0EF02B6E2A2A296A1FD0FC
:1015A0006A6A3BD848D86A503FD83EEC00F0DF6EFC
:1015B0002A2A6A2A080E6A64F4D76B6A2ED8090EA2
:1015C0006826000E692237D86B502ED83EEC00F00A
:1015D000DF6E2A2A6B2A080E6B64F0D7292A2D5059
:1015E000295CDEE3000198692A6A040E2A6401D0AE
:1015F000040C26EC09F02A50020DF350C80F3EEC03
:1016000000F0DF6E2DEC09F02A50020DF350C90FE7
:101610003EEC00F0DF6E2A2AE8D72950120D000EAA
:10162000686E010E696E12006824D96E000E692082
:10163000DA6E2A501200F3506826F4506922120024
:1016400056D0C2B20BD0C80EC46008D0320EC464EB
:1016500005D0070EC26E7680172A52D0C2B20FD0C4
:10166000C70EC4640CD0020E181803E0020EC8ECBA
:1016700000F0020E186E070EC26E7690EDD7C2B261
:101680003FD0330EC4603CD0080E181803E0080E9B
:10169000C8EC00F0080EEED7C2B20BD0C80EC46082
:1016A00008D0320EC46405D0030EC26E758E1706C4
:1016B00027D0C2B20FD0C70EC4640CD0060E1818C3
:1016C00003E0060EC8EC00F0060E186E030EC26EA4
:1016D000759EEDD7C2B214D0330EC46011D0040E83
:1016E000181803E0040EC8EC00F0040EEED71750F3
:1016F000656E666A665004E16550A3E0010ACCE0BD
:1017000076B075AE12001850D8B41200FF0EC8ECB7
:1017100000F0186812006F6EDCEC0EF03D6E6FC0CA
:1017200040F03E6A3F6A9498959E949A706A716AF6
:101730006C6A640E6B6E3D5085EC0FF0030EC8ECC6
:101740000CF06C6A050E6B6E3D5085EC0FF0030ECD
:10175000C8EC0CF03AD885EC0FF0030EC8EC0CF096
:1017600034D885EC0FF0020EC8EC0CF06C6A040E55
:101770006B6E3D5085EC0FF0280EB3EC0FF06DEC66
:101780000EF0080EB3EC0FF06DEC0EF0010EB3ECA2
:101790000FF080EC0FF085EC0FF06DEC0EF0060E04
:1017A000B3EC0FF06DEC0EF00F0EB3EC0FF0704ACF
:1017B000712A71BEBDD7715003E1020E705CB8E3AF
:1017C0006DEC0EF00C0EB3EF0FF06C6A010E6B6E49
:1017D0003D50120045D04C28D8B412004C5088EC33
:1017E00000F07586020E126E020C75B608D04C68B9
:1017F000E0EC00F0DCEC00F08A961206120013BE5A
:1018000007D013502CEC0FF090EC00F0136812008E
:1018100053EC00F011E37DEC00F00EE3E4EC00F09B
:101820001DEC05F0C2EC0EF0E2EC00F0726E72C03E
:1018300067F0686A77EF00F04B50800A7F0FD8A0FE
:1018400012004B50300F8CEC00F04B6812004DEC46
:1018500000F0D8A01200D0EC00F0DEEC00F0CDD704
:101860001250726E736A7350D8A412007250B3E0B3
:10187000010ABBE0030AEBE012002FD076A61200AB
:10188000010E266E246A2550C1EC0FF0010E236E66
:10189000010C050E266403D076962306050CA80ECF
:1018A000241803E1262A246A1200255019EC0FF0AF
:1018B00021D8D8B012008A802550C1EC0FF0232A1D
:1018C0001200255019EC0FF015D8D8B012008A90EC
:1018D0002550C1EC0FF0242AF2D723506B6E6C6AAE
:1018E0006C50D8A412006B50C9E0010AD2E0030A80
:1018F000E8E0120026506B6E6C6A64506B5C6C50B2
:10190000800A6D6E6550800A6D58120038D01650EE
:1019100019EC0FF065BE1200FAEC07F0D8A0120027
:101920001650C1EC0FF075AC28D0758A5A062F0EF0
:101930005A1803E1390E5A6E59062F0E591803E151
:10194000350E596E57062F0E571803E1390E576E94
:101950005606300E56180AE1300E571807E1300EC1
:10196000591804E1300E5A1801E17588152A3B0E0A
:10197000156403D0E6EC00F0156A146A12001450E6
:101980006B6E6C6A6C50D8A412006B50C0E01200F1
:10199000656E94962FD88B8865A603D0646A642AF6
:1019A00001D0646A64462DD8F70B64188B6E65A469
:1019B00003D0646A642A01D0646A23D8FB0B6418DC
:1019C0008B6E65A203D0646A642A01D0646A64469F
:1019D0008B506418FD0B64188B6E65A003D0646A8D
:1019E000642A01D0646A8B506418FE0B64188B6EF5
:1019F0008B9812009494949294908B9A8C9E8B88DE
:101A00001200644664468B50641812009E0EF66EF7
:101A10001F0EF76E000EF86E00EEBCF010EE1BF01D
:101A20000900F5CFEEFFE550E150FAE1B90EF66E90
:101A30001F0EF76E000EF86E00EE45F010EE1AF075
:101A40000900F5CFEEFFE550E150FAE101EE00F0BC
:101A5000900EEE6AE806FDE100EE80F03C0EEE6AC4
:101A6000E806FDE1776A766A756A00EE01F0440ED9
:101A7000EE6AE806FDE178907892000EF86E0001BB
:101A800042EF0DF096EC0FF0EAEC0FF0F2EC0EF0F6
:101A9000B8EC00F0BCEC00F041EC09F0ACEC00F06C
:101AA000CCEC00F025EC00F0A8EC00F0A4EC00F089
:101AB000020E8BEC0BF0B5EC0AF0C4EC00F0B3ECCA
:101AC00006F0EAEC0BF039EC05F086EC0CF020ECBB
:101AD0000BF078EC01F062EC0FF03DEC0CF0FFEC59
:101AE00007F018EC0AF041EC09F0DEEC0DF0E7D756
:101AF000656E65A603D0646A642A01D0646A644690
:101B000025D8F70B64188B6E65A403D0646A642A29
:101B100001D0646A1BD8FB0B64188B6E65A203D0DE
:101B2000646A642A01D0646A64468B506418FD0BB1
:101B300064188B6E65A003D0646A642A01D0646A5D
:101B40008B506418FE0B64188B6E1200644664465A
:101B50008B5064181200656E65AE03D0646A642A07
:101B600001D0646A644625D8F70B64188B6E65ACA7
:101B700003D0646A642A01D0646A1BD8FB0B641822
:101B80008B6E65AA03D0646A642A01D0646A6446D5
:101B90008B506418FD0B64188B6E65A803D0646AC3
:101BA000642A01D0646A8B506418FE0B64188B6E33
:101BB0001200644664468B506418120077A4120029
:101BC00018D8F76403D00800F55001D019D806ECF6
:101BD0000EF00B4A0C2A0DD8F76403D00800F5501C
:101BE00001D00ED80009D8A4120077940B6A0C6AB1
:101BF00012000BC0F6FF0CC0F7FFF86A010E1200CE
:101C0000F6CFE1FFF7CFE2FFE7501200726E6DEC06
:101C10000EF072508CEC0EF03E2A020E40180CE1D1
:101C2000270E3E6409D03E6A3F2A010E3F6401D070
:101C30003F6A0CD8C2EC0EF03F04D8A41200270E65
:101C40003E6401D03E6A02D8C2EF0EF03FC06CF095
:101C50003E5012001ED8F294094A0A2A480E095C26
:101C6000EE0E0A58D8A01200346A070E346401D070
:101C70000DD0EBEC0EF0DE0407E13450C9EC0FF0B0
:101C80000950DE5E0A50DD5A342AEFD7096A0A6A23
:101C90001200DF0ED76E940ED66E940C0AD013D8B5
:101CA0006450E16EE26ADE50E61805E1642A654A96
:101CB000662A0ED8F4E107D8DF50676E09D8686E3F
:101CC0006750685C120065C0D9FF66C0DAFF120079
:101CD0006450D96EDA6ADF5012009486948494823C
:101CE00094808B9A8C8E3D50C1EC0FF08B888B8842
:101CF000000E82B6010E6B6E8B988B988B888B884A
:101D00008B988B983D5019EC0FF06450651001E0F2
:101D100012006B50EBE11200666E949694949492CC
:101D200094908B8A8C9E8B886650ABEC0DF00BD810
:101D3000665078EC0DF000D08B888B989486948454
:101D40009482948012008B888B988B988B881200D9
:101D5000656E676A645014E0010E666E03D0D89019
:101D60006436662A64AEFBD7D89067366450655CEB
:101D700003E36450655E6780D8906432662EF4D7C2
:101D800067501200716E6C5004E0706A400E6F6E06
:101D900002D06F6A706A71506F246D6E000E7020F1
:101DA0006E6E6DEC0EF06D508009B3EC0FF06CC0F0
:101DB0003FF071C03EF01200346A05D0342A080E9C
:101DC000341801E1FF0C07D8DE04F8E004D8010E56
:101DD000DF6E345012003450030DF350820FD96E71
:101DE000DA6A1200D09EF28EF28CF28AF294880E99
:101DF000D56E49EC0EF0D58E346A070E346401D0EE
:101E0000070CEBEC0EF0DF6A342AF7D7656E64C07E
:101E1000A9FF65C0A8FFA69EA69CA684F29E550EAB
:101E2000A76EAA0EA76EA682A6B2FED7F28EA694C1
:101E30001200686E09C069F00AC06AF06850C9EC07
:101E40000FF0DECF66F0DDCF67F06650695C646E40
:101E500067506A58656E1200646E020E641801E1E4
:101E6000570C060E641801E1440C080E641801E1D9
:101E7000530C040E641801E1410C000CAA0E646EB0
:101E80004F50120D090EF324656E010EF420666E9C
:101E90004EEC0EF0000902E0D8901200D88012003B
:101EA0006450D96EDA6ADF50566E6450AEEC06F0BC
:101EB000576E64509DEC06F0596E6450A3EC06F02A
:101EC0005A6E1200FA0E4718D8B41200475009E0B3
:101ED0005D2A3A0E5D1803E1300E5D6E5C2A4706FE
:101EE0001200FA0E476EFA0C6DEC0EF0010EB3EC18
:101EF0000FF006D885EC0FF0000E6C6EC2EF0EF0FE
:101F00006C6A030E6B6E3D5012006E6E6E50C1EC2B
:101F10000FF06E5019EC0FF06B50645C6550800A46
:101F20006D6E6C50800A6D58F4E31200030E926ED1
:101F3000E00E936E8A968A908A82C00E946E8F0EFF
:101F4000956E8C6AA68EA69C1200666E6650A20FD5
:101F5000D96EDA6ADF50120D000EF324646E010EA2
:101F6000F420656E1200666E9496FAEC0CF06650E2
:101F7000ABEC0DF0A3EC0EF0665078EC0DF09CEF9E
:101F80000EF0646E645005D809C0DEFF0AC0DDFFA4
:101F90001200030DF350800FD96EDA6A120041442B
:101FA000474A4D505457322E524547495354455293
:101FB00000312E4C4F47494E003020FAFFFFFFFF03
:101FC000FF0F0FFFFFFFFFFFFFFF33303A303000FE
:031FD000303000AE
:101FD400240EAC6E900EAB6E080EB86E040EB06E8E
:101FE400100EAF6E100C666E6650120D000EF324C8
:0A1FF400646E010EF420656E120009
:020000040020DA
:08000000FFFFFFFFFFFFFFFF00
:020000040030CA
:0E000000FF061F1EFF8181FF03C003E00340C7
:00000001FF
