:020000040000FA
:0400000019EF00F004
:100008005D82D9CF48F0DACF49F0F3CF4AF0F4CF88
:100018004BF0EEEC03F04BC0F4FF4AC0F3FF49C0CD
:0E002800DAFF48C0D9FF5D92110064EF04F0CA
:1002000000322E5245474953544552004C2D555308
:1002100045523A2000522D555345523A2000312E76
:070220004C4F47494E00005E
:1002280083A003D0536A532A01D0536A83A202D011
:10023800010E01D0000E020DF3CF54F083A402D0BA
:10024800010E01D0000E030DF3CF55F083A602D0A6
:10025800010E01D0000E040DF350552454245324EC
:10026800206E6FD02050D8A407D08C888C9A8C9C94
:10027800000E216E222A12002050D8B412002350FA
:1002880092EC05F0030E226E12002050D8A405D07F
:100298008C988C8A8C9C010EECD72050D8B4120014
:1002A800235092EC05F0EED72050D8A408D08C98B3
:1002B8008C9A8C8C020E216E000E226E1200205039
:1002C800D8B41200235092EC05F0D4D723503CEC5C
:1002D80005F04DBE1200CED72050D8A403D0010E91
:1002E800226E12002050D8B412002050030DF35093
:1002F800380F2124D96EDA6ADF50B2EC05F02050AD
:10030800030DF350380F2124D96EDA6ADF50AEECB2
:1003180005F0B0D72050D8A41200235092EC05F075
:10032800A9D723503CEC05F0D4D72050D8B403D03B
:10033800050E226E12002050D8A41200000E226E64
:1003480012002250536E546A5450000AD8A4120066
:100358005350000AD8B486D7010AD8B496D7030AEE
:10036800D8B4A2D7010AD8B4B1D7070AD8B4B4D739
:10037800010AD8B4CFD7030AD8B4D3D7010AD8A46E
:100388001200D3D78CD03928D8A4120038503CECAE
:1003980005F0120037503918D8A410D038503CEC6A
:1003A80005F04DBE06D0E80E4C5C030E4D58D8B093
:1003B80005D03968252A3A2A242A12003928D8B4BF
:1003C800120037503918D8B4120039502A0FD96E94
:1003D800DA6ADF503A6E39C037F0000E256E396898
:1003E80024061200070E3718D8B407D0090E37189C
:1003F800D8B403D0050E246E1200070E3718D8B4EF
:1004080004D0090E3718D8A41200060E246E120064
:100418003950800A7E0FD8A008D03950800A760F4C
:10042800D8B003D0010E246E12003950800A7E0F16
:10043800D8B007D03A28D8A404D03968000E246E62
:1004480012003950800A7E0FD8B012003A28D8B46A
:1004580012003A68242A1200040E2518D8A409D0DC
:1004680037502A0FD96EDA6ADF503A6E000E256EC1
:10047800E5D7030E2518D8A404D03750300F3A6EAC
:10048800DDD7030E25601200D9D7040E2518D8B47D
:10049800F4D7050E2518D8B4E3D7040EF3D72450A3
:1004A800536E546A5450000AD8A412005350000ADC
:1004B800D8B469D7010AD8B46DD7030AD8B492D78B
:1004C800010AD8B4A5D7070AD8B4B7D7010AD8B44F
:1004D800C3D7030AD8A41200D8D7586E9FEC04F0EB
:1004E800276E58C02BF057C02AF0000E286E28C07F
:1004F80029F09498959E949A000E5A6E000E596EA3
:10050800000E546E640E536E275064EC05F0030E13
:1005180049EC03F0000E546E050E536E275064EC40
:1005280005F0030E49EC03F0000E546E010E536EF5
:10053800275064EC05F0030E49EC03F0000E546EEE
:10054800010E536E275064EC05F0020E49EC03F0DF
:10055800000E546E040E536E275064EC05F0280EFE
:100568000BEC05F044EC04F0080E0BEC05F044EC41
:1005780004F0010E0BEC05F0000E546E030E536EE2
:10058800275064EC05F044EC04F0060E0BEC05F083
:1005980044EC04F00F0E0BEC05F0594A5A2A5ABEE7
:1005A800AFD75A5004E1020E595CD8A0A9D7A4ECE1
:1005B80005F012004ED052EC05F01E0E4C6EAAEC5F
:1005C80005F0010E1C6E12009EEC05F0D8A012007A
:1005D800010E546E000E82EC04F0010E4C6EAAEC73
:1005E80005F03668020E1C6E12003604D8A40FD02F
:1005F800C2EC05F00009D8B40AD0366852EC05F010
:100608000C0E4C6EAAEC05F0030E1C6E1200020EC6
:100618003618D8A41200C2EC05F05A6E080E5A60BB
:100628001200366852EC05F0150E4C6EAAEC05F077
:10063800040E1C6E12009EEC05F0D8A01200050EE8
:100648001C6E12009EEC05F0D8A01200060E1C6E5F
:1006580012001C505A6E5B6A5B50000AD8A4120044
:100668005A50000AD8B4A7D7010AD8B4ADD7030A9C
:10067800D8B4BBD7010AD8B4DED7070AD8B4E2D7B2
:10068800010AD8B41200030A12004D6E949694948D
:10069800949294908B9A8C9E8B888B884DA603D0CD
:1006A8004C6A4C2A01D04C6A4C464C464C468B50FE
:1006B8004C18F70B4C188B6E4DA403D04C6A4C2A7F
:1006C80001D04C6A4C464C468B504C18FB0B4C18CE
:1006D8008B6E4DA203D04C6A4C2A01D04C6A4C4612
:1006E8008B504C18FD0B4C188B6E4DA003D04C6AE8
:1006F8004C2A01D04C6A8B504C18FE0B4C188B6E50
:100708008B9812004D6E4DA603D04C6A4C2A01D02E
:100718004C6A4C464C464C468B504C18F70B4C18C0
:100728008B6E4DA403D04C6A4C2A01D04C6A4C46BF
:100738004C468B504C18FB0B4C188B6E4DA203D0BB
:100748004C6A4C2A01D04C6A4C468B504C18FD0B15
:100758004C188B6E4DA003D04C6A4C2A01D04C6AC1
:100768008B504C18FE0B4C188B6E12004D6E4DAE14
:1007780003D04C6A4C2A01D04C6A4C464C464C4635
:100788008B504C18F70B4C188B6E4DAC03D04C6A41
:100798004C2A01D04C6A4C464C468B504C18FB0BEB
:1007A8004C188B6E4DAA03D04C6A4C2A01D04C6A67
:1007B8004C468B504C18FD0B4C188B6E4DA803D033
:1007C8004C6A4C2A01D04C6A8B504C18FE0B4C18C2
:1007D8008B6E1200DF0ED76E940ED66EF294194A05
:1007E8001A2A480E195CEE0E1A58D8A01200000EEC
:1007F8001F6E070E1F6401D015D01F50030DF35054
:10080800030FD96EDA6ADE04D8A40AD01F50030D8C
:10081800F350010FD96EDA6A1950DE5E1A50DD5AAC
:100828001F2AE7D7000E1A6E000E196E12005A6EB4
:1008380044EC04F05A50F2EC04F0282A020E2B186B
:10084800D8A410D0270E28640DD0000E286E292AAF
:10085800010E296402D0000E296E29C054F02850D8
:1008680082EC04F02904D8A41200270E286402D0D0
:10087800000E286E29C054F0285082EC04F01200B3
:1008880094869484948294808B9A8C8E275092ECD0
:1008980005F08B888B88000E82B6010E536E8B98FC
:1008A8008B988B888B888B988B9827503CEC05F01D
:1008B8004C504D10D8A412005350D8B41200E9D7A8
:1008C800080EF66E0B0EF76E000EF86E00EE2CF0AA
:1008D80010EE1BF00900F5CFEEFFE550E150FAE10C
:1008E8005C6A00EE01F02B0EEE6AE806FDE15D9011
:1008F8005D92000EF86E0001D8EF04F0596E545066
:10090800D8B404D0000E586E400E03D0000E586EB6
:10091800000E576E59505724556E000E5820566ECB
:1009280044EC04F0555080090BEC05F054C029F054
:1009380059C028F01200000E1F6E07D01F2A080E9B
:100948001F18D8A402D0FF0E12001F50030DF35039
:10095800030FD96EDA6ADE04D8B4F0D71F50030D3E
:10096800F350030FD96EDA6A010EDF6E1F501200C2
:10097800D09EF28EF28CF28AF294880ED56EDF0E3B
:10098800D76E940ED66ED58E000E1F6E070E1F649E
:1009980001D012001F50030DF350030FD96EDA6A0D
:1009A800000EDF6E1F2AF2D776EC05F0BCEC04F0DF
:1009B800B6EC05F0BAEC05F0C6EC01F0100E576E77
:1009C800020E71EC02F0BEEC05F0DEEC02F014EC65
:1009D80001F0C6EC01F024EC05F0F7D74E6E9496C2
:1009E8009494949294908B8A8C9E8B884E50BAECF7
:1009F80003F08B888B988B988B884E5086EC03F08D
:100A08008B888B98948694849482948012004E6E7E
:100A180094969494949294908B9A8C9E8B884E5032
:100A2800BAEC03F08B888B988B988B884E5086ECA9
:100A380003F08B888B989486948494829480120017
:100A48005CA2120026C0F6FF020EF76E0800F550F1
:100A58001BEC04F0262A26C0F6FF020EF76E0800EB
:100A6800F5500009D8A412005C92000E266E120000
:100A7800506E19C051F01AC052F05050030DF35087
:100A8800010FD96EDA6ADECF4EF0DDCF4FF04E504F
:100A9800515C4C6E4F5052584D6E120044EC04F0AD
:100AA800010E0BEC05F0000E546E030E536E27502A
:100AB80064EC05F0000E546E000E82EC04F0120097
:100AC800566E565092EC05F056503CEC05F05350DB
:100AD8004C5C4D50800A556E5450800A5558D8B019
:100AE8001200F2D7030E926EE00E936E8A968A90E9
:100AF8008A92C00E946E8F0E956E000E8C6E120048
:100B08004144474A4D50545700FFFFFFFFFFFF0184
:0B0B180002030405060708090A000B91
:100B24004C6E4C50030DF350010FD96EDA6A19C0A4
:100B3400DEFF1AC0DDFF12005CA202D0D8901200C2
:100B4400D880120044EC04F00C0E0BEC05F01200FB
:100B54004CC026F05C8212004C6E4CC039F012007E
:100B64004C6E4CC036F012009FEC04F0236E120061
:100B74009FEC04F0386E12009FEC04F01D6E12001E
:040B84001B501200F0
:020000040020DA
:08000000FFFFFFFFFFFFFFFF00
:020000040030CA
:0E000000FF061F1EFF8181FF03C003E00340C7
:00000001FF
