:020000040000FA
:0400000019EF00F004
:100008007982D9CF46F0DACF47F0F3CF48F0F4CF72
:1000180049F049EC0CF049C0F4FF48C0F3FF47C071
:10002800DAFF46C0D9FF79921100D1EF0BF02AD33D
:1000380089EC0DF0A70E4D6E1F0E4E6E5CEC0EF0A7
:10004800010E2E6E010C62EC0EF0D8A0120095DBAA
:10005800FBEC0CF09C0E4D6E1F0E4E6E5CEC0EF021
:100068006968020E2E6E020C690408E1CDEC0EF0F0
:10007800000904E0778E030E2E6E030C020E691839
:10008800D8A41200779EF7D76968686889EC0DF0E4
:10009800F80E4D6E1F0E4E6E5CEC0EF0040E2E6EBA
:1000A800040C62EC0EF0D8A0120067DBFBEC0CF03D
:1000B800F10E4D6E1F0E4E6E5CEC0EF0050E2E6EA0
:1000C800050C62EC0EF0D8A01200000E526E060E5F
:1000D800FBEC0CF0B8EC0EF0336A060E2E6E060C34
:1000E8006850800A600F0EE30A0E69180BE068502A
:1000F80025EC0CF033C04AF0685016EC0EF0070EF1
:100108002E6E070C0B0E6918FAE01200070E331852
:1001180005E00B0E691802E047DBDFD7070E33183E
:1001280004E00B0E6918D8A41200010E526E060ED8
:10013800FBEC0CF033C04AF0000E16EC0EF030DB8E
:10014800080E2E6E080C6850800A600F0EE30A0E27
:1001580069180BE0685025EC0CF033C04AF0685081
:100168000EEC0EF0090E2E6E090C0B0E6918FAE053
:100178001200070E331805E00B0E691802E014DBB5
:10018800DFD7070E331804E00B0E6918D8A4120045
:1001980033C04AF0000E0EEC0EF002DBD1EC0EF08C
:1001A800BBEC0EF00A0E2E6E0A0C4AEC0EF0D8B01C
:1001B8001200CFEC0EF0306E0B0E2E6E0B0C77BECD
:1001C80006D0302804E1D3EC0EF02E6A120077BE78
:1001D80030BE03D00C0E2E6E0C0C77AE02D0302839
:1001E800F4E077AE30BE1200F0D789EC0DF0D5EC14
:1001F8000EF0315050EC0EF0676869680D0E2E6EE7
:100208000D0C080E671805E1040E3160E3D7312A9A
:10021800E1D7020E671804E13150DCE03106DAD785
:100228000B0E691810E1030E31180DE1D9EC0EF030
:1002380089EC0DF0D80E4D6E1F0E4E6E5CEC0EF074
:100248000E0E2E6E0E0C0B0E691810E131040EE125
:1002580089EC0DF0D9EC0EF0BF0E4D6E1F0E4E6EF0
:100268005CEC0EF06968100E2E6E100C315014E123
:100278000B0E691811E1D9EC0EF0696889EC0DF0E4
:10028800AF0E4D6E1F0E4E6E5CEC0EF0305081ECD2
:100298000EF0150E2E6E150C0B0E69180EE1040EDD
:1002A80031180BE1D9EC0EF089EC0DF0316A696870
:1002B800CBEC0EF01E0E2E6E1E0C0B0E6918D8A479
:1002C8001200020E3118D8A41200000E3EEC0EF0F7
:1002D800FF0AD8B41200D9EC0EF089EC0DF0316A9F
:1002E80069681F0E2E6E1F0C62EC0EF0D8A012006B
:1002F8003050FBEC0DF044DA5CEC0EF03250D6ECEA
:100308000DF00F0E2E6E0F0C325052EC0DF04BBE4E
:1003180012006B0E4A5C090E4B5801E356D71200C7
:1003280062EC0EF047E369BE45D06950800A760F4B
:1003380041E223DAFBEC0CF06950300F416E41507A
:1003480025EC0CF06968110E2E6E1200691801E197
:1003580041D7120069BE2ED06950800A760F2AE272
:100368006950300F426E425025EC0CF069683A0E25
:1003780025EC0CF0120EE8D769BE1CD06950800A33
:10038800760F18E26950300F436E435025EC0CF09D
:100398006968130ED9D769BE0DD06950800A760FE7
:1003A80009E26950300F446E445025EC0CF069683E
:1003B800140ECAD70A0ECAD70B0E6918FBE1410EF4
:1003C8004A6EC7EC0CF0696805D70A0E691803E194
:1003D80062EC0EF003E232EC0EF007E389EC0DF06C
:1003E800DBEC0EF0160E2E6E160C6950800A7F0F8D
:1003F80009E36950800A760F05E2695079EC0EF03E
:10040800696847D767BE120067507DEC0EF06768D1
:1004180040D7D7EC0EF00009D8B412000B0E96D7CF
:1004280062EC0EF0D8A01200000E526EFBEC0CF03D
:100438003150BAEC0DF09CD95CEC0EF0312A180E54
:100448002E6E180C62EC0EF0D8A01200CDEC0EF057
:1004580031600BD092D9FBEC0CF03150BAEC0DF0B6
:1004680087D95CEC0EF0312A01D0316A190E2E6E54
:10047800190C62EC0EF0D8A01200CDEC0EF0311879
:1004880001E1316A8AD9FBEC0CF03150BAEC0DF07D
:100498006FD95CEC0EF01A0E2E6E1A0C62EC0EF090
:1004A800D8A01200CDEC0EF0596E5A6A31505B6E2E
:1004B8005C6A5B2A000E5C2259505B5C5C50800AC7
:1004C8005D6E5A50800A5D5809E264D9FBEC0CF065
:1004D8003128BAEC0DF04CD95CEC0EF01B0E2E6EE8
:1004E8001B0C325052EC0DF04BBE08D0B60E4A5CD5
:1004F800040E4B5803E31D0E2E6E1D0C0B0E6918CF
:10050800D8A41200316A66D60F0E2F6405D089EC84
:100518000DF0170E2E6E170C100E2F60100C3250A7
:10052800D6EC0DF0BEEC0EF02F2A1C0E2E6E1C0C15
:1005380062EC0EF0D8A012003250D6EC0DF02F6A03
:10054800F4D738EC0EF0E5E2120062EC0EF0D8A019
:10055800120031503EEC0EF0FBEC0DF011D95CECC2
:100568000EF031503EEC0EF044EC0EF056EC0EF06E
:10057800200E2E6E200CDFEC0EF0FA0AD8A4120022
:1005880062EC0EF0D8A012003A0E25EC0CF0F5D86B
:10059800FBEC0CF0DDEC0EF0F8D85CEC0EF0312A38
:1005A800050E311805E031503EEC0EF0FF0A01E16E
:1005B800316A220E2E6E220C31503EEC0EF0FF0AEC
:1005C80004E1050E3118D8B4120062EC0EF0D8A080
:1005D8001200E3D8FBEC0CF031503EEC0EF0FBECD3
:1005E8000DF0CED85CEC0EF031503EEC0EF044EC41
:1005F8000EF056EC0EF0230E2E6E230C62EC0EF06D
:10060800D8A01200DFEC0EF0FA0AD8A412003A0EB5
:1006180025EC0CF0BFD8FBEC0CF0DDEC0EF0B5D8F7
:100628005CEC0EF02F6A3250D6EC0DF0250E2E6ED3
:10063800250C0B0E691804E162EC0EF001E362D799
:10064800325052EC0DF04BBE1200910E4A5C010E76
:100658004B58D8A0120062EC0EF0D8A01200260E5B
:100668002E6E260C100E2F6007D03250D6EC0DF0EF
:10067800BEEC0EF02F2ADAD70F0E2F640F0C89EC80
:100688000DF02FD62E50596E5A6A5A50D8A412001F
:10069800595001E1CDD4010A01E1D5D4030A01E1A1
:1006A800E3D4010A01E1F0D4070A01E1FAD4010A0E
:1006B80001E107D5030A01E113D5010A01E126D5B5
:1006C8000F0A01E140D5010A01E153D5030A01E10E
:1006D8006CD5010A01E173D5070A01E186D5010A43
:1006E80001E18FD5030A01E1FFD5010A01E10CD62A
:1006F8001F0A01E115D6010A01E12CD6030A01E11E
:100708003BD6010A01E147D6070A01E155D6010A9D
:1007180001E15BD6030A01E17CD6010A01E180D63A
:100728000F0A01E18FD6010A01E1A3D6030A01E10C
:10073800B5D6010A01E1FCD6070A01E1D2D6010AC1
:1007480001E1E2D6030A01E1FCD6010A01E1FDD686
:100758003F0A01E110D7020A01E12ED7010A01E19F
:100768004DD7060A01E165D7030A01E17BD71200DC
:100778004AC04DF04BC04EF01200010E526E000CF4
:100788004AC04DF04BC04EF01200596E59C04DF0A2
:100798004E6A1200010E526E100C000E526E100CB2
:1007A80069686868336A1200332A696868681200E1
:1007B800FDD0110E1A600ED077A20CD0000E526E2A
:1007C800FBEC0CF021501D0D30D95CEC0EF0050E41
:1007D800206E050C100E1A64100C77A2100C202A3B
:1007E80012000F0E1F6412D01E2A652A05D9655003
:1007F8000ED901E1656A00D91E5009D901E11E6AC6
:100808001F6A1EC01CF0060E206E060C100E1F601C
:10081800100C000E526E1F50FBEC0CF0EDD81C5063
:10082800F6D825EC0CF01F2A1C2AE6D81C50EFD865
:10083800D8B41C6A1200040E216010D0D0D7206AE8
:10084800120062EC0EF006E3040E216003D0070EDE
:10085800206E070C62EC0EF0D8A01200030E216483
:10086800030CEDD777B077A212001A6A196A000E46
:10087800526EFBEC0CF01E6A0F0E656E1D6A0F0EB1
:10088800646E1F6A1C6A1B6A7790A9D7B5D81A507C
:10089800BED804E1030E216401D0A1D7ADD81A5007
:1008A800B6D802E01A2A1200040E2160040CA4D85B
:1008B8001A50ADD8D8A412000D0E206E0D0C110ED2
:1008C800196010D077A20ED0C1EC03F0FBEC0CF04D
:1008D80021501D0D1D0EF326000EF422A6D85CEC47
:1008E8000EF07DD7100E1964100C77A2100C090EAB
:1008F800206E090C100E1F6014D0010E526E1F508E
:10090800FBEC0CF079D81B508CD881D825EC0CF076
:100918001F2A1B2A71D81B5084D879D8D8B41B6ACF
:1009280012000F0E1F640F0C1D2A642A65D864502C
:1009380078D86DD801E1646A5FD81D5072D867D83D
:1009480001E11D6A1F6A1DC01BF049D7225052ECF5
:100958000DF04BBE0AD070D808E377A077A205D077
:1009680089EC0DF0020E206E020C77B077A212000F
:1009780089EC0DF064D72250D6EC0DF030D762EC3C
:100988000EF0D8A012002250D6EC0DF00B0E206EFF
:100998000B0C32D8195045D83AD802E0192A12005F
:1009A8002BD819503ED833D8DDE012002050596EAC
:1009B8005A6A5A50D8A41200595001E153D7010A73
:1009C80001E164D7030A01E1F4D6010A01E109D77C
:1009D800060A01E136D7030A01E12DD7010A01E130
:1009E8006ED70F0ACCE0010A85E0030AC4E0010AC9
:1009F800ADE0060ACEE0120021501D0DFF0E596E23
:100A08001E0E5A6EF3505926F4505A2212005926D7
:100A1800000E5A2259C0F6FF5AC0F7FF0800F550D9
:100A280012005926000E5A221D0CFF0EF3244D6E9B
:100A38001E0EF4204E6E1200B50E4A5C040E4B5882
:100A48001200FCD077AC77BA06D077A877B603D077
:100A58002A6A296A120077AC04D06668010E276EEC
:100A6800010C77AA03D0020E276E020C77A815D0C6
:100A780066C001F0026803680468056806680768CC
:100A88000868010E2A6E070E2D6002D0296A02D06E
:100A98002BC029F0050E276E050C77A61200779655
:100AA800060E276E060C2D502A5C12E2AB0E4A6E1B
:100AB8002A50120D000EF3244B6E010EF4204C6EDA
:100AC8006DEC0CF0000902E12AC066F02A2AC6D7AC
:100AD8002D502A18D8A41200779C276A1200080EF5
:100AE8002A180DE02CC04AF02A50AB0FE6D83FEC8C
:100AF8000DF02C2A2A50AB0FD7D8BCD8B4D7080E83
:100B08002A18D8A412002A6A030E276E030C080EAE
:100B18002A1811E02CC04AF02A50A20FCED83FEC78
:100B28000DF02C2A2A50A20FBFD8090E4F26000E0E
:100B38005022A0D8E9D7080E2A18D8A41200779A0C
:100B48002C2A9F0E2C1802E1100E2C6E2B2A080E50
:100B58002B1801E12B6A080E2D1801E02D2A276AAF
:100B680012002D502A5C17E266C04FF0506A4FBE43
:100B7800500629504F18501008E02A50010FD96E1E
:100B8800DA6A29C0DFFF2A2A01D0292A292A070E72
:100B9800296480D77BD72D502A18D8A412007798BB
:100BA800276A1200050E2A6006D02A5077D8DE2858
:100BB80002E02A2A75D7050E2A6007D02A506ED877
:100BC800DE2803E1070E276E070C040E2A64040CC6
:100BD8002A6A080E276E080C2A505AD828C0DFFF48
:100BE8002A505CD866C0DFFF020E2A02F3502A6E34
:100BF8002A50C80F4A6E66503FEC0DF02A2A2A5038
:100C0800C80F4A6E28503FEC0DF0A9D72A5040D89B
:100C18002850DE5C05E3050E2A6002D02A2AD9D7BF
:100C2800040E2A6401D09BD72A5032D82850DE5CA3
:100C3800D8B01200050E2A60050CC4D727504F6E95
:100C4800506A5050D8A412004F5001E1FBD6010A57
:100C580001E129D7030A01E142D7010A01E157D787
:100C6800060A01E17ED7030A9DE0010AB5E00F0AF2
:100C7800CDE01200F3504F26F45050222A504F2452
:100C8800E16E000E5020E26EDFCFE7FF2A2A120045
:100C9800020DF350990FD96EDA6A1200020DF35063
:100CA800980FD96EDA6A1200D96EDA6A2B50120DD3
:100CB800000E4F6E010E506E1200D96EDA6ADF50C8
:100CC8001200C8D061BE12006150FBEC0DF04AC0A2
:100CD80009F04BC00AF076827690010E0F6E010C77
:100CE800D9D808E1ACA206D0AD6A5F6A8A86020E3E
:100CF8000F6E020CCFD8D8A4ACA21200CBD8AD6E20
:100D0800094A0A2A12004B0EAE18D8A4120076809F
:100D1800030E0F6E030C602806E0ACA204D060C07E
:100D2800ADFF6068F5D7300E5F6409D03A0E5F609A
:100D380006D0ACA204D05FC0ADFF5F6AE9D776B237
:100D480002D0ACB202D09EAA120089EC0DF0E90ED6
:100D58004D6E1F0E4E6E5CEC0EF0460EAD6E5F6A69
:100D6800040E0F6E040C9EAA1200AECF10F01050A5
:100D780068EC0EF0105056EC0EF01150D6EC0DF059
:100D8800050E0F6E050C115052EC0DF04BBE10D035
:100D9800BB0E4A5C090E4B580BE389EC0DF0CC0EE8
:100DA8004D6E1F0E4E6E5CEC0EF0070E0F6E070CAC
:100DB800115052EC0DF04BBE06D0BA0E4A5C090E2B
:100DC8004B58D8B012009EAA120062EC0EF0D8A0C0
:100DD8001200C1EC03F0FBEC0CF0AE5025EC0CF06B
:100DE800060E0F6E060C62EC0EF0D8A01200C5ECD1
:100DF8000EF056D85CEC0EF0080E0F6E080C9EAA8A
:100E08001200AE5025EC0CF01150D6EC0DF0B8D70E
:100E180062EC0EF0D8A01200C1EC03F0FBEC0CF071
:100E2800E10E4D6E1F0E4E6E5CEC0EF0090E0F6E4D
:100E3800090C62EC0EF0D8A01200DFEC0EF0FA0AF2
:100E4800D8A41200DDEC0EF02BD85CEC0EF0616833
:100E58000F6A12000F50596E5A6A5A50D8A41200DD
:100E6800595001E12FD7010A01E13AD7030A01E1FC
:100E78004AD7010A01E14FD7070A01E174D7010AED
:100E880082E0030ABCE0010AAEE00F0AC1E0010AF1
:100E9800D0E0120009C0D9FF0AC0DAFFDF50120003
:100EA800596E59C04DF04E6A1200C1D06B2808E047
:100EB80078A006D03B50D6EC0DF0030E396E030C2B
:100EC8006B28D8A412003B5052EC0DF04BBE120018
:100ED800D7D8D8A012006C28D8A478A012006C50DB
:100EE800A5EC0EF06C686A683A6A12006A506B18D2
:100EF8000CE13B5052EC0DF04BBE02D0C1D805E2DC
:100F08006B683C2A6C2A392A12006B28D8B4120064
:100F18006A506B18D8B412006C50A5EC0EF06B50E8
:100F280007E0FE0E516E52686BC053F098D802D09D
:100F3800300E6C6E3A6A6BC06AF03C6A6B683906B0
:100F48001200070E6A1808E0090E6A1805E06A50D0
:100F580003E0050E396E050C070E6A1803E0090E4A
:100F68006A1803E1060E396E060C6A50D8A41200FE
:100F78003A2A020E3A1801E13A6AFD0E3A24F66E50
:100F8800F76A1E0EF7220800F5CF6CF0396A1200D6
:100F98006B50800A7E0F02E26B5007E16B50800AAB
:100FA800760F03E2010E396E010C6B500CE06B50AA
:100FB800800A7E0F08E26C2806E16B50300FA5EC22
:100FC8000EF06B68E3D76B50D8B412006B50800AF0
:100FD8007E0FD8B012006C28D8B412006C50A5EC63
:100FE8000EF06C68392A12006B50300FA5EC0EF029
:100FF800E8D7040E3C1808E1FE0E516E52686AC02C
:1010080053F02DD83C6AC2D7030E3C1804E16A504D
:10101800300F6C6EBBD7030E3C601200B7D7040EBE
:101028003C18F5E0050E3C18E7E0040EF5D73950FA
:10103800516E526A5250D8A41200515001E136D76D
:10104800010A01E153D7030A01E17BD7010AA0E0B5
:10105800070ACAE0010ACDE0030AE1E01200546A77
:1010680053BE54065150532652505422F50E532461
:10107800F66E1E0E5420F76E0800F5CF6CF01200C5
:101088005A0E4A5C020E4B58120083A003D0516AD4
:10109800512A01D0516A010E83A2000E020DF3CF2E
:1010A80052F0010E83A4000E030DF3CF53F0010E8E
:1010B80083A6000E040DF350532452245124356E98
:1010C80058D0355006E18C888C9A8C9C366A372A21
:1010D80012003550D8B412003850D6EC0DF0030E7B
:1010E800376E030C355006E18C988C8A8C9C010E67
:1010F800366EEDD73550D8B412003850D6EC0DF016
:10110800EED7355007E18C988C9A8C8C020E366E8F
:10111800376A12003550D8B412003850D6EC0DF0AA
:10112800D6D7385052EC0DF04BBE1200D0D7355000
:1011380003E1010E376E010C3550D8B4120030D8D7
:1011480099EC0EF02DD895EC0EF0C1D73550D8A4F7
:1011580012003850D6EC0DF0BAD7385052EC0DF0DA
:10116800E3D7355003E0050E376E050C3550D0E057
:1011780012003750516E526A5250D8A41200515082
:10118800A0E0010AAFE0030ABCE0010ACAE0070ACE
:10119800CEE0010ADBE0030AE0E0010AE2E0120027
:1011A800FD0E516E52683550030D900E536E1F0E92
:1011B800546EF3505326F450542236505326000EE2
:1011C8005422515053265250542253C0F6FF54C053
:1011D800F7FF0800F550120056D0C2B20BD0C80E67
:1011E800C46008D0320EC46405D0070EC26E768E75
:1011F800172A52D0C2B20FD0C70EC4640CD0020E48
:10120800181803E0020EADEC0EF0020E186E070E71
:10121800C26E769EEDD7C2B23FD0330EC4603CD0CA
:10122800080E181803E0080EADEC0EF0080EEED705
:10123800C2B20BD0C80EC46008D0320EC46405D048
:10124800030EC26E768C170627D0C2B20FD0C70E17
:10125800C4640CD0060E181803E0060EADEC0EF0B0
:10126800060E186E030EC26E769CEDD7C2B214D06D
:10127800330EC46011D0040E181803E0040EADEC50
:101288000EF0040EEED717504B6E4C6A4C5004E12A
:101298004B50A3E0010ACCE076BE76AC12001850A1
:1012A800D8B41200FF0EADEC0EF0186812002A50E8
:1012B8001EEC0EF02D6E080E2D6401D02D6A2A2A20
:1012C8002A501EEC0EF02C6E080E2C6401D02C6AED
:1012D800120E4A6E2C50E1EC0CF02B6E2A2A16D016
:1012E800506A3FD832D81EEC0EF0DF6E2A2A39D861
:1012F800090E4E26000E4F2228D81EEC0EF0DF6E87
:101308002A2A502A070E5064ECD7292A2D50295C26
:10131800E7E300019869516A515052EC06F05150C8
:10132800020DF350C80F1EEC0EF0DF6E51504CEC5E
:1013380006F05150020DF350C90F1EEC0EF0DF6E8F
:10134800512A040E5164E8D7040CF3504E26F45089
:101358004F2250504E24D96E000E4F20DA6E2A507C
:1013680012002950120D000E4E6E010E4F6E120023
:10137800556E15EC0DF03D6E55C040F03E6A3F6A63
:101388009498959E949A566A576A526A640E516E5A
:101398003D509AEC0DF0030EF7EC0AF0526A050E78
:1013A800516E3D509AEC0DF0030EF7EC0AF03AD866
:1013B8009AEC0DF0030EF7EC0AF034D89AEC0DF025
:1013C800020EF7EC0AF0526A040E516E3D509AEC88
:1013D8000DF0280EC8EC0DF08CEC0CF0080EC8ECE3
:1013E8000DF08CEC0CF0010EC8EC0DF095EC0DF046
:1013F8009AEC0DF08CEC0CF0060EC8EC0DF08CECB1
:101408000CF00F0EC8EC0DF0564A572A57BEBDD740
:10141800575003E1020E565CB8E38CEC0CF00C0E4E
:10142800C8EF0DF0526A010E516E3D50120043D0C4
:101438006328D8B4120063506DEC0EF07684020E67
:10144800126E020C76B408D06368C3EC0EF0C1ECDF
:101458000EF08A961206120013BE07D0135065ECE0
:101468000DF075EC0EF0136812002CEC0EF011E381
:1014780062EC0EF00EE3C7EC0EF0C1EC03F0FBECEF
:101488000CF0C5EC0EF0586E58C04DF04E6A5CEF8B
:101498000EF06250800A7F0FD8A012006250300F01
:1014A80071EC0EF06268120026EC0EF0D8A0120063
:1014B800B5EC0EF0CFD71250586E596A5950D8A4CF
:1014C80012005850B5E0010ABDE0030AEDE0120031
:1014D8002FD077A41200010E266E246A2550D6EC70
:1014E8000DF0010E236E010C050E266403D07794CF
:1014F8002306050CA80E241803E1262A246A1200E4
:10150800255052EC0DF021D8D8B012008A80255011
:10151800D6EC0DF0232A1200255052EC0DF015D808
:10152800D8B012008A902550D6EC0DF0242AF2D7B4
:101538002350516E526A5250D8A412005150C9E03B
:10154800010AD2E0030AE8E012002650516E526AFE
:101558004A50515C5250800A536E4B50800A53587F
:10156800120038D0165052EC0DF04BBE120020EC91
:1015780005F0D8A012001650D6EC0DF076AA28D0A7
:10158800768871062F0E711803E1390E716E700698
:101598002F0E701803E1350E706E6E062F0E6E1842
:1015A80003E1390E6E6E6D06300E6D180AE1300ECD
:1015B8006E1807E1300E701804E1300E711801E161
:1015C8007686152A3B0E156403D0C9EC0EF0156A11
:1015D800146A12001450516E526A5250D8A4120064
:1015E8005150C0E012004B6E94962FD88B884BA6B2
:1015F80003D04A6A4A2A01D04A6A4A462DD8F70BCC
:101608004A188B6E4BA403D04A6A4A2A01D04A6A08
:1016180023D8FB0B4A188B6E4BA203D04A6A4A2A7E
:1016280001D04A6A4A468B504A18FD0B4A188B6EFD
:101638004BA003D04A6A4A2A01D04A6A8B504A18FA
:10164800FE0B4A188B6E8B98120094949492949087
:101658008B9A8C9E8B8812004A464A468B504A18B1
:101668001200ABEC0DF0F0EC0DF02BEC0DF09DEC56
:101678000EF0A1EC0EF059EC07F05BEC09F091ECE0
:101688000EF0B1EC0EF005EC0EF08DEC0EF089ECDE
:101698000EF0020EBCEC09F0A9EC0EF0DCEC03F045
:1016A8001BEC0AF065EC06F0B5EC0AF0F0EC08F07B
:1016B8001BEC00F077EC0DF06CEC0AF025EC05F073
:1016C80049EC08F059EC07F0FDEC0BF0E7D74B6E4E
:1016D8004BA603D04A6A4A2A01D04A6A4A4625D804
:1016E800F70B4A188B6E4BA403D04A6A4A2A01D0DA
:1016F8004A6A1BD8FB0B4A188B6E4BA203D04A6A66
:101708004A2A01D04A6A4A468B504A18FD0B4A18A1
:101718008B6E4BA003D04A6A4A2A01D04A6A8B5082
:101728004A18FE0B4A188B6E12004A464A468B50DE
:101738004A1812004B6E4BAE03D04A6A4A2A01D0AF
:101748004A6A4A4625D8F70B4A188B6E4BAC03D029
:101758004A6A4A2A01D04A6A1BD8FB0B4A188B6E80
:101768004BAA03D04A6A4A2A01D04A6A4A468B5091
:101778004A18FD0B4A188B6E4BA803D04A6A4A2AAE
:1017880001D04A6A8B504A18FE0B4A188B6E120019
:101798004A464A468B504A181200C80EF66E1B0E6F
:1017A800F76E000EF86E00EE5EF010EE18F009000D
:1017B800F5CFEEFFE550E150FAE101EE00F0900EB2
:1017C800EE6AE806FDE100EE80F0340EEE6AE80607
:1017D800FDE1786A776A766A00EE01F0440EEE6AF7
:1017E800E806FDE179907992000EF86E000135EF78
:1017F8000BF078A2120018D8F76403D00800F5504F
:1018080001D019D825EC0CF00D4A0E2A0DD8F76432
:1018180003D00800F55001D00ED80009D8A4120052
:1018280078920D6A0E6A12000DC0F6FF0EC0F7FF1F
:10183800F86A010E1200F6CFE1FFF7CFE2FFE7509A
:101848001200586E8CEC0CF05850ABEC0CF03E2AA1
:10185800020E40180CE1270E3E6409D03E6A3F2A6A
:10186800010E3F6401D03F6A0CD8FBEC0CF03F043A
:10187800D8A41200270E3E6401D03E6A02D8FBEFBE
:101888000CF03FC052F03E5012001ED8F2940B4AA2
:101898000C2A480E0B5CEE0E0C58D8A01200346AC5
:1018A800070E346401D00DD024EC0DF0DE0407E1FE
:1018B8003450DEEC0DF00B50DE5E0C50DD5A342A4D
:1018C800EFD70B6A0C6A1200DF0ED76E940ED66E35
:1018D800940C0AD013D84A50E16EE26ADE50E6183A
:1018E80005E14A2A4B4A4C2A0ED8F4E107D8DF50C2
:1018F8004D6E09D84E6E4D504E5C12004BC0D9FF4C
:101908004CC0DAFF12004A50D96EDA6ADF50120072
:1019180094869484948294808B9A8C8E3D50D6ECD5
:101928000DF08B888B88000E82B6010E516E8B9855
:101938008B988B888B888B988B983D5052EC0DF048
:101948004A504B1001E012005150EBE112004C6E6E
:1019580094969494949294908B8A8C9E8B884C50F5
:101968009EEC0BF00BD84C506BEC0BF000D08B8836
:101978008B98948694849482948012008B888B9898
:101988008B988B8812004A50D96EDA6ADF506D6ED8
:101998004A50D96EDA6AD92ADF506E6E4A50D96E2B
:1019A800DA6A020ED926DF50706E4A50D96EDA6AAA
:1019B800030ED926DF50716E12004B6E4D6A4A50E5
:1019C80014E0010E4C6E03D0D8904A364C2A4AAE29
:1019D800FBD7D8904D364A504B5C03E34A504B5ED8
:1019E8004D80D8904A324C2EF4D74D501200576E85
:1019F800525004E0566A400E556E02D0556A566A37
:101A080057505524536E000E5620546E8CEC0CF033
:101A180053508009C8EC0DF052C03FF057C03EF05B
:101A28001200346A05D0342A080E341801E1FF0C7C
:101A380007D8DE04F8E004D8010EDF6E3450120037
:101A48003450030DF350820FD96EDA6A1200D09E1B
:101A5800F28EF28CF28AF294880ED56E68EC0CF055
:101A6800D58E346A070E346401D0070C24EC0DF0CF
:101A7800DF6A342AF7D74B6E4AC0A9FF4BC0A8FFCC
:101A8800A69EA69CA684F29E550EA76EAA0EA76EC9
:101A9800A682A6B2FED7F28EA69412004E6E0BC096
:101AA8004FF00CC050F04E50DEEC0DF0DECF4CF095
:101AB800DDCF4DF04C504F5C4A6E4D5050584B6E38
:101AC80012004A6E020E4A1801E1570C060E4A1817
:101AD80001E1440C080E4A1801E1530C040E4A189F
:101AE80001E1410C000CFA0E5E18D8B412005E50E9
:101AF80009E0742A3A0E741803E1300E746E732AE2
:101B08005E061200FA0E5E6EFA0C8CEC0CF0010EFA
:101B1800C8EC0DF006D89AEC0DF0000E526EFBEFF3
:101B28000CF0526A030E516E3D501200546E545020
:101B3800D6EC0DF0545052EC0DF051504A5C4B501D
:101B4800800A536E5250800A5358F4E31200030E71
:101B5800926EE00E936E8A968A908A92C00E946E68
:101B68008F0E956E8C6AA68EA69C12004C6E4C50F9
:101B7800010FD96EDA6ADF50120D000EF3244A6E97
:101B8800010EF4204B6E12004C6E949629EC0BF06B
:101B98004C509EEC0BF0C2EC0CF04C506BEC0BF084
:101BA800BBEF0CF04A6E4A5005D80BC0DEFF0CC0E4
:101BB800DDFF1200030DF350800FD96EDA6A1200B0
:101BC800FAFFFFFFFFFF0F0FFFFFFFFFFFFFFF33CE
:101BD800303A303000303000240EAC6E900EAB6ED0
:101BE800080EB86E040EB06E100EAF6E100C4C6E70
:101BF8004C50120D000EF3244A6E010EF4204B6E69
:101C08001200010EC26E0D0EC16E090EC06E7F0E5F
:101C1800C46E7F0C4B6E4A50A20FD96EDA6A4BC065
:101C2800DFFF12004B6E4A50AB0FD96EDA6A4BC019
:101C3800DFFF12004A6E4AC0A9FFA69EA69CA68096
:101C4800A850120076B002D0D8901200D8801200A6
:101C580076B802D0D8901200D880120076B602D09A
:101C6800D8901200D880120077A802D0D89012001D
:101C7800D88012004A6E4A5052EC06F0DF5012002B
:101C88004A6E4A504CEC06F0DF50120077BC02D086
:101C9800D8901200D88012004A6E77804AC021F08E
:101CA800778212004A6E85EC0EF04AC05EF0120090
:101CB8004DC00DF04EC00EF07882120078A202D00E
:101CC800D8901200D88012004A6E4AC028F0778651
:101CD80012004A6E4AC061F012004A6E4AC05FF0B4
:101CE80012004A6E4AC060F012004A6E4AC062F0A2
:101CF80012004A6E4AC013F012004A6E4AC063F0DE
:101D08001200300E736E746E300C15EC0DF0116EFF
:101D1800120015EC0DF0166E120015EC0DF0256E84
:101D280012004A6E4AC06BF012004A6E4AC069F04F
:101D3800120015EC0DF0386E120015EC0DF03B6E2C
:101D480012004A6E4AC068F0120015EC0DF0326EAF
:101D580012004A6E4AC067F0120015EC0DF0226EB0
:101D68001200768A7696120078806B681200789056
:101D78006B681200180EC8EF0DF076921200769A72
:101D880012006D0E12007698120077841200778880
:101D980012002D50120066501200778C1200778ABC
:101DA8001200778212006150120077921200769426
:0A1DB8001200730E12005E501200BC
:101EF400004144474A4D5054573020312E506C61B4
:101F04007920612047616D65000000000000000039
:101F14000000000000000000322E4D6F64696679F5
:101F24002054696D650000000000000000000000FE
:101F34000000000000332E53686F772047656E65FC
:101F440072616C20546F7020352053636F72657317
:101F54002000342E4C6F676F757400000000000081
:101F64000000000000000000000000000000003538
:101F74002E53686F7720416C6C2055736572730023
:101F84000000000000000000000000000102030443
:101F940005060708090A000B322E524547495354D7
:101FA400455200312E4C4F47494E0054494D45206F
:101FB40052454D41494E494E473A004D6F6469665A
:101FC400792054696D653A0054494D45204C454685
:101FD400543A200042594520425945200053434F6A
:101FE40052453A20004552524F52533A00505357EB
:0C1FF400443A2000555345523A200000AA
:020000040020DA
:08000000FFFFFFFFFFFFFFFF00
:020000040030CA
:0E000000FF061F1EFF8181FF03C003E00340C7
:00000001FF
