:020000040000FA
:0400000019EF00F004
:100008007982D9CF63F0DACF64F0F3CF65F0F4CF1B
:1000180066F015EC06F066C0F4FF65C0F3FF64C037
:0E002800DAFF63C0D9FF7992110091EF06F064
:1002000000322E524547495354455200312E4C4F2F
:1002100047494E00505357443A2000555345523AEF
:03022000200000BB
:1002240000D1C5EC07F00C0E676E4DEC08F0010E22
:100234002E6E120041EC08F0D8A01200010E6F6E71
:10024400000EF8EC06F0010E676E4DEC08F05168F4
:10025400020E2E6E12005104D8A409D075EC08F0D9
:100264000009D8B404D07888030E2E6E1200020E52
:100274005118D8A412007898F7D751685068C5EC83
:1002840007F01B0E676E4DEC08F0040E2E6E120084
:1002940041EC08F0D8A01200010E6F6E000EF8ECCD
:1002A40006F0140E676E4DEC08F0050E2E6E12006B
:1002B40041EC08F0D8A01200000E6F6E060EF8ECA8
:1002C40006F06DEC08F0000E306E060E2E6E120075
:1002D4005050800A500FD8A00FD00A0E5118D8B42D
:1002E4000BD0505042EC06F030C067F050502DEC6B
:1002F40008F0070E2E6E12000B0E5118D8A412002F
:10030400F8D7070E3018D8B408D00B0E5118D8B44B
:1003140004D0302A51685068D8D7070E3018D8B4A2
:1003240004D00B0E5118D8A41200010E6F6E060EE5
:10033400F8EC06F030C067F0000E2DEC08F05168C0
:100344005068000E306E080E2E6E12005050800A57
:10035400500FD8A00FD00A0E5118D8B40BD050505B
:1003640042EC06F030C067F0505025EC08F0090E5E
:100374002E6E12000B0E5118D8A41200F8D7070ED7
:100384003018D8B408D00B0E5118D8B404D0302A81
:1003940051685068D8D7070E3018D8B404D00B0E63
:1003A4005118D8A4120030C067F0000E25EC08F0F4
:1003B40051685068000E306EC5EC07F077EC08F019
:1003C40070EC08F00A0E2E6E120035EC08F0D8B06E
:1003D40012000B0E2E6E120078B807D03BEC08F01A
:1003E400D8B003D00C0E2E6E120078A807D03BECC8
:1003F40008F0D8A003D00D0E2E6E120078A802D0FB
:10040400010E01D0000E766E3BEC08F0D8A002D0AD
:10041400010E01D0000E761AD8B41200000E2E6E12
:1004240012002E50766E776A7750000AD8A4120014
:100434007650000AD8B4F5D6010AD8B4FBD6030A1C
:10044400D8B409D7010AD8B418D7070AD8B420D722
:10045400010AD8B42DD7030AD8B43AD7010AD8B4BC
:1004640050D70F0AD8B472D7010AD8B488D7030A70
:10047400D8B4ABD7010AD8B4AFD7070AD8B412009E
:10048400010A1200B7D05428D8A478AA06D0535031
:1004940019EC08F0030E366E12005428D8A412008A
:1004A4005350AFEC07F068BE12005A0E675C020EA0
:1004B4006858D8A012005528D8B4120078AA12009F
:1004C400555065EC08F055685268120052505418A3
:1004D400D8A410D05350AFEC07F068BE06D05A0E23
:1004E400675C020E6858D8B005D05468372A552A7C
:1004F400362A12005428D8B4120052505418D8B4D2
:100504001200555065EC08F05450450FD96EDA6A64
:10051400DF50556E54C052F0000E376E54683606E4
:100524001200070E5218D8B407D0090E5218D8B4C6
:1005340003D0050E366E1200070E5218D8B404D03C
:10054400090E5218D8A41200060E366E120054502A
:10055400800A7E0FD8A008D05450800A760FD8B0F5
:1005640003D0010E366E12005450800A7E0FD8B0AC
:100574000BD05528D8A408D05450300F65EC08F09F
:100584005468000E366E12005450800A7E0FD8B0A4
:1005940012005528D8B41200555065EC08F055687F
:1005A400362A12005450300F65EC08F0E9D7040ED7
:1005B4003718D8A409D05250450FD96EDA6ADF50E3
:1005C400556E000E376EDDD7030E3718D8A404D04D
:1005D4005250300F556ED5D7030E37601200D1D765
:1005E400040E3718D8B4F4D7050E3718D8B4E3D7A7
:1005F400040EF3D736506E6E6F6A6F50000AD8A49B
:1006040012006E50000AD8B43ED7010AD8B45ED79F
:10061400030AD8B486D7010AD8B499D7070AD8B43C
:10062400C1D7010AD8B4C3D7030AD8A41200D8D7B3
:1006340083A003D06E6A6E2A01D06E6A83A202D0B0
:10064400010E01D0000E020DF3CF6FF083A402D08F
:10065400010E01D0000E030DF3CF70F083A602D07B
:10066400010E01D0000E040DF35070246F246E248B
:10067400326E6FD03250D8A407D08C888C9A8C9C60
:10068400000E336E342A12003250D8B412003550A2
:1006940019EC08F0030E346E12003250D8A405D0C1
:1006A4008C988C8A8C9C010EECD73250D8B41200F2
:1006B400355019EC08F0EED73250D8A408D08C98F5
:1006C4008C9A8C8C020E336E000E346E12003250F3
:1006D400D8B41200355019EC08F0D4D73550AFEC2B
:1006E40007F068BE1200CED73250D8A403D0010E52
:1006F400346E12003250D8B412003250030DF3504D
:10070400530F3324D96EDA6ADF5059EC08F03250B3
:10071400030DF350530F3324D96EDA6ADF5055ECCE
:1007240008F0B0D73250D8A41200355019EC08F0B4
:10073400A9D73550AFEC07F0D4D73250D8B403D092
:10074400050E346E12003250D8A41200000E346E1E
:10075400120034506E6E6F6A6F50000AD8A41200F3
:100764006E50000AD8B486D7010AD8B496D7030AC3
:10077400D8B4A2D7010AD8B4B1D7070AD8B4B4D729
:10078400010AD8B4CFD7030AD8B4D3D7010AD8A45E
:100794001200D3D76CD078A678B205D0000E2A6E9A
:1007A400000E296E120078A604D07894010E286EEB
:1007B400120078A21200020E286E12002C502A5C3D
:1007C400D8B016D03E0E676E2A50170D000EF324D3
:1007D400686E010EF420696EB5EC06F00009D8A429
:1007E40005D02AA002D0788401D078942A2ADED7B2
:1007F4002C502A18D8A412007896000E286E1200E5
:10080400080E2A18D8B40CD02BC067F02A503E0F1B
:10081400D96EDA6ADF50D7EC07F02B2A2A2ACBD715
:10082400080E2A18D8A41200000E2A6E030E286E91
:100834001200080E2A18D8B40ED02BC067F02A5024
:10084400190FD96EDA6ADF50D7EC07F02B2A2A2A5F
:10085400030E286E1200080E2A18D8A412007892EB
:100864002B2A080E2C18D8B4C8D72C2AC6D728503F
:100874006C6E6D6A6D50000AD8A412006C50000AA8
:10088400D8B489D7010AD8B499D7030AD8B4B8D749
:10089400010AD8A41200CDD7736E15EC07F0396E97
:1008A40073C03DF072C03CF0000E3A6E3AC03BF0AB
:1008B4009498959E949A000E756E000E746E000EB8
:1008C4006F6E640E6E6E3950E9EC07F0030E70EC37
:1008D40005F0000E6F6E050E6E6E3950E9EC07F0F0
:1008E400030E70EC05F0000E6F6E010E6E6E395043
:1008F400E9EC07F0030E70EC05F0000E6F6E010ECC
:100904006E6E3950E9EC07F0020E70EC05F0000E43
:100914006F6E040E6E6E3950E9EC07F0280E67EC2A
:1009240007F0D8EC06F0080E67EC07F0D8EC06F0F8
:10093400010E67EC07F0000E6F6E030E6E6E3950F9
:10094400E9EC07F0D8EC06F0060E67EC07F0D8ECFB
:1009540006F00F0E67EC07F0744A752A75BEAFD720
:10096400755004E1020E745CD8A0A9D747EC08F0D6
:10097400120048D078A01200010E276E000E256EDA
:10098400265019EC08F0010E246E1200050E27649F
:1009940004D07890000E246E1200A80E2518D8A456
:1009A40004D0272A000E256EEED72650AFEC07F0B0
:1009B40027506E6E6F6A67506E5C6F50800A706E5F
:1009C4006850800A7058D8B012008A80265019ECFA
:1009D40008F0020E246E12002650AFEC07F02750E8
:1009E4006E6E6F6A67506E5C6F50800A706E6850EE
:1009F400800A7058D8B012008A90265019EC08F07A
:100A0400252AC1D724506E6E6F6A6F50000AD8A48D
:100A140012006E50000AD8B4ADD7010AD8B4B6D7C4
:100A2400030AD8A41200D8D7000EA96EA69EA69CCD
:100A3400A680A6B0FED7A8CF2CF0A92AA69EA69C75
:100A4400A6B0FED7A8CF2BF0A92A000E696E41D01C
:100A5400000E6A6EA69EA69CA680A6B0FED769501C
:100A6400170D000E676E010E686EF3506726F45082
:100A740068226A506724D96E000E6820DA6EA8CF07
:100A8400DFFFA92A6A2A080E6A64E4D7000E6B6E97
:100A9400A69EA69CA680A6B0FED76950170D000E90
:100AA400676E010E686E090E6726000E6822F35009
:100AB4006726F45068226B506724D96E000E6820B4
:100AC400DA6EA8CFDFFFA92A6B2A080E6B64E0D781
:100AD400692A2C50695CD8B01200BAD7686E949613
:100AE4009494949294908B9A8C9E8B888B8868A60D
:100AF40003D0676A672A01D0676A67466746674614
:100B04008B506718F70B67188B6E68A403D0676A5D
:100B1400672A01D0676A674667468B506718FB0BE4
:100B240067188B6E68A203D0676A672A01D0676A68
:100B340067468B506718FD0B67188B6E68A003D04F
:100B4400676A672A01D0676A8B506718FE0B6718BB
:100B54008B6E8B981200686E68A603D0676A672A4A
:100B640001D0676A6746674667468B506718F70B7C
:100B740067188B6E68A403D0676A672A01D0676A16
:100B8400674667468B506718FB0B67188B6E68A225
:100B940003D0676A672A01D0676A67468B50671873
:100BA400FD0B67188B6E68A003D0676A672A01D0B3
:100BB400676A8B506718FE0B67188B6E1200686E9D
:100BC40068AE03D0676A672A01D0676A67466746DA
:100BD40067468B506718F70B67188B6E68AC03D0A9
:100BE400676A672A01D0676A674667468B50671849
:100BF400FB0B67188B6E68AA03D0676A672A01D05B
:100C0400676A67468B506718FD0B67188B6E68A878
:100C140003D0676A672A01D0676A8B506718FE0B96
:100C240067188B6E1200DF0ED76E940ED66EF29498
:100C3400224A232A480E225CEE0E2358D8A0120022
:100C4400000E316E070E316401D015D03150030D02
:100C5400F350030FD96EDA6ADE04D8A40AD03150F7
:100C6400030DF350010FD96EDA6A2250DE5E235071
:100C7400DD5A312AE7D7000E236E000E226E1200D1
:100C8400756ED8EC06F075504EEC07F03A2A020E59
:100C94003D18D8A410D0270E3A640DD0000E3A6E39
:100CA4003B2A010E3B6402D0000E3B6E3BC06FF04A
:100CB4003A50F8EC06F03B04D8A41200270E3A642C
:100CC40002D0000E3A6E3BC06FF03A50F8EC06F0DA
:100CD4001200FBEC07F098EC07F032EC07F05DEC47
:100CE40008F061EC08F044EC02F016EC05F051EC6D
:100CF40008F073EC08F0100E726E020E4EEC04F065
:100D040069EC08F012EC01F0BBEC04F0CCEC03F05D
:100D14001AEC03F044EC02F080EC07F0F3D7160E63
:100D2400F66E100EF76E000EF86E00EE47F010EE41
:100D34001BF00900F5CFEEFFE550E150FAE101EEBA
:100D440000F0B80EEE6AE806FDE1786A00EE01F004
:100D5400460EEE6AE806FDE179907992000EF86E8F
:100D640000016BEF06F00ED068C0D9FF69C0DAFF4E
:100D74006750E16EE26ADE50E618D8A409D0672A0B
:100D8400684A692A6750D96EDA6ADF50D8A4ECD76A
:100D940068C0D9FF69C0DAFFDF506A6E6750D96E48
:100DA400DA6ADF506B6E6A506B5C1200948694842E
:100DB400948294808B9A8C8E395019EC08F08B882D
:100DC4008B88000E82B6010E6E6E8B988B988B8882
:100DD4008B888B988B983950AFEC07F0675068106C
:100DE400D8A412006E50D8B41200E9D7746E6F50B4
:100DF400D8B404D0000E736E400E03D0000E736E90
:100E0400000E726E74507224706E000E7320716E38
:100E1400D8EC06F07050800967EC07F06FC03BF027
:100E240074C03AF01200000E316E07D0312A080E59
:100E34003118D8A402D0FF0E12003150030DF35024
:100E4400030FD96EDA6ADE04D8B4F0D73150030D3B
:100E5400F350030FD96EDA6A010EDF6E31501200BF
:100E6400D09EF28EF28CF28AF294880ED56EDF0E4A
:100E7400D76E940ED66ED58E000E316E070E316489
:100E840001D012003150030DF350030FD96EDA6A0A
:100E9400000EDF6E312AF2D7696E94969494949280
:100EA40094908B8A8C9E8B886950E1EC05F08B883A
:100EB4008B988B988B886950ADEC05F08B888B9858
:100EC40094869484948294801200696E9496949487
:100ED400949294908B9A8C9E8B886950E1EC05F0E7
:100EE4008B888B988B988B886950ADEC05F08B8838
:100EF4008B989486948494829480120078AC120027
:100F040038C0F6FF020EF76E0800F55042EC06F00A
:100F1400382A38C0F6FF020EF76E0800F5500009B3
:100F2400D8A41200789C000E386E1200000E676E72
:100F3400000EA96E000EA86EA69EA69CA684F29E24
:100F4400550EA76EAA0EA76EA682A6B2FED7672A72
:100F54009F0E6764EDD7F28E12006B6E22C06CF0A8
:100F640023C06DF06B50030DF350010FD96EDA6A94
:100F7400DECF69F0DDCF6AF069506C5C676E6A5051
:100F84006D58686E1200D8EC06F0010E67EC07F09D
:100F9400000E6F6E030E6E6E3950E9EC07F0000E12
:100FA4006F6E000EF8EC06F01200686E68C0A9FFC0
:100FB40067C0A8FFA69EA69CA684F29E550EA76EA7
:100FC400AA0EA76EA682A6B2FED7F28E1200716E8A
:100FD400715019EC08F07150AFEC07F06E50675C7B
:100FE4006850800A706E6F50800A7058D8B0120032
:100FF400F2D7030E926EE00E936E8A968A908A92CE
:10100400C00E946E8F0E956E000E8C6EA68EA69CEE
:1010140012004144474A4D50545700FFFFFFFFFF61
:0D102400FF0102030405060708090A000B7E
:10103200676E6750030DF350010FD96EDA6A22C052
:10104200DEFF23C0DDFF1200686E6750190FD96EF4
:10105200DA6A68C0DFFF1200686E67503E0FD96E11
:10106200DA6A68C0DFFF120078B602D0D8901200A8
:10107200D880120078B402D0D8901200D880120022
:1010820078AC02D0D8901200D8801200D8EC06F0CA
:101092000C0E67EC07F0120067C038F0788C120073
:1010A20015EC07F0266E1200676E67C054F012004E
:1010B200676E67C051F0120015EC07F0356E120032
:1010C20015EC07F0536E1200676E67C050F0120005
:1010D20015EC07F02F6E1200788A54681200789A85
:1010E20054681200788012002C5012007886120088
:020000040020DA
:08000000FFFFFFFFFFFFFFFF00
:020000040030CA
:0E000000FF061F1EFF8181FF03C003E00340C7
:00000001FF
