:020000040000FA
:0400000019EF00F004
:100008007982D9CF5FF0DACF60F0F3CF61F0F4CF27
:1000180062F0F6EC0BF062C0F4FF61C0F3FF60C061
:0E002800DAFF5FC0D9FF7992110009EF0BF0EB
:1002000000312E506C617920612047616D650000DE
:100210000000000000000000000000000000322E7E
:100220004D6F646966792054696D650000000000B7
:100230000000000000000000000000332E53686F33
:10024000772047656E6572616C20546F7020352091
:1002500053636F7265732000342E4C6F676F757433
:10026000000000000000000000000000000000008E
:100270000000000000352E53686F7720416C6C2021
:10028000557365727300000000000000000000005C
:10029000000054494D452052454D41494E494E4775
:1002A0003A004D6F646966792054696D653A00546F
:1002B000494D45204C4546543A2000322E52454780
:1002C0004953544552004259452042594520005354
:1002D000434F52453A20004552524F52533A003153
:1002E0002E4C4F47494E00505357443A2000555327
:1002F00045523A2000006BD245EC0DF0DF0EC6DA15
:10030000FDEC0DF0010E236E010C03EC0EF0D8A0F5
:100310001200C7DA8EEC0CF0BB0EB8DAFDEC0DF073
:100320005068020E236E020C500408E16BEC0EF0D4
:10033000000904E0788A030E236E030C020E5018A5
:10034000D8A41200789AF7D750684F6845EC0DF0A2
:10035000EE0E9CDAFDEC0DF0040E236E040C03ECA3
:100360000EF0D8A012009DDA8EEC0CF0E70E8EDABB
:10037000FDEC0DF0050E236E050C03EC0EF0D8A07D
:100380001200000E6B6E060E8EEC0CF054EC0EF0AC
:10039000286A060E236E060C4F50800A600F0EE38B
:1003A0000A0E50180BE04F50D2EC0BF028C063F04F
:1003B0004F50D1EC0DF0070E236E070C0B0E5018AA
:1003C000FAE01200070E281805E00B0E501802E0A4
:1003D0006FDADFD7070E281804E00B0E5018D8A4E8
:1003E0001200010E6B6E060E8EEC0CF028C063F04E
:1003F000000ED1EC0DF058DA080E236E080C4F50A9
:10040000800A600F0EE30A0E50180BE04F50D2EC3A
:100410000BF028C063F04F50C9EC0DF0090E236EAD
:10042000090C0B0E5018FAE01200070E281805E010
:100430000B0E501802E03CDADFD7070E281804E054
:100440000B0E5018D8A4120028C063F0000EC9EC9F
:100450000DF02ADA6FEC0EF057EC0EF00A0E236E58
:100460000A0CF1EC0DF0D8B012006DEC0EF0256E18
:100470000B0E236E0B0C78BA06D0252804E171EC24
:100480000EF0236A120078BA25BE03D00C0E236E3C
:100490000C0C78AA02D02528F4E078AA25BEF6D75D
:1004A000F0D745EC0DF073EC0EF02650F7EC0DF0A4
:1004B0004E6850680D0E236E0D0C080E4E1805E1A7
:1004C000040E2660E3D7262AE1D7020E4E1804E177
:1004D0002650DCE02606DAD70B0E50180EE1030E8C
:1004E00026180BE177EC0EF045EC0DF0C60ECED9D8
:1004F000FDEC0DF00E0E236E0E0C0B0E50180EE1DF
:1005000026040CE145EC0DF077EC0EF0A20EBED9FE
:10051000FDEC0DF05068100E236E100C265012E109
:100520000B0E50180FE177EC0EF0506845EC0DF013
:10053000920EACD9FDEC0DF0255021EC0EF0150E0D
:10054000236E150C0B0E5018D8A41200040E26189A
:10055000D8A4120077EC0EF045EC0DF0266A506836
:10056000170E236E170C03EC0EF0D8A012002550C6
:10057000B6EC0DF091D9FDEC0DF0275092EC0DF09A
:100580000F0E236E0F0C2750FCEC0CF064BE120013
:100590006B0E635C090E645801E373D7120003EC21
:1005A0000EF047E350BE45D05050800A760F41E22E
:1005B00078D98EEC0CF05050300F3E6E3E50D2EC9D
:1005C0000BF05068110E236E1200501801E15ED737
:1005D000120050BE2ED05050800A760F2AE25050A2
:1005E000300F3F6E3F50D2EC0BF050683A0ED2EC19
:1005F0000BF0120EE8D750BE1CD05050800A760F78
:1006000018E25050300F406E4050D2EC0BF0506862
:10061000130ED9D750BE0DD05050800A760F09E284
:100620005050300F416E4150D2EC0BF05068140E18
:10063000CAD70A0ECAD70B0E5018FBE13E0E636EE6
:1006400074EC0CF0506822D70A0E501803E103EC4A
:100650000EF003E2EBEC0DF007E345EC0DF079EC66
:100660000EF0160E236E160C5050800A7F0F09E311
:100670005050800A760F05E2505019EC0EF0506889
:100680005ED74EBE12004E501DEC0EF04E6857D78E
:1006900075EC0EF00009D8B412000B0E96D703ECDF
:1006A0000EF0D8A012006BEC0EF0261801E1266ABD
:1006B000000E6B6E8EEC0CF02650B6EC0DF0ECD804
:1006C000FDEC0DF0262A180E236E180C03EC0EF02C
:1006D000D8A012006BEC0EF026600BD0E2D88EECA6
:1006E0000CF02650B6EC0DF0D7D8FDEC0DF0262A14
:1006F00001D0266A190E236E190C03EC0EF0D8A057
:1007000012006BEC0EF0261801E1266A000E6B6EEB
:10071000100E8EEC0CF02650B6EC0DF0BDD8FDECB2
:100720000DF01A0E236E1A0C03EC0EF0D8A0120076
:100730006BEC0EF0726E736A2650746E756A742AD2
:10074000000E75227250745C7550800A766E73507C
:10075000800A76580BE2010E6B6E100E8EEC0CF0D8
:100760002628B6EC0DF098D8FDEC0DF01B0E236E8C
:100770001B0C2750FCEC0CF064BE08D0B60E635C7A
:10078000040E645803E31D0E236E1D0C0B0E50184F
:10079000D8A41200266A7AD60F0E246403D045EC42
:1007A0000DF0DED6100E2460100C275092EC0DF0E8
:1007B0005AEC0EF0242A1C0E236E1C0C03EC0EF0D7
:1007C000D8A01200275092EC0DF0246AF4D72350E1
:1007D000726E736A7350D8A41200725001E18CD506
:1007E000010A01E192D5030A01E19ED5010A01E166
:1007F000ABD5070A01E1B3D5010A01E1BED5030A71
:1008000001E1CAD5010A01E1DDD50F0A01E1F7D501
:10081000010A01E10AD6030A01E123D6010A01E136
:100820002AD6070A01E13DD6010A01E146D6030AAC
:1008300001E199D6010A01E1A6D61F0A01E1AFD66E
:10084000010A01E1C6D6030A01E1D5D6010A01E198
:10085000E1D6070A01E1EFD6010A01E1F5D6030A64
:1008600001E116D7010A01E11AD70F0A01E12ED7DB
:10087000010A01E142D7030A01E156D7010A9EE0CD
:10088000070A01E176D7010A87E01200666E66501A
:10089000D8A4020E676E120063C066F064C067F0F1
:1008A0001200010E6B6E000C50684F68286A12002F
:1008B000282A50684F6812000BD1110E116010D019
:1008C00078A20ED0000E6B6E8EEC0CF032D9726EE8
:1008D00072C066F033D9FDEC0DF0050E176E050CF5
:1008E000100E1164100C78A2100C172A12000F0EB3
:1008F000166414D0152A4C2A1CD94C24726E0ED9B9
:1009000001E14C6A16D91524726E08D901E1156A05
:10091000166A15C013F0060E176E060C100E166040
:10092000100C000E6B6E16508EEC0CF002D91324D6
:10093000726EF4D8D2EC0BF0162A132AFAD81324CC
:10094000726EECD8D8B4136A1200040E186010D07E
:10095000CCD7176A120003EC0EF006E3040E186001
:1009600003D0070E176E070C03EC0EF0D8A0120090
:10097000030E1864030CEDD778B078A21200116A48
:10098000106A000E6B6E8EEC0CF0156A0F0E4C6E3A
:10099000146A0F0E4B6E166A136A126A7890A5D706
:1009A000C8D81124726EBAD804E1030E186401D0BD
:1009B0009CD7BFD81124726EB1D802E0112A120060
:1009C000040E1860040CB5D81124726EA7D8D8A4F0
:1009D00012000D0E176E0D0C110E106015D078A2BE
:1009E00013D051EC04F08EEC0CF018501D0DF3CF29
:1009F00072F01D0E72267250010F736E73C066F096
:100A00009DD8FDEC0DF071D7100E1064100C78A27B
:100A1000100C090E176E090C100E166014D0010E82
:100A20006B6E16508EEC0CF084D812247ED876D8DB
:100A3000D2EC0BF0162A122A7CD8122476D86ED863
:100A4000D8B4126A12000F0E16640F0C142A4B2A27
:100A500070D84B246AD862D801E14B6A6AD8142452
:100A600064D85CD801E1146A166A14C012F03DD74C
:100A70001950FCEC0CF064BE0AD065D808E378A0ED
:100A800078A205D045EC0DF0020E176E020C78B07E
:100A900078A2120045EC0DF05CD7195092EC0DF0E5
:100AA00024D703EC0EF0D8A01200195092EC0DF0F0
:100AB0000B0E176E0B0C3DD8102437D82FD802E040
:100AC000102A120036D8102430D828D8DDE01200C1
:100AD0001750726E736A7350D8A41200725001E1FD
:100AE0004BD7010A01E15CD7030A01E1E6D6010A0E
:100AF00001E1FDD6060A01E12ED7030A01E125D75F
:100B0000010A01E169D70F0ACCE0010A85E0030A76
:100B1000C4E0010AADE0060ACEE0120072C0F6FFA2
:100B2000020EF76E0800F5501200726E1D0E72264E
:100B30001D0C18501D0DF350010F12006650D8A463
:100B4000020E676E1200B50E635C040E645812004C
:100B5000C0D048BE12004850B6EC0DF063C001F0A2
:100B600064C002F077827790010E076E010CD1D835
:100B700008E1ACA206D0AD6A466A8A86020E076E0C
:100B8000020CC7D8D8A4ACA21200C3D8AD6E014ADB
:100B9000022A12004B0EAE18D8A412007780030E62
:100BA000076E030C472806E0ACA204D047C0ADFF97
:100BB0004768F5D7300E466409D03A0E466006D035
:100BC000ACA204D046C0ADFF466AE9D777B202D0E6
:100BD000ACB202D09EAA120045EC0DF0D70E46EC46
:100BE00004F0FDEC0DF0460EAD6E466A040E076E85
:100BF000040C9EAA1200AE50D9EC0DF0085092ECF5
:100C00000DF0050E076E050C0850FCEC0CF064BEF0
:100C10000FD0BB0E635C090E64580AE345EC0DF07F
:100C2000AF0E46EC04F0FDEC0DF0070E076E070C5E
:100C30000850FCEC0CF064BE06D0BA0E635C090EE2
:100C40006458D8B012009EAA120003EC0EF0D8A08F
:100C5000120051EC04F08EEC0CF0AE50D2EC0BF024
:100C6000060E076E060C03EC0EF0D8A0120065EC21
:100C70000EF055D8FDEC0DF0080E076E080C9EAA7C
:100C80001200AE50D2EC0BF0085092EC0DF0B9D738
:100C900003EC0EF0D8A0120051EC04F08EEC0CF036
:100CA000CF0E46EC04F0FDEC0DF0090E076E090CBA
:100CB00003EC0EF0D8A012005FEC0EF0FA0AD8A4F4
:100CC00012005DEC0EF02BD8FDEC0DF04868076AC1
:100CD00012000750726E736A7350D8A412007250DB
:100CE00001E137D7010A01E142D7030A01E152D7F6
:100CF000010A01E157D7070A01E17BD7010A84E025
:100D0000030ABDE0010AAFE00F0AC2E0010AD0E029
:100D1000120001C0D9FF02C0DAFFDF501200726E6C
:100D200072C066F0676A1200BAD0532808E078AC47
:100D300006D0525092EC0DF0030E2E6E030C532889
:100D4000D8A412005250FCEC0CF064BE1200BED8C5
:100D5000D8A012005428D8A478AC1200545041EC0A
:100D60000EF0546851682F6A2E6A120051505318C1
:100D70000DE15250FCEC0CF064BE02D0A7D806E2A4
:100D80005368302A542A020E2E6E020C5328D8B40F
:100D9000120051505318D8B41200545041EC0EF0C8
:100DA000535005E053509F0F01EC08F001D0300E76
:100DB000546E2F6A53C051F0306A5368D5D7070E6E
:100DC000511808E0090E511805E0515003E0050ED6
:100DD0002E6E050C070E511803E0090E511803E1A1
:100DE000060E2E6E060C5150D8A412002F2A020EA9
:100DF0002F1801E12F6A2F50420F01EC08F041D06B
:100E00005350800A7E0F02E2535007E15350800A8C
:100E1000760F03E2010E2E6E010C53500BE053507F
:100E2000800A7E0F07E2542805E15350300F41EC51
:100E30000EF0C3D75350D8B412005350800A7E0F1F
:100E4000D8B012005428D8B41200545041EC0EF01F
:100E50005468040E2E6E040C5350300F41EC0EF00B
:100E6000ACD7040E301808E151509F0FD96EDA6AE2
:100E7000DF50546E306A78D7030E301804E15150B9
:100E8000300F546E71D7030E306012006DD7040E10
:100E90003018F5E0050E3018E7E0040EF5D72E50B7
:100EA0006A6E6B6A6B50D8A412006A5001E13DD79C
:100EB000010A01E15BD7030A82E0010AA1E0070A07
:100EC000CBE0010ACEE0030AE2E012005A0E635CB6
:100ED000020E645812006FD078A878B602D01F6A4C
:100EE000120078A804D04D68010E1E6E010C78A681
:100EF0001200020E1E6E020C22501F5C13E2350E11
:100F0000636E1F50170D000EF324646E010EF42063
:100F1000656E1AEC0CF0000903E11FC04DF08A86E3
:100F20001F2AE2D722501F18D8A4120078981E6AF0
:100F30001200080E1F180DE021C063F01F50350F7E
:100F400060D821EC0DF0212A1F50350F51D842D81E
:100F5000D0D7080E1F18D8A412001F6A030E1E6EE9
:100F6000030C080E1F1811E021C063F01F50980FEA
:100F700048D821EC0DF0212A1F50980F39D8090EBE
:100F80006826000E692226D8E9D7080E1F18D8A4B3
:100F900012007896212A9F0E211802E1100E216E70
:100FA000202A080E201801E1206A080E221801E00C
:100FB000222A1E6A12001E50686E696A6950D8A4FF
:100FC0001200685089E0010A97E0030AB2E0010AC2
:100FD000C8E01200F3506826F45069221F506824BC
:100FE000E16E000E6920E26EDFCFE7FF1F2A1200DC
:100FF000D96EDA6A2050170D000E686E010E696E08
:101000001200D96EDA6ADF50120083A003D06A6A38
:101010006A2A01D06A6A010E83A2000E020DF3CF84
:101020006BF0010E83A4000E030DF3CF6CF0010EE4
:1010300083A6000E040DF3506C246B246A242A6EE0
:1010400058D02A5006E18C888C9A8C9C2B6A2C2ACA
:1010500012002A50D8B412002D5092EC0DF0030E5D
:101060002C6E030C2A5006E18C988C8A8C9C010E05
:101070002B6EEDD72A50D8B412002D5092EC0DF003
:10108000EED72A5007E18C988C9A8C8C020E2B6E2E
:101090002C6A12002A50D8B412002D5092EC0DF098
:1010A000D6D72D50FCEC0CF064BE1200D0D72A50DD
:1010B00003E1010E2C6E010C2A50D8B4120030D876
:1010C00035EC0EF02DD831EC0EF0C1D72A50D8A453
:1010D00012002D5092EC0DF0BAD72D50FCEC0CF014
:1010E000E3D72A5003E0050E2C6E050C2A50D0E001
:1010F00012002C506A6E6B6A6B50D8A412006A50B2
:10110000A0E0010AAFE0030ABCE0010ACAE0070A56
:10111000CEE0010ADBE0030AE0E0010AE2E01200AF
:101120002A50030DF350A70F2B24D96EDA6ADF5033
:10113000120056D0C2B20BD0C80EC46008D0320E16
:10114000C46405D0070EC26E778E0E2A52D0C2B28A
:101150000FD0C70EC4640CD0020E0F1803E0020EAD
:1011600049EC0EF0020E0F6E070EC26E779EEDD7A1
:10117000C2B23FD0330EC4603CD0080E0F1803E05B
:10118000080E49EC0EF0080EEED7C2B20BD0C80E16
:10119000C46008D0320EC46405D0030EC26E778CD2
:1011A0000E0627D0C2B20FD0C70EC4640CD0060EF4
:1011B0000F1803E0060E49EC0EF0060E0F6E030E3C
:1011C000C26E779CEDD7C2B214D0330EC46011D07A
:1011D000040E0F1803E0040E49EC0EF0040EEED7D7
:1011E0000E50646E656A655004E16450A3E0010A24
:1011F000CCE077BE77AC12000F50D8B41200FF0ECF
:1012000049EC0EF00F6812006F6EBEEC0CF0316E00
:101210006FC034F0326A336A9498959E949A706ADB
:10122000716A6B6A640E6A6E315056EC0DF0030EF3
:101230008FEC0AF06B6A050E6A6E315056EC0DF0B9
:10124000030E8FEC0AF03AD856EC0DF0030E8FEC3B
:101250000AF034D856EC0DF0020E8FEC0AF06B6AEF
:10126000040E6A6E315056EC0DF0280E84EC0DF031
:1012700039EC0CF0080E84EC0DF039EC0CF0010E9A
:1012800084EC0DF051EC0DF056EC0DF039EC0CF057
:10129000060E84EC0DF039EC0CF00F0E84EC0DF022
:1012A000704A712A71BEBDD7715003E1020E705CA5
:1012B000B8E339EC0CF00C0E84EF0DF06B6A010E04
:1012C0006A6E3150120046D04A28D8B412004A50F3
:1012D0000DEC0EF07784020E096E020C77B408D084
:1012E0004A6863EC0EF061EC0EF08A96096A12000F
:1012F0000ABE09D00A500FEC0DF015EC0EF00A688A
:10130000010E096E010CE5EC0DF012E303EC0EF09A
:101310000FE367EC0EF051EC04F08EEC0CF065EC92
:101320000EF0716E71C066F0676AFDEC0DF0E8D7E3
:101330004950800A7F0FD8A012004950300F11EC9D
:101340000EF04968DDD7DFEC0DF0D8A0120051ECAB
:101350000EF0D6D70950716E726A7250D8A412007E
:101360007150B2E0010ABAE0030AEDE01200A96A86
:10137000A69EA69CA680A6B0FED7A8CF22F0A92A3A
:10138000A69EA69CA6B0FED7A8CF21F0A92A656A82
:1013900021D0666AA69EA69CA680A6B0FED727D8B6
:1013A0002DD866501BD8662A080E6664F3D7676A84
:1013B000A69EA69CA680A6B0FED719D8090E6326C5
:1013C000000E64221BD8675009D8672A080E67648C
:1013D000EFD7652A2250655CDCE312006324D96EE6
:1013E000000E6420DA6EA8CFDFFFA92A1200655034
:1013F000170D000E636E010E646E1200F35063262B
:10140000F4506422120030D078A41200010E1D6E38
:101410001B6A1C5092EC0DF0010E1A6E010C050EA9
:101420001D6403D078941A6A1200A80E1B1803E1F9
:101430001D2A1B6AF1D71C50FCEC0CF022D8D8B046
:1014400012008A801C5092EC0DF0020E1A6E020CF3
:101450001C50FCEC0CF015D8D8B012008A901C502F
:1014600092EC0DF01B2AD8D71A506A6E6B6A6B503B
:10147000D8A412006A50C8E0010AD1E0030AE8E0EB
:1014800012001D506A6E6B6A63506A5C6B50800A72
:101490006C6E6450800A6C58120038D00D50FCEC11
:1014A0000CF064BE1200A3EC05F0D8A012000D50A1
:1014B00092EC0DF077AA28D0778859062F0E59188C
:1014C00003E1390E596E58062F0E581803E1350EF8
:1014D000586E56062F0E561803E1390E566E5506F5
:1014E000300E55180AE1300E561807E1300E581824
:1014F00004E1300E591801E177860C2A3B0E0C648A
:1015000003D069EC0EF00C6A0B6A12000B506A6E85
:101510006B6A6B50D8A412006A50C0E01200646E6F
:1015200094962FD88B8864A603D0636A632A01D06F
:10153000636A63462DD8F70B63188B6E64A403D0DF
:10154000636A632A01D0636A23D8FB0B63188B6E2E
:1015500064A203D0636A632A01D0636A63468B5036
:101560006318FD0B63188B6E64A003D0636A632A53
:1015700001D0636A8B506318FE0B63188B6E8B98D7
:1015800012009494949294908B9A8C9E8B88120063
:10159000634663468B506318120067EC0DF0D4EC81
:1015A0000CF0A0EC0DF0E8EC0CF039EC0EF03DEC9A
:1015B0000EF094EC06F0B7EC09F02DEC0EF04DECCB
:1015C0000EF0C0EC0DF029EC0EF025EC0EF0100E34
:1015D0006E6E020E04EC09F045EC0EF0A8EC0CF077
:1015E00063EC09F0A8EC05F04DEC0AF099EC08F07A
:1015F0007BEC01F033EC0DF003EC0AF06BEC07F040
:101600005CEC04F005EC08F094EC06F0AAEC0BF0AE
:10161000E7D7560EF66E1B0EF76E000EF86E00EE54
:10162000A1F010EE15F00900F5CFEEFFE550E15006
:10163000FAE1EC0EF66E1A0EF76E000EF86E00EE82
:1016400042F010EE1CF00900F5CFEEFFE550E1503E
:10165000FAE101EE00F0B80EEE6AE806FDE100EEF8
:1016600080F0210EEE6AE806FDE1786A776A00EE06
:1016700001F0410EEE6AE806FDE179907992000EE4
:10168000F86E0001CDEF0AF0646E64A603D0636AC1
:10169000632A01D0636A634625D8F70B63188B6E03
:1016A00064A403D0636A632A01D0636A1BD8FB0B6E
:1016B00063188B6E64A203D0636A632A01D0636AE5
:1016C00063468B506318FD0B63188B6E64A003D0C8
:1016D000636A632A01D0636A8B506318FE0B631838
:1016E0008B6E1200634663468B5063181200646E63
:1016F00064AE03D0636A632A01D0636A634625D867
:10170000F70B63188B6E64AC03D0636A632A01D055
:10171000636A1BD8FB0B63188B6E64AA03D0636AE1
:10172000632A01D0636A63468B506318FD0B63180C
:101730008B6E64A803D0636A632A01D0636A8B50FE
:101740006318FE0B63188B6E1200634663468B5062
:101750006318120078AE120018D8F76403D008009E
:10176000F55001D019D8D2EC0BF0054A062A0DD855
:10177000F76403D00800F55001D00ED80009D8A4B2
:101780001200789E056A066A120005C0F6FF06C0C0
:10179000F7FFF86A010E1200F6CFE1FFF7CFE2FF84
:1017A000E7501200716E39EC0CF0715058EC0CF0EF
:1017B000322A020E34180CE1270E326409D0326A44
:1017C000332A010E336401D0336A0CD88EEC0CF04E
:1017D0003304D8A41200270E326401D0326A02D832
:1017E0008EEF0CF033C06BF0325012001ED8F29422
:1017F000034A042A480E035CEE0E0458D8A01200D7
:10180000296A070E296401D00DD0CDEC0CF0DE045E
:1018100007E129509AEC0DF00350DE5E0450DD5ACA
:10182000292AEFD7036A046A1200DF0ED76E940EDE
:10183000D66E940C0AD013D86350E16EE26ADE5083
:10184000E61805E1632A644A652A0ED8F4E107D850
:10185000DF50666E09D8676E6650675C120064C020
:10186000D9FF65C0DAFF12006350D96EDA6ADF5023
:10187000120094869484948294808B9A8C8E31503A
:1018800092EC0DF08B888B88000E82B6010E6A6E8A
:101890008B988B988B888B888B988B983150FCEC2D
:1018A0000CF06350641001E012006A50EBE112008A
:1018B000656E94969494949294908B8A8C9E8B8867
:1018C000655077EC0BF00BD8655044EC0BF000D072
:1018D0008B888B98948694849482948012008B8851
:1018E0008B988B988B8812006350D96EDA6ADF5020
:1018F000556E6350D96EDA6AD92ADF50566E63503E
:10190000D96EDA6A020ED926DF50586E6350D96E4E
:10191000DA6A030ED926DF50596E1200706E6B50D2
:1019200004E06F6A400E6E6E02D06E6A6F6A70508D
:101930006E246C6E000E6F206D6E39EC0CF06C50E6
:10194000800984EC0DF06BC033F070C032F01200EF
:10195000310E0101006F096F016B0A6B410E176FA9
:10196000186B440E2E6F2F6B470E456F466B4A0E59
:101970005C6F5D6B050E226E216E050C296A05D029
:10198000292A080E291801E1FF0C07D8DE04F8E027
:1019900004D8010EDF6E295012002950030DF350B8
:1019A000820FD96EDA6A1200636AA96AA86AA69ED3
:1019B000A69CA684F29E550EA76EAA0EA76EA682BE
:1019C000A6B2FED7632A9F0E6364EFD7F28E9F0CF8
:1019D000D09EF28EF28CF28AF294880ED56E15ECBF
:1019E0000CF0D58E296A070E296401D0070CCDECC6
:1019F0000CF0DF6A292AF7D7676E03C068F004C0CD
:101A000069F067509AEC0DF0DECF65F0DDCF66F03F
:101A10006550685C636E66506958646E1200636E50
:101A2000020E631801E1570C060E631801E1440C25
:101A3000080E631801E1530C040E631801E1410C18
:101A4000000C646E63C0A9FF64C0A8FFA69EA69C9C
:101A5000A684F29E550EA76EAA0EA76EA682A6B207
:101A6000FED7F28E1200FA0E4518D8B41200455077
:101A700009E05C2A3A0E5C1803E1300E5C6E5B2ACA
:101A800045061200FA0E456EFA0C39EC0CF0010E08
:101A900084EC0DF006D856EC0DF0000E6B6E8EEF58
:101AA0000CF06B6A030E6A6E315012006D6E6D5051
:101AB00092EC0DF06D50FCEC0CF06A50635C6450DD
:101AC000800A6C6E6B50800A6C58F4E31200030EAF
:101AD000926EE00E936E8A968A908A92C00E946EF1
:101AE0008F0E956E8C6AA68EA69C1200302000FA8E
:101AF000FFFFFFFFFF0F0FFFFFFFFFFFFFFFFF33A2
:101B0000303A303000303000656E9496C1EC0AF007
:101B1000655077EC0BF06FEC0CF0655044EC0BF07B
:101B200068EF0CF0636E635005D803C0DEFF04C09D
:101B3000DDFF1200030DF350800FD96EDA6A120038
:101B4000240EAC6E900EAB6E080EB86E040EB06E26
:101B5000100EAF6E100C4144474A4D5054570001CF
:0B1B600002030405060708090A000B39
:101B6C00656E6550170D000EF324636E010EF420A4
:101B7C00646E1200010EC26E0D0EC16E090EC06EA7
:101B8C007F0EC46E7F0C646E6350980FD96EDA6A48
:101B9C0064C0DFFF1200646E6350350FD96EDA6AD1
:101BAC0064C0DFFF1200636E09EC0EF063C045F0F9
:101BBC00120077B002D0D8901200D880120077B8FB
:101BCC0002D0D8901200D880120077B602D0D890EC
:101BDC001200D880120078B802D0D8901200D880A9
:101BEC001200636E788063C018F07882120066C0B1
:101BFC0005F067C006F0788E120078AE02D0D8904F
:101C0C001200D8801200300E5B6E5C6E300C636E6E
:101C1C0063C048F01200636E63C046F01200636E3E
:101C2C0063C047F01200636E63C049F01200636E2C
:101C3C0063C00AF01200636E63C04AF01200BEEC7F
:101C4C000CF0086E1200BEEC0CF00D6E1200BEEC27
:101C5C000CF01C6E1200636E63C053F01200636EC6
:101C6C0063C050F01200BEEC0CF02D6E1200BEECF6
:101C7C000CF0526E1200636E63C04FF01200BEEC9B
:101C8C000CF0276E1200636E63C04EF01200BEECB7
:101C9C000CF0196E1200778A77961200788C5368C4
:101CAC001200789C53681200180E84EF0DF05B0E36
:101CBC0012004550120077921200779A1200550EBE
:101CCC0012007798120078841200225012004D50A6
:101CDC001200788812007886120078821200485020
:0A1CEC0012007892120077941200A3
:020000040020DA
:08000000FFFFFFFFFFFFFFFF00
:020000040030CA
:0E000000FF061F1EFF8181FF03C003E00340C7
:00000001FF
