:020000040000FA
:0400000019EF00F004
:100008007A82D9CF66F0DACF67F0F3CF68F0F4CF11
:1000180069F0FFEC0BF069C0F4FF68C0F3FF67C03C
:0E002800DAFF66C0D9FF7A921100F4EF0AF0F9
:1002000000312E506C617920612047616D650000DE
:100210000000000000000000000000000000322E7E
:100220004D6F646966792054696D650000000000B7
:100230000000000000000000000000332E53686F33
:10024000772047656E6572616C20546F7020352091
:1002500053636F7265732000342E4C6F676F757433
:10026000000000000000000000000000000000008E
:100270000000000000352E53686F7720416C6C2021
:10028000557365727300000000000000000000005C
:10029000000054494D452052454D41494E494E4775
:1002A0003A004D6F646966792054696D653A004281
:1002B0005945204259452000505357443A20005593
:0702C0005345523A200000F3
:1002C800FAD1AFEC0DF0B80E6D6E6E6A5CEC0EF004
:1002D800010E256E120062EC0EF0D8A01200010E7D
:1002E800726E000E78EC0CF0AD0E6D6E6E6A5CEC02
:1002F8000EF05A68020E256E12005A04D8A409D0CE
:10030800BFEC0EF00009D8B404D0788C030E256E2B
:100318001200020E5A18D8A41200789CF7D75A680F
:100328005968AFEC0DF0BF0E6D6E6D50D8A4020E7B
:100338006E6E5CEC0EF0040E256E120062EC0EF090
:10034800D8A01200010E726E000E78EC0CF0B80EF8
:100358006D6E6D50D8A4020E6E6E5CEC0EF0050E3C
:10036800256E120062EC0EF0D8A01200000E726E1C
:10037800060E78EC0CF0AFEC0EF0000E296E060EAF
:10038800256E12005950800A500FD8A00FD00A0EBF
:100398005A18D8B40BD059502CEC0CF029C06AF07C
:1003A800595036EC0EF0070E256E12000B0E5A1837
:1003B800D8A41200F8D7070E2918D8B408D00B0E05
:1003C8005A18D8B404D0292A5A685968D8D7070EB9
:1003D8002918D8B404D00B0E5A18D8A41200010E4C
:1003E800726E060E78EC0CF029C06AF0000E36EC3E
:1003F8000EF05A685968000E296E080E256E120014
:100408005950800A500FD8A00FD00A0E5A18D8B4E5
:100418000BD059502CEC0CF029C06AF059502EEC36
:100428000EF0090E256E12000B0E5A18D8A41200F1
:10043800F8D7070E2918D8B408D00B0E5A18D8B414
:1004480004D0292A5A685968D8D7070E2918D8B469
:1004580004D00B0E5A18D8A4120029C06AF0000E56
:100468002EEC0EF05A685968000E296EC1EC0EF099
:10047800B2EC0EF00A0E256E120050EC0EF0D8B059
:10048800120074EC0EF0D8A002D0010E01D0000EBC
:10049800266E0B0E256E12000C0E256E1200000E35
:1004A800256E1200AFEC0DF0C5EC0EF0275056EC9F
:1004B8000EF058685A680D0E256E1200080E58186E
:1004C800D8A405D0040E2760E7D7272AE5D7020E5F
:1004D8005818D8A405D02750D8B4DED72706DCD7BB
:1004E8000B0E5A18D8A413D0030E2718D8A40FD06F
:1004F800C7EC0EF0AFEC0DF0AF0E6D6E6D50D8A4DA
:10050800020E6E6E5CEC0EF00E0E256E12000B0ED7
:100518005A18D8A413D02704D8A410D0AFEC0DF0E3
:10052800C7EC0EF0A20E6D6E6D50D8A4020E6E6E62
:100538005CEC0EF05A68100E256E12002750D8A4F5
:1005480012000B0E5A18D8A41200C7EC0EF05A6805
:10055800AFEC0DF0920E6D6E6D50D8A4020E6E6E5B
:100568005CEC0EF0265080EC0EF0150E256E120095
:1005780062EC0EF0D8A0120026501BEC0EF06AC0F8
:100588006DF06BC06EF05CEC0EF0285004EC0EF0D1
:100598000F0E256E1200285087EC0DF06BBE12006E
:1005A8006B0E6A5C090E6B58D8A0120078D762EC03
:1005B8000EF0D8B05ABE47D05A50800A760FD8B03D
:1005C80042D0010E726E000E78EC0CF05A50300FCB
:1005D800406E40502CEC0CF05A68110E256E12003B
:1005E8005ABE31D05A50800A760FD8B02CD05A5003
:1005F800300F416E41502CEC0CF05A683A0E2CEC3E
:100608000CF0120EEBD75ABE1ED05A50800A760F45
:10061800D8B019D05A50300F426E42502CEC0CF022
:100628005A68130EDBD75ABE0ED05A50800A760F7E
:10063800D8B009D05A50300F436E43502CEC0CF010
:100648005A68140ECBD70A0E5A18D8A4120024D709
:100658000B0E5A18D8A4F7D7400E6A6E0DEC0DF0A1
:100668005A681AD70A0E5A18D8A404D062EC0EF0A9
:10067800D8B004D04AEC0EF0D8A007D0AFEC0DF0FB
:10068800C9EC0EF0160E256E12005A50800A7F0F24
:10069800D8A00AD05A50800A760FD8B005D05A5040
:1006A80078EC0EF05A6861D758BE120058507CECAE
:1006B8000EF058685AD72550756E766A7650000A3B
:1006C800D8A412007550000AD8B4FBD5010AD8B4D2
:1006D80002D6030AD8B411D6010AD8B420D6070A1C
:1006E800D8B42CD6010AD8B43DD6030AD8B44AD611
:1006F800010AD8B460D60F0AD8B482D6010AD8B491
:1007080098D6030AD8B4B9D6010AD8B4C5D6070A08
:10071800D8B4C8D6010AD8B4D1D6030AD8B428D7D1
:10072800010AD8B438D71F0AD8B441D7010AD8B4B7
:1007380057D7030AD8B467D7010AD8B474D7070AB9
:10074800D8B486D7010AD8B48DD7030A1200B7D116
:10075800110E116017D078A215D0000E726E000E1F
:1007680078EC0CF018501D0DF350010F756E75C024
:100778006DF06D50D8A4020E6E6E5CEC0EF0050E96
:10078800176E1200100E1164120078A21200172AB8
:1007980012000F0E16642BD0152A562A18501D0D5C
:1007A800F350010F5624756E75C0F6FF020EF76EF2
:1007B8000800F5500009D8A402D0000E566E185053
:1007C8001D0DF350010F1524756E75C0F6FF020E4E
:1007D800F76E0800F5500009D8A402D0000E156E77
:1007E800000E166E15C013F0060E176E1200100ECE
:1007F80016601200000E726E165078EC0CF018504D
:100808001D0DF350010F1324756E75C0F6FF020E0F
:10081800F76E0800F5502CEC0CF0162A132A185025
:100828001D0DF350010F1324756E75C0F6FF020EEF
:10083800F76E0800F5500009D8A41200000E136ED8
:100848001200040E186012D0A2D7000E176E120004
:1008580062EC0EF0D8A006D0040E186003D0070E84
:10086800176E120062EC0EF0D8A01200030E186486
:100878001200EBD778A0120078A21200000E116EB9
:10088800000E106E000E726E000E78EC0CF0000E6A
:10089800156E0F0E566E000E146E0F0E556E000E6E
:1008A800166E000E136E000E126E789070D71850E8
:1008B8001D0DF350010F1124756E75C0F6FF020E61
:1008C800F76E0800F5500009D8A404D0030E186488
:1008D80001D05DD718501D0DF350010F1124756E0E
:1008E80075C0F6FF020EF76E0800F5500009D8B47F
:1008F80002D0112A1200040E1860120018501D0DA3
:10090800F350010F1124756E75C0F6FF020EF76ED5
:100918000800F5500009D8A412000D0E176E120039
:10092800110E106019D078A217D0010E726E000E49
:1009380078EC0CF018501D0DF3CF75F01D0E7526D0
:100948007550010F766E76C06DF06D50D8A4020E0A
:100958006E6E5CEC0EF01BD7100E1064120078A2BD
:100968001200090E176E1200100E16602BD0010E21
:10097800726E165078EC0CF018501D0DF350010FE4
:100988001224756E1D0E752675C0F6FF020EF76EE1
:100998000800F5502CEC0CF0162A122A18501D0DE0
:1009A800F350010F1224756E1D0E752675C0F6FFE3
:1009B800020EF76E0800F5500009D8A41200000EC8
:1009C800126E12000F0E16641200142A552A1850BF
:1009D8001D0DF350010F5524756E1D0E752675C03B
:1009E800F6FF020EF76E0800F5500009D8A402D0F1
:1009F800000E556E18501D0DF350010F1424756E1E
:100A08001D0E752675C0F6FF020EF76E0800F5502C
:100A18000009D8A402D0000E146E000E166E14C081
:100A280012F0B5D6195087EC0DF06BBE0ED0B50E8E
:100A38006A5C040E6B58D8B078B007D078A205D09D
:100A4800AFEC0DF0020E176E120078A0120078A21B
:100A58001200AFEC0DF0F9D6195004EC0EF097D651
:100A680062EC0EF0D8A01200195004EC0EF00B0E38
:100A7800176E120018501D0DF350010F1024756EDB
:100A88001D0E752675C0F6FF020EF76E0800F550AC
:100A98000009D8B402D0102A120018501D0DF350C6
:100AA800010F1024756E1D0E752675C0F6FF020E17
:100AB800F76E0800F5500009D8A41200C3D71750E4
:100AC800756E766A7650000AD8A412007550000A2E
:100AD800D8B4D0D6010AD8B4EAD6030AD8B438D6DE
:100AE800010AD8B456D6060AD8B4B2D6030AD8B47E
:100AF800A8D6010AD8B414D70F0AD8B4B1D7010AB6
:100B0800D8B432D7030AD8B4A7D7010AD8B48AD739
:100B1800060AD8A41200AED7DFD05D28D8A478AED4
:100B280006D05C5004EC0EF0030E2F6E12005D2808
:100B3800D8A412005C5087EC0DF06BBE12005A0E60
:100B48006A5C020E6B58D8A012005E28D8B4120056
:100B580078AE12005E509CEC0EF05E685B68000E8A
:100B6800306E000E2F6E12005B505D18D8A411D0A5
:100B78005C5087EC0DF06BBE06D05A0E6A5C020E14
:100B88006B58D8B006D05D68312A5E2A020E2F6EE7
:100B980012005D28D8B412005B505D18D8B412005A
:100BA8005E509CEC0EF05D50D8B406D05D50420FFC
:100BB800D96EDA6ADF5001D0300E5E6E000E306EEC
:100BC8005DC05BF0000E316E5D68000E2F6E120086
:100BD800070E5B18D8B40AD0090E5B18D8B406D033
:100BE8005B50D8B403D0050E2F6E1200070E5B18A9
:100BF800D8B404D0090E5B18D8A403D0060E2F6E03
:100C080012005B50D8A41200302A020E3018D8A463
:100C180002D0000E306E30504D0FD96EDA6ADF50B8
:100C28004BD05D50800A7E0FD8B003D05D50D8A459
:100C380008D05D50800A760FD8B003D0010E2F6E11
:100C480012005D50D8B40ED05D50800A7E0FD8B027
:100C580009D05E28D8A406D05D50300F9CEC0EF069
:100C68005D687FD75D50D8B412005D50800A7E0F52
:100C7800D8B012005E28D8B412005E509CEC0EF07A
:100C88005E68040E2F6E12005D50300F9CEC0EF063
:100C9800E7D7040E3118D8A409D05B50420FD96E9B
:100CA800DA6ADF505E6E000E316E5BD7030E3118C4
:100CB800D8A404D05B50300F5E6E53D7030E31605A
:100CC80012004FD7040E3118D8B4F4D7050E3118D6
:100CD800D8B4E3D7040EF3D72F50716E726A7250EE
:100CE800000AD8A412007150000AD8B416D7010A15
:100CF800D8B43AD7030AD8B46BD7010AD8B491D775
:100D0800070AD8B4C1D7010AD8B4C3D7030AD8A4EC
:100D18001200D8D7A7D078AA78B805D0000E206ED0
:100D2800000E1F6E120078AA04D05768010E1E6EBE
:100D3800120078A81200020E1E6E12002350205CCA
:100D4800D8B014D0370E6A6E2050170D000EF32459
:100D58006B6E010EF4206C6E55EC0CF00009D8A4F3
:100D680003D020C057F08A86202AE0D723502018C5
:100D7800D8A41200789A000E1E6E1200080E2018D1
:100D8800D8B422D022C06AF02050370FD96EDA6A60
:100D9800DF509DEC0DF0222A2050370FD96EDA6A09
:100DA8002150170D000E6F6E010E706EF3506F26F6
:100DB800F450702220506F24E16E000E7020E26E15
:100DC800DFCFE7FF202AB7D7080E2018D8A41200D3
:100DD800000E206E030E1E6E1200080E2018D8B4E6
:100DE80028D022C06AF02050980FD96EDA6ADF50F6
:100DF8009DEC0DF0222A2050980FD96EDA6A215006
:100E0800170D000E6F6E010E706E090E6F26000E24
:100E18007022F3506F26F450702220506F24E16E38
:100E2800000E7020E26EDFCFE7FF202A030E1E6E51
:100E38001200080E2018D8A412007898222A9F0EB3
:100E48002218D8A402D0100E226E212A080E2118CA
:100E5800D8A402D0000E216E080E2318D8B48BD760
:100E6800232A89D71E506F6E706A7050000AD8A462
:100E780012006F50000AD8B44ED7010AD8B45ED712
:100E8800030AD8B47BD7010AD8A41200A6D783A036
:100E980003D0716A712A01D0716A83A202D0010E4F
:100EA80001D0000E020DF3CF72F083A402D0010E20
:100EB80001D0000E030DF3CF73F083A602D0010E0C
:100EC80001D0000E040DF3507324722471242B6E8C
:100ED8006FD02B50D8A407D08C888C9A8C9C000E8D
:100EE8002C6E2D2A12002B50D8B412002E5004EC70
:100EF8000EF0030E2D6E12002B50D8A405D08C983E
:100F08008C8A8C9C010EECD72B50D8B412002E5032
:100F180004EC0EF0EED72B50D8A408D08C988C9AFD
:100F28008C8C020E2C6E000E2D6E12002B50D8B435
:100F380012002E5004EC0EF0D4D72E5087EC0DF092
:100F48006BBE1200CED72B50D8A403D0010E2D6E45
:100F580012002B50D8B412002B50030DF3509E0FE3
:100F68002C24D96EDA6ADF5090EC0EF02B50030D6A
:100F7800F3509E0F2C24D96EDA6ADF508CEC0EF0F9
:100F8800B0D72B50D8A412002E5004EC0EF0A9D7DD
:100F98002E5087EC0DF0D4D72B50D8B403D0050EC3
:100FA8002D6E12002B50D8A41200000E2D6E1200C8
:100FB8002D50716E726A7250000AD8A412007150D6
:100FC800000AD8B486D7010AD8B496D7030AD8B489
:100FD800A2D7010AD8B4B1D7070AD8B4B4D7010A3E
:100FE800D8B4CFD7030AD8B4D3D7010AD8A41200EB
:100FF800D3D75AD0C2B20BD0C80EC46008D0320EB4
:10100800C46405D0070EC26E778E0E2A5BD0C2B2BA
:1010180010D0C70EC4640DD0020E0F18D8B403D078
:10102800020EA4EC0EF0020E0F6E070EC26E779E33
:10103800ECD7C2B247D0330EC46044D0080E0F18A4
:10104800D8B403D0080EA4EC0EF0080EEDD7C2B247
:101058000BD0C80EC46008D0320EC46405D0030E8D
:10106800C26E778C0E062ED0C2B210D0C70EC464E2
:101078000DD0060E0F18D8B403D0060EA4EC0EF04F
:10108800060E0F6E030EC26E779CECD7C2B21AD052
:10109800330EC46017D0040E0F18D8B403D0040E52
:1010A800A4EC0EF0040EEDD70E506B6E6C6A6C500B
:1010B800000AD8A407D06B50000AD8B49BD7010AFD
:1010C800D8B4C5D777AE120077AC12000F50D8B499
:1010D8001200FF0EA4EC0EF00F6812000001C06FA2
:1010E800B9EC0CF0326EC0C036F075C035F0000EA9
:1010F800336E33C034F09498959E949A000E000194
:10110800C26F000EC16F000E726E640E716E3250A7
:10111800C1EC0DF0030EB7EC0AF0000E726E050E6E
:10112800716E3250C1EC0DF0030EB7EC0AF0000EF0
:10113800726E010E716E3250C1EC0DF0030EB7ECF9
:101148000AF0000E726E010E716E3250C1EC0DF095
:10115800020EB7EC0AF0000E726E040E716E325079
:10116800C1EC0DF0280E41EC0DF099EC0CF0080ED6
:1011780041EC0DF099EC0CF0010E41EC0DF0000E75
:10118800726E030E716E3250C1EC0DF099EC0CF0DA
:10119800060E41EC0DF099EC0CF00F0E41EC0DF041
:1011A8000001C14BC22BC2BFAED7C25104E1020E2F
:1011B800C15DD8A0A8D799EC0CF00C0E41EC0DF04D
:1011C80012005AD052BE120052501BEC0EF06AC0E8
:1011D80001F06BC002F077827790010E076E120063
:1011E80001C0D9FF02C0DAFFDF50D8B4ACA208D0E2
:1011F800000EAD6E000E506E8A86020E076E12004B
:1012080001C0D9FF02C0DAFFDF50D8B41200ACA287
:10121800120001C0D9FF02C0DAFFDF50AD6E014AEB
:10122800022A12004B0EAE18D8A412007780030EC3
:10123800076E12005128D8A4ACA204D051C0ADFF4B
:101248005168F5D7300E50640CD03A0E506009D072
:10125800ACA207D050C0ADFF000E506E030E076E53
:10126800120077B21200ACA21200460EAD6E000E4C
:10127800506E040E076E120007506D6E6E6A6E5047
:10128800000AD8A412006D50000AD8B49BD7010AEE
:10129800D8B4A6D7030AD8B4C5D7010AD8B4CAD7D0
:1012A800070A12004AD05428D8B41200545068ECE7
:1012B8000EF07784020E096E120077B409D05468D4
:1012C800B7EC0EF0B5EC0EF0000E096E8A9612001F
:1012D8000ABE09D00A50F2EC0CF070EC0EF00A6865
:1012E800010E096E120044EC0EF0D8A014D062EC86
:1012F8000EF0D8A010D0BBEC0EF0010E726E000EEE
:1013080078EC0CF0B9EC0EF0736E73C06DF06E6A89
:101318005CEC0EF0E5D75350800A7F0FD8A012007E
:101328005350300F6CEC0EF05368DAD73EEC0EF0E9
:10133800D8A01200ACEC0EF0D3D70950736E746AC3
:101348007450000AD8A412007350000AD8B4ABD75E
:10135800010AD8B4B2D7030AD8A41200E7D748D0F4
:1013680078A41200010E1D6E000E1B6E1C5004ECBA
:101378000EF0010E1A6E1200050E1D6404D078944A
:10138800000E1A6E1200A80E1B18D8A404D01D2A2D
:10139800000E1B6EEED71C5087EC0DF01D50716EC1
:1013A800726A6A50715C7250800A736E6B50800A60
:1013B8007358D8B012008A801C5004EC0EF0020E4C
:1013C8001A6E12001C5087EC0DF01D50716E726A77
:1013D8006A50715C7250800A736E6B50800A735841
:1013E800D8B012008A901C5004EC0EF01B2AC1D70A
:1013F8001A50716E726A7250000AD8A412007150A5
:10140800000AD8B4ADD7010AD8B4B6D7030AD8A40D
:101418001200D8D7000EA96EA69EA69CA680A6B0DC
:10142800FED7A8CF23F0A92AA69EA69CA6B0FED7D1
:10143800A8CF22F0A92A000E6C6E41D0000E6D6E66
:10144800A69EA69CA680A6B0FED76C50170D000ECF
:101458006A6E010E6B6EF3506A26F4506B226D5063
:101468006A24D96E000E6B20DA6EA8CFDFFFA92A96
:101478006D2A080E6D64E4D7000E6E6EA69EA69CBB
:10148800A680A6B0FED76C50170D000E6A6E010E2E
:101498006B6E090E6A26000E6B22F3506A26F45012
:1014A8006B226E506A24D96E000E6B20DA6EA8CFBC
:1014B800DFFFA92A6E2A080E6E64E0D76C2A235033
:1014C8006C5CD8B01200BAD742D00D5087EC0DF042
:1014D8006BBE1200B50E6A5C040E6B58D8A01200E1
:1014E8000D5004EC0EF077AA2FD0778863062F0EE4
:1014F8006318D8A403D0390E636E62062F0E6218E3
:10150800D8A403D0350E626E60062F0E6018D8A4DA
:1015180003D0390E606E5F06300E5F18D8A40CD069
:10152800300E6018D8A408D0300E6218D8A404D0A1
:10153800300E6318D8B477860C2A3B0E0C6404D09E
:10154800BDEC0EF0000E0C6E000E0B6E12000B5070
:10155800716E726A7250000AD8A412007150000AA3
:10156800D8A41200B2D76B6E9496949494929490E7
:101578008B9A8C9E8B888B886BA603D06A6A6A2AA2
:1015880001D06A6A6A466A466A468B506A18F70B3F
:101598006A188B6E6BA403D06A6A6A2A01D06A6AD9
:1015A8006A466A468B506A18FB0B6A188B6E6BA2E8
:1015B80003D06A6A6A2A01D06A6A6A468B506A1836
:1015C800FD0B6A188B6E6BA003D06A6A6A2A01D079
:1015D8006A6A8B506A18FE0B6A188B6E8B98120019
:1015E800E80EF66E1B0EF76E000EF86E00EEA1F018
:1015F80010EE1FF00900F5CFEEFFE550E150FAE1DB
:10160800A60EF66E1B0EF76E000EF86E00EE44F096
:1016180010EE21F00900F5CFEEFFE550E150FAE1B8
:1016280001EE00F0B80EEE6AE806FDE100EE80F08B
:10163800210EEE6AE806FDE1796A786A776A00EEBB
:1016480001F0430EEE6AE806FDE17A907A92000E08
:10165800F86E000130EF0BF0E4EC0DF05AEC0DF0F1
:1016680010EC0EF0D6EC0CF094EC0EF098EC0EF0BA
:1016780090EC05F00EEC0AF088EC0EF0A8EC0EF0F9
:1016880025EC0EF084EC0EF0100E756E020E72EC66
:1016980008F0A0EC0EF071EC0DF056EC09F0E5EC5A
:1016A80008F068EC0AF0FDEC07F064EC01F0B3EC2C
:1016B80009F08EEC06F0ABEC03F04BEC07F090EC85
:1016C80005F0D0EC0BF0E9D76B6E6BA603D06A6A15
:1016D8006A2A01D06A6A6A466A466A468B506A185C
:1016E800F70B6A188B6E6BA403D06A6A6A2A01D05A
:1016F8006A6A6A466A468B506A18FB0B6A188B6ED0
:101708006BA203D06A6A6A2A01D06A6A6A468B5059
:101718006A18FD0B6A188B6E6BA003D06A6A6A2A76
:1017280001D06A6A8B506A18FE0B6A188B6E120019
:101738006B6E6BAE03D06A6A6A2A01D06A6A6A461F
:101748006A466A468B506A18F70B6A188B6E6BAC40
:1017580003D06A6A6A2A01D06A6A6A466A468B5066
:101768006A18FB0B6A188B6E6BAA03D06A6A6A2A1E
:1017780001D06A6A6A468B506A18FD0B6A188B6E2C
:101788006BA803D06A6A6A2A01D06A6A8B506A1801
:10179800FE0B6A188B6E120079A0120005C0F6FFC6
:1017A80006C0F7FFF86A010EF76403D00800F55089
:1017B80005D0F6CFE1FFF7CFE2FFE7502CEC0CF0B5
:1017C800054A062A05C0F6FF06C0F7FFF86A010EAB
:1017D800F76403D00800F55005D0F6CFE1FFF7CF46
:1017E800E2FFE7500009D8A412007990000E056EB8
:1017F800000E066E1200DF0ED76E940ED66EF294AF
:10180800034A042A480E035CEE0E0458D8A01200BE
:10181800000E2A6E070E2A6401D015D02A50030D37
:10182800F350820FD96EDA6ADE04D8A40AD02A509F
:10183800030DF350800FD96EDA6A0350DE5E045050
:10184800DD5A2A2AE7D7000E046E000E036E120036
:10185800736E99EC0CF0735028EC0DF0332A020EDD
:101868003618D8A410D0270E33640DD0000E336E6E
:10187800342A010E346402D0000E346E34C072F083
:10188800335078EC0CF03404D8A41200270E3364DB
:1018980002D0000E336E34C072F0335078EC0CF086
:1018A80012000ED06BC0D9FF6CC0DAFF6A50E16E2F
:1018B800E26ADE50E618D8A409D06A2A6B4A6C2A74
:1018C8006A50D96EDA6ADF50D8A4ECD76BC0D9FF5A
:1018D8006CC0DAFFDF506D6E6A50D96EDA6ADF507D
:1018E8006E6E6D506E5C12000001C46F7250D8B4F9
:1018F80005D0000E0001C36F400E04D0000E000199
:10190800C36F000EC26FC451C225C06F000EC32141
:10191800C16F99EC0CF00001C051800941EC0DF049
:1019280072C034F0C4C033F0120094869484948258
:1019380094808B9A8C8E325004EC0EF08B888B88B6
:10194800000E82B6010E716E8B988B988B888B88EF
:101958008B988B98325087EC0DF06A506B10D8A496
:1019680012007150D8B41200E9D7000E2A6E07D0C1
:101978002A2A080E2A18D8A402D0FF0E12002A50CC
:10198800030DF350820FD96EDA6ADE04D8B4F0D7AB
:101998002A50030DF350820FD96EDA6A010EDF6EFA
:1019A8002A501200D09EF28EF28CF28AF294880E9F
:1019B800D56EDF0ED76E940ED66ED58E000E2A6EBB
:1019C800070E2A6401D012002A50030DF350820F2B
:1019D800D96EDA6A000EDF6E2A2AF2D76A6E020E14
:1019E8006A18D8A402D0570E1200060E6A18D8A496
:1019F80002D0440E1200080E6A18D8A402D0530E62
:101A08001200040E6A18D8A402D0410E1200000E6B
:101A180012006A50D96EDA6ADF505F6E6A50D96E6A
:101A2800DA6A010ED926DF50606E6A50D96EDA6A1A
:101A3800020ED926DF50626E6A50D96EDA6A030E3A
:101A4800D926DF50636E12006C6E9496949494922B
:101A580094908B8A8C9E8B886C509CEC0BF08B88B6
:101A68008B988B988B886C5068EC0BF08B888B98D4
:101A7800948694849482948012006C6E94969494C4
:101A8800949294908B9A8C9E8B886C509CEC0BF063
:101A98008B888B988B988B886C5068EC0BF08B88B4
:101AA8008B9894869484948294801200000E6A6EB7
:101AB800000EA96E000EA86EA69EA69CA684F29E95
:101AC800550EA76EAA0EA76EA682A6B2FED76A2AE0
:101AD8009F0E6A64EDD7F28E1200010E0101006FAD
:101AE800010E096F310E176F310E206F000E016F56
:101AF800000E0A6F000E186F000E216F020E236E83
:101B0800020E226E12006E6E03C06FF004C070F0F9
:101B18006E50030DF350800FD96EDA6ADECF6CF089
:101B2800DDCF6DF06C506F5C6A6E6D5070586B6EE7
:101B380012006B6E6AC0A9FF6BC0A8FFA69EA69C88
:101B4800A684F29E550EA76EAA0EA76EA682A6B20E
:101B5800FED7F28E120099EC0CF0010E41EC0DF05C
:101B6800000E726E030E716E3250C1EC0DF0000E55
:101B7800726E000E78EC0CF01200746E745004EC67
:101B88000EF0745087EC0DF071506A5C6B50800A4F
:101B9800736E7250800A7358D8B01200F2D741445D
:101BA800474A4D50545700302000FFFFFFFFFF0FFA
:0F1BB8000FFFFFFFFFFFFFFFFF33303A3030001A
:101BC800030E926EE00E936E8A968A908A92C00EE9
:101BD800946E8F0E956E000E8C6EA68EA69C1200CB
:101BE8000102030405060708090A000B322E5245B4
:0F1BF80047495354455200312E4C4F47494E0038
:101C08006A6E6A50030DF350800FD96EDA6A03C00A
:101C1800DEFF04C0DDFF1200240EAC6E900EAB6E2A
:101C2800080EB86E040EB06E100EAF6E12006C6E19
:101C38006C50170D000EF3246A6E010EF4206B6EC3
:101C48001200010EC26E0D0EC16E090EC06E7F0E1F
:101C5800C46E12006B6E6A50980FD96EDA6A6BC048
:101C6800DFFF12006B6E6A50370FD96EDA6A6BC0ED
:101C7800DFFF120077B002D0D8901200D88012008F
:101C880077B802D0D8901200D880120077B602D068
:101C9800D8901200D880120078BA02D0D8901200DA
:101CA800D88012006A6E78806AC018F078821200B4
:101CB8006DC005F06EC006F07980120079A002D0E0
:101CC800D8901200D88012006A6E6AC052F01200D2
:101CD8006A6E6AC050F012006A6E6AC051F0120053
:101CE80057C06AF06A3012006A6E6AC053F0120078
:101CF8006A6E6AC00AF012006A6E6AC054F0120076
:101D0800B9EC0CF00D6E1200B9EC0CF01C6E120060
:101D18006A6E6AC05DF012006A6E6AC05AF01200FC
:101D2800B9EC0CF02E6E1200B9EC0CF05C6E1200DF
:101D38006A6E6AC059F01200B9EC0CF0286E1200F5
:101D48006A6E6AC058F01200B9EC0CF0196E1200F5
:101D5800778A77961200788E5D681200789E5D68A3
:101D6800120077921200779A12005F0E120077988D
:101D780012007884120023501200788A12007888A2
:0E1D88001200788212007892120077941200F6
:020000040020DA
:08000000FFFFFFFFFFFFFFFF00
:020000040030CA
:0E000000FF061F1EFF8181FF03C003E00340C7
:00000001FF
