:020000040000FA
:0400000019EF00F004
:100008007682D9CF60F0DACF61F0F3CF62F0F4CF27
:1000180063F0FAEC04F063C0F4FF62C0F3FF61C060
:0E002800DAFF60C0D9FF7692110050EF05F0AC
:1002000000322E524547495354455200312E4C4F2F
:1002100047494E00505357443A2000555345523AEF
:03022000200000BB
:10022400D1D066EC06F00C0E646EC0EC06F0010E44
:10023400346E1200B4EC06F0D8A01200010E6C6EFD
:10024400000E94EC05F0010E646EC0EC06F04E68EE
:10025400020E346E12004E04D8A409D0DFEC06F06E
:100264000009D8B404D07582030E346E1200020E55
:100274004E18D8A41200DFEC06F0736E080E7360FB
:1002840012007592F1D74E6866EC06F01B0E646E90
:10029400C0EC06F0040E346E1200B4EC06F0D8A0E4
:1002A4001200010E6C6E000E94EC05F0140E646ED8
:1002B400C0EC06F0050E346E1200B4EC06F0D8A0C3
:1002C4001200000E6C6E060E94EC05F0DCEC06F0E9
:1002D400000E366E060E346E12004D50800A500F1A
:1002E400D8A014D04E50800A750FD8B00FD04D50FE
:1002F40027EC05F03650220FD96EDA6A4DC0DFFFC5
:100304004E684D68362A070E346E12000B0E4E18D6
:10031400D8A41200080E366E070E346E1200080EB2
:100324003618D8A4D7D7080E3618D8A41200010E50
:100334006C6E060E94EC05F03650220FD96EDA6A14
:100344004DC0DFFF4E684D68000E366E080E346EE9
:1003540012004D50800A500FD8A014D04E50800A7D
:10036400750FD8B00FD04D5027EC05F03650190F4B
:10037400D96EDA6A4DC0DFFF4E684D68362A090E21
:10038400346E12000B0E4E18D8A41200080E366EEE
:10039400090E346E1200080E3618D8A4D7D7080EEA
:1003A4003618D8A412003650190FD96EDA6A4DC027
:1003B400DFFF4E684D68000E366E66EC06F00A0EDE
:1003C400346E12003450736E746A7450000AD8A4E8
:1003D40012007350000AD8B424D7010AD8B42AD71B
:1003E400030AD8B438D7010AD8B44DD7070AD8B409
:1003F40054D7010AD8B461D7030AD8B46ED7010A16
:10040400D8B48DD70F0AD8B4A4D7010AD8B4C3D7A7
:10041400030A1200B7D05128D8A475A406D05050AE
:10042400A8EC06F0030E3C6E12005128D8A412006A
:10043400505050EC06F065BE12005A0E645C020E79
:100444006558D8A012005228D8B4120075A412001E
:100454005250D4EC06F052684F6812004F505118B5
:10046400D8A410D0505050EC06F065BE06D05A0EF9
:10047400645C020E6558D8B005D051683D2A522AF2
:100484003C2A12005128D8B412004F505118D8B445
:1004940012005250D4EC06F05150420FD96EDA6A71
:1004A400DF50526E51C04FF0000E3D6E51683C0655
:1004B4001200070E4F18D8B407D0090E4F18D8B43D
:1004C40003D0050E3C6E1200070E4F18D8B404D0AA
:1004D400090E4F18D8A41200060E3C6E120051509B
:1004E400800A7E0FD8A008D05150800A760FD8B069
:1004F40003D0010E3C6E12005150800A7E0FD8B01A
:100504000BD05228D8A408D05150300FD4EC06F0A8
:100514005168000E3C6E12005150800A7E0FD8B014
:1005240012005228D8B412005250D4EC06F052688B
:100534003C2A12005150300FD4EC06F0E9D7040ED7
:100544003D18D8A409D04F50420FD96EDA6ADF5053
:10055400526E000E3D6EDDD7030E3D18D8A404D0B4
:100564004F50300F526ED5D7030E3D601200D1D7D5
:10057400040E3D18D8B4F4D7050E3D18D8B4E3D70B
:10058400040EF3D73C506B6E6C6A6C50000AD8A40E
:1005940012006B50000AD8B43ED7010AD8B45ED713
:1005A400030AD8B486D7010AD8B499D7070AD8B4AD
:1005B400C1D7010AD8B4C3D7030AD8A41200D8D724
:1005C40083A003D06B6A6B2A01D06B6A83A202D02A
:1005D400010E01D0000E020DF3CF6CF083A402D003
:1005E400010E01D0000E030DF3CF6DF083A602D0EF
:1005F400010E01D0000E040DF3506D246C246B2405
:10060400386E6FD03850D8A407D08C888C9A8C9CC4
:10061400000E396E3A2A12003850D8B412003B50FA
:10062400A8EC06F0030E3A6E12003850D8A405D098
:100634008C988C8A8C9C010EECD73850D8B412005C
:100644003B50A8EC06F0EED73850D8A408D08C98CC
:100654008C9A8C8C020E396E000E3A6E1200385051
:10066400D8B412003B50A8EC06F0D4D73B5050EC61
:1006740006F065BE1200CED73850D8A403D0010EC0
:100684003A6E12003850D8B412003850030DF350AB
:10069400500F3924D96EDA6ADF50C8EC06F03850AE
:1006A400030DF350500F3924D96EDA6ADF50C4ECCD
:1006B40006F0B0D73850D8A412003B50A8EC06F08E
:1006C400A9D73B5050EC06F0D4D73850D8B403D057
:1006D400050E3A6E12003850D8A41200000E3A6E7D
:1006E40012003A506B6E6C6A6C50000AD8A4120067
:1006F4006B50000AD8B486D7010AD8B496D7030A37
:10070400D8B4A2D7010AD8B4B1D7070AD8B4B4D799
:10071400010AD8B4CFD7030AD8B4D3D7010AD8A4CE
:100724001200D3D7706EB1EC05F03F6E70C043F089
:100734006FC042F0000E406E40C041F09498959E08
:10074400949A000E726E000E716E000E6C6E640E42
:100754006B6E3F5078EC06F0030E55EC04F0000E7F
:100764006C6E050E6B6E3F5078EC06F0030E55EC84
:1007740004F0000E6C6E010E6B6E3F5078EC06F0C8
:10078400030E55EC04F0000E6C6E010E6B6E3F50C0
:1007940078EC06F0020E55EC04F0000E6C6E040EBC
:1007A4006B6E3F5078EC06F0280E1FEC06F074ECEC
:1007B40005F0080E1FEC06F074EC05F0010E1FECBA
:1007C40006F0000E6C6E030E6B6E3F5078EC06F074
:1007D40074EC05F0060E1FEC06F074EC05F00F0E39
:1007E4001FEC06F0714A722A72BEAFD7725004E150
:1007F400020E715CD8A0A9D7BAEC06F01200000E64
:10080400A96EA69EA69CA680A6B0FED7A8CF32F05D
:10081400A92AA6B0FED7A8CF31F0A92A000E666E89
:100824003DD0000E676EA680A6B0FED76650120DAE
:10083400000E646E010E656EF3506426F45065225A
:1008440067506424D96E000E6520DA6EA8CFDFFFEE
:10085400A92A672A080E6764E6D7000E686EA68088
:10086400A6B0FED76650120D000E646E010E656EC2
:10087400090E6426000E6522F3506426F4506522A6
:1008840068506424D96E000E6520DA6EA8CFDFFFAD
:10089400A92A682A080E6864E2D7662A3250665C80
:1008A400D8B01200BED7656E9496949494929490A6
:1008B4008B9A8C9E8B888B8865A603D0646A642A85
:1008C40001D0646A6446644664468B506418F70B2E
:1008D40064188B6E65A403D0646A642A01D0646AC8
:1008E400644664468B506418FB0B64188B6E65A2D7
:1008F40003D0646A642A01D0646A64468B50641825
:10090400FD0B64188B6E65A003D0646A642A01D061
:10091400646A8B506418FE0B64188B6E8B981200FB
:10092400656E65A603D0646A642A01D0646A64466D
:10093400644664468B506418F70B64188B6E65A488
:1009440003D0646A642A01D0646A644664468B50A6
:100954006418FB0B64188B6E65A203D0646A642A66
:1009640001D0646A64468B506418FD0B64188B6E66
:1009740065A003D0646A642A01D0646A8B50641849
:10098400FE0B64188B6E1200656E65AE03D0646A4C
:10099400642A01D0646A6446644664468B506418D1
:1009A400F70B64188B6E65AC03D0646A642A01D0BB
:1009B400646A644664468B506418FB0B64188B6E3F
:1009C40065AA03D0646A642A01D0646A64468B50C1
:1009D4006418FD0B64188B6E65A803D0646A642ADE
:1009E40001D0646A8B506418FE0B64188B6E12007D
:1009F400DF0ED76E940ED66EF2942F4A302A480E2C
:100A04002F5CEE0E3058D8A01200000E376E070E81
:100A1400376401D015D03750030DF350030FD96E4E
:100A2400DA6ADE04D8A40AD03750030DF350010F5C
:100A3400D96EDA6A2F50DE5E3050DD5A372AE7D796
:100A4400000E306E000E2F6E1200726E74EC05F004
:100A5400725006EC06F0402A020E4318D8A410D0B7
:100A6400270E40640DD0000E406E412A010E4164F1
:100A740002D0000E416E41C06CF0405094EC05F081
:100A84004104D8A41200270E406402D0000E406E28
:100A940041C06CF0405094EC05F01200340EF66E38
:100AA4000D0EF76E000EF86E00EE44F010EE1BF023
:100AB4000900F5CFEEFFE550E150FAE101EE00F058
:100AC400900EEE6AE806FDE1756A00EE01F0430E51
:100AD400EE6AE806FDE176907692000EF86E00016B
:100AE400CEEF05F094869484948294808B9A8C8EB5
:100AF4003F50A8EC06F08B888B88000E82B6010E5E
:100B04006B6E8B988B988B888B888B988B983F50C7
:100B140050EC06F064506510D8A412006B50D8B4A1
:100B24001200E9D7716E6C50D8B404D0000E706E08
:100B3400400E03D0000E706E000E6F6E71506F2465
:100B44006D6E000E70206E6E74EC05F06D508009B1
:100B54001FEC06F06CC041F071C040F01200000EB2
:100B6400376E07D0372A080E3718D8A402D0FF0EE4
:100B740012003750030DF350030FD96EDA6ADE0406
:100B8400D8B4F0D73750030DF350030FD96EDA6A97
:100B9400010EDF6E375012008AEC06F0EAEC05F025
:100BA400CCEC06F0D0EC06F00CEC02F001EC04F016
:100BB400100E6F6E020E94EC03F0D8EC06F012ECFB
:100BC40001F0E2EC02F00CEC02F038EC06F0F7D79E
:100BD400D09EF28EF28CF28AF294880ED56EDF0EDD
:100BE400D76E940ED66ED58E000E376E070E376410
:100BF40001D012003750030DF350030FD96EDA6A97
:100C0400000EDF6E372AF2D7666E9496949494920F
:100C140094908B8A8C9E8B886650C6EC04F08B88EB
:100C24008B988B988B88665092EC04F08B888B9809
:100C340094869484948294801200666E949694941C
:100C4400949294908B9A8C9E8B886650C6EC04F098
:100C54008B888B988B988B88665092EC04F08B88E9
:100C64008B989486948494829480120075A61200C2
:100C74003EC0F6FF020EF76E0800F55027EC05F0B3
:100C84003E2A3EC0F6FF020EF76E0800F55000093A
:100C9400D8A412007596000E3E6E1200686E2FC026
:100CA40069F030C06AF06850030DF350010FD96E3B
:100CB400DA6ADECF66F0DDCF67F06650695C646E99
:100CC40067506A58656E120074EC05F0010E1FEC53
:100CD40006F0000E6C6E030E6B6E3F5078EC06F05F
:100CE400000E6C6E000E94EC05F012006E6E6E50E9
:100CF400A8EC06F06E5050EC06F06B50645C655046
:100D0400800A6D6E6C50800A6D58D8B01200F2D70C
:100D1400030E926EE00E936E8A968A908A92C00EAB
:100D2400946E8F0E956E000E8C6EA68EA69C12008D
:100D34004144474A4D50545700FFFFFFFFFFFF0156
:0B0D440002030405060708090A000B63
:100D5000646E6450030DF350010FD96EDA6A2FC030
:100D6000DEFF30C0DDFF120075A602D0D890120061
:100D7000D880120074EC05F00C0E1FEC06F0120087
:100D800064C03EF075861200646E64C051F01200BB
:100D9000646E64C04EF01200B1EC05F03B6E1200C0
:100DA000B1EC05F0506E1200646E64C04DF012009C
:100DB000B1EC05F0356E12007584516812003250A6
:020DC00012001F
:020000040020DA
:08000000FFFFFFFFFFFFFFFF00
:020000040030CA
:0E000000FF061F1EFF8181FF03C003E00340C7
:00000001FF
