:020000040000FA
:0400000019EF00F004
:100008007882D9CF60F0DACF61F0F3CF62F0F4CF25
:1000180063F009EC0EF063C0F4FF62C0F3FF61C047
:10002800DAFF60C0D9FF78921100E7EF0CF0656E37
:100038006450B30FD96EDA6A65C0DFFF1200646ED0
:1000480064C0A9FFA69EA69CA680A850120075B2FF
:1000580002D0D8901200D880120075BA02D0D89079
:100068001200D880120075B802D0D8901200D8803B
:10007800120076AA02D0D8901200D880120076BE5C
:1000880002D0D8901200D8801200646E768264C0C4
:1000980021F076841200646E7EEC00F064C047F0B4
:1000A800120067C00BF068C00CF07784120077A4C8
:1000B80002D0D8901200D8801200646E64C028F074
:1000C80076881200646E64C04AF01200646E64C0E0
:1000D80048F01200646E64C049F01200646E64C097
:1000E8004BF01200646E64C013F01200646E64C0BA
:1000F8004CF01200300E5C6E5D6E300CBBEC0EF0F6
:10010800116E1200BBEC0EF0166E1200BBEC0EF076
:10011800256E1200646E64C054F01200646E64C0F0
:1001280052F01200BBEC0EF0386E1200BBEC0EF071
:100138003B6E1200646E64C051F01200BBEC0EF00E
:10014800326E1200646E64C050F01200BBEC0EF008
:10015800226E1200758C759812007782546812000E
:10016800779254681200180E92EF0FF075941200EF
:1001780075801200759C1200560E1200759A1200B6
:1001880076861200768A12002D5012004F50120007
:10019800768E1200768C1200768412004A50120075
:1001A80076941200759612005C0E120047501200E9
:1002000000312E506C617920612047616D650000DE
:100210000000000000000000000000000000322E7E
:100220004D6F646966792054696D650000000000B7
:100230000000000000000000000000332E53686F33
:10024000772047656E6572616C20546F7020352091
:1002500053636F7265732000342E4C6F676F757433
:10026000000000000000000000000000000000008E
:100270000000000000352E53686F7720416C6C2021
:10028000557365727300000000000000000000005C
:1002900000000102030405060708090A000B54497F
:1002A0004D452052454D41494E494E473A004D6F0C
:1002B000646966792054696D653A0054494D45205A
:1002C0004C4546543A2000425945204259452000A9
:1002D00053434F52453A20004552524F52533A0031
:0F02E000505357443A2000555345523A200000DE
:1002F00022D353EC0FF0CF0E676E686A55EC00F016
:10030000010E2E6E010C5BEC00F0D8A0120095DB04
:10031000A1EC0EF0C40E676E686A55EC00F05268EE
:10032000020E2E6E020C520404E17780030E2E6E34
:10033000030C020E5218D8A412007790F7D7526817
:10034000516853EC0FF0E70E6DDB55EC00F0040E36
:100350002E6E040C5BEC00F0D8A012006EDBA1EC5A
:100360000EF0E00E5FDB55EC00F0050E2E6E050C76
:100370005BEC00F0D8A01200000E6C6E060EA1EC33
:100380000EF0B1EC00F0336A060E2E6E060C5150E2
:10039000800A600F0EE30A0E52180BE05150E5EC94
:1003A0000DF033C064F051501BEC00F0070E2E6EC0
:1003B000070C0B0E5218FAE01200070E331805E076
:1003C0000B0E521802E051DBDFD7070E331804E0A2
:1003D0000B0E5218D8A41200010E6C6E060EA1EC82
:1003E0000EF033C064F0000E1BEC00F03ADB080E98
:1003F0002E6E080C5150800A600F0EE30A0E521840
:100400000BE05150E5EC0DF033C064F05150F1ECCD
:100410000FF0090E2E6E090C0B0E5218FAE01200A6
:10042000070E331805E00B0E521802E01EDBDFD773
:10043000070E331804E00B0E5218D8A4120033C074
:1004400064F0000EF1EC0FF00CDBCCEC00F0B4EC3F
:1004500000F00A0E2E6E0A0C43EC00F0D8B0120029
:10046000CAEC00F0306E0B0E2E6E0B0C77B006D07F
:10047000302804E1CEEC00F02E6A120077B030BED6
:1004800006D01DEC0FF003E30C0E2E6E0C0C77A0C3
:1004900002D03028F1E077B002D030AEEDD71DECBD
:1004A0000FF0EAE3120053EC0FF0D0EC00F0315003
:1004B00049EC00F0506852680D0E2E6E0D0C080EBF
:1004C000501805E1040E3160DFD7312ADDD7020E66
:1004D000501804E13150D8E03106D6D70B0E52182F
:1004E0000EE1030E31180BE1D4EC00F053EC0FF0E9
:1004F000C70E98DA55EC00F00E0E2E6E0E0C0B0E99
:1005000052180EE131040CE153EC0FF0D4EC00F082
:10051000AE0E88DA55EC00F05268100E2E6E100CFC
:10052000315012E10B0E52180FE1D4EC00F052687A
:1005300053EC0FF09E0E76DA55EC00F030507AEC6A
:1005400000F0150E2E6E150C0B0E52180EE1040E57
:1005500031180BE1D4EC00F053EC0FF0316A526823
:10056000C6EC00F01E0E2E6E1E0C0B0E5218D8A4F8
:100570001200020E3118D8A41200000EDEEC0FF0AB
:10058000FF0AD8B41200D4EC00F053EC0FF0316A3B
:1005900052681F0E2E6E1F0C5BEC00F0D8A01200EC
:1005A0003050D4EC0FF04CDA55EC00F03250A0ECA7
:1005B0000FF00F0E2E6E0F0C3250F8EC0EF065BEE1
:1005C00012006B0E645C090E655801E355D71200EA
:1005D0005BEC00F047E352BE45D05250800A760FE4
:1005E00041E22BDAA1EC0EF05250300F416E415037
:1005F000E5EC0DF05268110E2E6E1200521801E15A
:1006000043D7120052BE2ED05250800A760F2AE2F3
:100610005250300F426E4250E5EC0DF052683A0EE7
:10062000E5EC0DF0120EE8D752BE1CD05250800AF5
:10063000760F18E25250300F436E4350E5EC0DF048
:100640005268130ED9D752BE0DD05250800A760F81
:1006500009E25250300F446E4450E5EC0DF0526800
:10066000140ECAD70A0ECAD70B0E5218FBE1410E60
:10067000646E2FEC0FF0526807D70A0E521803E190
:100680005BEC00F003E237EC00F007E353EC0FF013
:10069000D6EC00F0160E2E6E160C5250800A7F0F0C
:1006A00009E35250800A760F05E2525072EC00F0D6
:1006B000526847D750BE1200505076EC00F0506898
:1006C00040D7D2EC00F00009D8B412000B0E96D738
:1006D0005BEC00F0D8A01200000E6C6EA1EC0EF0E6
:1006E000315084EC0FF0A4D955EC00F0312A180EEB
:1006F0002E6E180C5BEC00F0D8A01200C8EC00F0D5
:1007000031600BD09AD9A1EC0EF0315084EC0FF08F
:100710008FD955EC00F0312A01D0316A190E2E6EB6
:10072000190C5BEC00F0D8A01200C8EC00F03118F6
:1007300001E1316A93D9A1EC0EF0315084EC0FF055
:1007400077D955EC00F01A0E2E6E1A0C5BEC00F007
:10075000D8A01200C8EC00F00001D76FD86B315060
:10076000D96FDA6BD92B000EDA23D751D95DDA5164
:10077000800ADB6FD851800ADB5909E26CD9A1EC01
:100780000EF0312884EC0FF053D955EC00F01B0E1D
:100790002E6E1B0C3250F8EC0EF065BE08D0B60E73
:1007A000645C040E655803E31D0E2E6E1D0C0B0ECB
:1007B0005218D8A41200316A67D60F0E2F6405D0E4
:1007C00053EC0FF0170E2E6E170C100E2F60100C3E
:1007D0003250A0EC0FF0B7EC00F02F2A1C0E2E6E5A
:1007E0001C0C5BEC00F0D8A012003250A0EC0FF013
:1007F0002F6AF4D73DEC00F0E5E212005BEC00F06C
:10080000D8A012003150DEEC0FF0D4EC0FF018D964
:1008100055EC00F03150DEEC0FF0F9EC0FF04FEC3E
:1008200000F0200E2E6E200CDAEC00F0FA0AD8A4AC
:1008300012005BEC00F0D8A012003A0EE5EC0DF0CF
:10084000FCD8A1EC0EF0D8EC00F0FFD855EC00F08D
:10085000312A050E311805E03150DEEC0FF0FF0AA9
:1008600001E1316A220E2E6E220C3150DEEC0FF0C7
:10087000FF0A04E1050E3118D8B412005BEC00F059
:10088000D8A01200EBD8A1EC0EF03150DEEC0FF046
:10089000D4EC0FF0D5D855EC00F03150DEEC0FF071
:1008A000F9EC0FF04FEC00F0230E2E6E230C5BECF6
:1008B00000F0D8A01200DAEC00F0FA0AD8A4120076
:1008C0003A0EE5EC0DF0C7D8A1EC0EF0D8EC00F034
:1008D000BCD855EC00F02F6A3250A0EC0FF0250E7A
:1008E0002E6E250C0B0E521804E15BEC00F001E3B8
:1008F00062D73250F8EC0EF065BE1200910E645CC7
:10090000010E6558D8A012005BEC00F0D8A01200D0
:10091000260E2E6E260C100E2F6007D03250A0EC43
:100920000FF0B7EC00F02F2ADAD70F0E2F640F0C60
:1009300053EC0FF02ED62E500001D76FD86BD85144
:10094000D8A41200D75101E1D4D4010A01E1DBD4CB
:10095000030A01E1E8D4010A01E1F1D4070A01E147
:10096000F9D4010A01E104D5030A01E110D5010A15
:1009700001E123D50F0A01E13DD5010A01E150D57E
:10098000030A01E169D5010A01E170D5070A01E115
:100990008AD5010A01E193D5030A01E1FDD5010AD7
:1009A00001E10AD61F0A01E113D6010A01E12AD6A4
:1009B000030A01E139D6010A01E145D6070A01E13E
:1009C00053D6010A01E159D6030A01E17AD6010A98
:1009D00001E17ED60F0A01E18DD6010A01E1A1D61F
:1009E000030A01E1B3D6010A01E1FBD6070A01E1DE
:1009F000D1D6010A01E1E1D6030A01E1FBD6010AE1
:100A000001E1FCD63F0A01E10FD7020A01E12DD72F
:100A1000010A01E14CD7060A01E164D7030A01E1AA
:100A20007AD71200676E6750D8A4020E686E120063
:100A300064C067F065C068F01200010E6C6E000CB7
:100A400064C067F065C068F012000001D76FD7C0BE
:100A500067F0686A1200010E6C6E100C000E6C6E6E
:100A6000100C52685168336A1200332A5268516878
:100A7000120024D14ABE12004A50D4EC0FF064C0D8
:100A800007F065C008F0758475920D2A12003ED9F2
:100A900004E1ACA202D0AD6A32D038D9D8A4ACA25D
:100AA000120034D9AD6E074A082A12004B0EAE1858
:100AB000D8A412007582E9D7492806E0ACA204D078
:100AC00049C0ADFF49681200300E486409D03A0EA3
:100AD000486006D0ACA204D048C0ADFF486A1200FE
:100AE00075B402D0ACB202D09EAA0BD053EC0FF07A
:100AF000D80E12EC05F055EC00F0460EAD6E486ACB
:100B0000C4D775A01200C0EC00F0D96EDA6ADF50CD
:100B1000016EC0EC00F011D9026EC0EC00F0FCD800
:100B2000036EC0EC00F0FED8046EC0EC00F0D96E8D
:100B3000DA6A040ED926DF50056E0D0E066E010E20
:100B40000E6E1150A0EC0FF00F6A0A0E0D6E0A0C1B
:100B50009EAA1200AECF10F0105061EC00F01050C1
:100B60004FEC00F01150A0EC0FF08FD71150F8ECC3
:100B70000EF065BE0FD0BB0E645C090E65580AE32B
:100B800053EC0FF0BB0E12EC05F055EC00F0070E25
:100B90000D6E070C1150F8EC0EF065BE06D0BA0EC3
:100BA000645C090E6558D8B012009EAA12005BEC76
:100BB00000F0D8A012001DEC05F0A1EC0EF0AE5034
:100BC000E5EC0DF062D75BEC00F0D8A01200C0ECB1
:100BD00000F0AED855EC00F058D79EAA1200AE50E7
:100BE000E5EC0DF01150A0EC0FF00D0612005BECDF
:100BF00000F0D8A012001DEC05F0A1EC0EF0D00E14
:100C000012EC05F055EC00F040D75BEC00F0D8A0FA
:100C10001200DAEC00F0FA0AD8A41200D8EC00F0C6
:100C200087D855EC00F04A680D6A1200060E0F18BE
:100C300004E17590030E0D6E030C060E0F60060C9A
:100C40001150F8EC0EF065BE1200655003E164042B
:100C5000D8A012008A921150A0EC0FF016D70E50B7
:100C600011E11150F8EC0EF065BE0CD0655002E1B8
:100C7000640408E3010E0E6E0F2A8A821150A0EC64
:100C80000FF0B3D71150F8EC0EF065BE12006550AE
:100C900003E16404D8A012000E50D8B412000F5023
:100CA000010FD96EDA6ADF500E1402E08A8201D099
:100CB0008A92D8900E361150A0EF0FF00D50736E3F
:100CC000746A7450D8A41200735001E1D3D6010A9B
:100CD00001E1DDD6030A01E1E9D6010A01E1ECD622
:100CE000070A01E135D7010A01E140D7030A01E112
:100CF00074D7010A01E167D70F0A01E178D7010A29
:100D000084E0030A93E0010AAAE0120007C0D9FFB9
:100D100008C0DAFFDF501200D96EDA6A020ED92657
:100D2000DF501200D96EDA6A030ED926DF501200A6
:100D3000736E73C067F0686A1200D96EDA6AD92AD6
:100D4000DF5012000BD1110E1A6010D076A40ED015
:100D5000000E6C6EA1EC0EF032D9736E73C067F0AA
:100D600033D955EC00F0050E206E050C100E1A64F8
:100D7000100C76A4100C202A12000F0E1F6414D041
:100D80001E2A4E2A1CD94E24736E0ED901E14E6ADA
:100D900016D91E24736E08D901E11E6A1F6A1EC08F
:100DA0001CF0060E206E060C100E1F60100C000EBC
:100DB0006C6E1F50A1EC0EF002D91C24736EF4D897
:100DC000E5EC0DF01F2A1C2AFAD81C24736EECD80F
:100DD000D8B41C6A1200040E216010D0CCD7206A4F
:100DE00012005BEC00F006E3040E216003D0070E56
:100DF000206E070C5BEC00F0D8A01200030E2164FB
:100E0000030CEDD776B276A412001A6A196A000EA6
:100E10006C6EA1EC0EF01E6A0F0E4E6E1D6A0F0E68
:100E20004D6E1F6A1C6A1B6A7692A5D7C8D81A2411
:100E3000736EBAD804E1030E216401D09CD7BFD8E9
:100E40001A24736EB1D802E01A2A1200040E21602F
:100E5000040CB5D81A24736EA7D8D8A412000D0EAE
:100E6000206E0D0C110E196015D076A413D01DEC58
:100E700005F0A1EC0EF021501D0DF3CF73F01D0E07
:100E800073267350010F746E74C067F09DD855ECD3
:100E900000F071D7100E1964100C76A4100C090E16
:100EA000206E090C100E1F6014D0010E6C6E1F50C6
:100EB000A1EC0EF084D81B247ED876D8E5EC0DF09A
:100EC0001F2A1B2A7CD81B2476D86ED8D8B41B6A5C
:100ED00012000F0E1F640F0C1D2A4D2A70D84D24CE
:100EE0006AD862D801E14D6A6AD81D2464D85CD8FA
:100EF00001E11D6A1F6A1DC01BF03DD72250F8ECAE
:100F00000EF065BE0AD065D808E376A276A405D0B7
:100F100053EC0FF0020E206E020C76B276A4120093
:100F200053EC0FF05CD72250A0EC0FF024D75BEC11
:100F300000F0D8A012002250A0EC0FF00B0E206E93
:100F40000B0C3DD8192437D82FD802E0192A1200EB
:100F500036D8192430D828D8DDE012002050736E1E
:100F6000746A7450D8A41200735001E14BD7010A7F
:100F700001E15CD7030A01E1E6D6010A01E1FDD6F1
:100F8000060A01E12ED7030A01E125D7010A01E192
:100F900069D70F0ACCE0010A85E0030AC4E0010A20
:100FA000ADE0060ACEE0120073C0F6FF020EF76E47
:100FB0000800F5501200736E1D0E73261D0C215093
:100FC0001D0DF350010F12006750D8A4020E686E79
:100FD0001200B50E645C040E65581200FED076AEA9
:100FE00076BC06D076AA76B803D02A6A296A12009F
:100FF00076AE03D04F68272A120076AC0BD0080ECD
:101000002D1801E02D2A646A2D50E5EC0EF0020E39
:10101000276E020C76AA16D04FC0A2F00001A36979
:10102000A469A569A669A769A869A969010E2A6EBC
:10103000070E2D6002D0296A02D02BC029F0050EC0
:10104000276E050C76A812007698060E276E060C01
:101050002D502A5C12E2B30E646E2A50120D000E5F
:10106000F324656E010EF420666E2DEC0EF000097F
:1010700002E12AC04FF02A2A12002D502A18D8A4C3
:101080001200769E27061200090E2A600CD02CC092
:1010900064F02A50B30FD3D8E5EC0EF02C2A2A5076
:1010A000B30FC4D817D0080E2A64080C2A6AA3D735
:1010B000090E2A601CD02CC064F02A50AA0FBFD899
:1010C000E5EC0EF02C2A2A50AA0FB0D8090E69269A
:1010D000000E6A22F3506926F4506A222A506924CD
:1010E000E16E000E6A20E26EDFCFE7FFC4D7080E84
:1010F0002A64080C769C8C0E2C6402D0020E2C6E96
:101100002B2A080E2B1801E12B6A010E646E2C505D
:10111000E5EC0EF0276A12002D502A5C16E24FC053
:1011200069F06A6A69BE6A06295069186A1007E0A0
:101130002A50A20FD96EDA6A29C0DFFF2A2A292A8B
:10114000070E2964070C296A12002D502A18D8A40A
:101150001200769A276A1200050E2A6003D05FD823
:10116000DE2889E1050E2A6004D059D8DE2801E185
:1011700042D7040E2A64040C2A6A080E276E080C53
:1011800047D828C0DFFF4BD84FC0DFFF020E2A022E
:10119000F3502A6E2A50C80F646E4F50E5EC0EF0E3
:1011A0002A2A2A50C80F646E2850E5EC0EF0B2D7F8
:1011B0002FD82850DE5C04E3050E2A6001D05BD7EF
:1011C000040E2A6401D0A6D723D82850DE5CD8B0FC
:1011D0001200050E2A60050C55D72750696E6A6A01
:1011E0006A50D8A41200695001E1F9D6010A01E160
:1011F0002FD7030A01E148D7010A01E159D7060AAE
:101200008BE0030AA9E0010ABBE00F0AD1E012005B
:101210002A50020DF350990FD96EDA6A12002A5043
:10122000020DF350980FD96EDA6A1200D96EDA6A9D
:101230002B50120D000E696E010E6A6E1200D96EEF
:10124000DA6ADF501200BAD0542808E077A206D03C
:101250003B50A0EC0FF0030E396E030C5428D8A4B9
:1012600012003B50F8EC0EF065BE1200BED8D8A0BC
:1012700012005528D8A477A2120055509EEC00F019
:10128000556853683A6A1200535054180CE13B50A9
:10129000F8EC0EF065BE02D0A8D805E254683C2AEE
:1012A000552A392A12005428D8B412005350541821
:1012B000D8B4120055509EEC00F0545005E0545044
:1012C000BA0F1FEC09F001D0300E556E3A6A54C0C7
:1012D00053F03C6A546839061200070E531808E0B0
:1012E000090E531805E0535003E0050E396E050C46
:1012F000070E531803E0090E531803E1060E396E6A
:10130000060C5350D8A412003A2A020E3A1801E1F2
:101310003A6A3A50450F1FEC09F0556E396A1200CF
:101320005450800A7E0F02E2545007E15450800A64
:10133000760F03E2010E396E010C54500CE054504C
:10134000800A7E0F08E2552806E15450300F9EECCB
:1013500000F05468E3D75450D8B412005450800AB7
:101360007E0FD8B012005528D8B4120055509EEC0C
:1013700000F05568392A12005450300F9EEC00F0EE
:10138000E8D7040E3C1808E15350BA0FD96EDA6A58
:10139000DF50556E3C6AC2D7030E3C1803E1535030
:1013A000300FBBD7030E3C601200B8D7040E3C18B8
:1013B000F6E0050E3C18E8E0040EF5D739506B6EE8
:1013C0006C6A6C50D8A412006B5001E13DD7010A41
:1013D00001E15AD7030A81E0010AA2E0070ACCE042
:1013E000010ACFE0030AE2E012005A0E645C020E2A
:1013F0006558120083A003D06B6A6B2A01D06B6A18
:10140000010E83A2000E020DF3CF6CF0010E83A437
:10141000000E030DF3CF6DF0010E83A6000E040D38
:10142000F3506D246C246B24356E5AD0355006E190
:101430008C888C9A8C9C366A372A12003550D8B426
:1014400012003850A0EC0FF0030E376E030C35502D
:1014500006E18C988C8A8C9C010E366EEDD7355047
:10146000D8B412003850A0EC0FF0EED7355007E199
:101470008C988C9A8C8C020E366E376A120035501E
:10148000D8B412003850A0EC0FF0D6D73850F8EC92
:101490000EF065BE1200D0D7355003E1010E376E55
:1014A000010C3550D8B4120037D831D892EC00F086
:1014B00033D82DD88EEC00F0BFD73550D8A4120009
:1014C0003850A0EC0FF0B8D73850F8EC0EF0E1D758
:1014D000355003E0050E376E050C3550CEE0120096
:1014E00037506B6E6C6A6C50D8A412006B509EE043
:1014F000010AADE0030ABAE0010AC8E0070ACCE03D
:10150000010ADBE0030AE0E0010AE2E01200020E59
:10151000F76E0800F55012003550030DF350920F8E
:1015200036246B6EFD0E6B266BC0F6FFFD0C2A6A2F
:10153000000E23EC00F02D6E080E2D6401D02D6AF4
:101540002A2A010E23EC00F02C6E2C2802E1020E58
:101550002C6E120E646E2C5087EC0EF02B6E2A2A25
:10156000296A1FD06A6A42D848D86A5038D823EC12
:1015700000F0DF6E2A2A6A2A080E6A64F4D76B6AC2
:1015800035D8090E6826000E692237D86B5027D847
:1015900023EC00F0DF6E2A2A6B2A080E6B64F0D76A
:1015A000292A2D50295CDEE3000198692A6A040E7D
:1015B0002A6401D0040C0FEC09F02A50020DF350FC
:1015C000C80F23EC00F0DF6E08EC09F02A50020D82
:1015D000F350C90F23EC00F0DF6E2A2AE8D7682405
:1015E000D96E000E6920DA6E2A5012002950120DB1
:1015F000000E686E010E696E1200F3506826F450FA
:101600006922120056D0C2B20BD0C80EC46008D0F6
:10161000320EC46405D0070EC26E7680172A52D0EF
:10162000C2B20FD0C70EC4640CD0020E181803E06B
:10163000020EA6EC00F0020E186E070EC26E769037
:10164000EDD7C2B23FD0330EC4603CD0080E18189C
:1016500003E0080EA6EC00F0080EEED7C2B20BD0E5
:10166000C80EC46008D0320EC46405D0030EC26E2A
:10167000758E170627D0C2B20FD0C70EC4640CD027
:10168000060E181803E0060EA6EC00F0060E186E03
:10169000030EC26E759EEDD7C2B214D0330EC46075
:1016A00011D0040E181803E0040EA6EC00F0040E8E
:1016B000EED71750656E666A665004E16550A3E088
:1016C000010ACCE076B075AE12001850D8B4120002
:1016D000FF0EA6EC00F0186812006F6EBBEC0EF067
:1016E0003D6E6FC040F03E6A3F6A9498959E949A12
:1016F000706A716A6C6A640E6B6E3D5064EC0FF038
:10170000030EA9EC0CF06C6A050E6B6E3D5064EC98
:101710000FF0030EA9EC0CF03AD864EC0FF0030EB6
:10172000A9EC0CF034D864EC0FF0020EA9EC0CF02C
:101730006C6A040E6B6E3D5064EC0FF0280E92EC58
:101740000FF04CEC0EF0080E92EC0FF04CEC0EF09B
:10175000010E92EC0FF05FEC0FF064EC0FF04CEC2C
:101760000EF0060E92EC0FF04CEC0EF00F0E92EC19
:101770000FF0704A712A71BEBDD7715003E1020E9D
:10178000705CB8E34CEC0EF00C0E92EF0FF06C6A4C
:10179000010E6B6E3D50120044D04C28D8B412009C
:1017A0004C5066EC00F07586020E126E020C75B697
:1017B00007D04C68BEEC00F0BAEC00F01206120044
:1017C00013BE07D013500BEC0FF06EEC00F0136853
:1017D000120031EC00F013E35BEC00F010E3C2EC1C
:1017E00000F01DEC05F0A1EC0EF0C0EC00F0726E04
:1017F00072C067F0686A55EC00F0BCEF00F04B5027
:10180000800A7F0FD8A012004B50300F6AEC00F016
:101810004B6812002BEC00F0D8A01200AEEC00F0E8
:10182000CDD71250726E736A7350D8A412007250E2
:10183000B4E0010ABCE0030AEDE012002FD076A666
:101840001200010E266E246A2550A0EC0FF0010E46
:10185000236E010C050E266403D076962306120033
:10186000A80E241803E1262A246A12002550F8EC59
:101870000EF021D8D8B012008A802550A0EC0FF0CD
:10188000232A12002550F8EC0EF015D8D8B012001B
:101890008A902550A0EC0FF0242AE0D723506B6EDD
:1018A0006C6A6C50D8A412006B50C9E0010AD2E0F7
:1018B000030AE8E0120026506B6E6C6A64506B5CA1
:1018C0006C50800A6D6E6550800A6D58120038D0D9
:1018D0001650F8EC0EF065BE1200E9EC07F0D8A047
:1018E00012001650A0EC0FF075AC28D0758A5A067D
:1018F0002F0E5A1803E1390E5A6E59062F0E591839
:1019000003E1350E596E57062F0E571803E1390EB5
:10191000576E5606300E56180AE1300E571807E17A
:10192000300E591804E1300E5A1801E17588152A55
:101930003B0E156403D0C4EC00F0156A146A120063
:1019400014506B6E6C6A6C50D8A412006B50C0E0DF
:101950001200656E94962FD88B8865A603D0646AB2
:10196000642A01D0646A64462DD8F70B64188B6E24
:1019700065A403D0646A642A01D0646A23D8FB0B8F
:1019800064188B6E65A203D0646A642A01D0646A0D
:1019900064468B506418FD0B64188B6E65A003D0F1
:1019A000646A642A01D0646A8B506418FE0B641860
:1019B0008B6E8B9812009494949294908B9A8C9E38
:1019C0008B881200644664468B50641812005C0ECB
:1019D000F66E1F0EF76E000EF86E00EEBCF010EE05
:1019E0001BF00900F5CFEEFFE550E150FAE1770E6C
:1019F000F66E1F0EF76E000EF86E00EE45F010EE5C
:101A00001AF00900F5CFEEFFE550E150FAE101EEE2
:101A100000F0900EEE6AE806FDE100EE80F03C0E6C
:101A2000EE6AE806FDE1776A766A756A00EE01F013
:101A3000440EEE6AE806FDE178907892000EF86EAA
:101A4000000123EF0DF075EC0FF0C9EC0FF0D1ECB5
:101A50000EF096EC00F09AEC00F08AEC00F0AAECA4
:101A600000F0E8EC0FF086EC00F082EC00F0020EE3
:101A70006DEC0BF097EC0AF0A2EC00F0A2EC06F093
:101A8000CCEC0BF039EC05F067EC0CF002EC0BF051
:101A900078EC01F041EC0FF01EEC0CF0EEEC07F0EE
:101AA000FAEC09F023EC09F0BDEC0DF0E7D7656E18
:101AB00065A603D0646A642A01D0646A644625D8A6
:101AC000F70B64188B6E65A403D0646A642A01D096
:101AD000646A1BD8FB0B64188B6E65A203D0646A22
:101AE000642A01D0646A64468B506418FD0B641844
:101AF0008B6E65A003D0646A642A01D0646A8B503F
:101B00006418FE0B64188B6E1200644664468B509A
:101B100064181200656E65AE03D0646A642A01D051
:101B2000646A644625D8F70B64188B6E65AC03D0E5
:101B3000646A642A01D0646A1BD8FB0B64188B6E3C
:101B400065AA03D0646A642A01D0646A64468B5033
:101B50006418FD0B64188B6E65A803D0646A642A50
:101B600001D0646A8B506418FE0B64188B6E1200EF
:101B7000644664468B506418120077A4120018D88B
:101B8000F76403D00800F55001D019D8E5EC0DF04A
:101B90000B4A0C2A0DD8F76403D00800F55001D089
:101BA0000ED80009D8A4120077940B6A0C6A1200B0
:101BB0000BC0F6FF0CC0F7FFF86A010E1200F6CF5B
:101BC000E1FFF7CFE2FFE7501200726E4CEC0EF02F
:101BD00072506BEC0EF03E2A020E40180CE1270EFC
:101BE0003E6409D03E6A3F2A010E3F6401D03F6A3D
:101BF0000CD8A1EC0EF03F04D8A41200270E3E64CE
:101C000001D03E6A02D8A1EF0EF03FC06CF03E500A
:101C100012001ED8F294094A0A2A480E095CEE0EF8
:101C20000A58D8A01200346A070E346401D00DD0CF
:101C3000CAEC0EF0DE0407E13450A8EC0FF00950B6
:101C4000DE5E0A50DD5A342AEFD7096A0A6A1200AA
:101C5000DF0ED76E940ED66E940C0AD013D8645053
:101C6000E16EE26ADE50E61805E1642A654A662AFA
:101C70000ED8F4E107D8DF50676E09D8686E675058
:101C8000685C120065C0D9FF66C0DAFF12006450BC
:101C9000D96EDA6ADF50120094869484948294801C
:101CA0008B9A8C8E3D50A0EC0FF08B888B88000EA9
:101CB00082B6010E6B6E8B988B988B888B888B9875
:101CC0008B983D50F8EC0EF06450651001E0120066
:101CD0006B50EBE11200666E9496949494929490FB
:101CE0008B8A8C9E8B8866508AEC0DF00BD86650E0
:101CF00057EC0DF000D08B888B9894869484948256
:101D0000948012008B888B988B988B881200656E5C
:101D1000676A645014E0010E666E03D0D890643692
:101D2000662A64AEFBD7D89067366450655C03E3DF
:101D30006450655E6780D8906432662EF4D7675031
:101D40001200716E6C5004E0706A400E6F6E02D02B
:101D50006F6A706A71506F246D6E000E70206E6E27
:101D60004CEC0EF06D50800992EC0FF06CC03FF01F
:101D700071C03EF01200346A05D0342A080E3418BF
:101D800001E1FF0C07D8DE04F8E004D8010EDF6E95
:101D9000345012003450030DF350820FD96EDA6ABA
:101DA0001200D09EF28EF28CF28AF294880ED56EDA
:101DB00028EC0EF0D58E346A070E346401D0070C7F
:101DC000CAEC0EF0DF6A342AF7D7656E64C0A9FF4B
:101DD00065C0A8FFA69EA69CA684F29E550EA76E7F
:101DE000AA0EA76EA682A6B2FED7F28EA694120005
:101DF000686E09C069F00AC06AF06850A8EC0FF07C
:101E0000DECF66F0DDCF67F06650695C646E6750C8
:101E10006A58656E1200646E020E641801E1570C78
:101E2000060E641801E1440C080E641801E1530C1D
:101E3000040E641801E1410C000CAA0E646E4F50B0
:101E4000120D090EF324656E010EF420666E2DEC62
:101E50000EF0000902E0D8901200D8801200645001
:101E6000D96EDA6ADF50566E64509DEC06F0576EFC
:101E700064508CEC06F0596E645092EC06F05A6E89
:101E80001200FA0E4718D8B41200475009E05D2A34
:101E90003A0E5D1803E1300E5D6E5C2A47061200B3
:101EA000FA0E476EFA0C4CEC0EF0010E92EC0FF0AD
:101EB00006D864EC0FF0000E6C6EA1EF0EF06C6AA9
:101EC000030E6B6E3D5012006E6E6E50A0EC0FF064
:101ED0006E50F8EC0EF06B50645C6550800A6D6ECD
:101EE0006C50800A6D58F4E31200030E926EE00EFF
:101EF000936E8A968A908A82C00E946E8F0E956E2B
:101F00008C6AA68EA69C1200666E6650A20FD96ED1
:101F1000DA6ADF50120D000EF324646E010EF42015
:101F2000656E1200666E9496DBEC0CF066508AECDF
:101F30000DF082EC0EF0665057EC0DF07BEF0EF0DA
:101F4000646E645005D809C0DEFF0AC0DDFF1200D0
:101F5000030DF350800FD96EDA6A12004144474AEC
:101F60004D505457322E5245474953544552003133
:101F70002E4C4F47494E003020FAFFFFFFFFFF0F66
:101F80000FFFFFFFFFFFFFFF33303A3030003030EC
:011F90000050
:101F9200240EAC6E900EAB6E080EB86E040EB06ED0
:101FA200100EAF6E100C666E6650120D000EF3240A
:101FB200646E010EF420656E1200646E6450020DB0
:101FC200F350980F00D0D96EDA6ADF501200010E7A
:101FD200C26E0D0EC16E090EC06E7F0EC46E7F0CF6
:101FE200656E6450AA0FD96EDA6A65C0DFFF12000F
:0E1FF200646E6450020DF350990FE4EF0FF08F
:020000040020DA
:08000000FFFFFFFFFFFFFFFF00
:020000040030CA
:0E000000FF061F1EFF8181FF03C003E00340C7
:00000001FF
