:020000040000FA
:0400000019EF00F004
:100008007A82D9CF66F0DACF67F0F3CF68F0F4CF11
:1000180069F0F4EC0BF069C0F4FF68C0F3FF67C047
:0E002800DAFF66C0D9FF7A921100EAEF0AF003
:1002000000312E506C617920612047616D650000DE
:100210000000000000000000000000000000322E7E
:100220004D6F646966792054696D650000000000B7
:100230000000000000000000000000332E53686F33
:10024000772047656E6572616C20546F7020352091
:1002500053636F7265732000342E4C6F676F757433
:10026000000000000000000000000000000000008E
:100270000000000000352E53686F7720416C6C2021
:10028000557365727300000000000000000000005C
:10029000000054494D452052454D41494E494E4775
:1002A0003A004D6F646966792054696D653A004281
:1002B0005945204259452000505357443A20005593
:0702C0005345523A200000F3
:1002C800F6D1A2EC0DF0B80E6D6E6E6A49EC0EF028
:1002D800010E256E12004FEC0EF0D8A01200010E90
:1002E800726E000E8FEC0CF0AD0E6D6E6E6A49ECFE
:1002F8000EF05A68020E256E12005A04D8A409D0CE
:10030800ABEC0EF00009D8B404D0798A030E256E40
:100318001200020E5A18D8A41200799AF7D75A6810
:100328005968A2EC0DF0BF0E6D6E6D50D8A4020E88
:100338006E6E49EC0EF0040E256E12004FEC0EF0B6
:10034800D8A01200010E726E000E8FEC0CF0B80EE1
:100358006D6E6D50D8A4020E6E6E49EC0EF0050E4F
:10036800256E12004FEC0EF0D8A01200000E726E2F
:10037800060E8FEC0CF099EC0EF0000E296E060EAE
:10038800256E12005950800A500FD8A00FD00A0EBF
:100398005A18D8B40BD0595021EC0CF029C06AF087
:1003A800595029EC0EF0070E256E12000B0E5A1844
:1003B800D8A41200F8D7070E2918D8B408D00B0E05
:1003C8005A18D8B404D0292A5A685968D8D7070EB9
:1003D8002918D8B404D00B0E5A18D8A41200010E4C
:1003E800726E060E8FEC0CF029C06AF0000E29EC34
:1003F8000EF05A685968000E296E080E256E120014
:100408005950800A500FD8A00FD00A0E5A18D8B4E5
:100418000BD0595021EC0CF029C06AF0595021EC4E
:100428000EF0090E256E12000B0E5A18D8A41200F1
:10043800F8D7070E2918D8B408D00B0E5A18D8B414
:1004480004D0292A5A685968D8D7070E2918D8B469
:1004580004D00B0E5A18D8A4120029C06AF0000E56
:1004680021EC0EF05A685968000E296EADEC0EF0BA
:100478009CEC0EF00A0E256E12003DEC0EF0D8B082
:10048800120061EC0EF0D8A002D0010E01D0000ECF
:10049800266E0B0E256E12000C0E256E1200000E35
:1004A800256E1200A2EC0DF0B1EC0EF0275043ECD3
:1004B8000EF058685A680D0E256E1200080E58186E
:1004C800D8A405D0040E2760E7D7272AE5D7020E5F
:1004D8005818D8A405D02750D8B4DED72706DCD7BB
:1004E8000B0E5A18D8A413D0030E2718D8A40FD06F
:1004F800B3EC0EF0A2EC0DF0AF0E6D6E6D50D8A4FB
:10050800020E6E6E49EC0EF00E0E256E12000B0EEA
:100518005A18D8A413D02704D8A410D0A2EC0DF0F0
:10052800B3EC0EF0A20E6D6E6D50D8A4020E6E6E76
:1005380049EC0EF05A68100E256E12002750D8A408
:1005480012000B0E5A18D8A41200B3EC0EF05A6819
:10055800A2EC0DF0920E6D6E6D50D8A4020E6E6E68
:1005680049EC0EF026506DEC0EF0150E256E1200BB
:100578004FEC0EF0D8A0120026500EEC0EF06AC018
:100588006DF06BC06EF049EC0EF02850F7EC0DF0F2
:100598000F0E256E120028507AEC0DF06BBE12007B
:1005A8006B0E6A5C090E6B58D8A0120078D74FEC16
:1005B8000EF0D8B05ABE47D05A50800A760FD8B03D
:1005C80042D0010E726E000E8FEC0CF05A50300FB4
:1005D800406E405021EC0CF05A68110E256E120046
:1005E8005ABE31D05A50800A760FD8B02CD05A5003
:1005F800300F416E415021EC0CF05A683A0E21EC54
:100608000CF0120EEBD75ABE1ED05A50800A760F45
:10061800D8B019D05A50300F426E425021EC0CF02D
:100628005A68130EDBD75ABE0ED05A50800A760F7E
:10063800D8B009D05A50300F436E435021EC0CF01B
:100648005A68140ECBD70A0E5A18D8A4120024D709
:100658000B0E5A18D8A4F7D7400E6A6E00EC0DF0AE
:100668005A681AD70A0E5A18D8A40BD04FEC0EF0B5
:10067800D8A007D0A2EC0DF0B5EC0EF0160E256E42
:1006880012005A50800A7F0FD8A00AD05A50800A08
:10069800760FD8B005D05A5065EC0EF05A6865D779
:1006A80058BE1200585069EC0EF058685ED72550B5
:1006B8000001C16FC26BC251000AD8A41200C15117
:1006C800000AD8B4FED5010AD8B405D6030AD8B4AE
:1006D80014D6010AD8B423D6070AD8B42FD6010AEB
:1006E800D8B440D6030AD8B44DD6010AD8B463D6D4
:1006F8000F0AD8B485D6010AD8B49BD6030AD8B451
:10070800BCD6010AD8B4C8D6070AD8B4CBD6010AD1
:10071800D8B4D4D6030AD8B42BD7010AD8B43BD757
:100728001F0AD8B444D7010AD8B45AD7030AD8B490
:100738006AD7010AD8B477D7070AD8B489D7010A83
:10074800D8B490D7030A1200BDD1110E116018D089
:1007580079A016D0000E726E000E8FEC0CF01850B7
:100768001D0DF350010F0001C16FC1C06DF06D5038
:10077800D8A4020E6E6E49EC0EF0050E176E12002C
:10078800100E1164120079A01200172A12000F0E21
:1007980016642BD0152A562A18501D0DF350010F38
:1007A8005624C16FC1C0F6FF020EF76E0800F5505F
:1007B8000009D8A402D0000E566E18501D0DF35033
:1007C800010F1524C16FC1C0F6FF020EF76E0800B5
:1007D800F5500009D8A402D0000E156E000E166E52
:1007E80015C013F0060E176E1200100E16601200D8
:1007F800000E726E16508FEC0CF018501D0DF35051
:10080800010F13240001C16FC1C0F6FF020EF76E7D
:100818000800F55021EC0CF0162A132A18501D0D6B
:10082800F350010F13240001C16FC1C0F6FF020E7F
:10083800F76E0800F5500009D8A41200000E136ED8
:100848001200040E186012D0A0D7000E176E120006
:100858004FEC0EF0D8A006D0040E186003D0070E97
:10086800176E12004FEC0EF0D8A01200030E186499
:100878001200EBD778AE120079A01200000E116EAC
:10088800000E106E000E726E000E8FEC0CF0000E53
:10089800156E0F0E566E000E146E0F0E556E000E6E
:1008A800166E000E136E000E126E789E6ED71850DC
:1008B8001D0DF350010F1124C16FC1C0F6FF020EC8
:1008C800F76E0800F5500009D8A404D0030E186488
:1008D80001D05BD718501D0DF350010F1124C16FC3
:1008E800C1C0F6FF020EF76E0800F5500009D8B433
:1008F80002D0112A1200040E1860120018501D0DA3
:10090800F350010F1124C16FC1C0F6FF020EF76E3C
:100918000800F5500009D8A412000D0E176E120039
:10092800110E10601AD079A018D0010E726E000E48
:100938008FEC0CF018501D0DF3CFC1F01D0E000107
:10094800C127C151010FC26FC2C06DF06D50D8A44C
:10095800020E6E6E49EC0EF018D7100E10641200DD
:1009680079A01200090E176E1200100E16602DD015
:10097800010E726E16508FEC0CF018501D0DF350CE
:10098800010F12240001C16F1D0EC127C1C0F6FF5F
:10099800020EF76E0800F55021EC0CF0162A122A08
:1009A80018501D0DF350010F12240001C16F1D0EC8
:1009B800C127C1C0F6FF020EF76E0800F550000906
:1009C800D8A41200000E126E12000F0E1664120048
:1009D800142A552A18501D0DF350010F5524C16FC4
:1009E8001D0EC127C1C0F6FF020EF76E0800F550B4
:1009F8000009D8A402D0000E556E18501D0DF350F2
:100A0800010F1424C16F1D0EC127C1C0F6FF020ECD
:100A1800F76E0800F5500009D8A402D0000E146E35
:100A2800000E166E14C012F0B0D619507AEC0DF004
:100A38006BBE0ED0B50E6A5C040E6B58D8B078BE8B
:100A480007D079A005D0A2EC0DF0020E176E1200A7
:100A580078AE120079A01200A2EC0DF0F6D619506B
:100A6800F7EC0DF092D64FEC0EF0D8A0120019500A
:100A7800F7EC0DF00B0E176E120018501D0DF35009
:100A8800010F1024C16F1D0EC127C1C0F6FF020E51
:100A9800F76E0800F5500009D8B402D0102A1200E9
:100AA80018501D0DF350010F1024C16F1D0EC127E2
:100AB800C1C0F6FF020EF76E0800F5500009D8A471
:100AC8001200C3D717500001C16FC26BC251000A90
:100AD800D8A41200C151000AD8B4CCD6010AD8B49F
:100AE800E6D6030AD8B431D6010AD8B450D6060AD5
:100AF800D8B4AED6030AD8B4A4D6010AD8B410D74D
:100B08000F0AD8B4B0D7010AD8B42FD7030AD8B47B
:100B1800A6D7010AD8B489D7060AD8A41200ADD737
:100B2800DFD05D28D8A479AC06D05C50F7EC0DF086
:100B3800030E2F6E12005D28D8A412005C507AECC8
:100B48000DF06BBE12005A0E6A5C020E6B58D8A0EC
:100B580012005E28D8B4120079AC12005E5089ECFD
:100B68000EF05E685B68000E306E000E2F6E12008D
:100B78005B505D18D8A411D05C507AEC0DF06BBEB8
:100B880006D05A0E6A5C020E6B58D8B006D05D6863
:100B9800312A5E2A020E2F6E12005D28D8B4120088
:100BA8005B505D18D8B412005E5089EC0EF05D50B1
:100BB800D8B406D05D50420FD96EDA6ADF5001D042
:100BC800300E5E6E000E306E5DC05BF0000E316E52
:100BD8005D68000E2F6E1200070E5B18D8B40AD09D
:100BE800090E5B18D8B406D05B50D8B403D0050EF4
:100BF8002F6E1200070E5B18D8B404D0090E5B18CC
:100C0800D8A403D0060E2F6E12005B50D8A4120091
:100C1800302A020E3018D8A402D0000E306E3050A0
:100C28004D0FD96EDA6ADF504BD05D50800A7E0FC7
:100C3800D8B003D05D50D8A408D05D50800A760F94
:100C4800D8B003D0010E2F6E12005D50D8B40ED06C
:100C58005D50800A7E0FD8B009D05E28D8A406D08F
:100C68005D50300F89EC0EF05D687FD75D50D8B4C9
:100C780012005D50800A7E0FD8B012005E28D8B4EA
:100C880012005E5089EC0EF05E68040E2F6E1200A2
:100C98005D50300F89EC0EF0E7D7040E3118D8A458
:100CA80009D05B50420FD96EDA6ADF505E6E000ED3
:100CB800316E5BD7030E3118D8A404D05B50300FC7
:100CC8005E6E53D7030E316012004FD7040E3118F1
:100CD800D8B4F4D7050E3118D8B4E3D7040EF3D737
:100CE8002F50716E726A7250000AD8A412007150A7
:100CF800000AD8B416D7010AD8B43AD7030AD8B428
:100D08006BD7010AD8B491D7070AD8B4C1D7010A5A
:100D1800D8B4C3D7030AD8A41200D8D7A7D079A8C3
:100D280079B605D0000E206E000E1F6E120079A84D
:100D380004D05768010E1E6E120079A61200020E2A
:100D48001E6E12002350205CD8B014D0370E6A6E85
:100D58002050170D000EF3246B6E010EF4206C6EFC
:100D68004CEC0CF00009D8A403D020C057F08A86B8
:100D7800202AE0D723502018D8A412007998000E12
:100D88001E6E1200080E2018D8B422D022C06AF0B5
:100D98002050370FD96EDA6ADF5090EC0DF0222A16
:100DA8002050370FD96EDA6A2150170D000E6F6E7A
:100DB800010E706EF3506F26F450702220506F248D
:100DC800E16E000E7020E26EDFCFE7FF202AB7D772
:100DD800080E2018D8A41200000E206E030E1E6EF6
:100DE8001200080E2018D8B428D022C06AF020506B
:100DF800980FD96EDA6ADF5090EC0DF0222A205055
:100E0800980FD96EDA6A2150170D000E6F6E010E19
:100E1800706E090E6F26000E7022F3506F26F45084
:100E2800702220506F24E16E000E7020E26EDFCF3A
:100E3800E7FF202A030E1E6E1200080E2018D8A401
:100E480012007996222A9F0E2218D8A402D0100EDA
:100E5800226E212A080E2118D8A402D0000E216E75
:100E6800080E2318D8B48BD7232A89D71E506F6E43
:100E7800706A7050000AD8A412006F50000AD8B4E3
:100E88004ED7010AD8B45ED7030AD8B47BD7010A73
:100E9800D8A41200A6D783A003D0716A712A01D002
:100EA800716A83A202D0010E01D0000E020DF3CFA9
:100EB80072F083A402D0010E01D0000E030DF3CF0F
:100EC80073F083A602D0010E01D0000E040DF3507A
:100ED8007324722471242B6E6FD02B50D8A407D0A2
:100EE8008C888C9A8C9C000E2C6E2D2A12002B500C
:100EF800D8B412002E50F7EC0DF0030E2D6E120030
:100F08002B50D8A405D08C988C8A8C9C010EECD7D9
:100F18002B50D8B412002E50F7EC0DF0EED72B5012
:100F2800D8A408D08C988C9A8C8C020E2C6E000E4B
:100F38002D6E12002B50D8B412002E50F7EC0DF085
:100F4800D4D72E507AEC0DF06BBE1200CED72B50B2
:100F5800D8A403D0010E2D6E12002B50D8B4120065
:100F68002B50030DF3509E0F2C24D96EDA6ADF50F4
:100F78007DEC0EF02B50030DF3509E0F2C24D96EF0
:100F8800DA6ADF5079EC0EF0B0D72B50D8A41200F3
:100F98002E50F7EC0DF0A9D72E507AEC0DF0D4D7DF
:100FA8002B50D8B403D0050E2D6E12002B50D8A4A8
:100FB8001200000E2D6E12002D50716E726A725062
:100FC800000AD8A412007150000AD8B486D7010AC2
:100FD800D8B496D7030AD8B4A2D7010AD8B4B1D7DF
:100FE800070AD8B4B4D7010AD8B4CFD7030AD8B4FB
:100FF800D3D7010AD8A41200D3D75AD0C2B20BD083
:10100800C80EC46008D0320EC46405D0070EC26E84
:10101800788C0E2A5BD0C2B210D0C70EC4640DD033
:10102800020E0F18D8B403D0020E91EC0EF0020E87
:101038000F6E070EC26E789CECD7C2B247D0330E43
:10104800C46044D0080E0F18D8B403D0080E91EC31
:101058000EF0080EEDD7C2B20BD0C80EC46008D08F
:10106800320EC46405D0030EC26E788A0E062ED0E6
:10107800C2B210D0C70EC4640DD0060E0F18D8B473
:1010880003D0060E91EC0EF0060E0F6E030EC26E24
:10109800789AECD7C2B21AD0330EC46017D0040EB7
:1010A8000F18D8B403D0040E91EC0EF0040EEDD74F
:1010B8000E506B6E6C6A6C50000AD8A407D06B5047
:1010C800000AD8B49BD7010AD8B4C5D778AC1200A7
:1010D80078AA12000F50D8B41200FF0E91EC0EF04F
:1010E8000F6812000001C06FACEC0CF0326EC0C08B
:1010F80036F075C035F0000E336E33C034F0949876
:10110800959E949A000E0001C26F000EC16F000EEA
:10111800726E640E716E3250B4EC0DF0030EADECCD
:101128000AF0000E726E050E716E3250B4EC0DF0BE
:10113800030EADEC0AF0000E726E010E716E3250A5
:10114800B4EC0DF0030EADEC0AF0000E726E010E59
:10115800716E3250B4EC0DF0020EADEC0AF0000ED8
:10116800726E040E716E3250B4EC0DF0280E34EC31
:101178000DF06FEC0CF0080E34EC0DF06FEC0CF089
:10118800010E34EC0DF0000E726E030E716E3250CB
:10119800B4EC0DF06FEC0CF0060E34EC0DF06FECC7
:1011A8000CF00F0E34EC0DF00001C14BC22BC2BF86
:1011B800AED7C25104E1020EC15DD8A0A8D76FEC2A
:1011C8000CF00C0E34EC0DF012005AD052BE120086
:1011D80052500EEC0EF06AC001F06BC002F078823B
:1011E8007890010E076E120001C0D9FF02C0DAFF25
:1011F800DF50D8B4ACA208D0000EAD6E000E506E11
:101208008A86020E076E120001C0D9FF02C0DAFFFB
:10121800DF50D8B41200ACA2120001C0D9FF02C03E
:10122800DAFFDF50AD6E014A022A12004B0EAE18EB
:10123800D8A412007880030E076E12005128D8A493
:10124800ACA204D051C0ADFF5168F5D7300E506440
:101258000CD03A0E506009D0ACA207D050C0ADFFF8
:10126800000E506E030E076E120078B21200ACA288
:101278001200460EAD6E000E506E040E076E120080
:1012880007506D6E6E6A6E50000AD8A412006D5039
:10129800000AD8B49BD7010AD8B4A6D7030AD8B491
:1012A800C5D7010AD8B4CAD7070A12004BD05428A8
:1012B800D8B41200545055EC0EF07884020E096E22
:1012C800120078B409D05468A1EC0EF09FEC0EF02F
:1012D800000E096E8A9612000ABE09D00A50E5EC83
:1012E8000CF05DEC0EF00A68010E096E120037EC86
:1012F8000EF0D8A015D04FEC0EF0D8A011D0A7EC66
:101308000EF0010E726E000E8FEC0CF0A5EC0EF0D4
:101318000001C06FC0C06DF06E6A49EC0EF0E4D7F2
:101328005350800A7F0FD8A012005350300F59EC49
:101338000EF05368D9D731EC0EF0D8A01200A3EC08
:101348000EF0D2D709500001C06FC16BC151000A1D
:10135800D8A41200C051000AD8B4A9D7010AD8B439
:10136800B0D7030AD8A41200E6D748D079A2120051
:10137800010E1D6E000E1B6E1C50F7EC0DF0010ED9
:101388001A6E1200050E1D6404D07992000E1A6EB2
:101398001200A80E1B18D8A404D01D2A000E1B6E1C
:1013A800EED71C507AEC0DF01D50716E726A6A50BF
:1013B800715C7250800A736E6B50800A7358D8B093
:1013C80012008A801C50F7EC0DF0020E1A6E120003
:1013D8001C507AEC0DF01D50716E726A6A50715C87
:1013E8007250800A736E6B50800A7358D8B012001E
:1013F8008A901C50F7EC0DF01B2AC1D71A50716E59
:10140800726A7250000AD8A412007150000AD8B447
:10141800ADD7010AD8B4B6D7030AD8A41200D8D7D2
:10142800000EA96EA69EA69CA680A6B0FED7A8CF41
:1014380023F0A92AA69EA69CA6B0FED7A8CF22F084
:10144800A92A000E6C6E41D0000E6D6EA69EA69C59
:10145800A680A6B0FED76C50170D000E6A6E010E5E
:101468006B6EF3506A26F4506B226D506A24D96E65
:10147800000E6B20DA6EA8CFDFFFA92A6D2A080EAE
:101488006D64E4D7000E6E6EA69EA69CA680A6B0DC
:10149800FED76C50170D000E6A6E010E6B6E090EAA
:1014A8006A26000E6B22F3506A26F4506B226E50A7
:1014B8006A24D96E000E6B20DA6EA8CFDFFFA92A46
:1014C8006E2A080E6E64E0D76C2A23506C5CD8B084
:1014D8001200BAD732D00D507AEC0DF06BBE120064
:1014E800B50E6A5C040E6B58D8A012000D50F7ECCC
:1014F8000DF078A81FD0788663062F0E6318D8A43D
:1015080003D0390E636E62062F0E6218D8A403D07A
:10151800350E626E60062F0E6018D8A403D0390EFF
:10152800606E5F060C2A3B0E0C6404D0A9EC0EF02A
:10153800000E0C6E000E0B6E12000B50716E726A6C
:101548007250000AD8A412007150000AD8A41200E0
:10155800C2D76B6E94969494949294908B9A8C9E26
:101568008B888B886BA603D06A6A6A2A01D06A6A5C
:101578006A466A466A468B506A18F70B6A188B6E79
:101588006BA403D06A6A6A2A01D06A6A6A466A4604
:101598008B506A18FB0B6A188B6E6BA203D06A6AB1
:1015A8006A2A01D06A6A6A468B506A18FD0B6A1863
:1015B8008B6E6BA003D06A6A6A2A01D06A6A8B5064
:1015C8006A18FE0B6A188B6E8B981200CE0EF66E98
:1015D8001B0EF76E000EF86E00EEA1F010EE1FF075
:1015E8000900F5CFEEFFE550E150FAE18C0EF66EFA
:1015F8001B0EF76E000EF86E00EE44F010EE21F0B0
:101608000900F5CFEEFFE550E150FAE101EE00F0F8
:10161800B80EEE6AE806FDE100EE80F0210EEE6AF3
:10162800E806FDE1796A786A00EE01F0430EEE6A99
:10163800E806FDE17A907A92000EF86E000125EF37
:101648000BF0D7EC0DF04DEC0DF003EC0EF0C9ECFF
:101658000CF081EC0EF085EC0EF094EC05F014EC37
:101668000AF075EC0EF095EC0EF018EC0EF071EC3B
:101678000EF0100E756E020E76EC08F08DEC0EF082
:1016880064EC0DF05AEC09F0E9EC08F06EEC0AF0A5
:1016980001EC08F064EC01F0B9EC09F092EC06F00A
:1016A800A8EC03F04FEC07F094EC05F0C5EC0BF058
:1016B800E9D76B6E6BA603D06A6A6A2A01D06A6A98
:1016C8006A466A466A468B506A18F70B6A188B6E28
:1016D8006BA403D06A6A6A2A01D06A6A6A466A46B3
:1016E8008B506A18FB0B6A188B6E6BA203D06A6A60
:1016F8006A2A01D06A6A6A468B506A18FD0B6A1812
:101708008B6E6BA003D06A6A6A2A01D06A6A8B5012
:101718006A18FE0B6A188B6E12006B6E6BAE03D0E4
:101728006A6A6A2A01D06A6A6A466A466A468B50B9
:101738006A18F70B6A188B6E6BAC03D06A6A6A2A50
:1017480001D06A6A6A466A468B506A18FB0B6A18A7
:101758008B6E6BAA03D06A6A6A2A01D06A6A6A46E3
:101768008B506A18FD0B6A188B6E6BA803D06A6AD7
:101778006A2A01D06A6A8B506A18FE0B6A188B6E47
:10178800120079AE120005C0F6FF06C0F7FFF86A2E
:10179800010EF76403D00800F55005D0F6CFE1FF3D
:1017A800F7CFE2FFE75021EC0CF0054A062A05C006
:1017B800F6FF06C0F7FFF86A010EF76403D00800C9
:1017C800F55005D0F6CFE1FFF7CFE2FFE75000096B
:1017D800D8A41200799E000E056E000E066E120047
:1017E800DF0ED76E940ED66EF294034A042A480E82
:1017F800035CEE0E0458D8A01200000E2A6E070EE5
:101808002A6401D015D02A50030DF350820FD96EE7
:10181800DA6ADE04D8A40AD02A50030DF350800FE8
:10182800D96EDA6A0350DE5E0450DD5A2A2AE7D7F9
:10183800000E046E000E036E12000001C06F6FEC04
:101848000CF00001C0511BEC0DF0332A020E3618C3
:10185800D8A410D0270E33640DD0000E336E342A6E
:10186800010E346402D0000E346E34C072F033506E
:101878008FEC0CF03404D8A41200270E336402D085
:10188800000E336E34C072F033508FEC0CF012003F
:101898000ED06BC0D9FF6CC0DAFF6A50E16EE26A05
:1018A800DE50E618D8A409D06A2A6B4A6C2A6A5016
:1018B800D96EDA6ADF50D8A4ECD76BC0D9FF6CC0F8
:1018C800DAFFDF506D6E6A50D96EDA6ADF506E6EDD
:1018D8006D506E5C120094869484948294808B9AE6
:1018E8008C8E3250F7EC0DF08B888B88000E82B608
:1018F800010E716E8B988B988B888B888B988B9840
:1019080032507AEC0DF06A506B10D8A41200715066
:10191800D8B41200E9D7776E7250D8B404D0000E4C
:10192800766E400E03D0000E766E000E756E775000
:101938007524736E000E7620746E6FEC0CF0735085
:10194800800934EC0DF072C034F077C033F0120027
:10195800000E2A6E07D02A2A080E2A18D8A402D008
:10196800FF0E12002A50030DF350820FD96EDA6A67
:10197800DE04D8B4F0D72A50030DF350820FD96E85
:10198800DA6A010EDF6E2A501200D09EF28EF28CB7
:10199800F28AF294880ED56EDF0ED76E940ED66E4C
:1019A800D58E000E2A6E070E2A6401D012002A5026
:1019B800030DF350820FD96EDA6A000EDF6E2A2A01
:1019C800F2D76A6E020E6A18D8A402D0570E120017
:1019D800060E6A18D8A402D0440E1200080E6A181F
:1019E800D8A402D0530E1200040E6A18D8A402D04C
:1019F800410E1200000E12006A50D96EDA6ADF50EA
:101A08005F6E6A50D96EDA6A010ED926DF50606EB1
:101A18006A50D96EDA6A020ED926DF50626E6A50B1
:101A2800D96EDA6A030ED926DF50636E12006C6E27
:101A380094969494949294908B8A8C9E8B886C50F4
:101A480091EC0BF08B888B988B988B886C505DECA5
:101A58000BF08B888B9894869484948294801200DF
:101A68006C6E94969494949294908B9A8C9E8B8896
:101A78006C5091EC0BF08B888B988B988B886C5002
:101A88005DEC0BF08B888B98948694849482948078
:101A98001200000E6A6E000EA96E000EA86EA69EB9
:101AA800A69CA684F29E550EA76EAA0EA76EA682C5
:101AB800A6B2FED76A2A9F0E6A64EDD7F28E12008C
:101AC800010E0101006F010E096F310E176F310E03
:101AD800206F000E016F000E0A6F000E186F000EC7
:101AE800216F020E236E020E226E12006E6E03C06C
:101AF8006FF004C070F06E50030DF350800FD96E74
:101B0800DA6ADECF6CF0DDCF6DF06C506F5C6A6E18
:101B18006D5070586B6E12006B6E6AC0A9FF6BC077
:101B2800A8FFA69EA69CA684F29E550EA76EAA0E96
:101B3800A76EA682A6B2FED7F28E12006FEC0CF04A
:101B4800010E34EC0DF0000E726E030E716E325001
:101B5800B4EC0DF0000E726E000E8FEC0CF012005B
:101B6800746E7450F7EC0DF074507AEC0DF07150FF
:101B78006A5C6B50800A736E7250800A7358D8B0D2
:101B88001200F2D74144474A4D50545700302000C4
:101B9800FFFFFFFFFF0F0FFFFFFFFFFFFFFFFF33F9
:051BA800303A3030006E
:101BAE00030E926EE00E936E8A968A908A92C00E03
:101BBE00946E8F0E956E000E8C6EA68EA69C1200E5
:101BCE000102030405060708090A000B322E5245CE
:0F1BDE0047495354455200312E4C4F47494E0052
:101BEE006A6E6A50030DF350800FD96EDA6A03C025
:101BFE00DEFF04C0DDFF1200240EAC6E900EAB6E45
:101C0E00080EB86E040EB06E100EAF6E12006C6E33
:101C1E006C50170D000EF3246A6E010EF4206B6EDD
:101C2E001200010EC26E0D0EC16E090EC06E7F0E39
:101C3E00C46E12006B6E6A50980FD96EDA6A6BC062
:101C4E00DFFF12006B6E6A50370FD96EDA6A6BC007
:101C5E00DFFF120078B002D0D8901200D8801200A8
:101C6E0078B602D0D8901200D880120079B802D07F
:101C7E00D8901200D88012006A6E788E6AC018F062
:101C8E00798012006DC005F06EC006F0798E1200DC
:101C9E0079AE02D0D8901200D88012006A6E6AC057
:101CAE0052F012006A6E6AC050F012006A6E6AC07C
:101CBE0051F0120057C06AF06A3012006A6E6AC0A4
:101CCE0053F012006A6E6AC00AF012006A6E6AC0A1
:101CDE0054F01200ACEC0CF00D6E1200ACEC0CF0EB
:101CEE001C6E12006A6E6AC05DF012006A6E6AC0E7
:101CFE005AF01200ACEC0CF02E6E1200ACEC0CF0A4
:101D0E005C6E12006A6E6AC059F01200ACEC0CF0F8
:101D1E00286E12006A6E6AC058F01200ACEC0CF01D
:101D2E00196E1200798C5D681200799C5D68120044
:101D3E007892120078981200788812005F0E1200C6
:101D4E0078961200798212002350120079881200C0
:101D5E007986120079801200799012007894120020
:020000040020DA
:08000000FFFFFFFFFFFFFFFF00
:020000040030CA
:0E000000FF061F1EFF8181FF03C003E00340C7
:00000001FF
