:020000040000FA
:0400000019EF00F004
:100008007882D9CF62F0DACF63F0F3CF64F0F4CF1F
:1000180065F0D2EC04F065C0F4FF64C0F3FF63C080
:0E002800DAFF62C0D9FF789211004FEF05F0A9
:1002000000322E524547495354455200312E4C4F2F
:1002100047494E00505357443A2000555345523AEF
:03022000200000BB
:10022400F4D082EC06F00C0E666EE9EC06F0010EDA
:10023400246E1200DDEC06F0D8A01200010E6E6EE2
:10024400000EB0EC05F0010E666EE9EC06F05068A5
:10025400020E246E12005004D8A409D008EC07F052
:100264000009D8B404D07784030E246E1200020E61
:100274005018D8A4120008EC07F0756E080E7560CB
:1002840012007794F1D7506882EC06F01B0E666E6C
:10029400E9EC06F0040E246E1200DDEC06F0D8A0A2
:1002A4001200010E6E6E000EB0EC05F0140E666EB8
:1002B400E9EC06F0050E246E1200DDEC06F0D8A081
:1002C4001200000E6E6E060EB0EC05F005EC07F0A1
:1002D400000E266E060E246E12004F50800A500F38
:1002E400D8A014D05050800A750FD8B00FD04F50FA
:1002F400FFEC04F026503D0FD96EDA6A4FC0DFFFE1
:1003040050684F68262A070E246E12000B0E5018F0
:10031400D8A41200080E266E070E246E1200080ED2
:100324002618D8A4D7D7080E2618D8A41200010E70
:100334006E6E060EB0EC05F026503D0FD96EDA6AEB
:100344004FC0DFFF50684F68000E266E080E246E03
:1003540012004F50800A500FD8A014D05050800A79
:10036400750FD8B00FD04F50FFEC04F02650340F67
:10037400D96EDA6A4FC0DFFF50684F68262A090E2B
:10038400246E12000B0E5018D8A41200080E266E0C
:10039400090E246E1200080E2618D8A4D7D7080E0A
:1003A4002618D8A412002650340FD96EDA6A4FC02A
:1003B400DFFF50684F68000E266E82EC06F03D0E9B
:1003C400666E340E676ED0EC06F00AEC07F00A0E87
:1003D400246E120077B407D0D7EC06F0D8B003D05F
:1003E4000C0E246E120077A40BD0AE0E756E0D0E9B
:1003F400766E75047610D8A403D00D0E246E120008
:1004040077B41200000E246E12002450756E766AC2
:100414007650000AD8A412007550000AD8B401D747
:10042400010AD8B407D7030AD8B415D7010AD8B437
:100434002AD7070AD8B431D7010AD8B43ED7030A59
:10044400D8B44BD7010AD8B46AD70F0AD8B481D725
:10045400010AD8B4A0D7030AD8B41200010AD8B448
:10046400B9D7070AD8B41200010A1200B7D053282A
:10047400D8A477A606D05250C4EC06F0030E2C6E16
:1004840012005328D8A4120052506CEC06F067BE38
:1004940012005A0E665C020E6758D8A01200542847
:1004A400D8B4120077A612005450FDEC06F054683C
:1004B4005168120051505318D8A410D052506CEC0B
:1004C40006F067BE06D05A0E665C020E6758D8B0B6
:1004D40005D053682D2A542A2C2A12005328D8B444
:1004E400120051505318D8B412005450FDEC06F0C9
:1004F4005350440FD96EDA6ADF50546E53C051F032
:10050400000E2D6E53682C061200070E5118D8B435
:1005140007D0090E5118D8B403D0050E2C6E120062
:10052400070E5118D8B404D0090E5118D8A41200DB
:10053400060E2C6E12005350800A7E0FD8A008D0ED
:100544005350800A760FD8B003D0010E2C6E1200DF
:100554005350800A7E0FD8B00BD05428D8A408D0AA
:100564005350300FFDEC06F05368000E2C6E120051
:100574005350800A7E0FD8B012005428D8B4120009
:100584005450FDEC06F054682C2A12005350300FDE
:10059400FDEC06F0E9D7040E2D18D8A409D051506B
:1005A400440FD96EDA6ADF50546E000E2D6EDDD71B
:1005B400030E2D18D8A404D05150300F546ED5D743
:1005C400030E2D601200D1D7040E2D18D8B4F4D721
:1005D400050E2D18D8B4E3D7040EF3D72C506D6E46
:1005E4006E6A6E50000AD8A412006D50000AD8B486
:1005F4003ED7010AD8B45ED7030AD8B486D7010A15
:10060400D8B499D7070AD8B4C1D7010AD8B4C3D784
:10061400030AD8A41200D8D783A003D06D6A6D2A28
:1006240001D06D6A83A202D0010E01D0000E020D2A
:10063400F3CF6EF083A402D0010E01D0000E030D9F
:10064400F3CF6FF083A602D0010E01D0000E040D8B
:10065400F3506F246E246D24286E6FD02850D8A4D4
:1006640007D08C888C9A8C9C000E296E2A2A120042
:100674002850D8B412002B50C4EC06F0030E2A6E96
:1006840012002850D8A405D08C988C8A8C9C010E1A
:10069400ECD72850D8B412002B50C4EC06F0EED797
:1006A4002850D8A408D08C988C9A8C8C020E296E71
:1006B400000E2A6E12002850D8B412002B50C4EC3D
:1006C40006F0D4D72B506CEC06F067BE1200CED7E0
:1006D4002850D8A403D0010E2A6E12002850D8B492
:1006E40012002850030DF350520F2924D96EDA6AF0
:1006F400DF50F1EC06F02850030DF350520F29247B
:10070400D96EDA6ADF50EDEC06F0B0D72850D8A4E1
:1007140012002B50C4EC06F0A9D72B506CEC06F059
:10072400D4D72850D8B403D0050E2A6E120028500E
:10073400D8A41200000E2A6E12002A506D6E6E6A42
:100744006E50000AD8A412006D50000AD8B486D79F
:10075400010AD8B496D7030AD8B4A2D7010AD8B4E8
:10076400B1D7070AD8B4B4D7010AD8B4CFD7030A8B
:10077400D8B4D3D7010AD8A41200D3D7726ECDEC63
:1007840005F02F6E72C033F071C032F0000E306E7F
:1007940030C031F09498959E949A000E746E000EB9
:1007A400736E000E6E6E640E6D6E2F5094EC06F038
:1007B400030E2DEC04F0000E6E6E050E6D6E2F50C0
:1007C40094EC06F0030E2DEC04F0000E6E6E010E98
:1007D4006D6E2F5094EC06F0030E2DEC04F0000E19
:1007E4006E6E010E6D6E2F5094EC06F0020E2DEC21
:1007F40004F0000E6E6E040E6D6E2F5094EC06F035
:10080400280E3BEC06F073EC05F0080E3BEC06F00A
:1008140073EC05F0010E3BEC06F0000E6E6E030E59
:100824006D6E2F5094EC06F073EC05F0060E3BEC65
:1008340006F073EC05F00F0E3BEC06F0734A742AD5
:1008440074BEAFD7745004E1020E735CD8A0A9D76C
:10085400E3EC06F01200676E94969494949294904C
:100864008B9A8C9E8B888B8867A603D0666A662ACF
:1008740001D0666A6646664666468B506618F70B74
:1008840066188B6E67A403D0666A662A01D0666A0E
:10089400664666468B506618FB0B66188B6E67A21D
:1008A40003D0666A662A01D0666A66468B5066186B
:1008B400FD0B66188B6E67A003D0666A662A01D0AA
:1008C400666A8B506618FE0B66188B6E8B98120046
:1008D400676E67A603D0666A662A01D0666A6646B2
:1008E400664666468B506618F70B66188B6E67A4CF
:1008F40003D0666A662A01D0666A664666468B50ED
:100904006618FB0B66188B6E67A203D0666A662AAC
:1009140001D0666A66468B506618FD0B66188B6EAE
:1009240067A003D0666A662A01D0666A8B5066188F
:10093400FE0B66188B6E1200676E67AE03D0666A94
:10094400662A01D0666A6646664666468B50661815
:10095400F70B66188B6E67AC03D0666A662A01D003
:10096400666A664666468B506618FB0B66188B6E85
:1009740067AA03D0666A662A01D0666A66468B5007
:100984006618FD0B66188B6E67A803D0666A662A24
:1009940001D0666A8B506618FE0B66188B6E1200C7
:1009A400DF0ED76E940ED66EF2941D4A1E2A480EA0
:1009B4001D5CEE0E1E58D8A01200000E276E070E06
:1009C400276401D015D02750030DF350030FD96EBF
:1009D400DA6ADE04D8A40AD02750030DF350010FBD
:1009E400D96EDA6A1D50DE5E1E50DD5A272AE7D71B
:1009F400000E1E6E000E1D6E1200746E73EC05F078
:100A0400745022EC06F0302A020E3318D8A410D009
:100A1400270E30640DD0000E306E312A010E316481
:100A240002D0000E316E31C06EF03050B0EC05F0E3
:100A34003104D8A41200270E306402D0000E306EA8
:100A440031C06EF03050B0EC05F0120010D068C028
:100A5400D9FF69C0DAFF66C0E1FF67C0E2FFDE507C
:100A6400E618D8A40BD0664A672A684A692A66C081
:100A7400D9FF67C0DAFFDF50D8A4E9D768C0D9FF2F
:100A840069C0DAFFDF506A6E66C0D9FF67C0DAFF5B
:100A9400DF506B6E6A506B5C12006C0EF66E0D0EBE
:100AA400F76E000EF86E00EE46F010EE1BF0090033
:100AB400F5CFEEFFE550E150FAE101EE00F0B80E9B
:100AC400EE6AE806FDE1776A00EE01F0450EEE6A93
:100AD400E806FDE178907892000EF86E0001EAEFE6
:100AE40005F094869484948294808B9A8C8E2F50F3
:100AF400C4EC06F08B888B88000E82B6010E6D6EF6
:100B04008B988B988B888B888B988B982F506CEC58
:100B140006F066506710D8A412006D50D8B41200C5
:100B2400E9D70CD077A2120077A212007790010EB9
:100B34001F6E12007792000E1F6E12001F506C6E13
:100B44006D6A6D50000AD8A412006C50000AD8B423
:100B5400E9D7010AD8B4EED7030A1200736E6E50B7
:100B6400D8B404D0000E726E400E03D0000E726E24
:100B7400000E716E735071246F6E000E7220706ED1
:100B840073EC05F06F5080093BEC06F06EC031F059
:100B940073C030F01200000E276E07D0272A080E0B
:100BA4002718D8A402D0FF0E12002750030DF350CB
:100BB400030FD96EDA6ADE04D8B4F0D72750030DD8
:100BC400F350030FD96EDA6A010EDF6E275012005C
:100BD400A6EC06F006EC06F0F5EC06F0F9EC06F0EF
:100BE40038EC02F0100E716E020EC0EC03F001EC52
:100BF40007F012EC01F093EC05F00EEC03F038EC86
:100C040002F054EC06F0F5D7D09EF28EF28CF28A04
:100C1400F294880ED56EDF0ED76E940ED66ED58EF6
:100C2400000E276E070E276401D012002750030D13
:100C3400F350030FD96EDA6A000EDF6E272AF2D75B
:100C4400686E94969494949294908B8A8C9E8B88DC
:100C540068509EEC04F08B888B988B988B88685036
:100C64006AEC04F08B888B989486948494829480A4
:100C74001200686E94969494949294908B9A8C9E9D
:100C84008B8868509EEC04F08B888B988B988B88AB
:100C940068506AEC04F08B888B98948694849482D0
:100CA4009480120077A812002EC0F6FF020EF76E91
:100CB4000800F550FFEC04F02E2A2EC0F6FF020EB9
:100CC400F76E0800F5500009D8A412007798000EBA
:100CD4002E6E12006A6E1DC06BF01EC06CF06A505E
:100CE400030DF350010FD96EDA6ADECF68F0DDCF61
:100CF40069F068506B5C666E69506C58676E1200E0
:100D040073EC05F0010E3BEC06F0000E6E6E030E64
:100D14006D6E2F5094EC06F0000E6E6E000EB0EC6B
:100D240005F01200706E7050C4EC06F070506CEC5C
:100D340006F06D50665C6750800A6F6E6E50800AD4
:100D44006F58D8B01200F2D7030E926EE00E936E75
:100D54008A968A908A92C00E946E8F0E956E000EBB
:100D64008C6EA68EA69C12004144474A4D5054579F
:100D740000FFFFFFFFFFFF01020304050607080948
:030D84000A000B57
:100D8800666E6650030DF350010FD96EDA6A1DC006
:100D9800DEFF1EC0DDFF120066C01BF01C6A67C0C4
:100DA80019F01A6A120077B002D0D8901200D880D1
:100DB800120077A802D0D8901200D880120073ECE5
:100DC80005F00C0E3BEC06F0120066C02EF077889A
:100DD8001200666E66C053F01200666E66C050F070
:100DE8001200CDEC05F02B6E1200CDEC05F0526E22
:100DF8001200666E66C04FF01200CDEC05F0256E4D
:100E0800120077865368120022501200778212006F
:020000040020DA
:08000000FFFFFFFFFFFFFFFF00
:020000040030CA
:0E000000FF061F1EFF8181FF03C003E00340C7
:00000001FF
