:020000040000FA
:0400000019EF00F004
:100008007882D9CF62F0DACF63F0F3CF64F0F4CF1F
:1000180065F032EC05F065C0F4FF64C0F3FF63C01F
:0E002800DAFF62C0D9FF7892110088EF05F070
:1002000000322E524547495354455200312E4C4F2F
:1002100047494E00505357443A2000555345523AEF
:03022000200000BB
:10022400F6D09EEC06F00C0E666E05EC07F0010E9F
:10023400246E1200F9EC06F0D8A01200010E6E6EC6
:10024400000ECCEC05F0010E666E05EC07F050686C
:10025400020E246E12005004D8A409D024EC07F036
:100264000009D8B404D07784030E246E1200020E61
:100274005018D8A412007794F7D750689EEC06F073
:100284001B0E666E05EC07F0040E246E1200F9ECEA
:1002940006F0D8A01200010E6E6E000ECCEC05F034
:1002A400140E666E05EC07F0050E246E1200F9ECD0
:1002B40006F0D8A01200000E6E6E060ECCEC05F00F
:1002C40021EC07F0000E266E060E246E12004F502D
:1002D400800A500FD8A014D05050800A750FD8B09F
:1002E4000FD04F505FEC05F026503D0FD96EDA6AFF
:1002F4004FC0DFFF50684F68262A070E246E120095
:100304000B0E5018D8A41200080E266E070E246E89
:100314001200080E2618D8A4D7D7080E2618D8A479
:100324001200010E6E6E060ECCEC05F026503D0F49
:10033400D96EDA6A4FC0DFFF50684F68000E266E30
:10034400080E246E12004F50800A500FD8A014D00B
:100354005050800A750FD8B00FD04F505FEC05F0A5
:100364002650340FD96EDA6A4FC0DFFF50684F68E9
:10037400262A090E246E12000B0E5018D8A412005F
:10038400080E266E090E246E1200080E2618D8A434
:10039400D7D7080E2618D8A412002650340FD96EC9
:1003A400DA6A4FC0DFFF50684F68000E266E9EEC7D
:1003B40006F03D0E666E340E676EECEC06F026EC2D
:1003C40007F00A0E246E120077B407D0F3EC06F09F
:1003D400D8B003D00C0E246E120077A40BD0E60E16
:1003E400756E0D0E766E75047610D8A403D00D0EBE
:1003F400246E120077B41200000E246E1200720EE6
:100404005FEC05F012006C0E5FEC05F01200245056
:10041400756E766A7650000AD8A412007550000AE8
:10042400D8B4FFD6010AD8B405D7030AD8B413D771
:10043400010AD8B422D7070AD8B429D7010AD8B4F4
:1004440036D7030AD8B443D7010AD8B462D70F0AFF
:10045400D8B479D7010AD8B498D7030AD8B412000B
:10046400010AD8B4B1D7070AD8B4C9D7010AD8A4A5
:100474001200C9D7B7D05328D8A477A606D05250B3
:10048400E0EC06F0030E2C6E12005328D8A41200E0
:10049400525088EC06F067BE12005A0E665C020EDB
:1004A4006758D8A012005428D8B4120077A61200B6
:1004B400545019EC07F05468516812005150531805
:1004C400D8A410D0525088EC06F067BE06D05A0E5D
:1004D400665C020E6758D8B005D053682D2A542A9A
:1004E4002C2A12005328D8B4120051505318D8B4EF
:1004F4001200545019EC07F05350440FD96EDA6AC5
:10050400DF50546E53C051F0000E2D6E53682C060C
:100514001200070E5118D8B407D0090E5118D8B4D8
:1005240003D0050E2C6E1200070E5118D8B404D057
:10053400090E5118D8A41200060E2C6E1200535046
:10054400800A7E0FD8A008D05350800A760FD8B006
:1005540003D0010E2C6E12005350800A7E0FD8B0C7
:100564000BD05428D8A408D05350300F19EC07F0FE
:100574005368000E2C6E12005350800A7E0FD8B0C0
:1005840012005428D8B41200545019EC07F05468DF
:100594002C2A12005350300F19EC07F0E9D7040E3F
:1005A4002D18D8A409D05150440FD96EDA6ADF50FF
:1005B400546E000E2D6EDDD7030E2D18D8A404D072
:1005C4005150300F546ED5D7030E2D601200D1D781
:1005D400040E2D18D8B4F4D7050E2D18D8B4E3D7CB
:1005E400040EF3D72C506D6E6E6A6E50000AD8A4B8
:1005F40012006D50000AD8B43ED7010AD8B45ED7B1
:10060400030AD8B486D7010AD8B499D7070AD8B44C
:10061400C1D7010AD8B4C3D7030AD8A41200D8D7C3
:1006240083A003D06D6A6D2A01D06D6A83A202D0C3
:10063400010E01D0000E020DF3CF6EF083A402D0A0
:10064400010E01D0000E030DF3CF6FF083A602D08C
:10065400010E01D0000E040DF3506F246E246D249E
:10066400286E6FD02850D8A407D08C888C9A8C9C84
:10067400000E296E2A2A12002850D8B412002B50DA
:10068400E0EC06F0030E2A6E12002850D8A405D020
:100694008C988C8A8C9C010EECD72850D8B412000C
:1006A4002B50E0EC06F0EED72850D8A408D08C9854
:1006B4008C9A8C8C020E296E000E2A6E1200285021
:1006C400D8B412002B50E0EC06F0D4D72B5088ECB1
:1006D40006F067BE1200CED72850D8A403D0010E6E
:1006E4002A6E12002850D8B412002850030DF3507B
:1006F400520F2924D96EDA6ADF500DEC07F0285026
:10070400030DF350520F2924D96EDA6ADF5009EC35
:1007140007F0B0D72850D8A412002B50E0EC06F014
:10072400A9D72B5088EC06F0D4D72850D8B403D0DE
:10073400050E2A6E12002850D8A41200000E2A6E4C
:1007440012002A506D6E6E6A6E50000AD8A4120010
:100754006D50000AD8B486D7010AD8B496D7030AD4
:10076400D8B4A2D7010AD8B4B1D7070AD8B4B4D739
:10077400010AD8B4CFD7030AD8B4D3D7010AD8A46E
:100784001200D3D7726EE9EC05F02F6E72C033F00D
:1007940071C032F0000E306E30C031F09498959EE6
:1007A400949A000E746E000E736E000E6E6E640EDC
:1007B4006D6E2F50B0EC06F0030E8DEC04F0000EBD
:1007C4006E6E050E6D6E2F50B0EC06F0030E8DECC0
:1007D40004F0000E6E6E010E6D6E2F50B0EC06F03C
:1007E400030E8DEC04F0000E6E6E010E6D6E2F5034
:1007F400B0EC06F0020E8DEC04F0000E6E6E040EEA
:100804006D6E2F50B0EC06F0280E57EC06F0ACECF1
:1008140005F0080E57EC06F0ACEC05F0010E57ECB1
:1008240006F0000E6E6E030E6D6E2F50B0EC06F0E7
:10083400ACEC05F0060E57EC06F0ACEC05F00F0E30
:1008440057EC06F0734A742A74BEAFD7745004E1AF
:10085400020E735CD8A0A9D7FFEC06F01200000EBC
:10086400A96EA69EA69CA680A6B0FED7A8CF22F00D
:10087400080E226EA92AA69EA69CA6B0FED7A8CFD3
:1008840021F0A92A000E686E41D0000E696EA69E62
:10089400A69CA680A6B0FED76850170D000E666E03
:1008A400010E676EF3506626F45067226950662481
:1008B400D96E000E6720DA6EA8CFDFFFA92A692A55
:1008C400080E6964E4D7000E6A6EA69EA69CA680F4
:1008D400A6B0FED76850170D000E666E010E676E47
:1008E400090E6626000E6722F3506626F45067222E
:1008F4006A506624D96E000E6720DA6EA8CFDFFF37
:10090400A92A6A2A080E6A64E0D7682A2250685C19
:10091400D8B01200BAD7676E949694949492949037
:100924008B9A8C9E8B888B8867A603D0666A662A0E
:1009340001D0666A6646664666468B506618F70BB3
:1009440066188B6E67A403D0666A662A01D0666A4D
:10095400664666468B506618FB0B66188B6E67A25C
:1009640003D0666A662A01D0666A66468B506618AA
:10097400FD0B66188B6E67A003D0666A662A01D0E9
:10098400666A8B506618FE0B66188B6E8B98120085
:10099400676E67A603D0666A662A01D0666A6646F1
:1009A400664666468B506618F70B66188B6E67A40E
:1009B40003D0666A662A01D0666A664666468B502C
:1009C4006618FB0B66188B6E67A203D0666A662AEC
:1009D40001D0666A66468B506618FD0B66188B6EEE
:1009E40067A003D0666A662A01D0666A8B506618CF
:1009F400FE0B66188B6E1200676E67AE03D0666AD4
:100A0400662A01D0666A6646664666468B50661854
:100A1400F70B66188B6E67AC03D0666A662A01D042
:100A2400666A664666468B506618FB0B66188B6EC4
:100A340067AA03D0666A662A01D0666A66468B5046
:100A44006618FD0B66188B6E67A803D0666A662A63
:100A540001D0666A8B506618FE0B66188B6E120006
:100A6400DF0ED76E940ED66EF2941D4A1E2A480EDF
:100A74001D5CEE0E1E58D8A01200000E276E070E45
:100A8400276401D015D02750030DF350030FD96EFE
:100A9400DA6ADE04D8A40AD02750030DF350010FFC
:100AA400D96EDA6A1D50DE5E1E50DD5A272AE7D75A
:100AB400000E1E6E000E1D6E1200746EACEC05F07E
:100AC40074503EEC06F0302A020E3318D8A410D02D
:100AD400270E30640DD0000E306E312A010E3164C1
:100AE40002D0000E316E31C06EF03050CCEC05F007
:100AF4003104D8A41200270E306402D0000E306EE8
:100B040031C06EF03050CCEC05F01200A40EF66E3D
:100B14000D0EF76E000EF86E00EE46F010EE1BF0B0
:100B24000900F5CFEEFFE550E150FAE101EE00F0E7
:100B3400B80EEE6AE806FDE1776A00EE01F0450EB4
:100B4400EE6AE806FDE178907892000EF86E0001F6
:100B540006EF06F094869484948294808B9A8C8E0B
:100B64002F50E0EC06F08B888B88000E82B6010EC5
:100B74006D6E8B988B988B888B888B988B982F5065
:100B840088EC06F066506710D8A412006D50D8B4F3
:100B94001200E9D7736E6E50D8B404D0000E726E92
:100BA400400E03D0000E726E000E716E73507124ED
:100BB4006F6E000E7220706EACEC05F06F50800901
:100BC40057EC06F06EC031F073C030F01200000E26
:100BD400276E07D0272A080E2718D8A402D0FF0EA4
:100BE40012002750030DF350030FD96EDA6ADE04A6
:100BF400D8B4F0D72750030DF350030FD96EDA6A37
:100C0400010EDF6E27501200C2EC06F022EC06F053
:100C140011EC07F015EC07F03CEC02F031EC04F0B9
:100C2400100E716E020EC4EC03F01DEC07F012EC12
:100C340001F012EC03F03CEC02F070EC06F0F7D794
:100C4400D09EF28EF28CF28AF294880ED56EDF0E6C
:100C5400D76E940ED66ED58E000E276E070E2764BF
:100C640001D012002750030DF350030FD96EDA6A36
:100C7400000EDF6E272AF2D7686E949694949492AD
:100C840094908B8A8C9E8B886850FEEC04F08B8841
:100C94008B988B988B886850CAEC04F08B888B985F
:100CA40094869484948294801200686E94969494AA
:100CB400949294908B9A8C9E8B886850FEEC04F0EE
:100CC4008B888B988B988B886850CAEC04F08B883F
:100CD4008B989486948494829480120077A812004E
:100CE4002EC0F6FF020EF76E0800F5505FEC05F01B
:100CF4002E2A2EC0F6FF020EF76E0800F5500009EA
:100D0400D8A412007798000E2E6E12006A6E1DC0D1
:100D14006BF01EC06CF06A50030DF350010FD96ED6
:100D2400DA6ADECF68F0DDCF69F068506B5C666E1E
:100D340069506C58676E1200ACEC05F0010E57EC6C
:100D440006F0000E6E6E030E6D6E2F50B0EC06F0C2
:100D5400000E6E6E000ECCEC05F01200706E70503A
:100D6400E0EC06F0705088EC06F06D50665C67505D
:100D7400800A6F6E6E50800A6F58D8B01200F2D796
:100D8400030E926EE00E936E8A968A908A92C00E3B
:100D9400946E8F0E956E000E8C6EA68EA69C12001D
:100DA4004144474A4D50545700FFFFFFFFFFFF01E6
:0B0DB40002030405060708090A000BF3
:100DC000666E6650030DF350010FD96EDA6A1DC0CE
:100DD000DEFF1EC0DDFF120066C01BF01C6A67C08C
:100DE00019F01A6A120077B002D0D8901200D88099
:100DF000120077A802D0D8901200D8801200ACEC74
:100E000005F00C0E57EC06F0120066C02EF0778845
:100E10001200666E66C053F01200666E66C050F037
:100E20001200E9EC05F02B6E1200E9EC05F0526EB1
:100E30001200666E66C04FF01200E9EC05F0256EF8
:100E40001200778653681200225012007782120037
:020000040020DA
:08000000FFFFFFFFFFFFFFFF00
:020000040030CA
:0E000000FF061F1EFF8181FF03C003E00340C7
:00000001FF
