:020000040000FA
:0400000019EF00F004
:100008007A82D9CF5FF0DACF60F0F3CF61F0F4CF26
:1000180062F033EC0CF062C0F4FF61C0F3FF60C023
:0E002800DAFF5FC0D9FF7A92110009EF0BF0EA
:1002000000312E506C617920612047616D650000DE
:100210000000000000000000000000000000322E7E
:100220004D6F646966792054696D650000000000B7
:100230000000000000000000000000332E53686F33
:10024000772047656E6572616C20546F7020352091
:1002500053636F7265732000342E4C6F676F757433
:10026000000000000000000000000000000000008E
:100270000000000000352E53686F7720416C6C2021
:10028000557365727300000000000000000000005C
:10029000000054494D452052454D41494E494E4775
:1002A0003A004D6F646966792054696D653A00546F
:1002B000494D45204C4546543A2000322E52454780
:1002C0004953544552004259452042594520005354
:1002D000434F52453A20004552524F52533A003153
:1002E0002E4C4F47494E00505357443A2000555327
:1002F00045523A20000065D28AEC0DF0DF0EC2DADA
:1003000056EC0EF0010E2C6E010C5CEC0EF0D8A039
:100310001200C3DAE9EC0CF0BB0EB4DA56EC0EF0C6
:100320005068020E2C6E020C500408E1C6EC0EF070
:10033000000904E0788E030E2C6E030C020E501898
:10034000D8A41200789EF7D750684F688AEC0DF059
:10035000EE0E98DA56EC0EF0040E2C6E040C5CECEB
:100360000EF0D8A0120099DAE9EC0CF0E70E8ADA68
:1003700056EC0EF0050E2C6E050C5CEC0EF0D8A0C1
:100380001200000E6B6E060EE9EC0CF0ADEC0EF0F8
:10039000316A060E2C6E060C4F50800A600F0EE379
:1003A0000A0E50180BE04F500FEC0CF031C063F008
:1003B0004F5024EC0EF0070E2C6E070C0B0E50184D
:1003C000FAE01200070E311805E00B0E501802E09B
:1003D0006BDADFD7070E311804E00B0E5018D8A4E3
:1003E0001200010E6B6E060EE9EC0CF031C063F0EA
:1003F000000E24EC0EF054DA080E2C6E080C4F5050
:10040000800A600F0EE30A0E50180BE04F500FECFD
:100410000CF031C063F04F501CEC0EF0090E2C6E46
:10042000090C0B0E5018FAE01200070E311805E007
:100430000B0E501802E038DADFD7070E311804E04F
:100440000B0E5018D8A4120031C063F0000E1CEC43
:100450000EF026DACAEC0EF0B0EC0EF00A0E2C6E9E
:100460000A0C4AEC0EF0D8B01200C8EC0EF02E6E5A
:100470000B0E2C6E0B0C0C0E2C6E0C0C2C6A12003E
:100480008AEC0DF0CEEC0EF02F5050EC0EF04E68D2
:1004900050680D0E2C6E0D0C080E4E1805E1040E62
:1004A0002F60E9D72F2AE7D7020E4E1804E12F500C
:1004B000E2E02F06E0D70B0E50180EE1030E2F18C6
:1004C0000BE1D2EC0EF08AEC0DF0C60EDBD956EC47
:1004D0000EF00E0E2C6E0E0C0B0E50180EE12F04AB
:1004E0000CE18AEC0DF0D2EC0EF0A20ECBD956EC5A
:1004F0000EF05068100E2C6E100C2F5012E10B0EE7
:1005000050180FE1D2EC0EF050688AEC0DF0920E0C
:10051000B9D956EC0EF02E507AEC0EF0150E2C6E6A
:10052000150C0B0E5018D8A41200040E2F18D8A4C6
:100530001200D2EC0EF08AEC0DF02F6A5068C4EC79
:100540000EF01E0E2C6E1E0C5CEC0EF0D8A01200ED
:100550002E5009EC0EF063C066F064C067F056ECF4
:100560000EF03050E5EC0DF00F0E2C6E0F0C3050ED
:1005700041EC0DF064BE12006B0E635C090E645812
:1005800001E37CD712005CEC0EF047E350BE45D08F
:100590005050800A760F41E280D9E9EC0CF05050BF
:1005A000300F3E6E3E500FEC0CF05068110E2C6E6A
:1005B0001200501801E15FD7120050BE2ED05050EB
:1005C000800A760F2AE25050300F3F6E3F500FECFA
:1005D0000CF050683A0E0FEC0CF0120EE8D750BE3B
:1005E0001CD05050800A760F18E25050300F406EE9
:1005F00040500FEC0CF05068130ED9D750BE0DD000
:100600005050800A760F09E25050300F416E415031
:100610000FEC0CF05068140ECAD70A0ECAD70B0E96
:100620005018FBE13E0E636ECFEC0CF0506823D700
:100630000A0E501803E15CEC0EF003E23EEC0EF003
:1006400007E38AEC0DF0D4EC0EF0160E2C6E160CAF
:100650005050800A7F0F09E35050800A760F05E260
:10066000505072EC0EF0506859D74EBE12004E50EA
:1006700076EC0EF04E6852D7D0EC0EF00009D8B4EC
:1006800012000B0E96D75CEC0EF0D8A01200C6EC50
:100690000EF02F1801E12F6A000E6B6EE9EC0CF0E2
:1006A0002F50C9EC0DF0F4D856EC0EF02F2A180E8E
:1006B0002C6E180C5CEC0EF0D8A01200C6EC0EF0FC
:1006C0002F600BD0EAD8E9EC0CF02F50C9EC0DF0FC
:1006D000DFD856EC0EF02F2A01D02F6A190E2C6E9F
:1006E000190C5CEC0EF0D8A01200C6EC0EF02F181E
:1006F00001E12F6A000E6B6E100EE9EC0CF02F502A
:10070000C9EC0DF0C5D856EC0EF01A0E2C6E1A0C72
:100710005CEC0EF0D8A01200C6EC0EF0726E736A9C
:100720002F50746E756A742A000E75227250745CB4
:100730007550800A766E7350800A76580BE2010E6F
:100740006B6E100EE9EC0CF02F28C9EC0DF0A0D860
:1007500056EC0EF01B0E2C6E1B0C305041EC0DF0C5
:1007600064BE08D0910E635C010E645803E31D0E55
:100770002C6E1D0C0B0E5018D8A412002F6A7BD6BD
:100780000F0E2D6405D08AEC0DF0170E2C6E170C91
:10079000100E2D60100C3050E5EC0DF0B3EC0EF0A7
:1007A0002D2A1C0E2C6E1C0C5CEC0EF0D8A0120036
:1007B0003050E5EC0DF02D6AF4D744EC0EF0E5E294
:1007C00012002C50726E736A7350D8A412007250CB
:1007D00001E192D5010A01E198D5030A01E1A4D50E
:1007E000010A01E1B1D5070A01E1B9D5010A01E128
:1007F000C4D5030A01E1D0D5010A01E1E3D50F0A0E
:1008000001E1FDD5010A01E110D6030A01E129D673
:10081000010A01E130D6070A01E132D6010A01E1FD
:100820003BD6030A01E190D6010A01E1A0D61F0AD6
:1008300001E1A9D6010A01E1C0D6030A01E1CFD640
:10084000010A01E1DBD6070A01E1E9D6010A01E16B
:10085000EFD6030A01E110D7010A01E114D70F0A0C
:1008600001E128D7010A01E13CD7030A01E150D791
:10087000010A9AE0070A01E170D7010A81E0030A40
:100880009CE01200666E6650D8A4020E676E1200DD
:1008900063C066F064C067F01200010E6B6E000C5E
:1008A00050684F68316A1200312A50684F68120050
:1008B0000BD1110E196010D078A20ED0000E6B6E05
:1008C000E9EC0CF032D9726E72C066F033D956EC96
:1008D0000EF0050E1F6E050C100E1964100C78A298
:1008E000100C1F2A12000F0E1E6414D01D2A4C2A51
:1008F0001CD94C24726E0ED901E14C6A16D91D2404
:10090000726E08D901E11D6A1E6A1DC01BF0060E39
:100910001F6E060C100E1E60100C000E6B6E1E502B
:10092000E9EC0CF002D91B24726EF4D80FEC0CF039
:100930001E2A1B2AFAD81B24726EECD8D8B41B6A64
:100940001200040E206010D0CCD71F6A12005CEC9D
:100950000EF006E3040E206003D0070E1F6E070C96
:100960005CEC0EF0D8A01200030E2064030CEDD74F
:1009700078B078A21200196A186A000E6B6EE9EC62
:100980000CF01D6A0F0E4C6E1C6A0F0E4B6E1E6A29
:100990001B6A1A6A7890A5D7C8D81924726EBAD87B
:1009A00004E1030E206401D09CD7BFD81924726ED5
:1009B000B1D802E0192A1200040E2060040CB5D848
:1009C0001924726EA7D8D8A412000D0E1F6E0D0C3C
:1009D000110E186015D078A213D04DEC04F0E9EC9C
:1009E0000CF020501D0DF3CF72F01D0E72267250C8
:1009F000010F736E73C066F09DD856EC0EF071D780
:100A0000100E1864100C78A2100C090E1F6E090C41
:100A1000100E1E6014D0010E6B6E1E50E9EC0CF02F
:100A200084D81A247ED876D80FEC0CF01E2A1A2A05
:100A30007CD81A2476D86ED8D8B41A6A12000F0E51
:100A40001E640F0C1C2A4B2A70D84B246AD862D81B
:100A500001E14B6A6AD81C2464D85CD801E11C6AA5
:100A60001E6A1CC01AF03DD7215041EC0DF064BE47
:100A70000AD065D808E378A078A205D08AEC0DF0FA
:100A8000020E1F6E020C78B078A212008AEC0DF0F4
:100A90005CD72150E5EC0DF024D75CEC0EF0D8A02B
:100AA00012002150E5EC0DF00B0E1F6E0B0C3DD823
:100AB000182437D82FD802E0182A120036D8182464
:100AC00030D828D8DDE012001F50726E736A735060
:100AD000D8A41200725001E14BD7010A01E15CD7A2
:100AE000030A01E1E6D6010A01E1FDD6060A01E1A9
:100AF0002ED7030A01E125D7010A01E169D70F0AC0
:100B0000CCE0010A85E0030AC4E0010AADE0060A70
:100B1000CEE0120072C0F6FF020EF76E0800F5502C
:100B20001200726E1D0E72261D0C20501D0DF3500A
:100B3000010F12006650D8A4020E676E1200B50EA7
:100B4000635C040E64581200C0D048BE12004850C6
:100B500009EC0EF063C009F064C00AF07782779068
:100B6000010E0F6E010CD1D808E1ACA206D0AD6A1F
:100B7000466A8A86020E0F6E020CC7D8D8A4ACA2B1
:100B80001200C3D8AD6E094A0A2A12004B0EAE18E5
:100B9000D8A412007780030E0F6E030C472806E0DE
:100BA000ACA204D047C0ADFF4768F5D7300E46640D
:100BB00009D03A0E466006D0ACA204D046C0ADFFC4
:100BC000466AE9D777B202D0ACB202D09EAA120030
:100BD0008AEC0DF0D70E42EC04F056EC0EF0460E07
:100BE000AD6E466A040E0F6E040C9EAA1200AE5043
:100BF0002CEC0EF01050E5EC0DF0050E0F6E050C10
:100C0000105041EC0DF064BE0FD0BB0E635C090EBA
:100C100064580AE38AEC0DF0AF0E42EC04F056EC97
:100C20000EF0070E0F6E070C105041EC0DF064BE75
:100C300006D0BA0E635C090E6458D8B012009EAAA2
:100C400012005CEC0EF0D8A012004DEC04F0E9ECC0
:100C50000CF0AE500FEC0CF0060E0F6E060C5CECB8
:100C60000EF0D8A01200BEEC0EF055D856EC0EF0E7
:100C7000080E0F6E080C9EAA1200AE500FEC0CF07E
:100C80001050E5EC0DF0B9D75CEC0EF0D8A01200D6
:100C90004DEC04F0E9EC0CF0CF0E42EC04F056EC15
:100CA0000EF0090E0F6E090C5CEC0EF0D8A01200CD
:100CB000B8EC0EF0FA0AD8A41200B6EC0EF02BD85D
:100CC00056EC0EF048680F6A12000F50726E736A8D
:100CD0007350D8A41200725001E137D7010A01E124
:100CE00042D7030A01E152D7010A01E157D7070AA7
:100CF00001E17BD7010A84E0030ABDE0010AAFE00D
:100D00000F0AC2E0010AD0E0120009C0D9FF0AC0F0
:100D1000DAFFDF501200726E72C066F0676A12006E
:100D2000A8D078AC78BA06D078A678B803D0286A6C
:100D3000276A120078AC04D04D68010E266E010CB3
:100D400078AA03D0020E266E020C78A812004DC0BD
:100D500001F00268036804680568066807680868A7
:100D6000010E286E070E2B6002D0276A02D029C020
:100D700027F0050E266E050C2B50285C12E2A10E02
:100D8000636E2850170D000EF324646E010EF420DC
:100D9000656E57EC0CF0000902E128C04DF0282ADE
:100DA000CCD72B502818D8A41200789C266A1200A1
:100DB000080E28180DE02AC063F02850A10F86D82D
:100DC00066EC0DF02A2A2850A10F77D868D8BAD738
:100DD000080E2818D8A41200286A030E266E030CE9
:100DE000080E281811E02AC063F02850980F6ED81A
:100DF00066EC0DF02A2A2850980F5FD8090E682655
:100E0000000E69224CD8E9D7080E2818D8A4120081
:100E1000789A2A2A9F0E2A1802E1100E2A6E292A91
:100E2000080E291801E1296A080E2B1801E02B2A67
:100E3000266A12002B50285C15E24DC068F0696AE2
:100E400068BE690627506818691007E02850010F2E
:100E5000D96EDA6A27C0DFFF282A272A070E2764FF
:100E600088D783D72B502818D8A412007898266AE0
:100E700012002650686E696A6950D8A41200685042
:100E800001E14FD7010A01E177D7030A91E0010A96
:100E9000A7E0070AD8B41200010ACCE01200F35010
:100EA0006826F450692228506824E16E000E6920FB
:100EB000E26EDFCFE7FF282A1200D96EDA6A2950E6
:100EC000170D000E686E010E696E1200D96EDA6A97
:100ED000DF501200BAD0532808E079A006D0525053
:100EE000E5EC0DF0030E376E030C5328D8A4120066
:100EF000525041EC0DF064BE1200BED8D8A01200D2
:100F00005428D8A479A0120054509AEC0EF05468DA
:100F10005168386A376A1200515053180DE1525027
:100F200041EC0DF064BE02D0A7D806E25368392A1E
:100F3000542A020E376E020C5328D8B412005150B6
:100F40005318D8B4120054509AEC0EF0535005E0E8
:100F50005350A80F66EC07F001D0300E546E386A7B
:100F600053C051F0396A5368D5D7070E511808E0BD
:100F7000090E511805E0515003E0050E376E050CBF
:100F8000070E511803E0090E511803E1060E376EE3
:100F9000060C5150D8A41200382A020E381801E16C
:100FA000386A3850420F66EC07F041D05350800A3F
:100FB0007E0F02E2535007E15350800A760F03E29E
:100FC000010E376E010C53500BE05350800A7E0F18
:100FD00007E2542805E15350300F9AEC0EF0C3D7C6
:100FE0005350D8B412005350800A7E0FD8B012006C
:100FF0005428D8B4120054509AEC0EF05468040EE1
:10100000376E040C5350300F9AEC0EF0ACD7040E30
:10101000391808E15150A80FD96EDA6ADF50546EC2
:10102000396A78D7030E391804E15150300F546EE5
:1010300071D7030E396012006DD7040E3918F5E030
:10104000050E3918E7E0040EF5D737506A6E6B6A63
:101050006B50D8A412006A5001E13DD7010A01E1AA
:101060005BD7030A82E0010AA1E0070ACBE0010A8C
:10107000CEE0030AE2E012005A0E635C020E6458EE
:10108000120083A003D06A6A6A2A01D06A6A010E3C
:1010900083A2000E020DF3CF6BF0010E83A4000EAD
:1010A000030DF3CF6CF0010E83A6000E040DF35078
:1010B0006C246B246A24336E58D0335006E18C883C
:1010C0008C9A8C9C346A352A12003350D8B41200A2
:1010D0003650E5EC0DF0030E356E030C335006E18F
:1010E0008C988C8A8C9C010E346EEDD73350D8B41A
:1010F00012003650E5EC0DF0EED7335007E18C9836
:101100008C9A8C8C020E346E356A12003350D8B42F
:1011100012003650E5EC0DF0D6D7365041EC0DF00C
:1011200064BE1200D0D7335003E1010E356E010CBE
:101130003350D8B4120030D88EEC0EF02DD88AEC93
:101140000EF0C1D73350D8A412003650E5EC0DF0A4
:10115000BAD7365041EC0DF0E3D7335003E0050E1B
:10116000356E050C3350D0E0120035506A6E6B6A54
:101170006B50D8A412006A50A0E0010AAFE0030A45
:10118000BCE0010ACAE0070ACEE0010ADBE0030A7C
:10119000E0E0010AE2E012003350030DF350B00F1B
:1011A0003424D96EDA6ADF50120056D0C2B20BD0A6
:1011B000C80EC46008D0320EC46405D0070EC26EDB
:1011C000778E162A52D0C2B20FD0C70EC4640CD08C
:1011D000020E171803E0020EA2EC0EF0020E176EBC
:1011E000070EC26E779EEDD7C2B23FD0330EC460F9
:1011F0003CD0080E171803E0080EA2EC0EF0080E03
:10120000EED7C2B20BD0C80EC46008D0320EC46490
:1012100005D0030EC26E778C160627D0C2B20FD04F
:10122000C70EC4640CD0060E171803E0060EA2EC1D
:101230000EF0060E176E030EC26E779CEDD7C2B28B
:1012400014D0330EC46011D0040E171803E0040E3E
:10125000A2EC0EF0040EEED71650646E656A65506F
:1012600004E16450A3E0010ACCE077BE77AC120041
:101270001750D8B41200FF0EA2EC0EF0176812003F
:101280006F6E03EC0DF03A6E6FC03DF03B6A3C6A46
:101290009498959E949A706A716A6B6A640E6A6EED
:1012A0003A509BEC0DF0030ECBEC0AF06B6A050E86
:1012B0006A6E3A509BEC0DF0030ECBEC0AF03AD874
:1012C0009BEC0DF0030ECBEC0AF034D89BEC0DF048
:1012D000020ECBEC0AF06B6A040E6A6E3A509BEC7D
:1012E0000DF0280ED7EC0DF076EC0CF0080ED7ECD4
:1012F0000DF076EC0CF0010ED7EC0DF096EC0DF045
:101300009BEC0DF076EC0CF0060ED7EC0DF076ECC5
:101310000CF00F0ED7EC0DF0704A712A71BEBDD7DC
:10132000715003E1020E705CB8E376EC0CF00C0E29
:10133000D7EF0DF06B6A010E6A6E3A50120046D07C
:101340004A28D8B412004A5066EC0EF07784020E98
:10135000116E020C77B408D04A68BCEC0EF0BAECFF
:101360000EF08A96116A120012BE09D0125054EC87
:101370000DF06EEC0EF01268010E116E010C38ECDF
:101380000EF012E35CEC0EF00FE3C0EC0EF04DEC4F
:1013900004F0E9EC0CF0BEEC0EF0716E71C066F07A
:1013A000676A56EC0EF0E8D74950800A7F0FD8A044
:1013B00012004950300F6AEC0EF04968DDD732EC6C
:1013C0000EF0D8A01200AAEC0EF0D6D71150716E14
:1013D000726A7250D8A412007150B2E0010ABAE0E9
:1013E000030AEDE01200A96AA69EA69CA680A6B0FC
:1013F000FED7A8CF2BF0A92AA69EA69CA6B0FED702
:10140000A8CF2AF0A92A656A21D0666AA69EA69C62
:10141000A680A6B0FED727D82DD866501BD8662A3E
:10142000080E6664F3D7676AA69EA69CA680A6B03F
:10143000FED719D8090E6326000E64221BD8675008
:1014400009D8672A080E6764EFD7652A2B50655CB8
:10145000DCE312006324D96E000E6420DA6EA8CF9C
:10146000DFFFA92A12006550170D000E636E010EF2
:10147000646E1200F3506326F4506422120030D0E0
:1014800078A41200010E256E236A2450E5EC0DF0BD
:10149000010E226E010C050E256403D07894226A99
:1014A0001200A80E231803E1252A236AF1D724503D
:1014B00041EC0DF022D8D8B012008A802450E5EC1F
:1014C0000DF0020E226E020C245041EC0DF015D8E6
:1014D000D8B012008A902450E5EC0DF0232AD8D71A
:1014E00022506A6E6B6A6B50D8A412006A50C8E032
:1014F000010AD1E0030AE8E0120025506A6E6B6A27
:1015000063506A5C6B50800A6C6E6450800A6C5841
:10151000120038D0155041EC0DF064BE12009FEC63
:1015200005F0D8A012001550E5EC0DF077AA28D0F0
:10153000778859062F0E591803E1390E596E58064F
:101540002F0E581803E1350E586E56062F0E5618FA
:1015500003E1390E566E5506300E55180AE1300E6D
:10156000561807E1300E581804E1300E591801E101
:101570007786142A3B0E146403D0C2EC0EF0146A72
:10158000136A120013506A6E6B6A6B50D8A4120073
:101590006A50C0E01200646E94962FD88B8864A6BF
:1015A00003D0636A632A01D0636A63462DD8F70BC0
:1015B00063188B6E64A403D0636A632A01D0636AE4
:1015C00023D8FB0B63188B6E64A203D0636A632A73
:1015D00001D0636A63468B506318FD0B63188B6EF2
:1015E00064A003D0636A632A01D0636A8B506318D6
:1015F000FE0B63188B6E8B981200949494929490C7
:101600008B9A8C9E8B881200634663468B506318BE
:101610001200FC0EF66E1B0EF76E000EF86E00EE5A
:10162000AAF010EE15F00900F5CFEEFFE550E150FD
:10163000FAE1760EF66E1B0EF76E000EF86E00EEF7
:1016400042F010EE1CF00900F5CFEEFFE550E1503E
:10165000FAE101EE00F0B80EEE6AE806FDE100EEF8
:1016600080F02A0EEE6AE806FDE1796A786A776A08
:1016700000EE01F0410EEE6AE806FDE17A907A9202
:10168000000EF86E000145EF0BF0ACEC0DF019EC1C
:101690000DF0F3EC0DF02DEC0DF092EC0EF096EC5D
:1016A0000EF06AEC07F0F3EC09F086EC0EF0A6EC15
:1016B0000EF013EC0EF082EC0EF07EEC0EF0100E3D
:1016C0006E6E020E40EC09F09EEC0EF095EC0CF004
:1016D0009FEC09F0A4EC05F089EC0AF0D5EC08F0D9
:1016E0007BEC01F078EC0DF03FEC0AF090EC06F0AA
:1016F00058EC04F041EC08F06AEC07F0E7EC0BF072
:10170000E7D7646E64A603D0636A632A01D0636A74
:10171000634625D8F70B63188B6E64A403D0636A05
:10172000632A01D0636A1BD8FB0B63188B6E64A21B
:1017300003D0636A632A01D0636A63468B506318DF
:10174000FD0B63188B6E64A003D0636A632A01D01B
:10175000636A8B506318FE0B63188B6E120063462E
:1017600063468B5063181200646E64AE03D0636AE4
:10177000632A01D0636A634625D8F70B63188B6E22
:1017800064AC03D0636A632A01D0636A1BD8FB0B85
:1017900063188B6E64AA03D0636A632A01D0636AFC
:1017A00063468B506318FD0B63188B6E64A803D0DF
:1017B000636A632A01D0636A8B506318FE0B631857
:1017C0008B6E1200634663468B506318120079A239
:1017D000120018D8F76403D00800F55001D019D8CA
:1017E0000FEC0CF00D4A0E2A0DD8F76403D0080058
:1017F000F55001D00ED80009D8A4120079920D6AD4
:101800000E6A12000DC0F6FF0EC0F7FFF86A010E57
:101810001200F6CFE1FFF7CFE2FFE7501200716E42
:1018200076EC0CF07150B3EC0CF03B2A020E3D1834
:101830000CE1270E3B6409D03B6A3C2A010E3C6454
:1018400001D03C6A0CD8E9EC0CF03C04D8A412009E
:10185000270E3B6401D03B6A02D8E9EF0CF03CC094
:101860006BF03B5012001ED8F2940B4A0C2A480E23
:101870000B5CEE0E0C58D8A01200326A070E3264D0
:1018800001D00DD012EC0DF0DE0407E13250EDEC8A
:101890000DF00B50DE5E0C50DD5A322AEFD70B6A8A
:1018A0000C6A1200DF0ED76E940ED66E940C0AD01E
:1018B00013D86350E16EE26ADE50E61805E1632A50
:1018C000644A652A0ED8F4E107D8DF50666E09D85D
:1018D000676E6650675C120064C0D9FF65C0DAFFAE
:1018E00012006350D96EDA6ADF5012009486948435
:1018F000948294808B9A8C8E3A50E5EC0DF08B8814
:101900008B88000E82B6010E6A6E8B988B988B883E
:101910008B888B988B983A5041EC0DF06350641093
:1019200001E012006A50EBE11200310E0101006F7C
:10193000016B410E176F186B440E2E6F2F6B470E05
:10194000456F466B4A0E5C6F5D6B4D0E736F746B2B
:10195000500E8A6F8B6B540EA16FA26B080E2B6E0C
:10196000030E296E030C656E949694949492949051
:101970008B8A8C9E8B886550B4EC0BF00BD865502D
:1019800081EC0BF000D08B888B98948694849482A1
:10199000948012008B888B988B988B8812006350F0
:1019A000D96EDA6ADF50556E6350D96EDA6AD92A79
:1019B000DF50566E6350D96EDA6A020ED926DF50B8
:1019C000586E6350D96EDA6A030ED926DF50596E0D
:1019D0001200706E6B5004E06F6A400E6E6E02D0A3
:1019E0006E6A6F6A70506E246C6E000E6F206D6EA2
:1019F00076EC0CF06C508009D7EC0DF06BC03CF02D
:101A000070C03BF01200326A05D0322A080E32183C
:101A100001E1FF0C07D8DE04F8E004D8010EDF6E08
:101A2000325012003250030DF350820FD96EDA6A31
:101A30001200636AA96AA86AA69EA69CA684F29E62
:101A4000550EA76EAA0EA76EA682A6B2FED7632A6F
:101A50009F0E6364EFD7F28E9F0CD09EF28EF28CB5
:101A6000F28AF294880ED56E52EC0CF0D58E326A62
:101A7000070E326401D0070C12EC0DF0DF6A322A37
:101A8000F7D7676E0BC068F00CC069F06750EDECDB
:101A90000DF0DECF65F0DDCF66F06550685C636EFB
:101AA00066506958646E1200636E020E631801E19D
:101AB000570C060E631801E1440C080E631801E18F
:101AC000530C040E631801E1410C000C646E63C0FA
:101AD000A9FF64C0A8FFA69EA69CA684F29E550EF0
:101AE000A76EAA0EA76EA682A6B2FED7F28E12002D
:101AF000FA0E4518D8B41200455009E05C2A3A0E97
:101B00005C1803E1300E5C6E5B2A45061200FA0E8B
:101B1000456EFA0C76EC0CF0010ED7EC0DF006D801
:101B20009BEC0DF0000E6B6EE9EF0CF06B6A030E90
:101B30006A6E3A5012006D6E6D50E5EC0DF06D500E
:101B400041EC0DF06A50635C6450800A6C6E6B501F
:101B5000800A6C58F4E31200030E926EE00E936E4E
:101B600093828A968A90C00E946E8F0E956E8C6AC0
:101B7000A68EA69C1200302000FAFFFFFFFFFF0F89
:101B80000FFFFFFFFFFFFFFFFF33303A3030003021
:101B90003000656E6550010FD96EDA6ADF50170D9F
:101BA000000EF324636E010EF420646E1200656E65
:101BB0009496FDEC0AF06550B4EC0BF0CAEC0CF016
:101BC000655081EC0BF0C3EF0CF0636E635005D8E9
:101BD0000BC0DEFF0CC0DDFF1200030DF350800FC1
:101BE000D96EDA6A1200240EAC6E900EAB6E080E3F
:101BF000B86E040EB06E100EAF6E100C4144474A22
:101C00004D505457000102030405060708090A0055
:011C10000BC8
:101C1200656E6550170D000EF324636E010EF420FD
:101C2200646E1200010EC26E0D0EC16E090EC06E00
:101C32007F0EC46E7F0C646E6350980FD96EDA6AA1
:101C420064C0DFFF1200646E6350A10FD96EDA6ABE
:101C520064C0DFFF1200636E62EC0EF063C045F0F9
:101C6200120077B002D0D8901200D880120077B854
:101C720002D0D8901200D880120077B602D0D89045
:101C82001200D880120078A802D0D8901200D88012
:101C9200120078BC02D0D8901200D8801200636E75
:101CA200788063C020F07882120066C00DF067C0B1
:101CB2000EF07982120079A202D0D8901200D88058
:101CC2001200300E5B6E5C6E300C636E63C048F0C7
:101CD2001200636E63C046F01200636E63C047F089
:101CE2001200636E63C049F01200636E63C012F0AB
:101CF2001200636E63C04AF0120003EC0DF0106E26
:101D0200120003EC0DF0156E120003EC0DF0246EC0
:101D12001200636E63C053F01200636E63C050F032
:101D2200120003EC0DF0366E120003EC0DF0526E51
:101D32001200636E63C04FF0120003EC0DF0306EC0
:101D42001200636E63C04EF0120003EC0DF0216EC0
:101D52001200778A77961200798053681200799080
:101D620053681200180ED7EF0DF05B0E12004550AB
:101D7200120077921200779A1200550E120077988D
:101D8200120078841200788812002B5012004D50F5
:101D92001200788C1200788A120078821200485061
:0A1DA20012007892120077941200EC
:020000040020DA
:08000000FFFFFFFFFFFFFFFF00
:020000040030CA
:0E000000FF061F1EFF8181FF03C003E00340C7
:00000001FF
